:020000040800F2
:1000000000500020A5060108C9170008CB170008FA
:10001000CD170008CF170008D11700080000000016
:10002000000000000000000000000000D3170008DE
:10003000D517000800000000D7170008D9170008DE
:10004000ED060108ED060108ED060108ED060108C0
:10005000ED060108ED060108ED060108ED060108B0
:10006000E1170008ED060108ED060108ED0601089C
:10007000ED060108ED060108ED060108ED06010890
:10008000ED060108ED060108ED060108ED06010880
:10009000ED060108ED060108ED060108ED06010870
:1000A000ED060108ED060108ED060108ED06010860
:1000B000ED060108ED170008ED060108ED06010840
:1000C000ED060108ED060108ED060108ED06010840
:1000D000ED060108FD170008ED060108ED06010810
:1000E000ED060108ED060108ED060108000000001C
:1000F0000000000000000000000000000000000000
:0C01000000000000000000005FF808F1A3
:10010C0010B5054C237833B9044B13B10448AFF345
:10011C0000800123237010BD0C060020000000009D
:10012C008C25010808B5034B1BB103490348AFF3F9
:10013C00008008BD00000000100600208C2501087E
:10014C0010F8012B11F8013B012A28BF9A42F7D075
:10015C00D01A70472DE9F04188B00025049505951B
:10016C0006950795424B9A6942F004029A619A6986
:10017C0002F004020092009A9A6942F008029A6115
:10018C009A6902F008020192019A9A6942F01002EF
:10019C009A619A6902F010020292029A9A6942F0EC
:1001AC0020029A619B6903F020030393039B314F58
:1001BC0001221321384602F00FFF40F2F31304938F
:1001CC000124059406940226079604A9384602F0E9
:1001DC0017FE4FF00408CDF81080274B05930695B9
:1001EC0004A9384602F00CFE04940595069407F514
:1001FC00806704A9384602F003FE4FF47043049361
:10020C000595069404A9384602F0FAFD40F6010360
:10021C00049305940694079604A9384602F0F0FD61
:10022C0043F20433049305940694079607F580670C
:10023C0004A9384602F0E4FDC02304930595069406
:10024C0004A9384602F0DCFDCDF810800594069424
:10025C00079604A9094802F0D3FD2A46294608202E
:10026C0002F02CFF082002F05DFF08B0BDE8F08121
:10027C000010024000080140000021100014014051
:10028C0070B58AB0002408940994019402940394E4
:10029C000494059406940794114D4FF080432B6001
:1002AC0008266E60AC604FF47A63EB602C61AC6135
:1002BC00284601F078FD0894099408A9284601F015
:1002CC00D1FE60230193029403940594324601A954
:1002DC00284601F0B3FD284601F05CFB0AB070BD66
:1002EC00DC07002030B587B00024029403940494FA
:1002FC000594009401940E4D0E4B2B6023236B60E0
:10030C00AC600923EB602C618023AB61284601F0C3
:10031C0031FD4FF48053029302A9284601F007FEE9
:10032C00009401946946284601F09CFE07B030BD4C
:10033C00280700200004004008B50848084B03605B
:10034C004FF4E133436000238360C36003610C22EC
:10035C0042618361C36101F084FF08BD98070020EE
:10036C000038014070B584B00025019502950395C5
:10037C000D4C0E4B2360A560257325754FF460233F
:10038C00E361656001262661204603F025F90D2303
:10039C0001930296039501A9204602F0A3FF204683
:1003AC0001F0B4FA04B070BD6807002000240140CD
:1003BC0010B50138012809D814464FF47A7392B25B
:1003CC00074801F07DFF40B1002010BD10F08AF904
:1003DC00092303604FF0FF30F7E72046F5E700BF35
:1003EC009807002008B50CF065FC3B2140F6B830AE
:1003FC000CF070FC35214FF4FA600CF06BFC3821DA
:10040C004FF47A700CF066FC08BD000070B5044621
:10041C00232835D8DFE810F0240049005A006C007E
:10042C007E00A5008702B40036035D034604760304
:10043C008F03A903C303DE03F803120461042B0426
:10044C00DA00FB001B013B015B01A401C401E501C7
:10045C0005022502AE02CF02EF02460266027B04C1
:10046C00AB4B00221A7001255D70AA4B1B78AA4A6F
:10047C001370AA4A1370AA4810F0E6F9A94B1D7024
:10048C00A34809F029FC01200EF0FEFB3C200CF0E7
:10049C005BFC3C214FF47A700CF01CFCE4B220465F
:1004AC000EF000FCA04B1C7070BD994A0123137018
:1004BC00022151709D4A127897490A7097494A70E7
:1004CC00984A13709A4810F0BFF9D9E7904B022262
:1004DC001A7003225A70974B1B788F4A13708F4AED
:1004EC009370904B01221A70934810F0ADF9C7E746
:1004FC00874B03221A7004225A70904B1B78864A41
:10050C001370864AD370874B01221A708C4810F0F6
:10051C009BF9B5E77E4B10221A700121597002220B
:10052C009A700322DA7004221A717A4B1E787A4B75
:10053C001E707E4A15785D707E4A107898707F4ADE
:10054C001278DA70754B1E705D709870DA70754B9E
:10055C0000221A705A709A70D9707A4810F074F997
:10056C008EE76B4B20221A7001225A7002229A706D
:10057C000322DA7004221A71734810F065F97FE7D0
:10058C00634B30221A7001225A7002219970032198
:10059C00D970042119715F4B1E785F4B1E70634933
:1005AC000D785D7063490878987064490978D97042
:1005BC005A4B1E705D709870D9705A4B1A7000228D
:1005CC005A709A70614810F03FF959E7504B30223D
:1005DC001A7004225A70012199700222DA700022DA
:1005EC001A71564B1E784C4B1E704A4805785D703C
:1005FC004E4800789870494B1E705D709870494B4E
:10060C0019705A709A70524810F01EF938E7404B26
:10061C0030221A7001225A70022199700321D9706C
:10062C003C4B1D783C4B1D70404908785870414933
:10063C0009789970394B1D7058709970394B1A7034
:10064C0000225A709A70414810F0FEF818E7304BAF
:10065C0030221A7001225A70022199700421D9702B
:10066C002C4B1D782C4B1D70304908785870334931
:10067C0009789970294B1D7058709970294B00217D
:10068C00197059709A70334810F0DEF8F8E6204B68
:10069C0030221A7001225A70032199700421D970EA
:1006AC001C4B1D781C4B1D7022490878587023492F
:1006BC0009789970194B1D7058709970194B00215D
:1006CC00197059709A70244810F0BEF8D8E6104B87
:1006DC0030221A7002225A7001229A700321D970AA
:1006EC00124B1D780C4B1D700A4908785870114933
:1006FC0009789970094B1D7058709970094B1A70D4
:10070C0000225A709A70154810F09EF8B8E600BF97
:10071C00200800201C080020400600207006002045
:10072C0040270108440600202A060020DB07002091
:10073C0054270108260700206827010825070020F8
:10074C007C27010890270108A0270108B027010881
:10075C00CC270108E82701080428010820280108F3
:10076C00B54B30221A7002225A7001229A70042161
:10077C00D970B24B1D78B24B1D70B24908785870C5
:10078C00B14909789970B14B1D7058709970B04B84
:10079C000021197059709A70AE4810F055F86FE638
:1007AC00A54B30221A7002225A7003229A7004222E
:1007BC00DA70A44B1878A24B1870A74A11785970AC
:1007CC00A14A12789A70A14B187059709A70A04B6C
:1007DC0000221A705A7001229A70A04810F034F856
:1007EC004EE6954B30221A7003225A7001229A70F1
:1007FC000221D970984B1D78914B1D709149087846
:10080C0058708E4909789970904B1D70587099707A
:10081C008F4B1A7000225A709A70914810F014F88D
:10082C002EE6854B30221A7003225A7001229A70E0
:10083C000421D970884B1D78814B1D708149087833
:10084C005870814909789970804B1D705870997057
:10085C007F4B0021197059709A7082480FF0F4FF89
:10086C000EE6754B30221A7003225A7002229A70CF
:10087C000422DA70784B1878714B18706F4A117823
:10088C005970714A12789A70704B187059709A702E
:10089C006F4B00221A705A7001229A7072480FF036
:1008AC00D3FFEDE5644B30221A7004225A700122FA
:1008BC009A700321D970644B1D78614B1D7061498E
:1008CC0008785870644909789970604B1D7058709D
:1008DC0099705F4B1A7000225A709A7063480FF02F
:1008EC00B3FFCDE5544B30221A7004225A70022209
:1008FC009A700322DA70544B1878514B18704F4A87
:10090C0011785970544A12789A70504B187059706B
:10091C009A704F4B01221A7000225A709A705448E8
:10092C000FF092FFACE5444B50221A7001225A7022
:10093C00022199700321D97004211971424B1E7840
:10094C003F4B1E703F490D785D703C49087898709C
:10095C0041490978D9703D4B1E705D709870D97003
:10096C003B4B1A7000225A709A70DA7041480FF0A3
:10097C006BFF85E5304B50221A7004225A7001210E
:10098C0099700222DA7000221A712F4B1E782C4BB0
:10099C001E702C4805785D702848007898702B4B99
:1009AC001E705D7098702A4B19705A709A7032488C
:1009BC000FF04AFF64E5204B50221A7004225A7043
:1009CC0001229A700321D9701F4B1D781C4B1D708E
:1009DC001C49087858702049097899701B4B1D7078
:1009EC00587099701A4B1A7000225A709A702348DA
:1009FC000FF02AFF44E5104B50221A7004225A7053
:100A0C0002229A700322DA700F4B18780C4B187074
:100A1C000A4A11785970104A12789A700B4B187058
:100A2C0059709A700A4B01221A7000225A709A70EF
:100A3C0013480FF009FF23E520080020DB070020F6
:100A4C00400600201C08002025070020700600200E
:100A5C00440600203C2801082607002058280108DD
:100A6C007428010890280108AC280108C82801083E
:100A7C00E4280108002901081C290108382901086B
:100A8C0054290108B24B40221A70012159700222DC
:100A9C009A700322DA7004221A71AE4B1E78AE4B98
:100AAC001E70AE4A15785D70AD4A10789870AD4ADC
:100ABC001278DA70AC4B1E705D709870DA70AB4BBC
:100ACC0000221A705A709A70D970A9480FF0BCFEA7
:100ADC00D6E49F4B60221A7001225A700221997041
:100AEC009C4B18789C4B18709C49097859709E4BFC
:100AFC00187059709D4B1A7000225A709D480FF057
:100B0C00A3FEBDE4924B60221A7001225A7004219C
:100B1C009970904B1878904B1870924909785970CD
:100B2C00914B18705970914B002119705A70924862
:100B3C000FF08AFEA4E4864B60221A7004225A70CD
:100B4C0002229A70874B1978834B1970834A12785A
:100B5C005A70854B19705A70844B01221A700022FE
:100B6C005A7086480FF070FE8AE4794B60221A7036
:100B7C0004225A7003229A707A4B1978764B1970AA
:100B8C00774A12785A70784B19705A70774B012249
:100B9C001A7000225A707A480FF056FE70E46C4BB3
:100BAC0060221A7002225A7001229A706B4B1978CB
:100BBC00694B19706748007858706B4B197069490C
:100BCC0009785970694B1A7000225A706D480FF0F1
:100BDC003BFE55E45E4B60221A7002225A700322CF
:100BEC009A705E4B19785C4B19705D4A12785A708A
:100BFC005D4B19705A705D4B01221A7000225A70AD
:100C0C0061480FF021FE3BE4514B60221A70022226
:100C1C005A7004229A70514B19784F4B1970514AE3
:100C2C0012785A70504B19705A70504B00221A702F
:100C3C0001225A7055480FF007FE21E4444B602204
:100C4C001A7001225A7003219970424B1878424B4A
:100C5C001870434909785970434B18705970434BBD
:100C6C001A7000225A704A480FF0EEFD08E4384B17
:100C7C0060221A7003225A7002229A70384B19782B
:100C8C00354B1970354A12785A70374B19705A70A7
:100C9C00364B01221A7000225A703E480FF0D4FDD8
:100CAC00FFF7EEBB2A4B60221A7003225A70042203
:100CBC009A702B4B1978284B19702A4A12785A7053
:100CCC00294B19705A70294B00221A7001225A7044
:100CDC0031480FF0B9FDFFF7D3BB1D4B60221A70E2
:100CEC0003225A7001229A701D4B18781A4B1870F7
:100CFC001849097859701C4B187059701B4B1A7095
:100D0C0000225A7025480FF09FFDFFF7B9BB104B1E
:100D1C0070221A7001225A70022199700321D97025
:100D2C000C4B1D780C4B1D700C49087858700C49F5
:100D3C00097899700C4B1D70587099700B4B1A7088
:100D4C0000225A70DA7016480FF07EFDFFF798BB40
:100D5C00200800201C08002040060020DB07002093
:100D6C0026070020250700207006002044060020DE
:100D7C00702901088029010898290108B029010867
:100D8C00C8290108E0290108F8290108102A0108DE
:100D9C00282A0108402A0108582A0108702A01084B
:100DAC00882A010838B50CF0E7FA044601461648C3
:100DBC000BF0DEFE0CF0E0FA03280BD10CF0DCFAA1
:100DCC00032816D1032C1DD00CF03AFC0F480BF065
:100DDC00CFFE17E00E4D032128460BF0C9FE032071
:100DEC000CF0F0FA0CF0C8FA014628460BF0C0FEE5
:100DFC00E4E708480BF0BCFE07480BF0B9FE074BC4
:100E0C00FF221A7038BD00BFB8260108D826010889
:100E1C00C82601081427010830270108DA0700202A
:100E2C0010B5012826D029480BF0A2FE284C01222F
:100E3C004FF40051204602F0CFF800224FF400612D
:100E4C00244802F0C9F8192002F074FC0022042195
:100E5C00204602F0C1F8192002F06CFC002280211F
:100E6C001D4802F0B9F800200DF00EFF1B4B0122BB
:100E7C001A7010BD1A480BF07BFE154C01224FF472
:100E8C000051204602F0A8F800224FF400611148EE
:100E9C0002F0A2F8322002F04DFC642002F04AFC71
:100EAC0000220421204602F097F8322002F042FC86
:100EBC00A4F5006401224FF48071204602F08CF8F6
:100ECC0000228021204602F087F8CCE73426010866
:100EDC0000100140000C01400008014038060020C1
:100EEC002426010810B514480BF042FE134C0022C6
:100EFC004FF48071204602F06FF8012280212046C9
:100F0C0002F06AF804F5006400224FF40051204608
:100F1C0002F062F801224FF40061094802F05CF81B
:100F2C0001220421204602F057F801200DF0ACFEFE
:100F3C00044B00221A7010BD142601080008014051
:100F4C00000C01403806002008B501224FF48071D6
:100F5C00014802F041F808BD0008014008B5002224
:100F6C004FF48071014802F037F808BD00080140C9
:100F7C0010B5084C00224021204602F02DF800222A
:100F8C002021204602F028F801221021204602F0F0
:100F9C0023F810BD0008014010B588B06023019300
:100FAC000290002303930593054C082201A92046C7
:100FBC0000F044FF0821204601F036F808B010BDBF
:100FCC00DC07002008B5C043C0B2632812D9A0F1D9
:100FDC006403DBB2272B24D900F17403DBB2272B7B
:100FEC0021D900F14C03DBB2272B1ED9DB281ED8EC
:100FFC00002200E04622164B1B78012B1FD1154B0B
:10100C001B78934215D9013B124A1370124B0022E4
:10101C001A70104B1878C0EB001080B2FFF7BCFFB1
:10102C0008BD5A22E7E76E22E5E78222E3E7912228
:10103C00E1E79342EAD20133064A1370E6E7054B27
:10104C00FF221A704FF47A60FFF7A6FFE8E700BFA3
:10105C002B060020020000202806002010B5AB2033
:10106C0002F094FB334B1870B02002F08FFB324B24
:10107C001870AC2002F08AFB304B1870A32002F0E1
:10108C0085FB2F4B1870AA2002F080FB2D4B18709B
:10109C00AD2002F07BFB2C4B1870A02002F076FBED
:1010AC002A4B1870AF2002F071FB294B18702020CE
:1010BC0002F06CFB274B18700CF0D4FA264C207005
:1010CC00A52002F063FB254B1870A62002F05EFBF6
:1010DC00234B1870A72002F059FB224B1870A82044
:1010EC0002F054FB204B18700CF0BCFA2070C92095
:1010FC0002F04CFB1D4C2070CC2002F047FB6070C2
:10110C00CF2002F043FBA070D22002F03FFBE07036
:10111C00D82002F03BFB164C2070D92002F036FB95
:10112C006070DA2002F032FBA070DB2002F02EFBA4
:10113C00E07010BD03000020D9070020B406002089
:10114C00B10600202A080020240700202B060020CE
:10115C00240A0020D80700208B0500201C08002042
:10116C00DB07002026070020250700200C090020A3
:10117C007806002010B5274B1B781BB126480BF0C6
:10118C00F7FC2DE02D200BF0FDFDFFF7ABFE04F07E
:10119C0083F911200BF0D8FDF0E7AB2002F0FAFA3E
:1011AC002B200BF0EFFD04F02BF91C4B1B78012BC3
:1011BC0028D00F200BF0C8FD0F214FF4FA600BF074
:1011CC0089FD11214FF4FA700BF084FD14480BF0DB
:1011DC00CFFC10BD0DF0FCFA0CF0AAF809F066FC7F
:1011EC000CF0D2FE0F4B19780129D6D00DF014F962
:1011FC0004460028EED02B200BF0C4FD20460DF049
:10120C00E7FAE9E7034B1B78002BD2D103F07AF80D
:10121C00CFE700BFCB06002044260108240A00209B
:10122C00542601080300002008B505E009F03EFC37
:10123C0008E00CF0A9FE98B10CF07AF8094B1B7879
:10124C00002BF3D001200DF09FFE0AF0A1FE0DF053
:10125C00E3F8054B1B78002BEBD10DF0B9FAE8E75E
:10126C0008BD00BF8E0600200000002070B590B0B5
:10127C002022002107A80FF06AFA0024019402949E
:10128C000394049405940225069501260A961023CE
:10129C000B930D954FF4E0130F9306A801F018FA79
:1012AC000F2301930295039404940594314601A8ED
:1012BC0001F04EFC10B070BD70B501F0BBF9FFF73A
:1012CC00D5FFFFF78FF8FEF745FFFFF70BFE012068
:1012DC000DF0DAFC2B200BF055FDFEF7D1FFFFF7DC
:1012EC0001F8FFF729F8FFF73DF810F0E7FA10F0D6
:1012FC0061FC10F051FE11F003F84FF47A60FFF727
:10130C004BFEFFF735FE0CF0ADF9434B1870002087
:10131C00FFF786FD0DF052FD322002F00BFA012290
:10132C003E493F4801F03CF83E4C0022102120463B
:10133C0001F052FE00221021204601F04DFE002249
:10134C000121204601F048FE642002F0F3F901224D
:10135C001021204601F040FE01221021204601F010
:10136C003BFE01221146204601F036FE2E4A2F4943
:10137C002F480FF0F5F9002002F0E6F901462D4850
:10138C000FF0EEF92C49302005F014F8FFF70AFDA8
:10139C00FFF764FE0124294B1C705A21204602F0F1
:1013AC00DDF9274B04225A711C720325DD711022C2
:1013BC001A7002269E71002008F026FC204608F0C8
:1013CC0023FC304608F020FC284608F01DFC0CF0ED
:1013DC00FBFE1C4B1B78A3420DD00AF0C5FB012071
:1013EC000EF078FA184800F0B8FB02F04DFD002022
:1013FC000DF04AFC08E00DF00FF80028EDD1FFF7D6
:10140C00A3FDEAE7FFF7B6FE0E4B1B78012BF9D1D3
:10141C00FFF70AFFF6E700BF8B0500204C06002003
:10142C009807002000080140642601087026010876
:10143C007C260108A02601082C8201081D0800202A
:10144C0020080020030000202807002002689C4B85
:10145C009A4200D0704730B49A4A13780133DBB209
:10146C001370994A11680131116098480268013271
:10147C000260632B09D99648036801330360914BD2
:10148C0000201870934B01201860934B18680130A2
:10149C0018601868914B984206D98F4B0020186041
:1014AC008F4B1B78012B20D08E4B9B68DB43C3F3F7
:1014BC0081338D48C4789C4208D045780570857876
:1014CC0045708470C370894B01201860884B1B7861
:1014DC00DBB2012B0FD0B1F57A7F00F08A80B2F528
:1014EC007A7F00F0D28030BC704782480378013399
:1014FC00DBB20370D8E7804B1878C0B27F4B1B78F7
:10150C00DBB2984223D07C4B1B78DBB2212B15D855
:10151C007B4B1B78DBB2012B53D07A4B1B889BB2D5
:10152C0040F2E240834209D9764B1B889BB240F2D1
:10153C00A950834202D8724B01201870714B0020C5
:10154C0018806E4B1B78DBB26B480370C3E76D4899
:10155C00038801339BB2038003889BB243F6982027
:10156C008342B8D9684B1B78DBB21F2B09D9674B68
:10157C001B689BB26648038003889BB2B3F57F4F10
:10158C000FD00023604803705E4803805A480370F4
:10159C005A480370564803705C48036058480370FF
:1015AC0099E75A480368C3F307435A4C23700368FE
:1015BC006FEA1363DBB258480370584B0120187064
:1015CC00DFE7504B1B889BB25A2BA6D94F480368B8
:1015DC005B0803604B4B1B889BB2A02B03D90368A1
:1015EC0043F000430360484803780133DBB20370D7
:1015FC0093E7354B00211960494B9968C94301F0B9
:10160C00C001A3F580639B68DB431B0A03F0300326
:10161C000B4334D0434B1B78032B06D0642B19D0CF
:10162C0040490B7801330B7059E73D4B9B68DB430A
:10163C0003F0C0032B498968C943090A01F0300142
:10164C000B4339490B70394B00211960384B012180
:10165C001960E5E7324B9B68DB4303F0C00321497B
:10166C008968C943090A01F030010B432E490B70FC
:10167C002F4B012119602B4B0A211970D0E7002345
:10168C0028490B7028490B7029E7104B00221A606F
:10169C00284B1B78002B53D0274A1278032A06D0EC
:1016AC00962A07D0244A1378013313701BE7234A78
:1016BC001370F7E7214A13701F4B04221A70F1E7DD
:1016CC00000400409F060020A0060020A406002075
:1016DC00980600209406002050060020A0860100E9
:1016EC0001000020000C0140D00600203C0A002024
:1016FC00310600203C06002048060020320600205F
:10170C003706002034060020360600202C06002068
:10171C0056060020590600205806002030060020EE
:10172C00001001404F060020370A0020300A00202C
:10173C00200A0020D506002054060020250A00208F
:10174C000023024A1370024A1370CCE654060020A0
:10175C00250A002008B502680B4B9A4200D008BD40
:10176C000A490A78531CDBB20B70094908780949FD
:10177C0088541D2B02D9054B00221A7001220449F2
:10178C00054800F00DFEEAE7003801408F06002006
:10179C004C0600207C09002098070020042800D06B
:1017AC007047044B01221A70034A13780133DBB2E1
:1017BC001370F5E731060020320600207047FEE773
:1017CC00FEE7FEE7FEE770477047704708B500F08C
:1017DC0043FF08BD08B5042001F004FC08BD00005F
:1017EC0008B5024800F0CEF908BD00BF280700205C
:1017FC0008B5024800F060FE08BD00BF9807002045
:10180C0082B00E4B9A6942F001029A619A6902F019
:10181C0001020092009ADA6942F08052DA61DB69C7
:10182C0003F080530193019B054A536823F0E06356
:10183C0043F00073536002B0704700BF00100240C9
:10184C000000014002680E4B9A4200D0704700B570
:10185C0083B003F50333DA6942F00202DA61DB6923
:10186C0003F002030193019B002211461D2001F09D
:10187C0025FC1D2001F056FC03B05DF804FB00BFF5
:10188C000004004030B587B0002302930393049307
:10189C00059302681B4B9A4201D007B030BD03F58B
:1018AC0058439A6942F480429A619A6902F48042E0
:1018BC000092009A9A6942F004029A619B6903F0C3
:1018CC0004030193019B4FF40073029302230393CF
:1018DC00032305930C4D02A9284601F091FA4FF40D
:1018EC008063029300240394049402A9284601F017
:1018FC0087FA22462146252001F0E0FB252001F045
:10190C0011FCCAE7003801400008014000B587B05F
:10191C00002302930393049305930268114B9A429C
:10192C0002D007B05DF804FB03F56C439A6942F4EE
:10193C0000729A619A6902F400720092009A9A6994
:10194C0042F010029A619B6903F010030193019B12
:10195C00082302930323039302A9034801F050FACE
:10196C00DFE700BF00240140001001400368B3F121
:10197C00804F00D0704782B003F50433DA6942F02F
:10198C000102DA61DB6903F001030193019B02B0F0
:10199C007047000000B587B00023029303930493B3
:1019AC0005930368B3F1804F02D007B05DF804FBD8
:1019BC0003F504339A6942F008029A619B6903F0BB
:1019CC0008030193019B4FF480630293022303935A
:1019DC00059302A9064801F013FA064A536823F44A
:1019EC00407343F0E06343F400735360DDE700BFE2
:1019FC00000C01400000014070B4036A23F00103A5
:101A0C000362036A4268846924F073040D6845EA32
:101A1C00040623F002048B6823430D4DA84209D021
:101A2C000B4DA8420DD0426086614A684263036246
:101A3C0070BC704723F00803CC68234323F00403E5
:101A4C00EEE722F440724C6914438A692243EAE7B8
:101A5C00002C014030B4036A23F480730362036AE0
:101A6C004268C46924F073040D682C4323F400739A
:101A7C008D6843EA05230F4DA84209D00D4DA842AD
:101A8C000ED04260C4614A68C263036230BC7047C6
:101A9C0023F40063CD6843EA052323F48063EDE768
:101AAC0022F440524D6942EA05128D6942EA051250
:101ABC00E7E700BF002C014030B4036A23F48053E5
:101ACC000362036A4468C26922F4E6420D6842EA82
:101ADC00052223F400538D6843EA0533074DA842D1
:101AEC0006D04460C2614A680264036230BC70472D
:101AFC0024F480444D6944EA8514F2E7002C01403B
:101B0C0010B4036A046A24F001040462846924F0AA
:101B1C00F00444EA021223F00A030B4382610362CD
:101B2C0010BC704710B4036A23F01003036284697D
:101B3C00036A24F4704444EA023223F0A00343EA1B
:101B4C0001138261036210BC7047836823F0700339
:101B5C00194341F00701816070470268D36843F074
:101B6C000103D3600268936803F00703062B03D0CC
:101B7C00136843F0010313600020704770477047EF
:101B8C007047704710B5044603681A6912F0020FCB
:101B9C0011D0DA6812F0020F0DD06FF002021A6148
:101BAC000123037703689B6913F0030F70D0FFF7D1
:101BBC00E6FF0023237723681A6912F0040F12D072
:101BCC00DA6812F0040F0ED06FF004021A610223CF
:101BDC00237723689B6913F4407F5FD02046FFF77F
:101BEC00CEFF0023237723681A6912F0080F12D056
:101BFC00DA6812F0080F0ED06FF008021A61042395
:101C0C0023772368DB6913F0030F4ED02046FFF7D0
:101C1C00B6FF0023237723681A6912F0100F12D035
:101C2C00DA6812F0100F0ED06FF010021A61082350
:101C3C0023772368DB6913F4407F3DD02046FFF700
:101C4C009EFF0023237723681A6912F0010F03D03B
:101C5C00DA6812F0010F36D123681A6912F0800F7E
:101C6C0003D0DA6812F0800F34D123681A6912F0AD
:101C7C00400F03D0DA6812F0400F32D123681A6992
:101C8C0012F0200F03D0DA6812F0200F30D110BD03
:101C9C00FFF774FF2046FFF773FF8AE72046FFF734
:101CAC006DFF2046FFF76CFF9BE72046FFF766FFB2
:101CBC002046FFF765FFACE72046FFF75FFF2046A5
:101CCC00FFF75EFFBDE76FF001021A612046FFF7D8
:101CDC00BDFBC1E76FF080021A61204600F0E6F907
:101CEC00C3E76FF040021A612046FFF74AFFC5E7D1
:101CFC006FF020021A61204600F0D7F9C7E7000008
:101D0C0003681B4A90420AD0B0F1804F07D0A2F56D
:101D1C009432904203D002F58062904203D123F0BA
:101D2C0070034A681343124A90420AD0B0F1804FB4
:101D3C0007D0A2F59432904203D002F58062904213
:101D4C0003D123F44073CA68134323F080034A6918
:101D5C00134303608B68C3620B688362044B984225
:101D6C0002D00123436170470B690363F9E700BF9D
:101D7C00002C0140A8B110B5044690F83D305BB181
:101D8C00022384F83D30211D2068FFF7B9FF0123A1
:101D9C0084F83D30002010BD80F83C30FFF752FD38
:101DAC00EEE701207047A8B110B5044690F83D301D
:101DBC005BB1022384F83D30211D2068FFF7A0FFA2
:101DCC00012384F83D30002010BD80F83C30FFF733
:101DDC00CDFDEEE70120704730B4036A23F0100309
:101DEC000362036A4468826922F4E6420D6842EA9F
:101DFC00052223F020038D6843EA05130E4DA842FB
:101E0C0009D00D4DA8420ED0446082614A688263AD
:101E1C00036230BC704723F08003CD6843EA05139E
:101E2C0023F04003EDE724F440644D6944EA850453
:101E3C008D6944EA8504E7E7002C014038B590F839
:101E4C003C30012B66D00D460446012380F83C3013
:101E5C00022380F83D300C2A1AD8DFE802F007196B
:101E6C001919201919193419191947000068FFF7A5
:101E7C00C3FD2268936943F0080393612268936958
:101E8C0023F0040393612268936929690B439361DE
:101E9C00012384F83D30002084F83C0038BD0068F4
:101EAC00FFF79AFF2268936943F4006393612268F9
:101EBC00936923F48063936122689369296943EAE7
:101ECC0001239361E4E70068FFF7C4FD2268D3693E
:101EDC0043F00803D3612268D36923F00403D36170
:101EEC002268D36929690B43D361D1E70068FFF7F6
:101EFC00E3FD2268D36943F40063D3612268D3699C
:101F0C0023F48063D3612268D369296943EA0123EE
:101F1C00D361BDE70220C1E710B4846824F47F4488
:101F2C0042EA03230B432343836010BC704790F8B1
:101F3C003C30012B66D010B50446012380F83C30B0
:101F4C00022380F83D300268936823F47F4323F02A
:101F5C00770393600B68402B4AD013D9602B3DD08C
:101F6C001ED9702B28D0B3F5005F30D1CB684A68EE
:101F7C0089680068FFF7D0FF2268936843F48043B8
:101F8C00936024E0102B06D004D9202B03D0302BE7
:101F9C0001D01CE0DBB919462068FFF7D6FD16E02E
:101FAC00502B14D1CA6849680068FFF7A9FD50216D
:101FBC002068FFF7CAFD0AE0CB684A6889680068A8
:101FCC00FFF7AAFF2268936843F07703936001231D
:101FDC0084F83D30002084F83C0010BDCA68496884
:101FEC000068FFF79FFD60212068FFF7AEFDEEE76C
:101FFC00CA6849680068FFF783FD40212068FFF735
:10200C00A4FDE4E70220704710B401F01F01012386
:10201C0003FA01F4036A23EA04030362036A8A40A5
:10202C001343036210BC704710B5044601220068CC
:10203C00FFF7EAFF23680A4A93420BD022689368A1
:10204C0003F00703062B03D0136843F0010313605E
:10205C00002010BD5A6C42F400425A64EEE700BFF7
:10206C00002C014090F83C30012B1CD070B40126A0
:10207C0080F83C60022380F83D3002685568936814
:10208C0025F070050C682C4323F080054B682B431E
:10209C0054600268936080F83D60002380F83C3007
:1020AC00184670BC70470220704770477047026832
:1020BC00D36823F49073D3600268536923F001034F
:1020CC005361202380F83A30704790F83930DBB2F6
:1020DC00212B2AD18368B3F5805F16D0036A5A1C72
:1020EC0002621A7803685A60C38C013B9BB2C384AA
:1020FC00EBB90268D36823F08003D3600268D3681D
:10210C0043F04003D36000207047036A1B880268C9
:10211C00C3F30803536003691BB9036A02330362F8
:10212C00E2E7036A01330362DEE702207047002016
:10213C007047000038B504460268136923F4405315
:10214C00C1680B43136183680269134342691A43E4
:10215C000168CB6823F4B05323F00C031343CB601A
:10216C000268536923F4407381690B43536102681D
:10217C00214B9A421FD000F0A5FD00EB800000EB34
:10218C00800063689B00B0FBF3F01C4DA5FB003294
:10219C005109642202FB110213013233A5FB032304
:1021AC005B0903F0F00202EB011203F00F0321684C
:1021BC0013448B6038BD00F095FD00EB800000EB04
:1021CC00800063689B00B0FBF3F00C4DA5FB003264
:1021DC005109642202FB110213013233A5FB0323C4
:1021EC005B0903F0F00202EB011203F00F0321680C
:1021FC0013448B60DEE700BF003801401F85EB51B4
:10220C002DE9F04105460F4616469846069C2B686C
:10221C001B6837EA03030CBF01230023B3421DD113
:10222C00B4F1FF3FF3D02CB100F022FAA0EB080080
:10223C00A042ECD92A68D36823F4D073D3602A68FF
:10224C00536923F001035361202385F8393085F855
:10225C003A30002385F83830032000E00020BDE838
:10226C00F08158B310B5044690F839300BB32423E1
:10227C0084F839302268D36823F40053D3602046A5
:10228C00FFF758FF2268136923F490431361226807
:10229C00536923F02A0353612268D36843F4005333
:1022AC00D3600020E063202384F8393084F83A307E
:1022BC0010BD80F83830FFF7E5FAD8E701207047F9
:1022CC002DE9F04182B01E4690F83930DBB2202B5C
:1022DC0055D104460D469046002955D0002A55D0BC
:1022EC0090F83830012B53D0012380F8383000237C
:1022FC00C363212380F8393000F0BAF90746A4F8FB
:10230C002480A4F8268010E000963B460022802111
:10231C002046FFF775FF00283CD12B882268C3F3B9
:10232C00080353602369C3B90235E38C9BB2B3B184
:10233C00E38C013B9BB2E384A368B3F5805FE3D0ED
:10234C0000963B46002280212046FFF759FF18BB20
:10235C002A7823685A600135E7E70135E5E70096EE
:10236C003B46002240212046FFF74AFF0346A8B90E
:10237C00202284F83920002284F8382000E002233F
:10238C00184602B0BDE8F0810123F9E70123F7E715
:10239C000223F5E70323F3E70323F1E70323EFE736
:1023AC0090F83A30DBB2202B20D109B312B390F85D
:1023BC003830012B20D081628285C2850023C36313
:1023CC00222280F83A2080F838300168CA6842F43A
:1023DC008072CA6001684A6942F001024A61016870
:1023EC00CA6842F02002CA60184670470220704743
:1023FC00012070470120704702207047704708B5D4
:10240C000168CB6823F04003CB60202380F839307F
:10241C00FFF7F4FF002008BD08B590F83A30DBB2A6
:10242C00222B45D18368B3F5805F0ED0036903BBC3
:10243C0003685A68836A591C81621A70C38D013B08
:10244C009BB2C385F3B1002033E0826A036943B9C0
:10245C0003685B68C3F308031380836A02338362E7
:10246C00ECE703685B68DBB21380836A0133836239
:10247C00E4E703685B68826A511C816203F07F03A6
:10248C001370DBE70268D36823F02003D360026883
:10249C00D36823F48073D3600268536923F001037B
:1024AC005361202380F83A30FFF754F9002000E004
:1024BC00022008BD7047000010B50446026813687E
:1024CC00D168526913F00F0005D113F0200F02D020
:1024DC0011F0200F53D1002867D012F0010202D165
:1024EC0011F4907F61D013F0010F06D011F4807FAE
:1024FC0003D0E06B40F00100E06313F0040F04D054
:10250C001AB1E06B40F00200E06313F0020F04D04C
:10251C001AB1E06B40F00400E06313F0080F04D034
:10252C001AB1E26B42F00802E263E26B002A48D077
:10253C0013F0200F02D011F0200F24D123685B6917
:10254C0003F04003E26B12F0080F00D13BB32046BE
:10255C00FFF7ADFD23685A6912F0400F1BD05A6982
:10256C0022F040025A61636B8BB11A4A5A63606B5A
:10257C0000F046FD28B3606B436B984721E0204682
:10258C00FFF74AFF1DE02046FFF746FFD6E720463F
:10259C00FFF790FF15E02046FFF78CFF11E0204677
:1025AC00FFF788FF0023E3630BE013F0800F02D0EA
:1025BC0011F0800F06D113F0400F02D011F0400F34
:1025CC0004D110BD2046FFF780FDFAE72046FFF747
:1025DC0016FFF6E7E525000808B5406A0023C38519
:1025EC00C384FFF767FF08BD10B504460E4B18787F
:1025FC004FF47A73B3FBF0F30C4A1068B0FBF3F0B2
:10260C0000F09EFD68B90F2C01D901200AE00022D0
:10261C0021464FF0FF3000F051FD054B1C600020AF
:10262C0000E0012010BD00BF070000200C000020BE
:10263C000800002008B5074A136843F01003136024
:10264C00032000F029FD0020FFF7CEFFFFF7D8F89C
:10265C00002008BD00200240034A1168034B1B7880
:10266C000B441360704700BF2C08002007000020AB
:10267C00014B1868704700BF2C08002038B5044681
:10268C00FFF7F6FF0546B4F1FF3F02D0044B1B7871
:10269C001C44FFF7EDFF401BA042FAD338BD00BF2E
:1026AC000700002082B0084B1B68084AA2FB0323DA
:1026BC005B0A00FB03F0019000BF019B5A1E0192C4
:1026CC00002BF9D102B070470C000020D34D6210E2
:1026DC00002800F0F58170B582B00446036813F051
:1026EC00010F2CD0AB4B5B6803F00C03042B1DD0FB
:1026FC00A84B5B6803F00C03082B12D06368B3F58E
:10270C00803F41D0002B55D103F1804303F50433B6
:10271C001A6822F480321A601A6822F480221A6035
:10272C0037E09C4B5B6813F4803FE7D0994B1B68F8
:10273C0013F4003F03D06368002B00F0C3812368BF
:10274C0013F0020F76D0934B5B6813F00C0F5FD035
:10275C00904B5B6803F00C03082B54D02369002BBF
:10276C0000F08A808C4B01221A60FFF781FF05462E
:10277C00884B1B6813F0020F75D1FFF779FF401BD4
:10278C000228F5D90320A0E1824A136843F4803370
:10279C001360636843B3FFF76BFF05467D4B1B6803
:1027AC0013F4003FCBD1FFF763FF401B6428F5D92E
:1027BC0003208AE1B3F5A02F09D0764B1A6822F4D6
:1027CC0080321A601A6822F480221A60E1E703F161
:1027DC008043A3F53C331A6842F480221A601A68CD
:1027EC0042F480321A60D4E7FFF742FF0546694B8A
:1027FC001B6813F4003FA2D0FFF73AFF401B64287C
:10280C00F5D9032061E1634B5B6813F4803FA5D1DC
:10281C00604B1B6813F0020F04D02369012B01D00D
:10282C00012052E15B4A136823F0F803616943EA23
:10283C00C1031360236813F0080F32D0A369002B77
:10284C005BD0564B01221A60FFF712FF0546514B25
:10285C005B6A13F0020F21D1FFF70AFF401B02281D
:10286C00F5D9032031E14B4A136823F0F803616971
:10287C0043EAC1031360DDE7474B00221A60FFF700
:10288C00F7FE0546434B1B6813F0020FD2D0FFF73F
:10289C00EFFE401B0228F5D9032016E10120FFF7BB
:1028AC0001FF236813F0040F00F09880394BDB69AB
:1028BC0013F0805F33D1374BDA6942F08052DA6122
:1028CC00DB6903F080530193019B0125344B1B689A
:1028DC0013F4807F25D0E368012B36D0002B4CD12C
:1028EC0003F1804303F504331A6A22F001021A62E1
:1028FC001A6A22F004021A622CE0284B00221A6099
:10290C00FFF7B6FE0546234B5B6A13F0020FC8D0E7
:10291C00FFF7AEFE401B0228F5D90320D5E00025B9
:10292C00D4E71F4A136843F480731360FFF7A0FECB
:10293C0006461B4B1B6813F4807FCCD1FFF798FE27
:10294C00801B6428F5D90320BFE0124A136A43F0B8
:10295C0001031362E3687BB3FFF78AFE06460D4B57
:10296C001B6A13F0020F38D1FFF782FE801B41F275
:10297C0088339842F3D90320A7E0052B12D0054BDE
:10298C001A6A22F001021A621A6A22F004021A620E
:10299C00E0E700BF001002400000424280044242C7
:1029AC00007000404C4B1A6A42F004021A621A6A18
:1029BC0042F001021A62CDE7FFF75AFE0646464B7B
:1029CC001B6A13F0020F08D0FFF752FE801B41F276
:1029DC0088339842F3D9032077E0E5B9E369002BFB
:1029EC0072D03D4A526802F00C02082A56D0022BD3
:1029FC0017D03A4B00221A60FFF73AFE0446364BCA
:102A0C001B6813F0007F47D0FFF732FE001B022833
:102A1C00F5D9032059E0304AD36923F08053D361B0
:102A2C00DCE72E4B00221A60FFF722FE05462A4BEC
:102A3C001B6813F0007F06D0FFF71AFE401B02281C
:102A4C00F5D9032041E0236AB3F5803F1AD022491F
:102A5C004B6823F47413226A606A024313434B607D
:102A6C001E4B01221A60FFF703FE04461A4B1B682B
:102A7C0013F0007F0ED1FFF7FBFD001B0228F5D9E8
:102A8C00032022E0144A536823F40033A1680B435B
:102A9C005360DCE7002018E0002016E0012B16D074
:102AAC000D4B5B6803F48031226A914201D0012006
:102ABC000BE003F47013626A93420AD0012004E025
:102ACC0001207047012000E0002002B070BD012001
:102ADC00FBE70020F9E700BF001002406000424213
:102AEC0010B487B0164C94E80F000DF1180C0CE9DB
:102AFC000F00238AADF80430124B5B6803F00C0214
:102B0C00082A1AD1C3F38342624412F8102C13F42E
:102B1C00803F05D10C4800FB02F007B010BC704799
:102B2C00084B5B68C3F34043634413F8143C0748F9
:102B3C0000FB02F0B0FBF3F0EFE70448EDE700BF59
:102B4C00A42501080010024000093D0000127A0083
:102B5C00002800F0A38070B50446524B1B6803F0AC
:102B6C0007038B420CD24F4A136823F007030B4325
:102B7C001360136803F007038B4201D0012070BD72
:102B8C00236813F0020F17D013F0040F04D0464A39
:102B9C00536843F4E0635360236813F0080F04D0C8
:102BAC00414A536843F4605353603F4A536823F0DF
:102BBC00F003A068034353600D46236813F0010F24
:102BCC0031D06368012B20D0022B25D0364A1268F5
:102BDC0012F0020F64D034494A6822F00302134306
:102BEC004B60FFF745FD06462F4B5B6803F00C036B
:102BFC006268B3EB820F16D0FFF73AFD801B41F2EF
:102C0C0088339842F0D90320B9E7274A126812F4A6
:102C1C00003FE0D10120B2E7234A126812F0007F96
:102C2C00D9D10120ABE71F4B1B6803F00703AB4264
:102C3C000CD91C4A136823F007032B431360136849
:102C4C0003F00703AB4201D0012098E7236813F08F
:102C5C00040F06D0144A536823F4E063E1680B4375
:102C6C005360236813F0080F07D00F4A536823F4FE
:102C7C006053216943EAC1035360FFF731FF0A4BEC
:102C8C005B68C3F30313094AD35CD840084B186044
:102C9C00084B1868FFF7A8FC002070E7012070476C
:102CAC0001206CE70020024000100240A02A01081D
:102CBC000C00002008000020014B1868704700BF72
:102CCC000C00002008B5FFF7F7FF044B5B68C3F35B
:102CDC000223034AD35CD84008BD00BF0010024059
:102CEC00B02A010808B5FFF7E7FF044B5B68C3F394
:102CFC00C223034AD35CD84008BD00BF0010024079
:102D0C00B02A010830B587B00546384C94E80F005E
:102D1C000DF1180C0CE90F00238AADF80430022DCC
:102D2C0050D0102D03D0012D2BD0002054E0304B6F
:102D3C005A681B6813F0807F50D0C2F3834306A9F6
:102D4C000B4413F8100C12F4803F16D0284B5B6820
:102D5C00C3F340430B4413F8142C264BB3FBF2F390
:102D6C0000FB03F0224B5B6813F4800F34D140005E
:102D7C00214BA3FB003040082EE0204B03FB00F05E
:102D8C00F0E71B4B1B6A40F202321A40B2F5817F0E
:102D9C0026D003F44073B3F5007F04D0B3F5407F25
:102DAC0009D0002018E0124A526A12F0020FF5D036
:102DBC0049F6404010E00E4B1B6813F4003F12D153
:102DCC00002009E0FFF78EFF094B5B68C3F38133EA
:102DDC0001335B00B0FBF3F007B030BD0020FBE724
:102DEC004FF40040F8E74FF22440F5E7B82501080E
:102DFC000010024000127A00ABAAAAAA00093D00FA
:102E0C00F0B482B000263246A2E0002D5AD0012D3B
:102E1C0000D1CE68FF2B69D88446FF2B69D895006A
:102E2C00DCF800400F27AF4024EA070406FA05F54A
:102E3C002C43CCF800404C6814F0805F00F0878085
:102E4C005F4CA56945F00105A561A46904F0010476
:102E5C000194019C9508AF1C5A4C54F8274002F081
:102E6C000307BF004FF00F0C0CFA07FC24EA0C0C04
:102E7C00554CA04243D004F58064A04200F0818000
:102E8C0004F58064A0427ED004F58064A04234D066
:102E9C00042435E04D4FBD4214D00BD94C4FBD42EC
:102EAC0010D007F58037BD420CD0A7F58017BD4276
:102EBC00B0D107E0A7F58017BD4203D007F58037E6
:102ECC00BD42A7D18D687DB1012D08D04461082683
:102EDC00A0E7CE6808369DE7CE680C369AE7046109
:102EEC00082697E7002695E7042693E700F1040CE3
:102EFC0093E7A2F10805AD0092E7032400E000245B
:102F0C00BC4044EA0C0402352E4F47F825404C686F
:102F1C0014F4803F39D02F4D2C681C432C604C6826
:102F2C0014F4003F37D02B4D6C681C436C604C681C
:102F3C0014F4801F35D0274DAC681C43AC604C6832
:102F4C0014F4001F33D0234DEC682343EB600132A3
:102F5C000B6833FA02F430D00124944023409C4295
:102F6C00F5D14D68122DB7D094D8022DB1D07FF683
:102F7C004CAF032DB6D0112D7FF44CAFCE68043678
:102F8C0048E70124BCE70224BAE7124D2C6824EA76
:102F9C0003042C60C3E70F4D6C6824EA03046C60D7
:102FAC00C5E70C4DAC6824EA0304AC60C7E7094DD7
:102FBC00EC6824EA0303EB60C9E702B0F0BC70478D
:102FCC0000100240000001400008014000002110E8
:102FDC00000031100004014012B90904016170476E
:102FEC000161704708B5054B5B69034200D108BD10
:102FFC00024B5861FEF7D2FBF9E700BF0004014019
:10300C0008B590F82130022B03D0042383630120F0
:10301C0008BD0268136823F00E031360026813687E
:10302C0023F0010313600368194A934214D014323D
:10303C0093421FD0143293421ED0143293421ED0AE
:10304C00143293421ED01432934202D04FF080724D
:10305C0003E04FF4801200E001220E4B5A60012372
:10306C0080F82130002380F82030436B6BB19847F7
:10307C000020CDE71022F0E74FF48072EDE74FF41B
:10308C008052EAE74FF48032E7E70020C0E700BF48
:10309C000800024000000240074AD36823F4E063B2
:1030AC001B041B0C000200F4E060184340F0BF60EE
:1030BC0040F40030D060704700ED00E030B4174BA6
:1030CC00DB68C3F30223C3F10704042C28BF0424D8
:1030DC001D1D062D18D9033B4FF0FF3505FA04F4DE
:1030EC0021EA0401994005FA03F322EA0303194388
:1030FC0000280BDB0901C9B200F1604000F561400A
:10310C0080F8001330BC70470023E5E700F00F0097
:10311C000901C9B2024B1954F4E700BF00ED00E0FD
:10312C0014ED00E0002807DB00F01F02400901232A
:10313C009340024A42F82030704700BF00E100E0A3
:10314C000138B0F1807F0AD2064B5860064AF02154
:10315C0082F823100020986007221A607047012023
:10316C00704700BF10E000E000ED00E0F0B583B068
:10317C0005460C4600230193FFF77AFA2B689A68F0
:10318C0012F4807F23D106465A6812F4807F03D153
:10319C00DB6A13F4700F24D04B4B1F680220FFF72F
:1031AC00B1FDB7FBF0F02B681969484A11422FD1D9
:1031BC00D96802F15C4211422AD11969444A114280
:1031CC0039D1DA68434B1A4237D029273AE0AB6A37
:1031DC0043F02003AB62002385F82430012003B0B8
:1031EC00F0BD2B681B6813F0020F48D1B4F1FF3F00
:1031FC00F7D024B1FFF73CFA801BA042F1D9AB6A9F
:10320C0043F00403AB62002385F824300320E6E787
:10321C0019692F4A114204D1D96802F16E42114248
:10322C000DD019692C4A0A405AB9DA682A4B134056
:10323C005BB1FC2706E0292704E0142702E05427A1
:10324C0000E0FC2707FB00F704E05427FAE7019B9A
:10325C0001330193019BBB4211D2B4F1FF3FF6D075
:10326C0024B1FFF705FA801BA042F0D9AB6A43F0FA
:10327C000403AB62002385F824300320AFE72B68EE
:10328C006FF012021A60AB6A43F40073AB622B68E6
:10329C009B6803F46023B3F5602F01D000209EE7F8
:1032AC002B7B6BB9AB6A23F48073AB62AB6A13F400
:1032BC00805F07D1AB6A43F00103AB6200208EE75D
:1032CC0000208CE700208AE70C000020244992247F
:1032DC009224491292244900499224000368D86C24
:1032EC007047000030B482B00023019390F8243072
:1032FC00012B00F08B800246012380F824304B68B0
:10330C00062B29D80568686B03EB8303053B1F2448
:10331C009C4020EA04000C6804FA03F303436B633B
:10332C000B68092B38D91568E86803EB43031E3B7F
:10333C0007249C4020EA04008C6804FA03F303433E
:10334C00EB600B68103B012B34D90020002382F872
:10335C00243002B030BC70470C2B0ED80568286B9B
:10336C0003EB8303233B1F249C4020EA04000C68DE
:10337C0004FA03F303432B63D2E70568E86A03EB13
:10338C008303413B1F249C4020EA04000C6804FA90
:10339C0003F30343EB62C3E71568286903EB4303AC
:1033AC0007249C4020EA04008C6804FA03F30343CE
:1033BC002B61C6E713681648834205D0936A43F025
:1033CC00200393620120C1E7986810F4000F1BD111
:1033DC00986840F4000098600B68102B01D0002016
:1033EC00B4E70C4B1B680C49A1FB03139B0C03EBC0
:1033FC0083035900019102E0019B013B0193019B66
:10340C00002BF9D10020A1E700209FE70220A0E7C4
:10341C00002401400C00002083DE1B43806A7047AF
:10342C0030B583B00023019303689A6812F0010F42
:10343C002ED19A6842F001029A60174B1B68174A0A
:10344C00A2FB03239B0C019302E0019B013B019324
:10345C00019B002BF9D10446FFF70AF905462368B6
:10346C009B6813F0010F11D1FFF702F9401B0228E2
:10347C00F5D9A36A43F01003A362E36A43F0010396
:10348C00E362002384F82430012002E0002000E0F5
:10349C00002003B030BD00BF0C00002083DE1B43B6
:1034AC0090F82430012B6AD010B50446012380F823
:1034BC002430FFF7B5FF024600285BD1A36A23F442
:1034CC00407323F0010343F48073A36223682D49F6
:1034DC008B4227D0A16A21F48011A162596811F4A2
:1034EC00806F05D0A16A21F4405141F48051A16252
:1034FC00A16A11F4805F2BD0E16A21F00601E16230
:10350C00002184F824106FF0020119602368996877
:10351C0001F46021B1F5602F1DD0996841F4801140
:10352C0099602AE0A1F58061496811F4702FD1D01F
:10353C00A16A41F48011A1621349496811F4806FAA
:10354C00D6D0A16A21F4405141F48051A162CFE759
:10355C000021E162D4E70B498B4204D0996841F415
:10356C00A001996009E0A1F58061496811F4702F00
:10357C00D3D1F3E7002384F82430104610BD022287
:10358C0010467047002801400024014038B50368FC
:10359C009A6812F0010F01D1002038BD04469A68D8
:1035AC0022F001029A60FFF763F8054623689B68D6
:1035BC0013F0010F0ED0FFF75BF8401B0228F5D972
:1035CC00A36A43F01003A362E36A43F00103E362CE
:1035DC000120E2E70020E0E700287FD038B5044660
:1035EC00836A002B33D02046FFF7D0FFA36A13F079
:1035FC0010036DD100286BD1A26A22F4885222F0FC
:10360C00020242F00202A2626268E1690A43257B6F
:10361C0042EA4502A168B1F5807F21D001291CD076
:10362C00217D01291FD02568696821F469410B436C
:10363C006B6021688D682A4B2B4013438B60A36809
:10364C00B3F5807F20D0012B1ED000211FE0C36278
:10365C0080F82430FEF75AF9C5E74FF48073DFE7A2
:10366C004FF48073DCE735B9A169013943EA413382
:10367C0043F40063D7E7A16A41F02001A162E16A3B
:10368C0041F00101E162CEE72369013B1905256890
:10369C00EB6A23F470030B43EB6223689968114BBC
:1036AC000B409A420BD0A36A23F0120343F0100391
:1036BC00A362E36A43F00103E36201200DE00023FF
:1036CC00E362A36A23F0030343F00103A36204E063
:1036DC00A36A43F01003A362012038BD0120704798
:1036EC00FDF7E1FFFE0E1FFF0F4B1A6842F00102BF
:1036FC001A6059680D4A0A405A601A6822F084729E
:10370C0022F480321A601A6822F480221A605A68F5
:10371C0022F4FE025A604FF41F029A60044B4FF0E1
:10372C0000629A60704700BF001002400000FFF872
:10373C0000ED00E008B5034B1B7803B108BDFEF7A4
:10374C009DFFFBE73008002008B5034B1B780146B2
:10375C0018460EF080FA08BD0500002008B5044B91
:10376C001B780A46014618460EF02AFA08BD00BF1F
:10377C000500002008B5044B1B780A460146184684
:10378C000EF01EFA08BD00BF0600002008B50EF0B2
:10379C007DFB08BD08B50EF052FB08BD10B51C46EC
:1037AC00134622460EF029FA10BD70B588B00446B7
:1037BC000D461646197868460CF0C9FF33466A4622
:1037CC00294620460EF019FA08B070BD10B5C0B0ED
:1037DC0014468DF800008DF8011019460DF1020009
:1037EC000CF0AAFF044B1878A31CDBB26A46FD212F
:1037FC000EF003FA40B010BD0500002038B50546A8
:10380C00002404E00520FEF739FF0134A4B2AC42D9
:10381C00F8D338BD08B50146024B18780EF077F88E
:10382C0008BD00BFDC08002008B50A460146024B63
:10383C0018780EF049F808BDDC08002008B5FEF732
:10384C001DFF08BD08B5014640200EF097FC08BDD1
:10385C0008B50A4601464A200EF0B6FC08BD08B56C
:10386C0013460A46014628200EF041FE08BD08B555
:10387C0013460A46014628200EF048FD08BD0000FC
:10388C00024A137823EA0000107070475A06002091
:10389C00024A137818431070704700BF5A06002074
:1038AC00014B1878704700BF5A06002008B508284D
:1038BC0009D8DFE800F0050505050D0D0D0D090013
:1038CC005220FFF74BFF08BD5720FFF747FFFAE7E1
:1038DC005D20FFF743FFF6E7F8B505460C461746A3
:1038EC005320FFF731FF00F03F065E20FFF72CFF5F
:1038FC0000F03F0104F03F04082D0ED8DFE805F07E
:10390C00050E19242F37424D580031465320FFF72E
:10391C0025FF21465320FFF721FFF8BD46F040015B
:10392C005320FFF71BFF44F040015320FFF716FF15
:10393C00F3E746F080015320FFF710FF44F08001BD
:10394C005320FFF70BFFE8E746F0C0015320FFF7C9
:10395C0005FF44F0C0015320FFF700FFDDE75E20B8
:10396C00FFF7FCFE21465E20FFF7F8FED5E741F09D
:10397C0040015E20FFF7F2FE44F040015E20FFF7AD
:10398C00EDFECAE741F080015E20FFF7E7FE44F050
:10399C0080015E20FFF7E2FEBFE741F0C0015E2030
:1039AC00FFF7DCFE44F0C0015E20FFF7D7FEB4E762
:1039BC0021465820FFF7D2FE07F01F015920FFF7D0
:1039CC00CDFEAAE738B5CDB2090A090101F07001A4
:1039DC00D4B2C2F30222082812D8DFE800F00505A1
:1039EC0005051F1F1F1F120011435420FFF7B6FEC1
:1039FC0029465520FFF7B2FE21465620FFF7AEFEB2
:103A0C0038BD11435A20FFF7A9FE29465B20FFF76A
:103A1C00A5FE21465C20FFF7A1FEF1E711435F20D4
:103A2C00FFF79CFE29466020FFF798FE2146612097
:103A3C00FFF794FEE4E7000070B506460C4614F858
:103A4C00015B1021FD20FFF789FE3146FE20FFF7B8
:103A5C0085FE044B187823462A46FF21FFF79EFE6D
:103A6C0070BD00BF0500002070B582B0064602ACE8
:103A7C0004F8012D0D787021FD20FFF76FFE314603
:103A8C00FE20FFF76BFE044B187823462A46FF21D5
:103A9C00FFF78BFE02B070BD0500002038B5044660
:103AAC000D465320FFF750FE00F03F01A40164B215
:103ABC002143C9B25320FFF751FE5E20FFF744FEAD
:103ACC0000F03F0044EA0001C9B25E20FFF746FE59
:103ADC005120FFF739FE15F0080F01D100F0F70067
:103AEC0020F0070149B205F00F052943C9B2512056
:103AFC00FFF734FE38BD10B504465120FFF724FE05
:103B0C0000F0FD010CB141F0020141F0080151201F
:103B1C00FFF724FE10BD10B504466920FFF714FE14
:103B2C0000F00F0141EA0411C9B26920FFF716FE3B
:103B3C0000215820FFF712FE10BD0000072825D8E1
:103B4C00DFE800F004080C1014181C20114B124A6A
:103B5C001A6070470F4B114A1A6070470D4B104A90
:103B6C001A6070470B4B0F4A1A607047094B0E4A8C
:103B7C001A607047074B0D4A1A607047054B0C4A88
:103B8C001A607047034B0B4A1A607047014B094A85
:103B9C001A60704764060020C86E0108E06E0108C8
:103BAC00D46E0108EC6E0108B06E0108A46E010819
:103BBC00BC6E0108186F010870B48C6884420EDB6F
:103BCC009E681D68761B0B68E41A18D0C01A06FB99
:103BDC0000F696FBF4F42C44146001200DE05D68B3
:103BEC009E68AD1B4B681B1B0BD0041B05FB04F51F
:103BFC0095FBF3F535441560012070BC704700202F
:103C0C00FBE70020F9E708B5413892284BD8DFE8EC
:103C1C0000F0744A4A4A4A4A4A4A4A4A4A4A4A4A72
:103C2C004A4A4A4A4A4A4A4A4A4A4A4A4A4A4A4AE8
:103C3C004A4A4A4A4A4A4A4A4A4A4A4A4A4A4A4AD8
:103C4C004A4A4A4A4A4A4A4A4A4A4A4A4A4A4A4AC8
:103C5C004A4A4A4A4A4A4A4A4A4A4A4A4A4A4A4AB8
:103C6C004A4A4A4A4A4A4C50544A585C4AB04A4A10
:103C7C004A4A4A4A4A4A4A4A4A4A4A4A4A4A4A4A98
:103C8C004A4A4A4A4A4A4A4A4A6460686C4A4A4A18
:103C9C004A4A787C80844A94984A9C704A4A888C18
:103CAC0090A0A4A8AC00002064E01220FFF76EFDE9
:103CBC0060E01320FFF76AFD5CE01420FFF766FD5F
:103CCC0058E01720FFF762FD54E01620FFF75EFD69
:103CDC0050E0A320FFF75AFD4CE0A020FFF756FD63
:103CEC0048E0A420FFF752FD44E0AC20FFF74EFD66
:103CFC0040E0AD20FFF74AFD3CE02020FFF746FDF9
:103D0C0038E0A520FFF742FD34E0A620FFF73EFD8A
:103D1C0030E0A720FFF73AFD2CE0A820FFF736FD96
:103D2C0028E0BC20FFF732FD24E0BD20FFF72EFD7C
:103D3C0020E0BE20FFF72AFD1CE0A220FFF726FDA5
:103D4C0018E0AE20FFF722FD14E0AA20FFF71EFDBD
:103D5C0010E0C020FFF71AFD0CE0C120FFF716FDA4
:103D6C0008E0C220FFF712FD04E0C320FFF70EFDB0
:103D7C0000E07B2008BD000010B584B00C469538DF
:103D8C00052809D8DFE800F0120318081E24134A8E
:103D9C006B4607CA83E807006B4603AA1049204606
:103DAC00FFF70AFF9DF80C0004B010BD0D4A6B46DE
:103DBC0007CA83E80700EFE70B4A6B4607CA83E89C
:103DCC000700E9E7094A6B4607CA83E80700E3E7FF
:103DDC00074A6B4607CA83E80700DDE72800002086
:103DEC008C050020340000205C020020A000002084
:103DFC0068020020F8B501290FD04FF0FF35204B99
:103E0C001C6825441F4B1B68AB4203DC1D4B5B68D5
:103E1C00AB4204DAE4B22046F8BD0125EFE70646D2
:103E2C00ECB22146FFF7A8FF0746A6F1950005283E
:103E3C0008D8DFE800F00A030F07142039463120B8
:103E4C00FFF78CFC0E4B1D60E5E739463220FFF77F
:103E5C0085FCF7E739463320FFF780FCF2E7342086
:103E6C00FFF772FC41B221F03F013943C9B2342053
:103E7C00FFF774FCE6E739464E20FFF76FFCE1E7ED
:103E8C005C0600208C05002010B59620FFF7BBFEC9
:103E9C00C1B29620FFF770FF01463120FFF75EFCA0
:103EAC009720FFF7B0FEC1B29720FFF765FF0146E0
:103EBC003320FFF753FC9520FFF7A5FEC1B29520E8
:103ECC00FFF75AFF01463220FFF748FC9920FFF715
:103EDC009AFEC1B29920FFF74FFF04463420FFF73A
:103EEC0033FC41B221F03F012143C9B23420FFF72A
:103EFC0035FC9A20FFF787FEC1B29A20FFF73CFFF2
:103F0C000446A0214B20FFF729FC21464E20FFF749
:103F1C0025FC10BD08B53F4808F02AFE3E4B1B7827
:103F2C00102B19D007D9502B54D0602B3BD0302BF1
:103F3C0050D0002008BD032BFBD8FFF7B1FC10F0CC
:103F4C00060F04D003210020FFF7A8FDF1E70121A3
:103F5C000020FFF7A3FDECE7FFF7A2FC10F0060F23
:103F6C0010D003210020FFF799FD03210120FFF75A
:103F7C0095FD03210220FFF791FD03210846FFF771
:103F8C008DFDD6E701210020FFF788FD01210846B1
:103F9C00FFF784FD01210220FFF780FD01210320A2
:103FAC00FFF77CFDC5E7FFF77BFC10F0060F08D090
:103FBC0003210020FFF772FD03210120FFF76EFDA6
:103FCC00B7E701210020FFF769FD01210846FFF743
:103FDC0065FDAEE7FFF764FC10F0060F0CD1012174
:103FEC000020FFF75BFD01210846FFF757FD01217B
:103FFC000220FFF753FD9CE703210020FFF74EFD45
:10400C0003210120FFF74AFD03210220FFF746FDA3
:10401C008FE700BF2C6D01084C04002070B592B0E6
:10402C000446614D0EAB95E8070003C31A8005F1F9
:10403C000C0393E803000C908DF834100023ADF8BA
:10404C002E300E238DF8203078238DF821308DF80A
:10405C0022308DF823308DF824308DF825308DF8F2
:10406C0026308DF827308DF828308DF829308DF8D2
:10407C002A308DF82B308DF82C308DF82D308DF8B2
:10408C002E3004AE05F114030FCB07C6338001AB01
:10409C00243595E8070003C31A70444B11AA444910
:1040AC002046FFF789FD11987D2820DC414B83FBCE
:1040BC000023C517C5EB6305EBB206E012AA1A4440
:1040CC00702102F8381C0133DBB20E2BF6D9394AB9
:1040DC0082FB0032C317C3EB620303EBC303C31AA7
:1040EC0012AA134413F8443C154405F8383C012338
:1040FC000AE05A1E12A90A4412F8381C12AA1A44D1
:10410C0002F8281C0133DBB20E2BF2D9632C08D831
:10411C00092C33D812AB1C4414F8103C8DF83330F6
:10412C0022E0254BA3FB04235B0912AA1A4412F8C4
:10413C00102C8DF83120642202FB1344E4B21F4B87
:10414C00A3FB0423DB0812AA1A4412F8102C8DF8D6
:10415C00322003EB83035A00A31ADBB212AA1344D6
:10416C0013F8103C8DF8333008A95520FFF764FC88
:10417C000CA96420FFF760FC12B070BD0F4BA3FBC1
:10418C000423DB0812AA1A4412F8102C8DF83220E2
:10419C0003EB83035A00A31ADBB212AA134413F8DD
:1041AC00103C8DF83330DFE7CC25010810000020DF
:1041BC008C050020398EE3381F85EB51CDCCCCCC4F
:1041CC0070B5BA20FFF71FFD012800D070BDA220EA
:1041DC00FFF7DCFA0028F9D1404BDD78002DF5D142
:1041EC00082214211046FFF777FB40210820FFF727
:1041FC005DFB402284210820FFF7E4FB10E005EB77
:10420C0085039C004034E4B2354E31462046FFF71E
:10421C0013FC022231462046FFF726FC0135EDB295
:10422C00072DECD92F4C21464020FFF705FC02222C
:10423C0021464020FFF718FC2B4C21465420FFF759
:10424C00FBFB022221465420FFF70EFC274C214693
:10425C006820FFF7F1FB062221466820FFF704FCDB
:10426C00234C21467C20FFF7E7FB062221467C20CD
:10427C00FFF7FAFB1F4C21469020FFF7DDFB0622CF
:10428C0021469020FFF7F0FB1B4C2146A420FFF7A2
:10429C00D3FB04222146A420FFF7E6FB174C214652
:1042AC00B820FFF7C9FB04222146B820FFF7DCFB3E
:1042BC00134C2146CC20FFF7BFFB04222146CC2017
:1042CC00FFF7D2FB0620FFF7DBFA1020FFF7E0FA2E
:1042DC000F210020FFF7E2FB78E700BF78060020F3
:1042EC006C71010888700108A0700108B870010891
:1042FC00D0700108E87001080071010818710108FC
:10430C003071010810B51E4808F032FC0122022160
:10431C000820FFF7E1FA40210820FFF7C7FA1B221B
:10432C0030210820FFF74EFB164B1B78012B18D0C1
:10433C00154C21464020FFF77FFB022221464020EE
:10434C00FFF792FB0620FFF79BFAB920FFF75BFC07
:10435C0090B107210020FFF7A1FB0820FFF798FA86
:10436C0010BD0A4C21464020FFF766FB0222214675
:10437C004020FFF779FBE5E70321FFF78FFBECE724
:10438C007C6F0108C8060020C4710108F071010897
:10439C0010B5224B1B78ABB3214B1B78012B10D0E3
:1043AC00022B19D0032B22D0042B35D11D4C2146C6
:1043BC000320FFF741FB042221460320FFF754FBA7
:1043CC002AE0194C21460320FFF736FB0422214634
:1043DC000320FFF749FB1FE0144C21460320FFF795
:1043EC002BFB042221460320FFF73EFB14E0104C6C
:1043FC0021460320FFF720FB042221460320FFF770
:10440C0033FB09E00B4C21460320FFF715FB04227C
:10441C0021460320FFF728FB10BD00BFCB06002070
:10442C00CC060020FC710108047201080872010816
:10443C00F8710108007201082DE9F04F83B00546B0
:10444C0088461746B84A1478C4F3400604F00104B1
:10445C00032B15DCB54B1B78002B00F0B781012B1F
:10446C0009D04FF0E00B4FF4BA7301934FF01B0AD5
:10447C004FF4DF79AEE14FF0250A4FF0F409A9E1D2
:10448C00102B12D0502B6BD0302B00F0B080402B67
:10449C0000F0F480602B00F03181702B00F05E8115
:1044AC004FF0400A4FF0E00994E1A0B99F4B1B7804
:1044BC00002B00F0B681012B08D04FF0630BAD231D
:1044CC0001934FF01B0A4FF0F80983E14FF0250AD6
:1044DC004FF0F4097EE1012812D0022826D0934B2C
:1044EC001B78002B00F0AC81012B34D04FF4AA7B4D
:1044FC0040F2412301934FF4867A4FF4237969E11A
:10450C008A4B1B78002B00F09181012B09D04FF0C6
:10451C00630B40F2412301934FF01B0A4FF42379B4
:10452C0058E14FF0250A40F2763953E17F4B1B7866
:10453C00002B00F08081012B08D04FF4AA7BAD2317
:10454C0001934FF4867A4FF0F80943E140F2911A47
:10455C004FF0F4093EE140F2911A40F2763939E11C
:10456C00A8B9724B1B78002B00F06F81012B09D07E
:10457C004FF0630B4FF4BA7301934FF01B0A4FF4D7
:10458C00DF7927E14FF0250A4FF0F40922E10128E9
:10459C0013D0022840F01E81644B1B78002B00F0D6
:1045AC005E81012B1ED04FF4AA7B40F24123019374
:1045BC004FF4867A4FF423790CE15C4B1B78002B7B
:1045CC0000F04881012B08D04FF4AA7BAD23019356
:1045DC004FF4867A4FF0F809FCE04FF0250A40F2D0
:1045EC007639F7E040F2911A40F27639F2E0A0B950
:1045FC004E4B1B78002B00F03781012B08D04FF06D
:10460C00DF0BAD2301934FF01B0A4FF0F809E1E0EB
:10461C004FF0250A4FF0F409DCE0012813D00228F2
:10462C0040F0D880414B1B78002B00F02781012BE8
:10463C001FD04FF4AA7B40F2412301934FF4867AAA
:10464C004FF42379C6E0394B1B78002B00F0118115
:10465C00012B09D04FF0630B40F2412301934FF033
:10466C001B0A4FF42379B5E04FF0250A40F2763956
:10467C00B0E040F2911A40F27639ABE098B92B4B8E
:10468C001B78002B00F0FF80012B07D04FF0180B8C
:10469C004FF4E2730193DA4699469BE04FF0250AFA
:1046AC0040F2763996E0012810D0022840F0928032
:1046BC001E4B1B78002B00F0F080012B19D040F220
:1046CC00091B30230193DA46994683E0174B1B787C
:1046DC00002B00F0DD80012B06D04FF0180B30239F
:1046EC000193DA46994675E04FF0250A4FF0F4092C
:1046FC0070E040F2911A4FF0F4096BE0C0B90B4B2B
:10470C001B78002B00F0CE80012B08D04FF0DF0B74
:10471C00AD2301934FF01B0A4FF0F8095AE04FF00C
:10472C00250A4FF0F40955E0520400205C080020E3
:10473C00C94B1B78002B00F0BA80012B09D04FF02D
:10474C00DF0B40F2412301934FF01B0A4FF4237906
:10475C0040E04FF0250A40F276393BE080B9BE4B81
:10476C001B78002B00F0A880012B04D04FF0180A06
:10477C004FF030092EE04FF0250A4FF0F40929E0F4
:10478C0001280DD0022825D1B34B1B78002B00F04B
:10479C009D80012B15D04FF0180A4FF4137919E0B6
:1047AC00AD4B1B78002B00F08C80012B04D04FF00C
:1047BC00180A4FF49F790DE04FF0250A40F29E291C
:1047CC0008E04FF0250A4FF4896903E04FF03D0AE9
:1047DC004FF0B409002D40F0C980002E7BD19F4BC7
:1047EC001B78012B00F090809D4B1B78012B00F067
:1047FC009780FFF7CDFD002C40F09E800820FFF73E
:10480C008AF9984B1B78032B00F0D481002E40F0D2
:10481C00F181002C00F0F38101212846FFF73EF9CD
:10482C00D4E14FF03D0A4FF0B409D3E74FF03D0A05
:10483C0040F27449CEE740F25B2A4FF0B409C9E765
:10484C0040F25B2A40F27449C4E74FF03D0A4FF046
:10485C00B409BFE74FF03D0A40F27449BAE740F2A1
:10486C005B2A40F27449B5E74FF03D0A4FF0B409AA
:10487C00B0E74FF03D0A40F27449ABE740F25B2AD7
:10488C0040F27449A6E74FF03D0A40F27449A1E7A3
:10489C004FF03D0A4FF0B4099CE740F25B2A4FF011
:1048AC00B40997E74FF03D0A4FF0B40992E74FF087
:1048BC003D0A40F274498DE74FF03D0A4FF0B409C0
:1048CC0088E74FF03D0A4FF44D7983E74FF03D0AEE
:1048DC0040F2B4597EE7012298F800100020FEF750
:1048EC00FBFF00210846FEF7E1FF41460020FFF7E1
:1048FC00A3F8022241460020FFF7B6F8524649467B
:10490C000020FFF75FF86AE7DFF85C814146012081
:10491C00FFF792F8062241460120FFF7A5F863E75E
:10492C00DFF8488141460520FFF786F80222414610
:10493C000520FFF799F85CE7012239780420FEF78F
:10494C00CBFF18210420FEF7B1FF39461820FFF7E2
:10495C0073F8072239461820FFF786F80BF114027A
:10496C0092B201990420FFF72DF847E7012D31D0C1
:10497C00022D00F09580032D7FF440AF002E40F007
:10498C00E880364BDB78012B00F0FC80344BDB7875
:10499C00012B00F00381FFF7FBFC002C3FF42EAF42
:1049AC00012239780720FEF797FF36210720FEF702
:1049BC007DFF39463620FFF73FF80722394636206F
:1049CC00FFF752F80BF1140292B201990720FEF78F
:1049DC00F9FF13E736BB214B5B78012B48D0204BFA
:1049EC005B78012B50D0FFF7D3FC002C3FF406AFC3
:1049FC00012239780520FEF76FFF22210520FEF7F2
:104A0C0055FF39462220FFF717F807223946222096
:104A1C00FFF72AF80BF1140292B201990520FEF768
:104A2C00D1FFEBE6012298F800101046FEF754FF78
:104A3C0006210120FEF73AFF41460620FEF7FCFF57
:104A4C00022241460620FFF70FF852464946012044
:104A5C00FEF7B8FFBFE700BF5C080020400600204F
:104A6C004406002052040020EC710108F471010886
:104A7C00DFF8B88141460720FEF7DEFF06224146EB
:104A8C000720FEF7F1FFAAE7DFF8A48141460B20CF
:104A9C00FEF7D2FF022241460B20FEF7E5FFA2E70C
:104AAC0036BB5E4B9B78012B3BD05D4B9B78012B2F
:104ABC0043D0FFF76DFC002C3FF4A0AE01223978F7
:104ACC000620FEF709FF2C210620FEF7EFFE3946E3
:104ADC002C20FEF7B1FF072239462C20FEF7C4FF2D
:104AEC000BF1140292B201990620FEF76BFF85E6DA
:104AFC00012298F800100220FEF7EEFE0C21012096
:104B0C00FEF7D4FE41460C20FEF796FF02224146EA
:104B1C000C20FEF7A9FF524649460220FEF752FF31
:104B2C00BFE7DFF8088141460D20FEF785FF06221E
:104B3C0041460D20FEF798FFB7E7DFF8F4804146B9
:104B4C001120FEF779FF022241461120FEF78CFF5F
:104B5C00AFE7012298F800100320FEF7BDFE1221EA
:104B6C000320FEF7A3FE41461220FEF765FF02224A
:104B7C0041461220FEF778FF524649460320FEF7C5
:104B8C0021FFFEE6DFF8A48041461320FEF754FF18
:104B9C00062241461320FEF767FFF7E6DFF8908008
:104BAC0041461720FEF748FF022241461720FEF728
:104BBC005BFFF0E61B4B1B78042B03D11A4B1B78C5
:104BCC00082B0AD005212846FEF768FFB920FFF70D
:104BDC001AF8C8B103B0BDE8F08FBA20FFF713F88C
:104BEC000128EFD1A220FEF7D1FD0028EAD1FFF772
:104BFC00E7FAEBE704212846FEF750FFE6E7002131
:104C0C002846FEF74BFFE1E70F2008F09DF80F2137
:104C1C004FF4FA6008F05EF8DCE700BF40060020B5
:104C2C0044060020CC060020CB060020EC710108C5
:104C3C00F471010870B50D464138922800F2958048
:104C4C00DFE810F07A019300930093009300930037
:104C5C0093009300930093009300930093009300B0
:104C6C0093009300930093009300930093009300A0
:104C7C009300930093009300930093009300930090
:104C8C009300930093009300930093009300930080
:104C9C009300930093009300930093009300930070
:104CAC009300930093009300930093009300930060
:104CBC009300930093009300930093009300930050
:104CCC009300930093009300930093009300930040
:104CDC009300930093009300930093009300930030
:104CEC009300930093009300930093009500A4000D
:104CFC00B3009300C200D1009300BE029300930056
:104D0C0093009300930093009300930093009300FF
:104D1C0093009300930093009300930093009300EF
:104D2C0093009300930093009300930093009300DF
:104D3C009300F400E0000701180193009300930026
:104D4C009300930060018E01A801C20193002E0212
:104D5C004202930056022C0193009300DC01F001F7
:104D6C0004026E0282029602AA02002429E2122098
:104D7C00FEF70CFDBF4B186029469520FFF73AF85B
:104D8C00014604461220FEF705FD1AE21320FEF739
:104D9C00FDFCB84B186029469620FFF72BF801460E
:104DAC0004461320FEF7F6FC0BE21420FEF7EEFC93
:104DBC00B04B186029469720FFF71CF801460446B3
:104DCC001420FEF7E7FCFCE11720FEF7DFFCA94BF3
:104DDC00186029469920FFF70DF801460446172064
:104DEC00FEF7D8FCEDE11620FEF7D0FCA14B1860C5
:104DFC0029469A20FEF7FEFF014604461620FEF7D0
:104E0C00C9FCDEE1A320FEF7C1FC012D0AD0B0FAEB
:104E1C0080F46409E5B22946A320FEF7BBFC964B4F
:104E2C001D70CEE1B0FA80F46409F3E7A020FEF720
:104E3C00ADFC012D09D0B0FA80F46409E1B28F4BBE
:104E4C001970A020FEF7A6FCBBE1B0FA80F464094F
:104E5C00F4E7A420FEF79AFC012D07D0B0FA80F4F9
:104E6C006409E1B2A420FEF795FCAAE1B0FA80F443
:104E7C006409F6E7AC20FEF789FC012D0AD0B0FAE4
:104E8C0080F46409E5B22946AC20FEF783FC7C4B28
:104E9C001D7096E1B0FA80F46409F3E7AD20FEF7DB
:104EAC0075FC012D1BD0B0FA80F46409E5B2754B8A
:104EBC001D70012D17D00D21AE20FEF76BFC724B2F
:104ECC001B78032B14D80121AC20FEF763FC6C4B30
:104EDC0001221A702946AD20FEF75CFC71E1B0FA94
:104EEC0080F46409E2E70021AE20FEF753FCF1E701
:104EFC00654E0023337009F067F93178B020FEF766
:104F0C0049FCE0E7A520FEF741FC012D10D0B0FADA
:104F1C0080F464095D4B1B78A34202D0002004F09E
:104F2C00C7F8E1B2594B1970A520FEF733FC48E1E4
:104F3C00B0FA80F46409EDE72020FEF727FC012D80
:104F4C000AD0B0FA80F46409E5B229462020FEF7B5
:104F5C0021FC4F4B1D7034E1B0FA80F46409F3E787
:104F6C00A620FEF713FC012D10D0B0FA80F46409D2
:104F7C00484B1B78A34202D0012004F099F8E1B20F
:104F8C00444B1970A620FEF705FC1AE1B0FA80F428
:104F9C006409EDE7A720FEF7F9FB012D10D0B0FA5C
:104FAC0080F464093C4B1B78A34202D0022004F02D
:104FBC007FF8E1B2384B1970A720FEF7EBFB00E14C
:104FCC00B0FA80F46409EDE7A820FEF7DFFB012DB1
:104FDC0010D0B0FA80F46409304B1B78A34202D095
:104FEC00032004F065F8E1B22C4B1970A820FEF7F1
:104FFC00D1FBE6E0B0FA80F46409EDE7BC20FEF7E3
:10500C00C5FB012D06D058B1441EE1B2BC20FEF701
:10501C00C1FBD6E0052801D8441CF6E70024F4E7D0
:10502C000624F2E7BD20FEF7B1FB012D06D058B1E6
:10503C00441EE1B2BD20FEF7ADFBC2E0052801D84D
:10504C00441CF6E70024F4E70624F2E7BE20FEF742
:10505C009DFB012D06D058B1441EE1B2BE20FEF7D7
:10506C0099FBAEE0052801D8441CF6E70024F4E7D0
:10507C000624F2E75C060020B10600202B06002077
:10508C00B406002024070020D90700201C080020AB
:10509C00D8070020DB07002026070020250700206A
:1050AC00A220FEF773FB012D06D058B1441EE1B2CD
:1050BC00A220FEF76FFB84E0082801D8441CF6E719
:1050CC000024F4E70924F2E7AE20FEF75FFB012D84
:1050DC0006D058B1441EE1B2AE20FEF75BFB70E087
:1050EC000C2801D8441CF6E70024F4E70D24F2E761
:1050FC00AA20FEF74BFB012D0AD002280ED9441E24
:10510C00E5B22946AA20FEF745FB2F4B1D7058E04F
:10511C00632801D8441CF3E70224F1E76424EFE789
:10512C00C020FEF733FB012D06D058B1441EE1B26E
:10513C00C020FEF72FFB44E0022801D8441CF6E700
:10514C000024F4E70324F2E7C120FEF71FFB012D36
:10515C0006D058B1441EE1B2C120FEF71BFB30E073
:10516C00022801D8441CF6E70024F4E70324F2E7F4
:10517C00C220FEF70BFB012D06D058B1441EE1B244
:10518C00C220FEF707FB1CE0022801D8441CF6E7FE
:10519C000024F4E70324F2E7C320FEF7F7FA012D0D
:1051AC0006D058B1441EE1B2C320FEF7F3FA08E072
:1051BC00022801D8441CF6E70024F4E70324F2E7A4
:1051CC007B24204670BD00BF2A08002070B586B035
:1051DC0006461446474B03AD93E8070003C52A80E7
:1051EC001A6B02929B8EADF8043004EB4403DD0085
:1051FC0035442B7B013B062B39D8DFE803F07238A2
:10520C00723804385A003C4807F0B2FCA87BFEF711
:10521C00FAFCC2B2632A2CD9384BA3FB02135B09EC
:10522C0006A9194411F80C1C8DF80910642101FB16
:10523C001323DBB2324AA2FB0312D20806A9114493
:10524C0011F80C1C8DF80A1002EB820251005B1A4B
:10525C00DBB206AA134413F80C3C8DF80B3004EBAC
:10526C008404A000513002A9C0B2FEF7E5FB06B0E1
:10527C0070BD092A15D9224BA3FB0213DB0806A922
:10528C00194411F80C1C8DF80A1003EB8303590018
:10529C00531ADBB206AA134413F80C3C8DF80B30EE
:1052AC00DDE7C0B206AB184410F80C3C8DF80B309F
:1052BC00D5E7144807F05CFCA87BFEF7A4FC296931
:1052CC004A7804EB8404A3009B1ADBB2C0B202FB45
:1052DC0000F2023203F155001144C0B2FEF7ACFBF0
:1052EC00C5E704EB8404A000533001A9C0B2FEF75B
:1052FC00A3FBBCE7CC250108506D01081F85EB51C1
:10530C00CDCCCCCC586D0108F8B508221421104630
:10531C00FEF7E2FA40210820FEF7C8FA7222762145
:10532C000820FEF74FFB002510E005EB85039C00E1
:10533C004034E4B21B4E31462046FEF77DFB022280
:10534C0031462046FEF790FB0135EDB2072DECD926
:10535C0000241CE004EB840295004035EDB204EB14
:10536C004402D600334459682846FEF765FB0E4FBD
:10537C003B683344022259682846FEF775FB00232C
:10538C00224619463868FFF721FF0134E4B2064B78
:10539C001B685A78A242DDD8422204494020FEF70D
:1053AC0063FBF8BD6C71010834080020847101089E
:1053BC0008B5012810D1114B1878302809D006D91E
:1053CC00502806D0602817D103F08EFC14E010286A
:1053DC0012D103F089FC0FE00121B820FEF7BEF9D1
:1053EC000121B920FEF7BAF90221B820FEF7B6F96F
:1053FC000121B920FEF7B2F908BD00BF4C04002012
:10540C0010B5234C2178234807F0B2FB2378102BDE
:10541C001ED015D9502B03D0602B2DD0302B15D18D
:10542C0005210020FEF73AFB05210120FEF736FB93
:10543C0005210220FEF732FB0120FFF7B9FF05E042
:10544C00032B03D805210020FEF728FB002010BDFC
:10545C0005210020FEF722FB05210120FEF71EFB93
:10546C0005210220FEF71AFB05210320FEF716FB8F
:10547C000120FFF79DFFE9E705210020FEF70EFB59
:10548C0005210120FEF70AFB0120FFF791FFDDE764
:10549C004C040020686F010808B5334807F068FB1E
:1054AC0005210020FEF7FAFAFEF7FAF910F0200FAA
:1054BC0023D02E4B19782E4B5B5C012B0AD02D4B35
:1054CC001B78D3B1294B1B78032B13D8DFE803F0DF
:1054DC000C31373E192007F005F901211B2007F08C
:1054EC0001F906F055FDEAE7234B01221A70002062
:1054FC0003F0DEFD1F4B00221A703620FEF7C0F9B8
:10550C00FFF77EFF0F2007F01FFC0F214FF4FA600E
:10551C0007F0E0FB0E2007F017FC08F055FE174BC8
:10552C001B78012B19D00020154B1870154B1870D7
:10553C0008BD0120144B187003F0BAFDDAE7134BC9
:10554C0001221A70022003F0B3FDD3E7104B0122A5
:10555C001A70032003F0ACFDCCE70E4B1B78002B2C
:10556C00E1D1FEF7CFFEDEE73C6D0108D907002044
:10557C0078060020E50800201C080020240A0020E2
:10558C00B3060020B2060020DB070020260700200F
:10559C0025070020CB06002010B50446014606481E
:1055AC0007F0E6FA9B2C01D0012010BDFFF774FF29
:1055BC0007F024FFF8E700BF646D010810B53C4B01
:1055CC001B7813F0040F26D03A4C2078FEF726FDFA
:1055DC0021783820FEF7DEF80420FEF759F90A216D
:1055EC000020FEF75BFA0A210120FEF757FA0A2188
:1055FC000220FEF753FA0A210320FEF74FFA00208F
:10560C00FFF7D6FE0E2007F09FFB0E2140F6B830B8
:10561C0007F060FB10BD00210846FEF73FFA0021A1
:10562C000120FEF73BFA00210220FEF737FA002199
:10563C000320FEF733FA032214210820FEF74CF95D
:10564C0040210820FEF732F94FF4B4728021082073
:10565C00FEF7B8F9184C21464020FEF7EDF902226E
:10566C0021464020FEF700FA144C21465420FEF748
:10567C00E3F9022221465420FEF7F6F9104B1B7871
:10568C00012B0AD00F4C21466820FEF7D5F90222D7
:10569C0021466820FEF7E8F996E70B4C2146682076
:1056AC00FEF7CAF9022221466820FEF7DDF98BE7E6
:1056BC005A0600208B050020F8720108D8720108E8
:1056CC00B30600206C7101081073010810B5BB20E3
:1056DC00FEF799FA012838D0012214210820FEF790
:1056EC00FBF840210820FEF7E1F84FF4B6724FF4B6
:1056FC0090710820FEF766F9214C21464020FEF7F8
:10570C009BF9022221464020FEF7AEF90620FEF757
:10571C00B7F80A210020FEF7C1F90A210120FEF793
:10572C00BDF90A210220FEF7B9F90A210320FEF780
:10573C00B5F90020FFF73CFE0E2007F005FB0E210B
:10574C004FF4FA6007F0C6FA10BD012214210820AC
:10575C00FEF7C2F840210820FEF7A8F84FF4B67205
:10576C004FF49A710820FEF72DF9064C2146402083
:10577C00FEF762F9042221464020FEF775F9C5E7D1
:10578C000C720108D471010870B500210846FEF7AF
:10579C0085F900210120FEF781F900210220FEF796
:1057AC007DF900210320FEF779F90020FFF700FEB8
:1057BC000A2202210820FEF78FF840210820FEF76C
:1057CC0075F840224FF437710820FEF7FBF80024DF
:1057DC0011E004F120056D00EDB20D4B53F824607F
:1057EC0031462846FEF728F9022231462846FEF7B4
:1057FC003BF90134E4B2092CEBD90620FEF740F852
:10580C002020FEF745F80220FEF775F970BD00BFA9
:10581C00E46F0108F8B500210846FEF73FF90021B6
:10582C000120FEF73BF900210220FEF737F9002199
:10583C000320FEF733F90020FFF7BAFD2E4807F0DE
:10584C0097F92E4B2E4A1A60082214211046FEF7A7
:10585C0043F840210820FEF729F87222762108200F
:10586C00FEF7B0F8002510E005EB85039C004034F2
:10587C00E4B2244E31462046FEF7DEF802223146D1
:10588C002046FEF7F1F80135EDB2072DECD90A21CF
:10589C005120FDF763FF6420FDF74CFF002417E057
:1058AC0004EB84039D004035EDB204EB4403DE00B1
:1058BC00124F3B68334459682846FEF7BDF83B68E5
:1058CC003344022259682846FEF7CEF80134E4B27C
:1058DC00042CE5D942220C494020FEF7C5F80B4BAD
:1058EC0001221A7000230A4A13600A4A137002201C
:1058FC00FDF7CEFFF8BD00BF246F0108340800206F
:10590C00740200206C71010884710108390A0020AE
:10591C00B8060020350A002070B50446184B1B78D9
:10592C0003EB4303DA00174B1B6813441A7B052A5D
:10593C0002D0072A0DD070BD0146987BFFF77AF98B
:10594C0000230F4A127819460E480068FFF73EFCF8
:10595C00F1E70D4807F00CF90A4D094E337803EBCB
:10596C004303DA002B6813442146987BFFF762F956
:10597C000023327819462868FFF728FCDBE700BFC4
:10598C00350A002034080020946E01080C4B1B785B
:10599C0003EB4303DA000B4B1B689B5C023B082BAD
:1059AC000DD8DFE803F00505050C0909090505000C
:1059BC00044B054A1A607047024B044A1A60704740
:1059CC00350A0020340800207402002094030020C3
:1059DC0038B5B44B1B680BB3023812281ED8DFE85D
:1059EC0010F0C900D400DF0034001D00EF000401EA
:1059FC0018011D0013001E0029001D00CC0100021F
:105A0C0049019801340264025422A7497620FEF71A
:105A1C002BF80222A5496920FEF726F838BD54223E
:105A2C00A2496920FEF720F802229F497620FEF752
:105A3C001BF8F3E702229D496920FEF715F80222B4
:105A4C0099497620FEF710F8E8E7994B1B6873B379
:105A5C0000243EE004EB8403980040300222954978
:105A6C0000F0FC00FEF700F80134E4B2924B1B6826
:105A7C005A78A2421ED904EB4401CA0013441B7D80
:105A8C00884A12689342E5D813339A42E2D804EB61
:105A9C008403980040305222864900F0FC00FDF748
:105AAC00E3FF864B1C70864B1C700025DCE7012540
:105ABC000024DBE7002DB1D0804B00221A70ADE73B
:105ACC007F4A137003E07D4B1B78A34227D101342E
