:020000040800F2
:1000000000500020DD280108091F00080B1F000810
:100010000D1F00080F1F0008111F0008000000003E
:10002000000000000000000000000000131F000896
:10003000151F000800000000171F0008191F000806
:100040002529010825290108252901082529010854
:100050002529010825290108211F00082529010853
:100060002529010825290108252901082529010834
:100070002529010825290108252901082529010824
:100080002529010825290108252901082529010814
:100090002529010825290108252901082529010804
:1000A00025290108252901082529010825290108F4
:1000B000252901082D1F00082529010825290108E7
:1000C00025290108252901082529010825290108D4
:1000D000252901083D1F00084D1F0008252901089A
:1000E000252901082529010825290108000000000B
:1000F0000000000000000000000000000000000000
:0C01000000000000000000005FF808F1A3
:10010C0010B5054C237833B9044B13B10448AFF345
:10011C0000800123237010BDCC09002000000000DA
:10012C004C46010808B5034B1BB103490348AFF318
:10013C00008008BD00000000D00900204C460108DA
:10014C002DE9F04188B00025049505950695079595
:10015C00414B9A6942F004029A619A6902F00402D6
:10016C000092009A9A6942F008029A619A6902F028
:10017C0008020192019A9A6942F010029A619A69F6
:10018C0002F010020292029A9A6942F020029A61DD
:10019C009B6903F020030393039B304F012213212F
:1001AC00384603F0FBFA40F2F31304930124059450
:1001BC0006940226079604A9384603F003FA049421
:1001CC00274B0593069507F5006704A9384603F0FD
:1001DC00F9F9049405950694DFF88C8004A940463F
:1001EC0003F0F0F94FF4704304930595069404A9B9
:1001FC00404603F0E7F940F6010304930594069496
:10020C00079604A9404603F0DDF943F20733049343
:10021C0005940694079604A9384603F0D3F9C02335
:10022C0004930595069404A9384603F0CBF90423EE
:10023C00049305940694079604A90A4803F0C2F99E
:10024C002A462946062003F01BFB062003F04CFB34
:10025C0008B0BDE8F08100BF00100240000801406A
:10026C000000211000140140000C014070B58AB050
:10027C000024089409940194029403940494059422
:10028C0006940794114D4FF080432B6008266E6046
:10029C00AC604FF47A63EB602C61AC61284602F0E1
:1002AC0062F90894099408A9284602F0BBFA602365
:1002BC000193029403940594324601A9284602F056
:1002CC009DF9284601F046FF0AB070BDC00B002016
:1002DC0030B587B0002402940394049405940094E0
:1002EC0001940E4D0E4B2B6023236B60AC600923E5
:1002FC00EB602C618023AB61284602F01BF94FF4B4
:10030C008053029302A9284602F0F1F9009401945B
:10031C006946284602F086FA07B030BD040B00206F
:10032C000004004008B50848084B03604FF4E13363
:10033C00436000238360C36003610C2242618361CC
:10034C00C36102F06EFB08BD780B00200038014041
:10035C0008B50848084B03604FF4E13343600023B1
:10036C008360C36003610C2242618361C36102F04C
:10037C0058FB08BD000C00200044004070B584B050
:10038C0000250195029503950D4C0E4B2360A5603D
:10039C00257325754FF46023E361656001262661A2
:1003AC00204603F0FBFC0D2301930296039501A953
:1003BC00204603F079FB204601F088FE04B070BDA6
:1003CC00480B00200024014010B50138012809D841
:1003DC0014464FF47A7392B2074802F051FB40B1C5
:1003EC00002010BD12F09AFA092303604FF0FF3081
:1003FC00F7E72046F5E700BF780B002000B583B087
:10040C0002A901F8010D4FF6FF730122024802F018
:10041C0037FB03B05DF804FB000C002008B50EF0B0
:10042C006FFC3E2140F6B8300EF07AFC37214FF4C9
:10043C00FA600EF075FC3A214FF47A700EF070FCF5
:10044C0008BD0000F8B50446362848D8DFE810F09F
:10045C0037005E006F0081009300A400CB00B10256
:10046C00DA006003FE051707180632064D069006E3
:10047C00AC06C706E2063207FC06FF00210141016B
:10048C0061018101CE01EE010F022F024F02D80251
:10049C00F9021903700290024C078703A703C703E4
:1004AC00E7030704270448046A048B04AC04F4042F
:1004BC0015053605570578059A05BB05DC05B54BC2
:1004CC0000221A7001255D70B34B1B78B34A137070
:1004DC00B34A1370B34812F0D3FAB34B1D70AD4846
:1004EC000BF04EFB012011F077F804F035FA3F20A9
:1004FC000EF050FC3F214FF47A700EF011FCE4B278
:10050C00204611F077F8A94B1C70F8BDA14A0123C5
:10051C00137003215170A64A1278A0490A70A049A1
:10052C004A70A14A1370A34812F0AAFAD7E7994B64
:10053C0002221A7004225A709F4B1B78974A137030
:10054C00974A9370984B01221A709C4812F098FAB3
:10055C00C5E7904B03221A7002225A70984B1B78F5
:10056C008E4A13708E4AD3708F4B01221A709548A5
:10057C0012F086FAB3E7874B04221A705A70924B2A
:10058C001B78864A1370864AD370874B01221A70E7
:10059C008E4812F075FAA2E77E4B10221A700121D8
:1005AC00597003229A700422DA7002221A717A4B63
:1005BC001E787A4B1E707E4A15785D707E4A1078D4
:1005CC0098707F4A1278DA70754B1E705D70987057
:1005DC00DA70754B00221A705A709A70D9707C4878
:1005EC0012F04EFA7BE76B4B20221A7001225A70E4
:1005FC0003229A700422DA7002221A71754812F0E2
:10060C003FFA6CE7634B30221A70012159700322B8
:10061C009A700422DA7000221A715F4B1F785F4BBC
:10062C001F70634806785E70634805789D70644857
:10063C000078D8705A4B1F705E709D70D8705A4BF2
:10064C0019705A709A70644812F01AFA47E7514BB5
:10065C0030221A7002225A7001229A700321D9702A
:10066C0004211971564B1D784C4B1D704A49087862
:10067C0058704F4909789970494B1D705870997092
:10068C00494B1A7000225A709A70544812F0F8F9BB
:10069C0025E7404B30221A7001225A7003219970C1
:1006AC000421D9703C4B1D783C4B1D704049087897
:1006BC005870414909789970394B1D705870997070
:1006CC00394B1A7000225A709A70434812F0D8F9BC
:1006DC0005E7304B30221A7001225A7003219970B1
:1006EC000221D9702C4B1D782C4B1D703049087889
:1006FC005870334909789970294B1D70587099704E
:10070C00294B0021197059709A70354812F0B8F9BC
:10071C00E5E6204B30221A7001225A7004219970A0
:10072C000221D9701C4B1D781C4B1D702249087876
:10073C005870234909789970194B1D70587099702D
:10074C00194B0021197059709A70264812F098F9BB
:10075C00C5E6104B30221A7003225A7001229A708F
:10076C000421D970124B1D780C4B1D700A49087866
:10077C005870114909789970094B1D70587099700F
:10078C00094B1A7000225A709A70174812F078F9B7
:10079C00A5E600BF440C0020400C0020100A0020ED
:1007AC00480A002028480108140A0020F9090020F2
:1007BC00BC0B00203C480108020B002050480108EB
:1007CC00010B002064480108BB0B0020784801088D
:1007DC008C4801089C480108AC480108C84801082D
:1007EC00E4480108004901081C490108B54B3022B6
:1007FC001A7003225A7001229A700221D970B24BDE
:10080C001D78B24B1D70B24908785870B1490978FF
:10081C009970B14B1D7058709970B04B00211970C4
:10082C0059709A70AE4812F02BF958E6A54B30224D
:10083C001A7003225A7004229A700222DA70A44BA6
:10084C001878A24B1870A74A11785970A14A1278DF
:10085C009A70A14B187059709A70A04B00221A70A4
:10086C005A7001229A70A04812F00AF937E6954B9B
:10087C0030221A7004225A7001229A700321D97006
:10088C00984B1D78914B1D709149087858708E4982
:10089C0009789970904B1D70587099708F4B1A7025
:1008AC0000225A709A70914812F0EAF817E6854BBC
:1008BC0030221A7004225A7001229A700221D970C7
:1008CC00884B1D78814B1D7081490878587081497F
:1008DC0009789970804B1D70587099707F4B00216E
:1008EC00197059709A70824812F0CAF8F7E5754B76
:1008FC0030221A7004225A7003229A700222DA7083
:10090C00784B1878714B18706F4A11785970714A7E
:10091C0012789A70704B187059709A706F4B002245
:10092C001A705A7001229A70724812F0A9F8D6E522
:10093C00644B30221A7002225A7001229A700421E0
:10094C00D970644B1D78614B1D70614908785870E3
:10095C00644909789970604B1D70587099705F4BA1
:10096C001A7000225A709A70634812F089F8B6E532
:10097C00544B30221A7002225A7003229A700422AD
:10098C00DA70544B1878514B18704F4A11785970D3
:10099C00544A12789A70504B187059709A704F4B89
:1009AC0001221A7000225A709A70544812F068F89A
:1009BC0095E5444B50221A700121597003229A700C
:1009CC000422DA7002221A71414B1D783F4B1D70C4
:1009DC00444A12785A709A703E480078D8703E4B50
:1009EC001D70394D2D785D709A70D8703B4B197015
:1009FC0000225A709A70DA70414812F041F86EE594
:100A0C00304B50221A7002225A7001219970032225
:100A1C00DA7000221A712F4B1E782C4B1E702C484A
:100A2C0005785D702848007898702B4B1E705D70AF
:100A3C0098702A4B19705A709A70324812F020F83C
:100A4C004DE5204B50221A7002225A7001229A70E6
:100A5C000421D9701F4B1D781C4B1D701C49087844
:100A6C0058702049097899701B4B1D7058709970FB
:100A7C001A4B1A7000225A709A70234812F000F820
:100A8C002DE5104B50221A7002225A7003229A70D4
:100A9C000422DA700F4B18780C4B18700A4A117834
:100AAC005970104A12789A700B4B187059709A70D2
:100ABC000A4B01221A7000225A709A70134811F0D6
:100ACC00DFFF0CE5440C0020BC0B0020100A0020BA
:100ADC00400C0020010B0020480A0020140A0020C2
:100AEC0038490108020B00205449010870490108DB
:100AFC008C490108A8490108C4490108E0490108CA
:100B0C00FC490108184A0108344A0108504A0108F6
:100B1C00B64B40221A7001225A700321997004219D
:100B2C00D97002211971B24B1E78B24B1E70B249AA
:100B3C000D785D70B14908789870B1490978D97011
:100B4C00B04B1E705D709870D970AF4B1A7000224C
:100B5C005A709A70DA70AD4811F092FFBFE4A34B53
:100B6C0040221A7002225A7001229A700321D97005
:100B7C00A34B1D789F4B1D709D49087858709E495A
:100B8C00097899709F4B1D70587099709E4B1A7014
:100B9C0000225A709A709E4811F072FF9FE4934B9A
:100BAC0040221A7001225A70032199700421D970C5
:100BBC008F4B1D788F4B1D708F49087858708F495B
:100BCC00097899708F4B1D70587099708E4B1A70F4
:100BDC0000225A709A708F4811F052FF7FE4834BB9
:100BEC0040221A7001225A70032199700221D97087
:100BFC007F4B1D787F4B1D707F490878587080495A
:100C0C00097899707F4B1D70587099707E4B1A70D3
:100C1C0000225A709A70804811F032FF5FE4734BD7
:100C2C0040221A7001225A70042199700221D97045
:100C3C006F4B1D786F4B1D70704908785870704958
:100C4C00097899706F4B1D70587099706E4B1A70B3
:100C5C0000225A709A70714811F012FF3FE4634BF6
:100C6C0040221A7003225A7001229A700421D97002
:100C7C00614B1D785F4B1D705D49087858705F495A
:100C8C00097899705F4B1D70587099705E4B1A7093
:100C9C0000225A709A70624811F0F2FE1FE4534B16
:100CAC0040221A7003225A7001229A700221D970C4
:100CBC00514B1D784F4B1D704D4908785870504959
:100CCC00097899704F4B1D70587099704E4B1A7073
:100CDC0000225A709A70534811F0D2FEFFF7FFBBF6
:100CEC00424B40221A7003225A7004229A7002223C
:100CFC00DA70414B18783F4B1870404A1178597094
:100D0C003F4A12789A703F4B187059709A703E4B4C
:100D1C0001221A7000225A709A70434811F0B0FEEA
:100D2C00FFF7DDBB314B40221A7004225A700122AE
:100D3C009A700321D970314B1D782E4B1D702C49A4
:100D4C00087858702C49097899702E4B1D70587082
:100D5C0099702D4B1A7000225A709A70334811F00A
:100D6C008FFEFFF7BCBB214B40221A7004225A7035
:100D7C0001229A700221D970204B1D781D4B1D70D9
:100D8C001B49087858701E49097899701D4B1D70C5
:100D9C00587099701C4B1A7000225A709A70244823
:100DAC0011F06EFEFFF79BBB104B40221A70042211
:100DBC005A7003229A700222DA70104B18780D4B7D
:100DCC0018700D4A117859700D4A12789A700D4BA3
:100DDC00187059709A700C4B01221A7000225A70BC
:100DEC009A70144811F04CFEFFF779BB440C0020AC
:100DFC00400C0020100A0020BC0B0020020B00202D
:100E0C00010B0020480A0020140A00206C4A01083B
:100E1C007C4A0108984A0108B44A0108D04A0108E2
:100E2C00EC4A0108084B0108244B0108404B01080F
:100E3C005C4B0108784B0108B94B50221A70012207
:100E4C005A70032199700221D970B64B1D78B64B9C
:100E5C001D70B64908785870B54909789970B54B2A
:100E6C001D7058709970B44B1A7000225A709A7099
:100E7C00B24811F005FEFFF732BBA94B50221A7095
:100E8C0001225A70042199700221D970A54B1D784A
:100E9C00A54B1D70AA4908785870A5490978997016
:100EAC00A44B1D7058709970A34B1A7000225A7085
:100EBC009A70A44811F0E4FDFFF711BB984B502237
:100ECC001A7003225A7001229A700421D970974B20
:100EDC001D78954B1D70934908785870984909787E
:100EEC009970944B1D7058709970934B1A70002226
:100EFC005A709A70944811F0C3FDFFF7F0BA884B02
:100F0C0050221A7003225A7001229A700221D97051
:100F1C00864B1D78844B1D70824908785870844923
:100F2C0009789970834B1D7058709970824B1A70A8
:100F3C0000225A709A70854811F0A2FDFFF7CFBAC3
:100F4C00774B50221A7003225A7004229A70022294
:100F5C00DA70764B1878744B1870794A117859708E
:100F6C00734A12789A70734B187059709A70724B4E
:100F7C0001221A7000225A709A70754811F080FD87
:100F8C00FFF7ADBA664B50221A7004225A70012238
:100F9C009A700321D9706A4B1D78634B1D7061499F
:100FAC0008785870614909789970624B1D705870B7
:100FBC009970614B1A7000225A709A70654811F042
:100FCC005FFDFFF78CBA564B50221A7004225A70F0
:100FDC0001229A700221D970594B1D78524B1D7009
:100FEC00504908785870524909789970514B1D70C6
:100FFC0058709970504B1A7000225A709A7056485B
:10100C0011F03EFDFFF76BBA454B50221A700422CB
:10101C005A7003229A700222DA70494B1878424BAC
:10102C001870424A11785970414A12789A70414BA3
:10103C00187059709A70404B01221A7000225A7025
:10104C009A70464811F01CFDFFF749BA344B6022E8
:10105C001A7001225A7003219970324B1878324B56
:10106C001870324909785970324B18705970324BDC
:10107C001A7000225A703A4811F002FDFFF72FBA8D
:10108C00274B60221A7001225A7002219970254B4D
:10109C001878254B1870264909785970254B18700B
:1010AC005970254B002119705A702E4811F0E8FC2C
:1010BC00FFF715BA1A4B60221A7002225A700322DB
:1010CC009A701B4B1978184B1970184A12785A7071
:1010DC00184B19705A70184B01221A7000225A7052
:1010EC00214811F0CDFCFFF7FAB90D4B60221A70B4
:1010FC0002225A7004229A700D4B19780A4B1970FF
:10110C000F4A12785A700B4B19705A700A4B012205
:10111C001A7000225A70154811F0B2FCFFF7DFB9B3
:10112C00440C0020400C0020100A0020BC0B0020B6
:10113C00010B0020480A0020140A0020944B0108DF
:10114C00020B0020B04B0108CC4B0108E84B010806
:10115C00044C0108204C01083C4C0108584C010877
:10116C00744C01088C4C0108A44C0108BC4C0108BF
:10117C006E4B60221A7003225A7001229A706C4BCB
:10118C0019786C4B19706C48007858706B4B19704F
:10119C006B49097859706B4B1A7000225A706A4867
:1011AC0011F06EFCFFF79BB9604B60221A700322A2
:1011BC005A7004229A705E4B19785E4B1970634A10
:1011CC0012785A705D4B19705A705E4B01221A706E
:1011DC0000225A705E4811F053FCFFF780B9534B54
:1011EC0060221A7003225A7002229A70504B19789E
:1011FC00504B1970524A12785A70504B19705A70E1
:10120C00504B00221A7001225A70524811F038FCCF
:10121C00FFF765B9454B60221A7001225A70042100
:10122C009970454B1878434B187048490978597098
:10123C00424B18705970434B1A7000225A70464832
:10124C0011F01EFCFFF74BB9384B60221A700422C8
:10125C005A7003229A703D4B1978364B1970344AE8
:10126C0012785A70354B19705A70364B01221A701D
:10127C0000225A70394811F003FCFFF730B92B4BA0
:10128C0060221A7004225A7002229A702F4B19781D
:10129C00284B19702A4A12785A70284B19705A70B8
:1012AC00284B00221A7001225A702D4811F0E8FBCD
:1012BC00FFF715B91D4B60221A7004225A700122D7
:1012CC009A70224B18781B4B18701B49097859706F
:1012DC001A4B187059701B4B1A7000225A70214807
:1012EC0011F0CEFBFFF7FBB8104B70221A700122E5
:1012FC005A70032199700421D9700F4B1D780D4B36
:10130C001D700B49087858701049097899700B4B6F
:10131C001D70587099700B4B1A7000225A70DA704D
:10132C00114811F0ADFBFFF7DAB800BF440C0020F8
:10133C00BC0B0020100A0020400C0020480A0020A2
:10134C00010B0020140A0020D44C0108020B0020D1
:10135C00EC4C0108044D01081C4D0108344D0108EA
:10136C004C4D0108644D01087C4D010838B50EF058
:10137C00B7F80446014616480DF020FC0EF0B0F804
:10138C0003280BD10EF0ACF8032816D1032C1DD07A
:10139C000EF04AFA0F480DF011FC17E00E4D032128
:1013AC0028460DF00BFC03200EF0C0F80EF098F858
:1013BC00014628460DF002FCE4E708480DF0FEFB60
:1013CC0007480DF0FBFB074BFF221A7038BD00BF1E
:1013DC00A0470108C0470108B0470108FC470108B5
:1013EC0018480108BA0B002010B5012826D029484E
:1013FC000DF0E4FB284C01224FF40051204602F082
:10140C00CDF900224FF40061244802F0C7F91920ED
:10141C0002F072FD01220421204602F0BFF91920CE
:10142C0002F06AFD002280211D4802F0B7F900206D
:10143C0010F0D2F81B4B01221A7010BD1A480DF097
:10144C00BDFB154C01224FF40051204602F0A6F9C9
:10145C0000224FF40061114802F0A0F9322002F092
:10146C004BFD642002F048FD01220421204602F0CD
:10147C0095F9322002F040FDA4F5006401224FF4EE
:10148C008071204602F08AF900228021204602F069
:10149C0085F9CCE71C47010800100140000C014005
:1014AC0000080140080A00200C47010810B5144838
:1014BC000DF084FB134C00224FF48071204602F097
:1014CC006DF901228021204602F068F904F50064D0
:1014DC0000224FF40051204602F060F901224FF433
:1014EC000061094802F05AF900220421204602F05A
:1014FC0055F9012010F070F8044B00221A7010BD41
:10150C00FC46010800080140000C0140080A0020BC
:10151C0008B50021322002F00FFD08BD08B50022ED
:10152C004FF48071024802F039F9FFF7F1FF08BD62
:10153C000008014008B58021322002F0FDFC08BDF6
:10154C0008B501224FF48071024802F027F9FFF729
:10155C00F1FF08BD0008014010B5084C00224021E5
:10156C00204602F01BF900222021204602F016F939
:10157C0001221021204602F011F910BD0008014093
:10158C0010B588B060230193029000230393059358
:10159C00054C082201A9204601F030F8082120460C
:1015AC0001F022F908B010BDC00B002008B5C043F3
:1015BC00C0B2632812D9A0F16403DBB2272B24D963
:1015CC0000F17403DBB2272B21D900F14C03DBB201
:1015DC00272B1ED9DB281ED8002200E04622164BF2
:1015EC001B78012B1FD1154B1B78934215D9013B4E
:1015FC00124A1370124B00221A70104B1878C0EB61
:10160C00001080B2FFF7BCFF08BD5A22E7E76E223C
:10161C00E5E78222E3E79122E1E79342EAD2013344
:10162C00064A1370E6E7054BFF221A70054B188823
:10163C00FFF7A6FFE8E700BFFA0900200200002030
:10164C00E80900201400002010B5AB2002F080FC4B
:10165C004A4B1870B02002F07BFC494B1870AC2040
:10166C0002F076FC474B1870A32002F071FC464B3D
:10167C001870AA2002F06CFC444B1870AD2002F0DC
:10168C0067FC434B1870A02002F062FC414B1870B1
:10169C00AF2002F05DFC404B1870202002F058FC8B
:1016AC003E4B18700EF0D2F83D4C2070A52002F085
:1016BC004FFC3C4B1870A62002F04AFC3A4B1870B9
:1016CC00A72002F045FC394B1870A82002F040FC12
:1016DC00374B1870192002F03BFC364B18700EF08B
:1016EC00B5F82070BF2002F033FC334B187020206B
:1016FC0002F02EFC314B1870212002F029FC304BEB
:10170C001870222002F024FC2E4B1870232002F0BB
:10171C001FFC2D4B1870252002F01AFC2B4C20704E
:10172C00242002F015FC2A4B18702178622002F05C
:10173C00EBFF284B1860C92002F00AFC264C2070E5
:10174C00CC2002F005FC6070CF2002F001FCA070F0
:10175C00D22002F0FDFBE070D82002F0F9FB1F4C08
:10176C002070D92002F0F4FB6070DA2002F0F0FB5C
:10177C00A070DB2002F0ECFBE07010BD0300002039
:10178C00B90B0020940A0020910A00204E0C002076
:10179C00000B0020FA090020400E0020B80B00209E
:1017AC003F090020400C0020BC0B0020020B002045
:1017BC00010B0020BB0B0020220A0020100000208F
:1017CC000700002008000020440B00200A00002025
:1017DC000B0000200C000020340D0020500A0020CB
:1017EC0010B52F4B1B7833B12E480DF0E7F92E4B6B
:1017FC0000221A703AE02F200DF0EAFAFFF756FE9D
:10180C0005F00CF911200DF0C5FAEDE7AB2002F054
:10181C00A3FB2D200DF0DCFA05F0B2F8234B1B785E
:10182C00012B35D00F200DF0B5FA0F214FF4FA60D3
:10183C000DF076FA4A200DF0ADFA4A214FF4FA7009
:10184C000DF06EFA11214FF4FA700DF069FA0023C5
:10185C00174A1370174A137017480DF0AFF910BDE3
:10186C000FF026FC0DF018FE0BF084F80EF072FD54
:10187C00124B19780129C9D00FF006FA044600283A
:10188C00EED02D200DF0A4FA20460FF011FCE9E764
:10189C00034B1B78002BC5D103F00EFEC2E700BF33
:1018AC00AB0A00202C470108260A0020400E00201D
:1018BC00250A0020230A00203C47010803000020D1
:1018CC0008B513E0184B1B68012B1CD00FF0DCF98A
:1018DC00164B1B78D3B10EF03DFDE8B1144B1B78C1
:1018EC00012B16D0134B1B78012B16D00DF0D4FD09
:1018FC00114B1B78002BE5D10B4B1B68012BE1D155
:10190C000BF038F8DEE70CF02BFBDFE70FF0D0FB29
:10191C00E1E70A4B00221A7008BD0021074B197031
:10192C00AB2002F019FBF7E7D007002000000020E5
:10193C00250A0020230A0020660A0020030000204C
:10194C0070B590B02022002107A811F01CF80024DB
:10195C00019402940394049405940225069501269F
:10196C000A9610230B930D954FF4E0130F9306A8D2
:10197C0001F08EFA0F2301930295039404940594BD
:10198C00314601A801F0C6FC10B070BD70B501F075
:10199C0031FAFFF7D5FFFEF741FDFEF7D1FBFFF75C
:1019AC0085FD01200FF018FE2D200DF011FAFEF729
:1019BC005DFCFEF78DFCFEF7B5FCFEF7C9FCFEF7EF
:1019CC00DDFC12F097F812F011FA12F013FC12F081
:1019DC0031FE4FF47A60FFF7D3FDFFF7BDFD0DF03C
:1019EC0035FF464B1870002002F014FB444B186076
:1019FC000020FFF7F9FC322002F07EFA0122414967
:101A0C00414801F0ADF8414C00221021204601F074
:101A1C00C5FE00221021204601F0C0FE002201214B
:101A2C00204601F0BBFE642002F066FA0122102170
:101A3C00204601F0B3FE01221021204601F0AEFE3B
:101A4C0001221146204601F0A9FE314A31493248A3
:101A5C0010F0A2FF002002F059FA01462F4810F0B6
:101A6C009BFF2F49252006F073FBFFF77FFCFFF748
:101A7C00EBFD0021322002F05FFA0124294B1C708F
:101A8C005A21204602F04CFA274B04225A711C7240
:101A9C000325DD7110221A7002269E7100200AF0B7
:101AAC0007F820460AF004F830460AF001F82846F8
:101ABC0009F0FEFF0EF006FF1C4B1B78A3420DD065
:101ACC000CF052F8012010F021F8194800F025FC18
:101ADC0002F0F6FE00200FF07FFD08E00FF0D4F8C6
:101AEC000028EDD1FFF72CFDEAE7FFF779FE0F4B4D
:101AFC001B78012BF9D1FFF7E3FEF6E73F09002035
:101B0C00F0090020200A0020780B0020000801407A
:101B1C004C470108584701086447010888470108E9
:101B2C0084B10108410C0020440C0020030000206B
:101B3C00040B002002689C4B9A4200D0704730B4D2
:101B4C009A4A13780133DBB21370994A1168013148
:101B5C0011609848026801320260632B09D99648DB
:101B6C00036801330360914B00201870934B0120E4
:101B7C001860934B1868013018601868914B9842A4
:101B8C0006D98F4B002018608F4B1B78012B20D06F
:101B9C008E4B9B68DB43C3F381338D48C4789C42E6
:101BAC0008D045780570857845708470C370894B72
:101BBC0001201860884B1B78DBB2012B0FD0B1F5DC
:101BCC007A7F00F08A80B2F57A7F00F0D88030BC42
:101BDC007047824803780133DBB20370D8E7804B3F
:101BEC001878C0B27F4B1B78DBB2984223D07C4B69
:101BFC001B78DBB2212B15D87B4B1B78DBB2012B6E
:101C0C0053D07A4B1B889BB240F2E240834209D9F5
:101C1C00764B1B889BB240F2A950834202D8724B80
:101C2C0001201870714B002018806E4B1B78DBB2B2
:101C3C006B480370C3E76D48038801339BB2038084
:101C4C0003889BB243F698208342B8D9684B1B7823
:101C5C00DBB21F2B09D9674B1B689BB2664803800C
:101C6C0003889BB2B3F57F4F0FD0002360480370FD
:101C7C005E4803805A4803705A48037056480370F4
:101C8C005C4803605848037099E75A480368C3F3EB
:101C9C0007435A4C237003686FEA1363DBB258484E
:101CAC000370584B01201870DFE7504B1B889BB218
:101CBC005A2BA6D94F4803685B0803604B4B1B8813
:101CCC009BB2A02B03D9036843F000430360484840
:101CDC0003780133DBB2037093E7354B00211960B5
:101CEC00494B9968C94301F0C001A3F580639B6817
:101CFC00DB431B0A03F030030B4338D043490B681A
:101D0C0001330B60424B1B78032B06D0642B19D08C
:101D1C003F490B7801330B7055E73B4B9B68DB431A
:101D2C0003F0C00329498968C943090A01F030014D
:101D3C000B4338490B70384B00211960374B01218C
:101D4C001960E5E7304B9B68DB4303F0C0031F4988
:101D5C008968C943090A01F030010B432D490B7006
:101D6C002E4B012119602A4B0A211970D0E7002350
:101D7C0027490B7027490B7024490B6023E70D4B47
:101D8C0000221A60264B1B78002B55D0254A12785E
:101D9C00032A06D0962A49D0224A137801331370AD
:101DAC0015E7214A1370F7E7000400407C0A002075
:101DBC00800A0020840A0020700A00206C0A00208F
:101DCC002C0A0020A086010001000020000C01401C
:101DDC00B00A0020580E0020010A00200C0A002036
:101DEC00180A0020020A0020070A0020040A00201A
:101DFC00060A0020FC090020320A0020350A0020C7
:101E0C00340A0020000A002000100140780A00204B
:101E1C00280A0020530E00204C0E00203C0E0020FF
:101E2C00B40A0020300A0020410E0020054A13702D
:101E3C00054B04221A70AFE70023034A1370014AC2
:101E4C001370C4E6410E0020300A002010B5044681
:101E5C000268184B9A4204D02268174B9A4214D04D
:101E6C0010BD16490A78531CDBB20B701449087864
:101E7C00144988541D2B02D9104B00221A700122D0
:101E8C000F49114800F06CFEE6E710490A78531C24
:101E9C00DBB20B700E4908780E4988541D2B02D901
:101EAC000A4B00221A70012209490B4800F058FE17
:101EBC00D6E700BF0038014000440040680A00200B
:101ECC00200A0020780D0020780B0020670A0020E3
:101EDC001C0A0020B80D0020000C0020012800D0A6
:101EEC007047044B01221A70034A13780133DBB29A
:101EFC001370F5E7010A0020020A00207047FEE784
:101F0C00FEE7FEE7FEE770477047704708B500F044
:101F1C0083FF08BD08B5012001F046FC08BD000098
:101F2C0008B5024800F00EFA08BD00BF040B0020F3
:101F3C0008B5024800F0A0FE08BD00BF780B0020D9
:101F4C0008B5024800F098FE08BD00BF000C002048
:101F5C0082B00E4B9A6942F001029A619A6902F0C2
:101F6C0001020092009ADA6942F08052DA61DB6970
:101F7C0003F080530193019B054A536823F0E063FF
:101F8C0043F00073536002B0704700BF0010024072
:101F9C000000014002680E4B9A4200D0704700B519
:101FAC0083B003F50333DA6942F00202DA61DB69CC
:101FBC0003F002030193019B002211461D2001F046
:101FCC005FFC1D2001F090FC03B05DF804FB00BF2A
:101FDC000004004070B588B00446002304930593B8
:101FEC00069307930268364B9A4205D02268354B0C
:101FFC009A4234D008B070BD03F558439A6942F444
:10200C0080429A619A6902F480420092009A9A691D
:10201C0042F004029A619B6903F004030193019B53
:10202C004FF4007304930223059303230793264E66
:10203C0004A9304601F0C6FA4FF4806304930025DE
:10204C000595069504A9304601F0BCFA2A462946A6
:10205C00252001F015FC252001F046FCC6E703F510
:10206C00E633DA6942F40032DA61DA6902F40032FA
:10207C000292029A9A6942F004029A619B6903F0F7
:10208C0004030393039B0423049302230593032368
:10209C0007930D4D04A9284601F094FA08230493E4
:1020AC0000240594069404A9284601F08BFA2246D4
:1020BC002146262001F0E4FB262001F015FC99E7CF
:1020CC0000380140004400400008014000B587B0D2
:1020DC00002302930393049305930268114B9A42D5
:1020EC0002D007B05DF804FB03F56C439A6942F427
:1020FC0000729A619A6902F400720092009A9A69CD
:10210C0042F010029A619B6903F010030193019B4A
:10211C00082302930323039302A9034801F052FA04
:10212C00DFE700BF00240140001001400368B3F159
:10213C00804F00D0704782B003F50433DA6942F067
:10214C000102DA61DB6903F001030193019B02B028
:10215C007047000000B587B00023029303930493EB
:10216C0005930368B3F1804F02D007B05DF804FB10
:10217C0003F504339A6942F008029A619B6903F0F3
:10218C0008030193019B4FF4806302930223039392
:10219C00059302A9064801F015FA064A536823F480
:1021AC00407343F0E06343F400735360DDE700BF1A
:1021BC00000C01400000014070B4036A23F00103DD
:1021CC000362036A4268846924F073040D6845EA6B
:1021DC00040623F002048B6823430D4DA84209D05A
:1021EC000B4DA8420DD0426086614A68426303627F
:1021FC0070BC704723F00803CC68234323F004031E
:10220C00EEE722F440724C6914438A692243EAE7F0
:10221C00002C014030B4036A23F480730362036A18
:10222C004268C46924F073040D682C4323F40073D2
:10223C008D6843EA05230F4DA84209D00D4DA842E5
:10224C000ED04260C4614A68C263036230BC7047FE
:10225C0023F40063CD6843EA052323F48063EDE7A0
:10226C0022F440524D6942EA05128D6942EA051288
:10227C00E7E700BF002C014030B4036A23F480531D
:10228C000362036A4468C26922F4E6420D6842EABA
:10229C00052223F400538D6843EA0533074DA84209
:1022AC0006D04460C2614A680264036230BC704765
:1022BC0024F480444D6944EA8514F2E7002C014073
:1022CC0010B4036A046A24F001040462846924F0E3
:1022DC00F00444EA021223F00A030B438261036206
:1022EC0010BC704710B4036A23F0100303628469B6
:1022FC00036A24F4704444EA023223F0A00343EA54
:10230C0001138261036210BC7047836823F0700371
:10231C00194341F00701816070470268D36843F0AC
:10232C000103D3600268936803F00703062B03D004
:10233C00136843F001031360002070477047704727
:10234C007047704710B5044603681A6912F0020F03
:10235C0011D0DA6812F0020F0DD06FF002021A6180
:10236C000123037703689B6913F0030F70D0FFF709
:10237C00E6FF0023237723681A6912F0040F12D0AA
:10238C00DA6812F0040F0ED06FF004021A61022307
:10239C00237723689B6913F4407F5FD02046FFF7B7
:1023AC00CEFF0023237723681A6912F0080F12D08E
:1023BC00DA6812F0080F0ED06FF008021A610423CD
:1023CC0023772368DB6913F0030F4ED02046FFF709
:1023DC00B6FF0023237723681A6912F0100F12D06E
:1023EC00DA6812F0100F0ED06FF010021A61082389
:1023FC0023772368DB6913F4407F3DD02046FFF739
:10240C009EFF0023237723681A6912F0010F03D073
:10241C00DA6812F0010F36D123681A6912F0800FB6
:10242C0003D0DA6812F0800F34D123681A6912F0E5
:10243C00400F03D0DA6812F0400F32D123681A69CA
:10244C0012F0200F03D0DA6812F0200F30D110BD3B
:10245C00FFF774FF2046FFF773FF8AE72046FFF76C
:10246C006DFF2046FFF76CFF9BE72046FFF766FFEA
:10247C002046FFF765FFACE72046FFF75FFF2046DD
:10248C00FFF75EFFBDE76FF001021A612046FFF710
:10249C0051FBC1E76FF080021A61204600F0E6F9AB
:1024AC00C3E76FF040021A612046FFF74AFFC5E709
:1024BC006FF020021A61204600F0D7F9C7E7000040
:1024CC0003681B4A90420AD0B0F1804F07D0A2F5A6
:1024DC009432904203D002F58062904203D123F0F3
:1024EC0070034A681343124A90420AD0B0F1804FED
:1024FC0007D0A2F59432904203D002F5806290424C
:10250C0003D123F44073CA68134323F080034A6950
:10251C00134303608B68C3620B688362044B98425D
:10252C0002D00123436170470B690363F9E700BFD5
:10253C00002C0140A8B110B5044690F83D305BB1B9
:10254C00022384F83D30211D2068FFF7B9FF0123D9
:10255C0084F83D30002010BD80F83C30FFF71AFDA8
:10256C00EEE701207047A8B110B5044690F83D3055
:10257C005BB1022384F83D30211D2068FFF7A0FFDA
:10258C00012384F83D30002010BD80F83C30FFF76B
:10259C00CDFDEEE70120704730B4036A23F0100341
:1025AC000362036A4468826922F4E6420D6842EAD7
:1025BC00052223F020038D6843EA05130E4DA84233
:1025CC0009D00D4DA8420ED0446082614A688263E6
:1025DC00036230BC704723F08003CD6843EA0513D7
:1025EC0023F04003EDE724F440644D6944EA85048C
:1025FC008D6944EA8504E7E7002C014038B590F872
:10260C003C30012B66D00D460446012380F83C304B
:10261C00022380F83D300C2A1AD8DFE802F00719A3
:10262C001919201919193419191947000068FFF7DD
:10263C00C3FD2268936943F0080393612268936990
:10264C0023F0040393612268936929690B43936116
:10265C00012384F83D30002084F83C0038BD00682C
:10266C00FFF79AFF2268936943F400639361226831
:10267C00936923F48063936122689369296943EA1F
:10268C0001239361E4E70068FFF7C4FD2268D36976
:10269C0043F00803D3612268D36923F00403D361A8
:1026AC002268D36929690B43D361D1E70068FFF72E
:1026BC00E3FD2268D36943F40063D3612268D369D4
:1026CC0023F48063D3612268D369296943EA012327
:1026DC00D361BDE70220C1E710B4846824F47F44C1
:1026EC0042EA03230B432343836010BC704790F8EA
:1026FC003C30012B66D010B50446012380F83C30E9
:10270C00022380F83D300268936823F47F4323F062
:10271C00770393600B68402B4AD013D9602B3DD0C4
:10272C001ED9702B28D0B3F5005F30D1CB684A6826
:10273C0089680068FFF7D0FF2268936843F48043F0
:10274C00936024E0102B06D004D9202B03D0302B1F
:10275C0001D01CE0DBB919462068FFF7D6FD16E066
:10276C00502B14D1CA6849680068FFF7A9FD5021A5
:10277C002068FFF7CAFD0AE0CB684A6889680068E0
:10278C00FFF7AAFF2268936843F077039360012355
:10279C0084F83D30002084F83C0010BDCA684968BC
:1027AC000068FFF79FFD60212068FFF7AEFDEEE7A4
:1027BC00CA6849680068FFF783FD40212068FFF76D
:1027CC00A4FDE4E70220704710B401F01F010123BF
:1027DC0003FA01F4036A23EA04030362036A8A40DE
:1027EC001343036210BC704710B504460122006805
:1027FC00FFF7EAFF23680A4A93420BD022689368DA
:10280C0003F00703062B03D0136843F00103136096
:10281C00002010BD5A6C42F400425A64EEE700BF2F
:10282C00002C014090F83C30012B1CD070B40126D8
:10283C0080F83C60022380F83D300268556893684C
:10284C0025F070050C682C4323F080054B682B4356
:10285C0054600268936080F83D60002380F83C303F
:10286C00184670BC7047022070477047704702686A
:10287C00D36823F49073D3600268536923F0010387
:10288C005361202380F83A30704790F83930DBB22E
:10289C00212B2AD18368B3F5805F16D0036A5A1CAA
:1028AC0002621A7803685A60C38C013B9BB2C384E2
:1028BC00EBB90268D36823F08003D3600268D36855
:1028CC0043F04003D36000207047036A1B88026802
:1028DC00C3F30803536003691BB9036A0233036231
:1028EC00E2E7036A01330362DEE70220704700204F
:1028FC007047000038B504460268136923F440534E
:10290C00C1680B43136183680269134342691A431C
:10291C000168CB6823F4B05323F00C031343CB6052
:10292C000268536923F4407381690B435361026855
:10293C00214B9A421FD000F0A7FD00EB800000EB6A
:10294C00800063689B00B0FBF3F01C4DA5FB0032CC
:10295C005109642202FB110213013233A5FB03233C
:10296C005B0903F0F00202EB011203F00F03216884
:10297C0013448B6038BD00F097FD00EB800000EB3A
:10298C00800063689B00B0FBF3F00C4DA5FB00329C
:10299C005109642202FB110213013233A5FB0323FC
:1029AC005B0903F0F00202EB011203F00F03216844
:1029BC0013448B60DEE700BF003801401F85EB51EC
:1029CC002DE9F04105460F4616469846069C2B68A5
:1029DC001B6837EA03030CBF01230023B3421DD14C
:1029EC00B4F1FF3FF3D02CB100F022FAA0EB0800B9
:1029FC00A042ECD92A68D36823F4D073D3602A6838
:102A0C00536923F001035361202385F8393085F88D
:102A1C003A30002385F83830032000E00020BDE870
:102A2C00F08158B310B5044690F839300BB3242319
:102A3C0084F839302268D36823F40053D3602046DD
:102A4C00FFF758FF2268136923F49043136122683F
:102A5C00536923F02A0353612268D36843F400536B
:102A6C00D3600020E063202384F8393084F83A30B6
:102A7C0010BD80F83830FFF7ADFAD8E70120704769
:102A8C002DE9F04182B01E4690F83930DBB2202B94
:102A9C0055D104460D469046002955D0002A55D0F4
:102AAC0090F83830012B53D0012380F838300023B4
:102ABC00C363212380F8393000F0BAF90746A4F833
:102ACC002480A4F8268010E000963B46002280214A
:102ADC002046FFF775FF00283CD12B882268C3F3F2
:102AEC00080353602369C3B90235E38C9BB2B3B1BD
:102AFC00E38C013B9BB2E384A368B3F5805FE3D026
:102B0C0000963B46002280212046FFF759FF18BB58
:102B1C002A7823685A600135E7E70135E5E7009626
:102B2C003B46002240212046FFF74AFF0346A8B946
:102B3C00202284F83920002284F8382000E0022377
:102B4C00184602B0BDE8F0810123F9E70123F7E74D
:102B5C000223F5E70323F3E70323F1E70323EFE76E
:102B6C0090F83A30DBB2202B20D109B312B390F895
:102B7C003830012B20D081628285C2850023C3634B
:102B8C00222280F83A2080F838300168CA6842F472
:102B9C008072CA6001684A6942F001024A610168A8
:102BAC00CA6842F02002CA6018467047022070477B
:102BBC00012070470120704702207047704708B50C
:102BCC000168CB6823F04003CB60202380F83930B8
:102BDC00FFF7F4FF002008BD08B590F83A30DBB2DF
:102BEC00222B45D18368B3F5805F0ED0036903BBFC
:102BFC0003685A68836A591C81621A70C38D013B41
:102C0C009BB2C385F3B1002033E0826A036943B9F8
:102C1C0003685B68C3F308031380836A023383621F
:102C2C00ECE703685B68DBB21380836A0133836271
:102C3C00E4E703685B68826A511C816203F07F03DE
:102C4C001370DBE70268D36823F02003D3600268BB
:102C5C00D36823F48073D3600268536923F00103B3
:102C6C005361202380F83A30FFF7F0F8002000E0A1
:102C7C00022008BD7047000010B5044602681368B6
:102C8C00D168526913F00F0005D113F0200F02D058
:102C9C0011F0200F53D1002867D012F0010202D19D
:102CAC0011F4907F61D013F0010F06D011F4807FE6
:102CBC0003D0E06B40F00100E06313F0040F04D08C
:102CCC001AB1E06B40F00200E06313F0020F04D085
:102CDC001AB1E06B40F00400E06313F0080F04D06D
:102CEC001AB1E26B42F00802E263E26B002A48D0B0
:102CFC0013F0200F02D011F0200F24D123685B6950
:102D0C0003F04003E26B12F0080F00D13BB32046F6
:102D1C00FFF7ADFD23685A6912F0400F1BD05A69BA
:102D2C0022F040025A61636B8BB11A4A5A63606B92
:102D3C0000F048FD28B3606B436B984721E02046B8
:102D4C00FFF74AFF1DE02046FFF746FFD6E7204677
:102D5C00FFF790FF15E02046FFF78CFF11E02046AF
:102D6C00FFF788FF0023E3630BE013F0800F02D022
:102D7C0011F0800F06D113F0400F02D011F0400F6C
:102D8C0004D110BD2046FFF780FDFAE72046FFF77F
:102D9C0016FFF6E7A52D000808B5406A0023C38589
:102DAC00C384FFF767FF08BD10B504460E4B1878B7
:102DBC004FF47A73B3FBF0F30C4A1068B0FBF3F0EA
:102DCC0000F0A0FD68B90F2C01D901200AE0002207
:102DDC0021464FF0FF3000F053FD054B1C600020E6
:102DEC0000E0012010BD00BF1800002020000020D2
:102DFC001C00002008B5074A136843F01003136049
:102E0C00032000F02BFD0020FFF7CEFFFFF7A0F80A
:102E1C00002008BD00200240034A1168034B1B78B8
:102E2C000B441360704700BF500C002018000020AA
:102E3C00014B1868704700BF500C002038B5044691
:102E4C00FFF7F6FF0546B4F1FF3F02D0044B1B78A9
:102E5C001C44FFF7EDFF401BA042FAD338BD00BF66
:102E6C001800002082B0084B1B68084AA2FB032301
:102E7C005B0A00FB03F0019000BF019B5A1E0192FC
:102E8C00002BF9D102B0704720000020D34D621006
:102E9C00002800F0F78170B582B00446036813F087
:102EAC00010F2CD0AC4B5B6803F00C03042B1DD032
:102EBC00A94B5B6803F00C03082B12D06368B3F5C5
:102ECC00803F41D0002B56D103F1804303F50433EE
:102EDC001A6822F480321A601A6822F480221A606E
:102EEC0037E09D4B5B6813F4803FE7D09A4B1B682F
:102EFC0013F4003F03D06368002B00F0C5812368F6
:102F0C0013F0020F78D0944B5B6813F00C0F61D068
:102F1C00914B5B6803F00C03082B56D02369002BF4
:102F2C0000F08C808D4B01221A60FFF781FF054663
:102F3C00894B1B6813F0020F77D1FFF779FF401B09
:102F4C000228F5D90320A2E1834A136843F48033A5
:102F5C00136063684BB3FFF76BFF05467E4B1B6832
:102F6C0013F4003FCBD1FFF763FF401BB0F5803F5C
:102F7C00F4D303208BE1B3F5A02F09D0764B1A685C
:102F8C0022F480321A601A6822F480221A60E0E778
:102F9C0003F18043A3F53C331A6842F480221A6093
:102FAC001A6842F480321A60D3E7FFF741FF0546F6
:102FBC00694B1B6813F4003FA1D0FFF739FF401B8E
:102FCC00B0F5803FF4D3032061E1634B5B6813F4ED
:102FDC00803FA3D1604B1B6813F0020F04D0236910
:102FEC00012B01D0012052E15B4A136823F0F80356
:102FFC00616943EAC1031360236813F0080F32D0F0
:10300C00A369002B5BD0564B01221A60FFF710FF0F
:10301C000546514B5B6A13F0020F21D1FFF708FFF5
:10302C00401B0228F5D9032031E14B4A136823F0E9
:10303C00F803616943EAC1031360DDE7474B0022E3
:10304C001A60FFF7F5FE0546434B1B6813F0020FA1
:10305C00D2D0FFF7EDFE401B0228F5D9032016E174
:10306C000120FFF7FFFE236813F0040F00F0988097
:10307C00394BDB6913F0805F33D1374BDA6942F09F
:10308C008052DA61DB6903F080530193019B0125C7
:10309C00344B1B6813F4807F25D0E368012B36D0AA
:1030AC00002B4CD103F1804303F504331A6A22F050
:1030BC0001021A621A6A22F004021A622CE0284BEE
:1030CC0000221A60FFF7B4FE0546234B5B6A13F02F
:1030DC00020FC8D0FFF7ACFE401B0228F5D9032025
:1030EC00D5E00025D4E71F4A136843F480731360BE
:1030FC00FFF79EFE06461B4B1B6813F4807FCCD15A
:10310C00FFF796FE801B6428F5D90320BFE0124A16
:10311C00136A43F001031362E3687BB3FFF788FE85
:10312C0006460D4B1B6A13F0020F38D1FFF780FED9
:10313C00801B41F288339842F3D90320A7E0052B7A
:10314C0012D0054B1A6A22F001021A621A6A22F096
:10315C0004021A62E0E700BF001002400000424285
:10316C0080044242007000404C4B1A6A42F0040248
:10317C001A621A6A42F001021A62CDE7FFF758FE92
:10318C000646464B1B6A13F0020F08D0FFF750FEA1
:10319C00801B41F288339842F3D9032077E0E5B9DC
:1031AC00E369002B72D03D4A526802F00C02082AE7
:1031BC0056D0022B17D03A4B00221A60FFF738FE7C
:1031CC000446364B1B6813F0007F47D0FFF730FEE8
:1031DC00001B0228F5D9032059E0304AD36923F0AB
:1031EC008053D361DCE72E4B00221A60FFF720FEE0
:1031FC0005462A4B1B6813F0007F06D0FFF718FE1C
:10320C00401B0228F5D9032041E0236AB3F5803F27
:10321C001AD022494B6823F47413226A606A024361
:10322C0013434B601E4B01221A60FFF701FE04464C
:10323C001A4B1B6813F0007F0ED1FFF7F9FD001B32
:10324C000228F5D9032022E0144A536823F40033F2
:10325C00A1680B435360DCE7002018E0002016E067
:10326C00012B16D00D4B5B6803F48031226A91421E
:10327C0001D001200BE003F47013626A93420AD070
:10328C00012004E001207047012000E0002002B082
:10329C0070BD0120FBE70020F9E700BF00100240E1
:1032AC006000424210B487B0164C94E80F000DF148
:1032BC00180C0CE90F00238AADF80430124B5B6834
:1032CC0003F00C02082A1AD1C3F38342624412F8A9
:1032DC00102C13F4803F05D10C4800FB02F007B012
:1032EC0010BC7047084B5B68C3F34043634413F84E
:1032FC00143C074800FB02F0B0FBF3F0EFE7044886
:10330C00EDE700BF644601080010024000093D00D3
:10331C0000127A00002800F0A38070B50446524BCE
:10332C001B6803F007038B420CD24F4A136823F03F
:10333C0007030B431360136803F007038B4201D0A0
:10334C00012070BD236813F0020F17D013F0040F87
:10335C0004D0464A536843F4E0635360236813F087
:10336C00080F04D0414A536843F4605353603F4AFA
:10337C00536823F0F003A068034353600D462368A1
:10338C0013F0010F31D06368012B20D0022B25D014
:10339C00364A126812F0020F64D034494A6822F09F
:1033AC00030213434B60FFF743FD06462F4B5B684C
:1033BC0003F00C036268B3EB820F16D0FFF738FDF5
:1033CC00801B41F288339842F0D90320B9E7274A91
:1033DC00126812F4003FE0D10120B2E7234A1268D0
:1033EC0012F0007FD9D10120ABE71F4B1B6803F013
:1033FC000703AB420CD91C4A136823F007032B4379
:10340C001360136803F00703AB4201D0012098E767
:10341C00236813F0040F06D0144A536823F4E063B6
:10342C00E1680B435360236813F0080F07D00F4A71
:10343C00536823F46053216943EAC1035360FFF7D7
:10344C0031FF0A4B5B68C3F30313094AD35CD840C2
:10345C00084B1860084B1868FFF7A6FC002070E7B3
:10346C000120704701206CE7002002400010024050
:10347C00944D0108200000201C000020014B18680E
:10348C00704700BF2000002008B5FFF7F7FF044B82
:10349C005B68C3F30223034AD35CD84008BD00BF6A
:1034AC0000100240A44D010808B5FFF7E7FF044BDC
:1034BC005B68C3F3C223034AD35CD84008BD00BF8A
:1034CC0000100240A44D010830B587B00546384CB9
:1034DC0094E80F000DF1180C0CE90F00238AADF8DD
:1034EC000430022D50D0102D03D0012D2BD00020F4
:1034FC0054E0304B5A681B6813F0807F50D0C2F3F5
:10350C00834306A90B4413F8100C12F4803F16D019
:10351C00284B5B68C3F340430B4413F8142C264B25
:10352C00B3FBF2F300FB03F0224B5B6813F4800F48
:10353C0034D14000214BA3FB003040082EE0204B3F
:10354C0003FB00F0F0E71B4B1B6A40F202321A40FF
:10355C00B2F5817F26D003F44073B3F5007F04D01D
:10356C00B3F5407F09D0002018E0124A526A12F0DD
:10357C00020FF5D049F6404010E00E4B1B6813F4D7
:10358C00003F12D1002009E0FFF78EFF094B5B686A
:10359C00C3F3813301335B00B0FBF3F007B030BDF4
:1035AC000020FBE74FF40040F8E74FF22440F5E72A
:1035BC00784601080010024000127A00ABAAAAAAB1
:1035CC0000093D00F0B482B000263246A2E0002D86
:1035DC005AD0012D00D1CE68FF2B69D88446FF2B21
:1035EC0069D89500DCF800400F27AF4024EA0704A7
:1035FC0006FA05F52C43CCF800404C6814F0805FBB
:10360C0000F087805F4CA56945F00105A561A469B0
:10361C0004F001040194019C9508AF1C5A4C54F819
:10362C00274002F00307BF004FF00F0C0CFA07FC09
:10363C0024EA0C0C554CA04243D004F58064A04203
:10364C0000F0818004F58064A0427ED004F5806493
:10365C00A04234D0042435E04D4FBD4214D00BD9D8
:10366C004C4FBD4210D007F58037BD420CD0A7F5AA
:10367C008017BD42B0D107E0A7F58017BD4203D03B
:10368C0007F58037BD42A7D18D687DB1012D08D0DB
:10369C0044610826A0E7CE6808369DE7CE680C3654
:1036AC009AE70461082697E7002695E7042693E736
:1036BC0000F1040C93E7A2F10805AD0092E7032496
:1036CC0000E00024BC4044EA0C0402352E4F47F8BD
:1036DC0025404C6814F4803F39D02F4D2C681C4386
:1036EC002C604C6814F4003F37D02B4D6C681C4395
:1036FC006C604C6814F4801F35D0274DAC681C43AB
:10370C00AC604C6814F4001F33D0234DEC68234399
:10371C00EB6001320B6833FA02F430D00124944090
:10372C0023409C42F5D14D68122DB7D094D8022D70
:10373C00B1D07FF64CAF032DB6D0112D7FF44CAF2A
:10374C00CE68043648E70124BCE70224BAE7124DE0
:10375C002C6824EA03042C60C3E70F4D6C6824EA40
:10376C0003046C60C5E70C4DAC6824EA0304AC6040
:10377C00C7E7094DEC6824EA0303EB60C9E702B024
:10378C00F0BC7047001002400000014000080140EE
:10379C0000002110000031100004014012B909048E
:1037AC00016170470161704708B5054B5B690342C5
:1037BC0000D108BD024B5861FEF790FBF9E700BF42
:1037CC000004014008B590F82130022B03D00423EB
:1037DC008363012008BD0268136823F00E03136095
:1037EC000268136823F0010313600368194A9342BB
:1037FC0014D0143293421FD0143293421ED0143280
:10380C0093421ED0143293421ED01432934202D0F3
:10381C004FF0807203E04FF4801200E001220E4B57
:10382C005A60012380F82130002380F82030436B4C
:10383C006BB198470020CDE71022F0E74FF480726F
:10384C00EDE74FF48052EAE74FF48032E7E70020CF
:10385C00C0E700BF0800024000000240074AD368DE
:10386C0023F4E0631B041B0C000200F4E06018431B
:10387C0040F0BF6040F40030D060704700ED00E0D5
:10388C0030B4174BDB68C3F30223C3F10704042CD9
:10389C0028BF04241D1D062D18D9033B4FF0FF35FE
:1038AC0005FA04F421EA0401994005FA03F322EA2B
:1038BC000303194300280BDB0901C9B200F1604076
:1038CC0000F5614080F8001330BC70470023E5E739
:1038DC0000F00F000901C9B2024B1954F4E700BF04
:1038EC0000ED00E014ED00E0002807DB00F01F0203
:1038FC00400901239340024A42F82030704700BF30
:10390C0000E100E00138B0F1807F0AD2064B58602C
:10391C00064AF02182F823100020986007221A60D2
:10392C0070470120704700BF10E000E000ED00E0A0
:10393C00F0B583B005460C4600230193FFF778FAE7
:10394C002B689A6812F4807F23D106465A6812F4C9
:10395C00807F03D1DB6A13F4700F24D04B4B1F68AC
:10396C000220FFF7B1FDB7FBF0F02B681969484A4C
:10397C0011422FD1D96802F15C4211422AD1196946
:10398C00444A114239D1DA68434B1A4237D02927BD
:10399C003AE0AB6A43F02003AB62002385F8243095
:1039AC00012003B0F0BD2B681B6813F0020F48D147
:1039BC00B4F1FF3FF7D024B1FFF73AFA801BA042D5
:1039CC00F1D9AB6A43F00403AB62002385F82430D1
:1039DC000320E6E719692F4A114204D1D96802F194
:1039EC006E4211420DD019692C4A0A405AB9DA6854
:1039FC002A4B13405BB1FC2706E0292704E014276F
:103A0C0002E0542700E0FC2707FB00F704E05427F2
:103A1C00FAE7019B01330193019BBB4211D2B4F134
:103A2C00FF3FF6D024B1FFF703FA801BA042F0D978
:103A3C00AB6A43F00403AB62002385F82430032007
:103A4C00AFE72B686FF012021A60AB6A43F4007395
:103A5C00AB622B689B6803F46023B3F5602F01D035
:103A6C0000209EE72B7B6BB9AB6A23F48073AB62AF
:103A7C00AB6A13F4805F07D1AB6A43F00103AB620E
:103A8C0000208EE700208CE700208AE72000002031
:103A9C0024499224922449129224490049922400E8
:103AAC000368D86C7047000030B482B000230193D7
:103ABC0090F82430012B00F08B800246012380F813
:103ACC0024304B68062B29D80568686B03EB8303FD
:103ADC00053B1F249C4020EA04000C6804FA03F305
:103AEC0003436B630B68092B38D91568E86803EB43
:103AFC0043031E3B07249C4020EA04008C6804FA14
:103B0C0003F30343EB600B68103B012B34D900200B
:103B1C00002382F8243002B030BC70470C2B0ED836
:103B2C000568286B03EB8303233B1F249C4020EA8E
:103B3C0004000C6804FA03F303432B63D2E7056813
:103B4C00E86A03EB8303413B1F249C4020EA0400FA
:103B5C000C6804FA03F30343EB62C3E715682869A6
:103B6C0003EB430307249C4020EA04008C6804FA0E
:103B7C0003F303432B61C6E713681648834205D051
:103B8C00936A43F0200393620120C1E7986810F414
:103B9C00000F1BD1986840F4000098600B68102B44
:103BAC0001D00020B4E70C4B1B680C49A1FB03139C
:103BBC009B0C03EB83035900019102E0019B013B39
:103BCC000193019B002BF9D10020A1E700209FE776
:103BDC000220A0E7002401402000002083DE1B43CC
:103BEC00806A704730B583B00023019303689A68EC
:103BFC0012F0010F2ED19A6842F001029A60174B15
:103C0C001B68174AA2FB03239B0C019302E0019B48
:103C1C00013B0193019B002BF9D10446FFF708F9F6
:103C2C00054623689B6813F0010F11D1FFF700F9CB
:103C3C00401B0228F5D9A36A43F01003A362E36A80
:103C4C0043F00103E362002384F82430012002E0F6
:103C5C00002000E0002003B030BD00BF2000002099
:103C6C0083DE1B4390F82430012B6AD010B5044638
:103C7C00012380F82430FFF7B5FF024600285BD102
:103C8C00A36A23F4407323F0010343F48073A3620B
:103C9C0023682D498B4227D0A16A21F48011A1629F
:103CAC00596811F4806F05D0A16A21F4405141F498
:103CBC008051A162A16A11F4805F2BD0E16A21F0DE
:103CCC000601E162002184F824106FF002011960F2
:103CDC002368996801F46021B1F5602F1DD09968B3
:103CEC0041F4801199602AE0A1F58061496811F4D2
:103CFC00702FD1D0A16A41F48011A1621349496897
:103D0C0011F4806FD6D0A16A21F4405141F4805156
:103D1C00A162CFE70021E162D4E70B498B4204D0CA
:103D2C00996841F4A001996009E0A1F580614968A6
:103D3C0011F4702FD3D1F3E7002384F8243010460C
:103D4C0010BD02221046704700280140002401409B
:103D5C0038B503689A6812F0010F01D1002038BD04
:103D6C0004469A6822F001029A60FFF761F8054652
:103D7C0023689B6813F0010F0ED0FFF759F8401B16
:103D8C000228F5D9A36A43F01003A362E36A43F057
:103D9C000103E3620120E2E70020E0E700287FD086
:103DAC0038B50446836A002B33D02046FFF7D0FF8A
:103DBC00A36A13F010036DD100286BD1A26A22F410
:103DCC00885222F0020242F00202A2626268E169A9
:103DDC000A43257B42EA4502A168B1F5807F21D0D8
:103DEC0001291CD0217D01291FD02568696821F487
:103DFC0069410B436B6021688D682A4B2B40134340
:103E0C008B60A368B3F5807F20D0012B1ED00021DE
:103E1C001FE0C36280F82430FEF758F9C5E74FF471
:103E2C008073DFE74FF48073DCE735B9A1690139A2
:103E3C0043EA413343F40063D7E7A16A41F0200120
:103E4C00A162E16A41F00101E162CEE72369013B25
:103E5C0019052568EB6A23F470030B43EB622368A6
:103E6C009968114B0B409A420BD0A36A23F01203B2
:103E7C0043F01003A362E36A43F00103E362012001
:103E8C000DE00023E362A36A23F0030343F0010374
:103E9C00A36204E0A36A43F01003A362012038BDBF
:103EAC0001207047FDF7E1FFFE0E1FFF0F4B1A6854
:103EBC0042F001021A6059680D4A0A405A601A68A9
:103ECC0022F0847222F480321A601A6822F4802262
:103EDC001A605A6822F4FE025A604FF41F029A606C
:103EEC00044B4FF000629A60704700BF0010024014
:103EFC000000FFF800ED00E008B5034B1B7803B1A0
:103F0C0008BDFEF79BFFFBE7540C002008B5034BE4
:103F1C001B78014618460FF0BAFF08BD05000020BB
:103F2C0008B5044B1B780A46014618460FF064FF8F
:103F3C0008BD00BF0500002008B5044B1B780A46DD
:103F4C00014618460FF058FF08BD00BF06000020C0
:103F5C0008B510F0B7F808BD08B510F08CF808BD1E
:103F6C0010B51C46134622460FF063FF10BD70B50A
:103F7C0088B004460D461646197868460EF003FDC7
:103F8C0033466A46294620460FF053FF08B070BDF1
:103F9C0010B5C0B014468DF800008DF8011019460C
:103FAC000DF102000EF0E4FC044B1878A31CDBB2FC
:103FBC006A46FD210FF03DFF40B010BD050000200A
:103FCC0038B50546002404E00520FEF737FF013420
:103FDC00A4B2AC42F8D338BD08B50146024B1878F0
:103FEC000FF0B1FD08BD00BF040D002008B50A4656
:103FFC000146024B18780FF083FD08BD040D00201C
:10400C0008B5FEF71BFF08BD08B50146402010F0AF
:10401C003AFA08BD08B50146282010F080FA0F4B7B
:10402C0018600F4AA2FB0013DB0803EB8301A2FB11
:10403C0001C2A0EB410303EB83030A49A1FB03304C
:10404C00400900EBD20000EB8000C0EB0010A1FB9C
:10405C0000304009044B186008BD00BFEC0900207B
:10406C00CDCCCCCC1F85EB51F409002008B50A4609
:10407C0001464A2010F07FFA08BD0000024A13786E
:10408C0023EA000010707047360A0020024A1378A9
:10409C0018431070704700BF360A0020014B187887
:1040AC00704700BF360A002008B5082809D8DFE899
:1040BC0000F0050505050D0D0D0D09005220FFF74B
:1040CC002FFF08BD5720FFF72BFFFAE75D20FFF706
:1040DC0027FFF6E7F8B505460C4617465320FFF7C1
:1040EC0015FF00F03F065E20FFF710FF00F03F01C8
:1040FC0004F03F04082D0ED8DFE805F0050E192456
:10410C002F37424D580031465320FFF709FF214607
:10411C005320FFF705FFF8BD46F040015320FFF791
:10412C00FFFE44F040015320FFF7FAFEF3E746F0A0
:10413C0080015320FFF7F4FE44F080015320FFF779
:10414C00EFFEE8E746F0C0015320FFF7E9FE44F02C
:10415C00C0015320FFF7E4FEDDE75E20FFF7E0FE31
:10416C0021465E20FFF7DCFED5E741F040015E20E2
:10417C00FFF7D6FE44F040015E20FFF7D1FECAE700
:10418C0041F080015E20FFF7CBFE44F080015E2001
:10419C00FFF7C6FEBFE741F0C0015E20FFF7C0FE8F
:1041AC0044F0C0015E20FFF7BBFEB4E72146582067
:1041BC00FFF7B6FE07F01F015920FFF7B1FEAAE783
:1041CC0038B5CDB2090A090101F07001D4B2C2F3BD
:1041DC000222082812D8DFE800F0050505051F1F8C
:1041EC001F1F120011435420FFF79AFE2946552039
:1041FC00FFF796FE21465620FFF792FE38BD11437D
:10420C005A20FFF78DFE29465B20FFF789FE2146D9
:10421C005C20FFF785FEF1E711435F20FFF780FE7E
:10422C0029466020FFF77CFE21466120FFF778FECF
:10423C00E4E7000070B506460C4614F8015B10214B
:10424C00FD20FFF76DFE3146FE20FFF769FE044BA3
:10425C00187823462A46FF21FFF782FE70BD00BF67
:10426C000500002070B582B0064602AC04F8012DA2
:10427C000D787021FD20FFF753FE3146FE20FFF72D
:10428C004FFE044B187823462A46FF21FFF76FFE9A
:10429C0002B070BD0500002070B582B006461D4608
:1042AC0002AC04F8012D7021FD20FFF739FE3146D8
:1042BC00FE20FFF735FE044B187823462A46FF21D3
:1042CC00FFF755FE02B070BD0500002038B504465E
:1042DC000D465320FFF71AFE00F03F01A40164B213
:1042EC002143C9B25320FFF71BFE5E20FFF70EFEE1
:1042FC0000F03F0044EA0001C9B25E20FFF710FE57
:10430C005120FFF703FE15F0080F01D100F0F70064
:10431C0020F0070149B205F00F052943C9B251201D
:10432C00FFF7FEFD38BD10B504465120FFF7EEFD3A
:10433C0000F0FD010CB141F0020141F008015120E7
:10434C00FFF7EEFD10BD10B504466920FFF7DEFD4A
:10435C0000F00F0141EA0411C9B26920FFF7E0FD3A
:10436C0000215820FFF7DCFD10BD0000072825D8E0
:10437C00DFE800F004080C1014181C20114B124A32
:10438C001A6070470F4B114A1A6070470D4B104A58
:10439C001A6070470B4B0F4A1A607047094B0E4A54
:1043AC001A607047074B0D4A1A607047054B0C4A50
:1043BC001A607047034B0B4A1A607047014B094A4D
:1043CC001A607047400A0020F89201081093010807
:1043DC00049301081C930108E0920108D49201088F
:1043EC00EC9201085093010870B48C6884420EDB87
:1043FC009E681D68761B0B68E41A18D0C01A06FB61
:10440C0000F696FBF4F42C44146001200DE05D687A
:10441C009E68AD1B4B681B1B0BD0041B05FB04F5E6
:10442C0095FBF3F535441560012070BC70470020F6
:10443C00FBE70020F9E7000008B54138932800F2AB
:10444C00E080DFE800F086DEDEDEDEDEDEDEDEDEF5
:10445C00DEDEDEDEDEDEDEDEDE9ADEDEDEDEDEDEB4
:10446C00DEDEDEDEDECACEDADEDEDEDEDEDEDEDE88
:10447C00DEDEDEDEDEDEDEDEDEDEDEDEDEDEDEDE50
:10448C00DEDEDEDEDEDEDEDEDEDEDEDEDEDEDEDE40
:10449C00DEDEDEDEDEDEDEDEDEDE4A4E52DE565AEC
:1044AC00DE5EDEDEDEDEDEDEDEDEDEDEDEDEDEDEA0
:1044BC00DEDEDEDEDEDEDEDEDEDEDEDEDE66626A78
:1044CC006E767A7E82DE8A8E9296DEAAAEDEB2722C
:1044DC00DEDE9EA2A6B6BABEC2C61220FFF738FD1B
:1044EC0008BD1320FFF734FDFAE71420FFF730FD69
:1044FC00F6E71720FFF72CFDF2E71620FFF728FD53
:10450C00EEE71820FFF724FDEAE7A320FFF720FDD4
:10451C00E6E7A020FFF71CFDE2E7A420FFF718FD5B
:10452C00DEE7AC20FFF714FDDAE7AD20FFF710FD56
:10453C00D6E7BF20FFF70CFDD2E72020FFF708FDE0
:10454C00CEE72120FFF704FDCAE72220FFF700FD8C
:10455C00C6E72020FFF7FCFCC2E7A520FFF7F8FC1C
:10456C00BEE7A620FFF7F4FCBAE7A720FFF7F0FCA4
:10457C00B6E7A820FFF7ECFCB2E71920FFF7E8FC40
:10458C00AEE7BC20FFF7E4FCAAE7BD20FFF7E0FC98
:10459C00A6E7BE20FFF7DCFCA2E7A220FFF7D8FCC1
:1045AC009EE7AE20FFF7D4FC9AE7AA20FFF7D0FCD9
:1045BC0096E7C020FFF7CCFC92E7C120FFF7C8FCC0
:1045CC008EE7C220FFF7C4FC8AE7C320FFF7C0FCCC
:1045DC0086E7C420FFF7BCFC82E72320FFF7B8FC7A
:1045EC007EE7094B1B78612B03D02520FFF7B0FC2D
:1045FC0076E72420FFF7ACFC72E72520FFF7A8FC38
:10460C006EE700206CE700BF3F0A002010B584B0B5
:10461C000C4662383A2824D8DFE800F04B232323D9
:10462C00232323232323232323232323232323234E
:10463C00232323232323232323232323232323233E
:10464C002323232323232323232323232323232D24
:10465C001E3323393F234500214A6B4607CA83E8A2
:10466C0007006B4603AA1F492046FFF7BDFE9DF8C5
:10467C000C0004B010BD1C4A6B4607CA83E8070047
:10468C00EFE71A4A6B4607CA83E80700E9E7184ABE
:10469C006B4607CA83E80700E3E7164A6B4607CA6E
:1046AC0083E80700DDE7144A6B4607CA83E8070076
:1046BC00D7E7124B1B78022B0BD0342B09D0352BA0
:1046CC0007D0362B05D00E4A6B4607CA83E8070085
:1046DC00C7E70C4A6B4607CA83E80700C1E700BF6F
:1046EC004800002040090020540000202403002032
:1046FC0008010020300300203C00002009000020AD
:10470C00FC000020F000002010B584B00C4662289C
:10471C0008D10C4B1B78022B0DD00B4A6B4607CAE9
:10472C0083E807006B4603AA08492046FFF75CFEA6
:10473C00039804B010BD064A6B4607CA83E807000D
:10474C00F0E700BF09000020FC0000204009002019
:10475C00F000002000B583B09C20FFF76DFE054BE8
:10476C0001AA0549FFF740FE0198044B186003B0FD
:10477C005DF804FB3C0000204C09002014000020D4
:10478C00F8B50646622813D0012918D04FF0FF3532
:10479C00622E16D0434B1C682544434B1B68AB421E
:1047AC0003DC414B5B68AB4246DAE4B22046F8BD11
:1047BC00012902D06FF00305EAE70425E8E701259B
:1047CC00E6E73A4B1978032915D800216220FFF748
:1047DC009BFF374B1B78022B13D0364B19784900B3
:1047EC00053100EB0111B1F5C87F21D932480AF02F
:1047FC00E5F90025CEE72944C9B26220FFF784FF12
:10480C00E7E72C4B1B785B0005331B011A18B2F53C
:10481C00487F02D86433834205D9014626480AF002
:10482C00CDF90025B6E7014624480AF0C7F9B1E7EF
:10483C0022480AF0C3F9ADE7ECB221463046FFF747
:10484C00E5FE0746A6F19500072809D8DFE800F039
:10485C000B0410081521082639463120FFF760FBA0
:10486C00104B1D60A2E739463220FFF759FBF7E7E2
:10487C0039463320FFF754FBF2E73420FFF746FBB1
:10488C0041B221F03F013943C9B23420FFF748FB54
:10489C00E6E739464E20FFF743FBE1E7FFF75AFF07
:1048AC00DEE700BF380A0020400900200A00002083
:1048BC00090000200B0000203890010844900108EA
:1048CC0010B59620FFF7B8FDC1B29620FFF79EFEFB
:1048DC0001463120FFF724FB9720FFF7ADFDC1B255
:1048EC009720FFF793FE01463320FFF719FB952025
:1048FC00FFF7A2FDC1B29520FFF788FE01463220DA
:10490C00FFF70EFB9920FFF797FDC1B29920FFF737
:10491C007DFE04463420FFF7F9FA41B221F03F0145
:10492C002143C9B23420FFF7FBFA9A20FFF784FD2C
:10493C00C1B29A20FFF76AFE0446A0214B20FFF774
:10494C00EFFA21464E20FFF7EBFAFFF703FF80B298
:10495C00FCF716FE10BD000010B53A4B1B78012B6E
:10496C000CD0384B5B78012B21D0364B9B78012B2C
:10497C0036D0344BDB78012B4BD010BD324B1B782F
:10498C0053B9324C21460420FFF754FC0222214635
:10499C000420FFF767FCF0E72D4C21460420FFF7BD
:1049AC0049FC022221460420FFF75CFCE5E7264B7C
:1049BC001B7853B9254C21460A20FFF73BFC0222F9
:1049CC0021460A20FFF74EFCD7E7214C21460A204E
:1049DC00FFF730FC022221460A20FFF743FCCCE70C
:1049EC00194B1B7853B9194C21461020FFF722FCA8
:1049FC00022221461020FFF735FCBEE7144C21465D
:104A0C001020FFF717FC022221461020FFF72AFC8A
:104A1C00B3E70D4B1B7853B10D4C21461620FFF715
:104A2C0009FC022221461620FFF71CFCA5E7074CC7
:104A3C0021461620FFF7FEFB022221461620FFF727
:104A4C0011FC9AE7140A00203F090020F49E01088B
:104A5C00F09E010808B567480AF0B0F8664B1B7861
:104A6C00302B00F0A7801ED8042B43D9102B3FD13C
:104A7C00FFF714FB10F0A60F55D1FFF70FFB10F04A
:104A8C00800F61D101210020FFF720FC0121084695
:104A9C00FFF71CFC01210220FFF718FC0121032069
:104AAC00FFF714FC24E0502B00F08480602B1DD108
:104ABC00FFF7F4FA10F0A60F57D150480AF07EF821
:104ACC00FFF7ECFA10F0800F63D101210020FFF703
:104ADC00FDFB01210846FFF7F9FB01210220FFF73E
:104AEC00F5FB01210320FFF7F1FB01E0402B61D026
:104AFC00002008BDFFF7D2FA10F0A60F09D1FFF77E
:104B0C00CDFA10F0800F09D101210020FFF7DEFB58
:104B1C00EEE70B210020FFF7D9FBE9E70B21002082
:104B2C00FFF7D4FBE4E703210020FFF7CFFB0321C1
:104B3C000120FFF7CBFB03210220FFF7C7FB03216A
:104B4C000846FFF7C3FBD3E703210020FFF7BEFBAA
:104B5C0003210120FFF7BAFB03210220FFF7B6FB6C
:104B6C0003210846FFF7B2FBC2E703210020FFF741
:104B7C00ADFB03210120FFF7A9FB03210220FFF766
:104B8C00A5FB03210846FFF7A1FB1D480AF016F808
:104B9C00AEE703210020FFF799FB03210120FFF76B
:104BAC0095FB03210220FFF791FB03210846FFF739
:104BBC008DFB9DE7FFF772FA10F0060F0CD1012167
:104BCC000020FFF783FB01210846FFF77FFB012143
:104BDC000220FFF77BFB8BE703210020FFF776FB1E
:104BEC0003210120FFF772FB03210220FFF76EFB6C
:104BFC007EE700BF50900108BC07002068900108B8
:104C0C006090010870B592B00446614D0EAB95E80A
:104C1C00070003C31A8005F10C0393E803000C9002
:104C2C008DF834100023ADF82E300E238DF8203083
:104C3C0078238DF821308DF822308DF823308DF8C3
:104C4C0024308DF825308DF826308DF827308DF8EE
:104C5C0028308DF829308DF82A308DF82B308DF8CE
:104C6C002C308DF82D308DF82E3004AE05F1140358
:104C7C000FCB07C6338001AB243595E8070003C37F
:104C8C001A70444B11AA44492046FFF7ADFB11980A
:104C9C007D2820DC414B83FB0023C517C5EB630546
:104CAC00EBB206E012AA1A44702102F8381C013348
:104CBC00DBB20E2BF6D9394A82FB0032C317C3EB99
:104CCC00620303EBC303C31A12AA134413F8443C44
:104CDC00154405F8383C01230AE05A1E12A90A446F
:104CEC0012F8381C12AA1A4402F8281C0133DBB241
:104CFC000E2BF2D9632C08D8092C33D812AB1C44D8
:104D0C0014F8103C8DF8333022E0254BA3FB042320
:104D1C005B0912AA1A4412F8102C8DF83120642267
:104D2C0002FB1344E4B21F4BA3FB0423DB0812AABF
:104D3C001A4412F8102C8DF8322003EB83035A001E
:104D4C00A31ADBB212AA134413F8103C8DF83330BB
:104D5C0008A95520FFF76EFA0CA96420FFF76AFA30
:104D6C0012B070BD0F4BA3FB0423DB0812AA1A442C
:104D7C0012F8102C8DF8322003EB83035A00A31A7F
:104D8C00DBB212AA134413F8103C8DF83330DFE772
:104D9C008C4601082400002040090020398EE3389D
:104DAC001F85EB51CDCCCCCCF0B585B0A34C01AB71
:104DBC0094E8070003C31A80236B0093A220FFF72B
:104DCC00C7F8002840F0DE809D4BDE78002E40F0C6
:104DDC00D980354610E005EBC5035C004034E4B2E5
:104DEC00984F39462046FFF725FA022239462046CD
:104DFC00FFF738FA0135EDB2072DECD9924B197843
:104E0C00C1F113010822C9B21046FFF763F9402122
:104E1C000820FFF749F98D4B1B78012B14D0013B6F
:104E2C00894A1178013903EB830303EB830303EB0A
:104E3C000111402289B20820FFF7C2F9824B1B787E
:104E4C00012B3BD0344666E07F4B197801390901C0
:104E5C008331402289B20820FFF7B2F9EEE704EB68
:104E6C00C4035D004035EDB2794B53F8241028464D
:104E7C00FFF7E0F9A31EDBB2022B0FD9631FDBB2E5
:104E8C00022B13D90222724B53F824102846FFF739
:104E9C00E9F90134E4B2072CE1D93EE006226C4B6F
:104EAC0053F824102846FFF7DDF9F2E70422684B8B
:104EBC0053F824102846FFF7D5F9EAE73446EAE719
:104ECC00614B1B78C3F11300023B624A52F823304A
:104EDC00A50000FB04F0403053F82410C0B2FFF7DB
:104EEC00A9F9A31EDBB2022B4ED9631FDBB2022B36
:104EFC005CD9554B1B78C3F11300023B554A52F851
:104F0C00233000FB04F0403002225959C0B2FFF7A5
:104F1C00A9F90134E4B2072CD2D90620FFF7AEF878
:104F2C001020FFF7B3F84C4B1B781BB3BE2B4ED0A5
:104F3C00BF2B74D0092E75D9484BA3FB0623DB0875
:104F4C0004AA1A4412F80C2C8DF8022003EB8303EC
:104F5C005A00B31ADBB204AA134413F80C3C8DF8B4
:104F6C000330042269464020FFF77CF96946402053
:104F7C00FFF760F9384B1B78002B5AD10E2100201B
:104F8C00FFF7A4F905B0F0BD2F4B1B78C3F113004C
:104F9C00023B304A52F8233000FB04F0403006222A
:104FAC0053F82410C0B2FFF75DF9B2E7264B1B781B
:104FBC00C3F11300023B274A52F8233000FB04F0E4
:104FCC00403004225959C0B2FFF74CF9A1E71F4BEE
:104FDC001E78632EAED9224BA3FB06235B0904AAD1
:104FEC001A4412F80C2C8DF80120642202FB136376
:104FFC00DBB21A4AA2FB0312D20804A9114411F81D
:10500C000C1C8DF8021002EB820251005B1ADBB211
:10501C0004AA134413F80C3C8DF80330A1E70A4B97
:10502C001E78D6E704AB1E4416F80C3C8DF8033002
:10503C0097E70A210020FFF749F9A3E78C460108FE
:10504C00500A0020289E01080800002007000020BC
:10505C001C950108FC9501083E0A0020CDCCCCCC57
:10506C001F85EB5170B582B09A4B93E8030000900A
:10507C00ADF80410090C8DF80610974B1B78022B19
:10508C000ED0964B19786220FFF73EFB944B1B78A1
:10509C005B000533A0EBC300924B1860002431E099
:1050AC008E4B19786220FFF72FFB8D4B1B785B0022
:1050BC000533A0EB03108B4B1860EFE7884E337869
:1050CC00013B02AA134413F8080CC0F11400864DDE
:1050DC0000FB04F040302946C0B2FFF7ABF8337840
:1050EC00013B02AA134413F8082C04EB8403980028
:1050FC00801AC0B2403007222946C0B2FFF7B2F87E
:10510C000134E4B2072CD9D9754B1B78013B02AAA8
:10511C00134413F8081CC1F114010822C9B210463B
:10512C00FEF7D8FF40210820FEF7BEFF6A4B1B7824
:10513C00023B342B22D8DFE803F01B2121542149F8
:10514C002121212C212135213521352C2C214921BE
:10515C003F49213F2C2C2C214949494921215421DB
:10516C002335213F23232321544921545E5E5E00C5
:10517C0040225C4B19880820FFF722F8002471E0CC
:10518C00584B19681831402289B20820FFF718F8DB
:10519C00F4E7544B19681831B82289B20820FFF78C
:1051AC000FF8EBE74F4B196801F5D671B82289B2AD
:1051BC000820FFF705F8E1E74A4B196801F5D471AF
:1051CC00402289B20820FEF7FBFFD7E7454B196850
:1051DC0001F5D6714FF4987289B20820FEF7F0FFF2
:1051EC00CCE7404B196818314FF4987289B20820FB
:1051FC00FEF7E6FFC2E73B4B1968E031402289B26B
:10520C000820FEF7DDFFB9E7354B1B78013B02AAFE
:10521C001A4412F8080CC0F11400344A52F8233026
:10522C0000FB04F04030042253F82410C0B2FFF706
:10523C0019F847E02A4B1A78531E02A9194411F8A1
:10524C00080CC0F1140000FB0420C0B2274A52F82D
:10525C0023104230012302224959C0B2FFF71CF837
:10526C000134E4B2072C45D81D4B1B78013B02AA34
:10527C001A4412F8080CC0F114001C4A52F82330DE
:10528C00A50000FB04F0403053F82410C0B2FEF728
:10529C00D1FF174B1B78002BB6D0114B1B78013B61
:1052AC0002AA1A4412F8080CC0F114000F4A52F862
:1052BC00233000FB04F04030062253F82410C0B217
:1052CC00FEF7D0FF0A4B1B78612BB3D0002BC7D154
:1052DC00B0E700BFC0460108090000200A0000200A
:1052EC000B0000200C000020289E0108809A010869
:1052FC003F0A00203620FEF7C1FE194B1B78022B0B
:10530C000BD007210020FEF7E1FF164B1B784BB9A1
:10531C008020FEF7BBFE02B070BD0E210020FEF710
:10532C00D5FFF2E7012216210420FEF7D3FE182147
:10533C000420FEF7B9FE0C4C21461820FEF77AFF2C
:10534C00042221461820FEF78DFF4FF4C872582115
:10535C000420FEF735FF0F210020FEF7B7FFD7E73B
:10536C00090000203F0A0020F490010808B53628F7
:10537C0024D8DFE800F01C1C2C1C1C2C1C2C1C1C26
:10538C001C2C1C1C2C1C2C1C2C2C2C1C2C1C2C2CC1
:10539C001C2C2C2C2C1C2C2C2C2C1C1C2C1C2C2C91
:1053AC001C2C2C2C2C1C2C2C1C2C2C2C2C000B4B8F
:1053BC0037221A7005210020FEF788FF074B1B7857
:1053CC00372B03D0064B1B78012B03D008BD034BA6
:1053DC001870F3E7FFF746FEF8E700BF090000205E
:1053EC00440B002008B5044809F0E8FB03491820D9
:1053FC00FEF720FF08BD00BF209001080C910108AA
:10540C0070B5284809F0DAFB022221210820FEF7AA
:10541C0061FE40210820FEF747FE4FF4E67244215E
:10542C000820FEF7CDFE00240FE004EB44154035B8
:10543C00EDB21D4E31462846FEF7FCFE02223146E7
:10544C002846FEF70FFF0134E4B2012CEDD9174CBE
:10545C0021464020FEF7EEFE042221464020FEF7B6
:10546C0001FF134C21466120FEF7E4FE0422214685
:10547C006120FEF7F7FED620FEF700FEB920FEF7FE
:10548C00DBFF50B107210020FEF720FF2020FEF7A4
:10549C00FDFD084B01221A7070BD0321FEF716FFAB
:1054AC00F4E700BFE49301089C9E0108749E010878
:1054BC00789E01083D0A002010B5404B1B78012B4B
:1054CC0002D0012B41D010BD3D4A12781AB13D4A91
:1054DC001278372AF5D1012202210820FEF7FAFDB5
:1054EC0040210820FEF7E0FD1B2230210820FEF7AA
:1054FC0067FE354B1B78012B17D0344C21464020CE
:10550C00FEF798FE022221464020FEF7ABFE062055
:10551C00FEF7B4FDB920FEF78FFF88B90321FEF723
:10552C00D5FE0820FEF7B2FDCDE7294C21464020E0
:10553C00FEF780FE022221464020FEF793FEE6E7AE
:10554C0007210020FEF7C2FEEBE701220221062014
:10555C00FEF7C0FD2C210620FEF7A6FD1B4C2146B4
:10556C002C20FEF767FE022221462C20FEF77AFE45
:10557C001B2230210620FEF723FE164B1B78002B36
:10558C00A1D1154B1B78002B9DD101220A2104209F
:10559C00FEF7A0FD18210420FEF786FD0F4C2146D6
:1055AC001820FEF747FE072221461820FEF75AFE68
:1055BC007722AD210420FEF703FE84E7400E002085
:1055CC00440B002009000020A80A0020C09E0108FE
:1055DC00EC9E0108AB0A00207C0C002050930108C3
:1055EC0010B5234B1B78BBB3224B1B78012B12D06D
:1055FC00022B1BD0032B24D0052B22D0042B35D10E
:10560C001D4C21460320FEF715FE042221460320E3
:10561C00FEF728FE2AE0194C21460320FEF70AFE6D
:10562C00042221460320FEF71DFE1FE0144C2146E8
:10563C000320FEF7FFFD042221460320FEF712FE95
:10564C0014E0104C21460320FEF7F4FD0422214601
:10565C000320FEF707FE09E00B4C21460320FEF762
:10566C00E9FD042221460320FEF7FCFD10BD00BF1E
:10567C00AB0A0020AC0A0020FC9E0108049F010824
:10568C00089F0108F89E0108009F01082DE9F04FC2
:10569C0083B0054688461746BB4A1478C4F34006C7
:1056AC0004F00104042B15DCB84B1B78002B00F024
:1056BC00BD81012B09D04FF0E00B4FF4BA7301936D
:1056CC004FF01B0A4FF4DF79B4E14FF0250A4FF08D
:1056DC00F409AFE1102B12D0502B6BD0302B00F013
:1056EC00B080402B00F0F480602B00F03781702BE1
:1056FC0000F064814FF0400A4FF0E0099AE1A0B944
:10570C00A24B1B78002B00F0BC81012B08D04FF072
:10571C00630BAD2301934FF01B0A4FF0F80989E19D
:10572C004FF0250A4FF0F40984E1012812D0022829
:10573C0026D0964B1B78002B00F0B281012B34D075
:10574C004FF4AA7B40F2412301934FF4867A4FF435
:10575C0023796FE18D4B1B78002B00F09781012B87
:10576C0009D04FF0630B40F2412301934FF01B0A19
:10577C004FF423795EE14FF0250A40F2763959E176
:10578C00824B1B78002B00F08681012B08D04FF444
:10579C00AA7BAD2301934FF4867A4FF0F80949E1C7
:1057AC0040F2911A4FF0F40944E140F2911A40F2A0
:1057BC0076393FE1A8B9754B1B78002B00F0758149
:1057CC00012B09D04FF0630B4FF4BA7301934FF0D8
:1057DC001B0A4FF4DF792DE14FF0250A4FF0F40945
:1057EC0028E1012813D0022840F02481674B1B7854
:1057FC00002B00F06481012B1ED04FF4AA7B40F2E9
:10580C00412301934FF4867A4FF4237912E15F4BD5
:10581C001B78002B00F04E81012B08D04FF4AA7B93
:10582C00AD2301934FF4867A4FF0F80902E14FF063
:10583C00250A40F27639FDE040F2911A40F27639B1
:10584C00F8E0A0B9514B1B78002B00F03D81012BE7
:10585C0008D04FF0DF0BAD2301934FF01B0A4FF034
:10586C00F809E7E04FF0250A4FF0F409E2E00128CF
:10587C0013D0022840F0DE80444B1B78002B00F044
:10588C002D81012B1FD04FF4AA7B40F241230193B1
:10589C004FF4867A4FF42379CCE03C4B1B78002BE9
:1058AC0000F01781012B09D04FF0630B40F241231C
:1058BC0001934FF01B0A4FF42379BBE04FF0250AFC
:1058CC0040F27639B6E040F2911A40F27639B1E006
:1058DC00A8B92E4B1B78002B00F00581012B09D0A9
:1058EC004FF0DF0B40F2412301934FF01B0A4FF4B2
:1058FC0023799FE04FF0250A40F276399AE001288F
:10590C0012D0022840F09680204B1B78002B00F020
:10591C00F480012B1DD04FF4AA7BAD2301934FF4DF
:10592C00867A4FF0F80985E0184B1B78002B00F0B5
:10593C00DF80012B08D04FF0630BAD2301934FF0A8
:10594C001B0A4FF0F80975E04FF0250A4FF0F409E7
:10595C0070E040F2911A4FF0F4096BE0C0B90B4BB8
:10596C001B78002B00F0CE80012B08D04FF0DF0B02
:10597C00AD2301934FF01B0A4FF0F8095AE04FF09A
:10598C00250A4FF0F40955E0C2070020840C0020D2
:10599C00C44B1B78002B00F0BA80012B09D04FF0C0
:1059AC00DF0B40F2412301934FF01B0A4FF4237994
:1059BC0040E04FF0250A40F276393BE080B9B94B14
:1059CC001B78002B00F0A880012B04D04FF0180A94
:1059DC004FF030092EE04FF0250A4FF0F40929E082
:1059EC0001280DD0022825D1AE4B1B78002B00F0DE
:1059FC009D80012B15D04FF0180A4FF4137919E044
:105A0C00A84B1B78002B00F08C80012B04D04FF09E
:105A1C00180A4FF49F790DE04FF0250A40F29E29A9
:105A2C0008E04FF0250A4FF4896903E04FF03D0A76
:105A3C004FF0B409002D40F0D880002E7BD19A4B4A
:105A4C001B78012B00F09080984B1B78012B00F0F9
:105A5C009780FFF7C5FD002C40F0AD800820FEF7C5
:105A6C0072FC934B1B78032B00F0E781002E40F067
:105A7C001282002C00F0148201212846FEF726FC2D
:105A8C00E7E14FF03D0A4FF0B409D3E74FF03D0A80
:105A9C0040F27449CEE740F25B2A4FF0B409C9E7F3
:105AAC0040F25B2A40F27449C4E74FF03D0A4FF0D4
:105ABC00B409BFE74FF03D0A40F27449BAE740F22F
:105ACC005B2A40F27449B5E74FF03D0A4FF0B40938
