:020000040800F2
:1000000000500020D10C01086D1800086F1800087E
:100010007118000873180008751800080000000027
:100020000000000000000000000000007718000839
:1000300079180008000000007B1800087D180008EF
:10004000190D0108190D0108190D0108190D0108F4
:10005000190D0108190D010885180008190D01086E
:10006000190D0108190D0108190D0108190D0108D4
:10007000190D0108190D0108190D0108190D0108C4
:10008000190D0108190D0108190D0108190D0108B4
:10009000190D0108190D0108190D0108190D0108A4
:1000A000190D0108190D0108190D0108190D010894
:1000B000190D010891180008190D0108190D010802
:1000C000190D0108190D0108190D0108190D010874
:1000D000190D0108A1180008B1180008190D010830
:1000E000190D0108190D0108190D01080000000083
:1000F0000000000000000000000000000000000000
:0C01000000000000000000005FF808F1A3
:10010C0010B5054C237833B9044B13B10448AFF345
:10011C0000800123237010BD0C060020000000009D
:10012C002C2D010808B5034B1BB103490348AFF351
:10013C00008008BD00000000100600202C2D0108D6
:10014C0010F8012B11F8013B012A28BF9A42F7D075
:10015C00D01A70472DE9F04188B00025049505951B
:10016C0006950795414B9A6942F004029A619A6987
:10017C0002F004020092009A9A6942F008029A6115
:10018C009A6902F008020192019A9A6942F01002EF
:10019C009A619A6902F010020292029A9A6942F0EC
:1001AC0020029A619B6903F020030393039B304F59
:1001BC0001221321384602F0A1FF40F2F3130493FD
:1001CC000124059406940226079604A9384602F0E9
:1001DC00A9FE0494274B0593069507F5006704A91F
:1001EC00384602F09FFE049405950694DFF88C8047
:1001FC0004A9404602F096FE4FF470430493059513
:10020C00069404A9404602F08DFE40F601030493C7
:10021C0005940694079604A9404602F083FE43F227
:10022C000433049305940694079604A9384602F007
:10023C0079FEC02304930595069404A9384602F070
:10024C0071FE0423049305940694079604A90A48A6
:10025C0002F068FE2A462946062002F0C1FF06205D
:10026C0002F0F2FF08B0BDE8F08100BF00100240C0
:10027C00000801400000211000140140000C014056
:10028C0070B58AB0002408940994019402940394E4
:10029C000494059406940794114D4FF080432B6001
:1002AC0008266E60AC604FF47A63EB602C61AC6135
:1002BC00284601F00AFE0894099408A9284601F082
:1002CC0063FF60230193029403940594324601A9C1
:1002DC00284601F045FE284601F0EEFB0AB070BD41
:1002EC00F007002030B587B00024029403940494E6
:1002FC000594009401940E4D0E4B2B6023236B60E0
:10030C00AC600923EB602C618023AB61284601F0C3
:10031C00C3FD4FF48053029302A9284601F099FEC5
:10032C00009401946946284601F02EFF07B030BDB9
:10033C003C0700200004004008B50848084B036047
:10034C004FF4E133436000238360C36003610C22EC
:10035C0042618361C36102F016F808BDAC0700204E
:10036C000038014008B50848084B03604FF4E133EE
:10037C00436000238360C36003610C22426183618C
:10038C00C36102F000F808BD3008002000440040B2
:10039C0070B584B000250195029503950D4C0E4B5C
:1003AC002360A560257325754FF46023E3616560B8
:1003BC0001262661204603F0A1F90D230193029634
:1003CC00039501A9204603F01FF8204601F030FBED
:1003DC0004B070BD7C0700200024014010B501382A
:1003EC00012809D814464FF47A7392B2074801F0E9
:1003FC00F9FF40B1002010BD10F08AFC0923036006
:10040C004FF0FF30F7E72046F5E700BFAC070020C0
:10041C0000B583B002A901F8010D4FF6FF7301225C
:10042C00024801F0DFFF03B05DF804FB3008002048
:10043C0008B50CF0BDFE3D2140F6B8300CF0C8FEFE
:10044C0037214FF4FA600CF0C3FE3A214FF47A7066
:10045C000CF0BEFE08BD000070B50446232835D84C
:10046C00DFE810F0240049005A006C007E00A50063
:10047C008702B40036035D03460476038F03A90399
:10048C00C303DE03F803120461042B04DA00FB003F
:10049C001B013B015B01A401C401E501050225021E
:1004AC00AE02CF02EF02460266027B04AB4B002287
:1004BC001A7001255D70AA4B1B78AA4A1370AA4AC0
:1004CC001370AA4810F0D6FCA94B1D70A34809F074
:1004DC006DFE01200EF0EEFE3E200CF0B3FE3E2130
:1004EC004FF47A700CF074FEE4B220460EF0F0FE7D
:1004FC00A04B1C7070BD994A0123137002215170DE
:10050C009D4A127897490A7097494A70984A137015
:10051C009A4810F0AFFCD9E7904B02221A700322D4
:10052C005A70974B1B788F4A13708F4A9370904B6D
:10053C0001221A70934810F09DFCC7E7874B0322E9
:10054C001A7004225A70904B1B78864A1370864A94
:10055C00D370874B01221A708C4810F08BFCB5E7D6
:10056C007E4B10221A700121597002229A700322BC
:10057C00DA7004221A717A4B1E787A4B1E707E4AFE
:10058C0015785D707E4A107898707F4A1278DA7010
:10059C00754B1E705D709870DA70754B00221A7076
:1005AC005A709A70D9707A4810F064FC8EE76B4BD5
:1005BC0020221A7001225A7002229A700322DA70D9
:1005CC0004221A71734810F055FC7FE7634B3022FC
:1005DC001A7001225A70022199700321D9700421DA
:1005EC0019715F4B1E785F4B1E7063490D785D70FF
:1005FC0063490878987064490978D9705A4B1E7011
:10060C005D709870D9705A4B1A7000225A709A709B
:10061C00614810F02FFC59E7504B30221A7004221D
:10062C005A70012199700222DA7000221A71564B0D
:10063C001E784C4B1E704A4805785D704E48007809
:10064C009870494B1E705D709870494B19705A70B8
:10065C009A70524810F00EFC38E7404B30221A705A
:10066C0001225A70022199700321D9703C4B1D78DC
:10067C003C4B1D7040490878587041490978997075
:10068C00394B1D7058709970394B1A7000225A7082
:10069C009A70414810F0EEFB18E7304B30221A707C
:1006AC0001225A70022199700421D9702C4B1D78AB
:1006BC002C4B1D7030490878587033490978997063
:1006CC00294B1D7058709970294B00211970597065
:1006DC009A70334810F0CEFBF8E6204B30221A709B
:1006EC0001225A70032199700421D9701C4B1D787A
:1006FC001C4B1D7022490878587023490978997051
:10070C00194B1D7058709970194B00211970597044
:10071C009A70244810F0AEFBD8E6104B30221A70B9
:10072C0002225A7001229A700321D970124B1D7843
:10073C000C4B1D700A49087858701149097899704A
:10074C00094B1D7058709970094B1A7000225A7021
:10075C009A70154810F08EFBB8E600BF74080020A4
:10076C00700800205006002084060020E82E0108A6
:10077C005406002039060020EF070020FC2E01084B
:10078C003A070020102F010839070020242F0108F8
:10079C00382F0108482F0108582F0108742F010821
:1007AC00902F0108AC2F0108C82F0108B54B30223F
:1007BC001A7002225A7001229A700421D970B24B1D
:1007CC001D78B24B1D70B24908785870B149097840
:1007DC009970B14B1D7058709970B04B0021197005
:1007EC0059709A70AE4810F045FB6FE6A54B30225D
:1007FC001A7002225A7003229A700422DA70A44BE7
:10080C001878A24B1870A74A11785970A14A12781F
:10081C009A70A14B187059709A70A04B00221A70E4
:10082C005A7001229A70A04810F024FB4EE6954BAA
:10083C0030221A7003225A7001229A700221D97048
:10084C00984B1D78914B1D709149087858708E49C2
:10085C0009789970904B1D70587099708F4B1A7065
:10086C0000225A709A70914810F004FB2EE6854BCA
:10087C0030221A7003225A7001229A700421D97006
:10088C00884B1D78814B1D708149087858708149BF
:10089C0009789970804B1D70587099707F4B0021AE
:1008AC00197059709A70824810F0E4FA0EE6754B84
:1008BC0030221A7003225A7002229A700422DA70C3
:1008CC00784B1878714B18706F4A11785970714ABF
:1008DC0012789A70704B187059709A706F4B002286
:1008EC001A705A7001229A70724810F0C3FAEDE532
:1008FC00644B30221A7004225A7001229A70032120
:10090C00D970644B1D78614B1D7061490878587023
:10091C00644909789970604B1D70587099705F4BE1
:10092C001A7000225A709A70634810F0A3FACDE541
:10093C00544B30221A7004225A7002229A700322ED
:10094C00DA70544B1878514B18704F4A1178597013
:10095C00544A12789A70504B187059709A704F4BC9
:10096C0001221A7000225A709A70544810F082FAC0
:10097C00ACE5444B50221A7001225A700221997036
:10098C000321D97004211971424B1E783F4B1E7004
:10099C003F490D785D703C49087898704149097859
:1009AC00D9703D4B1E705D709870D9703B4B1A70AE
:1009BC0000225A709A70DA70414810F05BFA85E5A3
:1009CC00304B50221A7004225A7001219970022265
:1009DC00DA7000221A712F4B1E782C4B1E702C488B
:1009EC0005785D702848007898702B4B1E705D70F0
:1009FC0098702A4B19705A709A70324810F03AFA63
:100A0C0064E5204B50221A7004225A7001229A700D
:100A1C000321D9701F4B1D781C4B1D701C49087885
:100A2C0058702049097899701B4B1D70587099703B
:100A3C001A4B1A7000225A709A70234810F01AFA46
:100A4C0044E5104B50221A7004225A7002229A70FC
:100A5C000322DA700F4B18780C4B18700A4A117875
:100A6C005970104A12789A700B4B187059709A7012
:100A7C000A4B01221A7000225A709A70134810F017
:100A8C00F9F923E574080020EF0700205006002038
:100A9C00700800203907002084060020540600202E
:100AAC00E42F01083A070020003001081C3001082F
:100ABC003830010854300108703001088C300108BE
:100ACC00A8300108C4300108E0300108FC300108EE
:100ADC00B24B40221A700121597002229A700322E3
:100AEC00DA7004221A71AE4B1E78AE4B1E70AE4AF1
:100AFC0015785D70AD4A10789870AD4A1278DA703E
:100B0C00AC4B1E705D709870DA70AB4B00221A7093
:100B1C005A709A70D970A94810F0ACF9D6E49F4B72
:100B2C0060221A7001225A70022199709C4B18781D
:100B3C009C4B18709C49097859709E4B18705970D1
:100B4C009D4B1A7000225A709D4810F093F9BDE429
:100B5C00924B60221A7001225A7004219970904BAA
:100B6C001878904B1870924909785970914B1870FD
:100B7C005970914B002119705A70924810F07AF903
:100B8C00A4E4864B60221A7004225A7002229A70D6
:100B9C00874B1978834B1970834A12785A70854B9E
:100BAC0019705A70844B01221A7000225A708648B0
:100BBC0010F060F98AE4794B60221A7004225A70A2
:100BCC0003229A707A4B1978764B1970774A1278FF
:100BDC005A70784B19705A70774B01221A70002298
:100BEC005A707A4810F046F970E46C4B60221A7017
:100BFC0002225A7001229A706B4B1978694B19704A
:100C0C006748007858706B4B1970694909785970AE
:100C1C00694B1A7000225A706D4810F02BF955E48C
:100C2C005E4B60221A7002225A7003229A705E4B3D
:100C3C0019785C4B19705D4A12785A705D4B1970BB
:100C4C005A705D4B01221A7000225A70614810F0E4
:100C5C0011F93BE4514B60221A7002225A700422A3
:100C6C009A70514B19784F4B1970514A12785A702F
:100C7C00504B19705A70504B00221A7001225A7046
:100C8C00554810F0F7F821E4444B60221A70012209
:100C9C005A7003219970424B1878424B1870434993
:100CAC0009785970434B18705970434B1A700022D5
:100CBC005A704A4810F0DEF808E4384B60221A707B
:100CCC0003225A7002229A70384B1978354B1970DE
:100CDC00354A12785A70374B19705A70364B0122BC
:100CEC001A7000225A703E4810F0C4F8FFF7EEBBA1
:100CFC002A4B60221A7003225A7004229A702B4BD2
:100D0C001978284B19702A4A12785A70294B197085
:100D1C005A70294B00221A7001225A70314810F077
:100D2C00A9F8FFF7D3BB1D4B60221A7003225A702F
:100D3C0001229A701D4B18781A4B187018490978B3
:100D4C0059701C4B187059701B4B1A7000225A703A
:100D5C00254810F08FF8FFF7B9BB104B70221A70B2
:100D6C0001225A70022199700321D9700C4B1D7805
:100D7C000C4B1D700C49087858700C490978997007
:100D8C000C4B1D70587099700B4B1A7000225A70D6
:100D9C00DA70164810F06EF8FFF798BB7408002054
:100DAC007008002050060020EF0700203A070020B2
:100DBC003907002084060020540600201831010851
:100DCC0028310108403101085831010870310108FF
:100DDC0088310108A0310108B8310108D03101086F
:100DEC00E8310108003201081832010830320108DC
:100DFC0038B50CF07FFD0446014616480CF036F968
:100E0C000CF078FD05280BD10CF074FD052816D1DB
:100E1C00052C1DD00CF0D2FE0F480CF027F917E072
:100E2C000E4D052128460CF021F905200CF088FD0B
:100E3C000CF060FD014628460CF018F9E4E7084870
:100E4C000CF014F907480CF011F9074BFF221A703B
:100E5C0038BD00BF602E0108802E0108702E0108DD
:100E6C00BC2E0108D82E0108EE07002010B5012871
:100E7C0026D029480CF0FAF8284C01224FF40051E6
:100E8C00204602F03BF900224FF40061244802F0A6
:100E9C0035F9192002F0E0FC00220421204602F072
:100EAC002DF9192002F0D8FC002280211D4802F0F7
:100EBC0025F900200EF0FEF91B4B01221A7010BD13
:100ECC001A480CF0D3F8154C01224FF4005120466F
:100EDC0002F014F900224FF40061114802F00EF9EF
:100EEC00322002F0B9FC642002F0B6FC002204218E
:100EFC00204602F003F9322002F0AEFCA4F50064A7
:100F0C0001224FF48071204602F0F8F80022802173
:100F1C00204602F0F3F8CCE7DC2D0108001001406C
:100F2C00000C01400008014048060020CC2D0108AF
:100F3C0010B514480CF09AF8134C00224FF4807141
:100F4C00204602F0DBF801228021204602F0D6F880
:100F5C0004F5006400224FF40051204602F0CEF854
:100F6C0001224FF40061094802F0C8F80122042163
:100F7C00204602F0C3F801200EF09CF9044B00222D
:100F8C001A7010BDBC2D010800080140000C014076
:100F9C004806002008B501224FF48071014802F088
:100FAC00ADF808BD0008014008B500224FF480716F
:100FBC00014802F0A3F808BD0008014010B5084C28
:100FCC0000224021204602F099F8002220212046E0
:100FDC0002F094F801221021204602F08FF810BD87
:100FEC000008014010B588B06023019302900023E3
:100FFC0003930593054C082201A9204600F0B0FF8D
:10100C000821204601F0A2F808B010BDF00700201E
:10101C0008B5C043C0B2632812D9A0F16403DBB297
:10102C00272B24D900F17403DBB2272B21D900F133
:10103C004C03DBB2272B1ED9DB281ED8002200E084
:10104C004622164B1B78012B1FD1154B1B78934254
:10105C0015D9013B124A1370124B00221A70104B17
:10106C001878C0EB001080B2FFF7BCFF08BD5A2205
:10107C00E7E76E22E5E78222E3E79122E1E793427C
:10108C00EAD20133064A1370E6E7054BFF221A70C9
:10109C004FF47A60FFF7A6FFE8E700BF3A0600209E
:1010AC00020000202806002010B5AB2002F000FC46
:1010BC00334B1870B02002F0FBFB324B1870AC2095
:1010CC0002F0F6FB304B1870A32002F0F1FB2F4B13
:1010DC001870AA2002F0ECFB2D4B1870AD2002F01A
:1010EC00E7FB2C4B1870A02002F0E2FB2A4B187087
:1010FC00AF2002F0DDFB294B1870202002F0D8FB4A
:10110C00274B18700CF06CFD264C2070A52002F0BB
:10111C00CFFB254B1870A62002F0CAFB234B18708E
:10112C00A72002F0C5FB224B1870A82002F0C0FBD0
:10113C00204B18700CF054FD2070C92002F0B8FB45
:10114C001D4C2070CC2002F0B3FB6070CF2002F05D
:10115C00AFFBA070D22002F0ABFBE070D82002F005
:10116C00A7FB164C2070D92002F0A2FB6070DA208D
:10117C0002F09EFBA070DB2002F09AFBE07010BD29
:10118C0003000020ED070020C8060020C506002043
:10119C007E080020380700203A060020740A002040
:1011AC00EC0700208B05002070080020EF070020C2
:1011BC003A07002039070020600900208C06002027
:1011CC0010B5274B1B781BB126480BF04FFF2DE0B9
:1011DC002F200CF055F8FFF7ABFE04F01BFA112092
:1011EC000CF030F8F0E7AB2002F066FB2D200CF091
:1011FC0047F804F0C3F91C4B1B78012B28D00F20A7
:10120C000CF020F80F214FF4FA600BF0E1FF1121E4
:10121C004FF4FA700BF0DCFF14480BF027FF10BDF5
:10122C000DF0ECFD0CF042FB09F0AAFE0DF09EF95E
:10123C000F4B19780129D6D00DF004FC0446002878
:10124C00EED02D200CF01CF820460DF0D7FDE9E770
:10125C00034B1B78002BD2D103F012F9CFE700BF60
:10126C00DF060020EC2D0108740A0020FC2D01087B
:10127C000300002008B505E009F082FE08E00DF03F
:10128C0075F998B10CF012FB094B1B78002BF3D0BD
:10129C0001200EF08FF90BF0E5F80DF0D3FB054BA8
:1012AC001B78002BEBD10DF0A9FDE8E708BD00BFC2
:1012BC00A20600200000002070B590B02022002172
:1012CC0007A80FF05AFD002401940294039404948F
:1012DC0005940225069501260A9610230B930D956D
:1012EC004FF4E0130F9306A801F084FA0F23019337
:1012FC000295039404940594314601A801F0BAFCBC
:10130C0010B070BD70B501F027FAFFF7D5FFFFF7ED
:10131C008FF8FEF71FFFFFF70BFE01200DF0CAFF41
:10132C002D200BF0ADFFFEF7ABFFFEF7DBFFFFF759
:10133C0003F8FFF717F8FFF72BF810F0D5FD10F0B6
:10134C004FFF11F051F911F0ABFB4FF47A60FFF73E
:10135C0049FEFFF733FE0CF043FC454B18700020A0
:10136C0002F008FB434B18600020FFF77FFD0EF0E6
:10137C003BF8322002F070FA01223F493F4801F05D
:10138C00A1F83F4C00221021204601F0B7FE0022AC
:10139C001021204601F0B2FE00220121204601F06E
:1013AC00ADFE642002F058FA01221021204601F013
:1013BC00A5FE01221021204601F0A0FE01221146BB
:1013CC00204601F09BFE2F4A2F4930480FF0DEFCDF
:1013DC00002002F04BFA01462D480FF0D7FC2D49A6
:1013EC00302005F051FAFFF703FDFFF75DFE0124F5
:1013FC00294B1C705A21204602F042FA274B04223A
:10140C005A711C720325DD7110221A7002269E710E
:10141C00002008F063FE204608F060FE304608F01D
:10142C005DFE284608F05AFE0DF0E4F91C4B1B78C3
:10143C00A3420DD00AF002FE01200EF061FD194806
:10144C0000F01DFC02F0DEFD00200DF033FF08E083
:10145C000DF0F8FA0028EDD1FFF79CFDEAE7FFF755
:10146C00AFFE0F4B1B78012BF9D1FFF703FFF6E70B
:10147C008B0500203006002060060020AC07002001
:10148C00000801400C2E0108182E0108242E01081A
:10149C00482E0108F88A0108710800207408002001
:1014AC00030000203C07002002689C4B9A4200D0AD
:1014BC00704730B49A4A13780133DBB21370994AEF
:1014CC001168013111609848026801320260632B87
:1014DC0009D99648036801330360914B00201870BA
:1014EC00934B01201860934B1868013018601868F2
:1014FC00914B984206D98F4B002018608F4B1B786C
:10150C00012B20D08E4B9B68DB43C3F381338D487A
:10151C00C4789C4208D045780570857845708470F5
:10152C00C370894B01201860884B1B78DBB2012BF0
:10153C000FD0B1F57A7F00F08A80B2F57A7F00F097
:10154C00D28030BC7047824803780133DBB2037021
:10155C00D8E7804B1878C0B27F4B1B78DBB298422F
:10156C0023D07C4B1B78DBB2212B15D87B4B1B7803
:10157C00DBB2012B53D07A4B1B889BB240F2E2407A
:10158C00834209D9764B1B889BB240F2A950834207
:10159C0002D8724B01201870714B002018806E4BD2
:1015AC001B78DBB26B480370C3E76D4803880133CB
:1015BC009BB2038003889BB243F698208342B8D930
:1015CC00684B1B78DBB21F2B09D9674B1B689BB28E
:1015DC006648038003889BB2B3F57F4F0FD000237E
:1015EC00604803705E4803805A4803705A48037081
:1015FC00564803705C4803605848037099E75A4892
:10160C000368C3F307435A4C237003686FEA1363F0
:10161C00DBB258480370584B01201870DFE7504B71
:10162C001B889BB25A2BA6D94F4803685B080360F2
:10163C004B4B1B889BB2A02B03D9036843F0004390
:10164C000360484803780133DBB2037093E7354BF2
:10165C0000211960494B9968C94301F0C001A3F5F9
:10166C0080639B68DB431B0A03F030030B4334D0CD
:10167C00434B1B78032B06D0642B19D040490B78B5
:10168C0001330B7059E73D4B9B68DB4303F0C00300
:10169C002B498968C943090A01F030010B433949C8
:1016AC000B70394B00211960384B01211960E5E7AB
:1016BC00324B9B68DB4303F0C00321498968C94363
:1016CC00090A01F030010B432E490B702F4B0121FD
:1016DC0019602B4B0A211970D0E7002328490B7095
:1016EC0028490B7029E7104B00221A60284B1B78F5
:1016FC00002B53D0274A1278032A06D0962A07D0FB
:10170C00244A1378013313701BE7234A1370F7E74D
:10171C00214A13701F4B04221A70F1E70004004099
:10172C00B3060020B4060020B8060020AC0600204A
:10173C00A806002064060020A086010001000020FD
:10174C00000C0140E40600208C0A00204106002019
:10175C004C060020580600204206002047060020B8
:10176C0044060020460600203C0600206A060020A5
:10177C006D0600206C060020400600200010014081
:10178C0063060020870A0020800A0020700A0020CF
:10179C00E906002068060020750A00200023024A92
:1017AC001370024A1370CCE668060020750A0020FC
:1017BC0010B504460268184B9A4204D02268174BA5
:1017CC009A4214D010BD16490A78531CDBB20B7028
:1017DC0014490878144988541D2B02D9104B002247
:1017EC001A7001220F49114800F06CFEE6E710490F
:1017FC000A78531CDBB20B700E4908780E498854DA
:10180C001D2B02D90A4B00221A70012209490B48E0
:10181C0000F058FED6E700BF0038014000440040FD
:10182C00A406002060060020AC090020AC070020B4
:10183C00A30600205C060020EC09002030080020E4
:10184C00012800D07047044B01221A70034A137808
:10185C000133DBB21370F5E741060020420600208D
:10186C007047FEE7FEE7FEE7FEE7704770477047FC
:10187C0008B500F083FF08BD08B5012001F044FC59
:10188C0008BD000008B5024800F00EFA08BD00BF04
:10189C003C07002008B5024800F0A0FE08BD00BFC0
:1018AC00AC07002008B5024800F098FE08BD00BF48
:1018BC003008002082B00E4B9A6942F001029A6106
:1018CC009A6902F001020092009ADA6942F08052A1
:1018DC00DA61DB6903F080530193019B054A53687D
:1018EC0023F0E06343F00073536002B0704700BF15
:1018FC00001002400000014002680E4B9A4200D0DA
:10190C00704700B583B003F50333DA6942F0020285
:10191C00DA61DB6903F002030193019B002211469B
:10192C001D2001F05DFC1D2001F08EFC03B05DF864
:10193C0004FB00BF0004004070B588B004460023CF
:10194C0004930593069307930268364B9A4205D08D
:10195C002268354B9A4234D008B070BD03F5584319
:10196C009A6942F480429A619A6902F48042009228
:10197C00009A9A6942F004029A619B6903F004038D
:10198C000193019B4FF400730493022305930323EB
:10199C000793264E04A9304601F0C4FA4FF4806335
:1019AC00049300250595069504A9304601F0BAFA72
:1019BC002A462946252001F013FC252001F044FC81
:1019CC00C6E703F5E633DA6942F40032DA61DA6924
:1019DC0002F400320292029A9A6942F004029A616D
:1019EC009B6903F004030393039B042304930223D6
:1019FC000593032307930D4D04A9284601F092FA91
:101A0C000823049300240594069404A9284601F0A5
:101A1C0089FA22462146262001F0E2FB262001F01D
:101A2C0013FC99E7003801400044004000080140D5
:101A3C0000B587B0002302930393049305930268C7
:101A4C00114B9A4202D007B05DF804FB03F56C43CE
:101A5C009A6942F400729A619A6902F400720092D7
:101A6C00009A9A6942F010029A619B6903F0100384
:101A7C000193019B082302930323039302A90348B8
:101A8C0001F050FADFE700BF0024014000100140D4
:101A9C000368B3F1804F00D0704782B003F5043374
:101AAC00DA6942F00102DA61DB6903F001030193A8
:101ABC00019B02B07047000000B587B00023029371
:101ACC000393049305930368B3F1804F02D007B0DE
:101ADC005DF804FB03F504339A6942F008029A613D
:101AEC009B6903F008030193019B4FF480630293FD
:101AFC0002230393059302A9064801F013FA064A40
:101B0C00536823F4407343F0E06343F40073536071
:101B1C00DDE700BF000C01400000014070B4036A17
:101B2C0023F001030362036A4268846924F073049E
:101B3C000D6845EA040623F002048B6823430D4D1F
:101B4C00A84209D00B4DA8420DD0426086614A686C
:101B5C004263036270BC704723F00803CC682343D4
:101B6C0023F00403EEE722F440724C6914438A69B3
:101B7C002243EAE7002C014030B4036A23F480735B
:101B8C000362036A4268C46924F073040D682C4331
:101B9C0023F400738D6843EA05230F4DA84209D046
:101BAC000D4DA8420ED04260C4614A68C263036204
:101BBC0030BC704723F40063CD6843EA052323F45B
:101BCC008063EDE722F440524D6942EA05128D69BB
:101BDC0042EA0512E7E700BF002C014030B4036A6B
:101BEC0023F480530362036A4468C26922F4E64218
:101BFC000D6842EA052223F400538D6843EA05334D
:101C0C00074DA84206D04460C2614A680264036270
:101C1C0030BC704724F480444D6944EA8514F2E7E3
:101C2C00002C014010B4036A046A24F0010404621D
:101C3C00846924F0F00444EA021223F00A030B43F3
:101C4C008261036210BC704710B4036A23F0100366
:101C5C0003628469036A24F4704444EA023223F078
:101C6C00A00343EA01138261036210BC70478368CE
:101C7C0023F07003194341F007018160704702683B
:101C8C00D36843F00103D3600268936803F0070341
:101C9C00062B03D0136843F0010313600020704738
:101CAC00704770477047704710B5044603681A694F
:101CBC0012F0020F11D0DA6812F0020F0DD06FF093
:101CCC0002021A610123037703689B6913F0030F67
:101CDC0070D0FFF7E6FF0023237723681A6912F010
:101CEC00040F12D0DA6812F0040F0ED06FF0040259
:101CFC001A610223237723689B6913F4407F5FD01A
:101D0C002046FFF7CEFF0023237723681A6912F0D1
:101D1C00080F12D0DA6812F0080F0ED06FF008021C
:101D2C001A61042323772368DB6913F0030F4ED069
:101D3C002046FFF7B6FF0023237723681A6912F0B9
:101D4C00100F12D0DA6812F0100F0ED06FF01002D4
:101D5C001A61082323772368DB6913F4407F3DD095
:101D6C002046FFF79EFF0023237723681A6912F0A1
:101D7C00010F03D0DA6812F0010F36D123681A690B
:101D8C0012F0800F03D0DA6812F0800F34D1236880
:101D9C001A6912F0400F03D0DA6812F0400F32D1FA
:101DAC0023681A6912F0200F03D0DA6812F0200FA2
:101DBC0030D110BDFFF774FF2046FFF773FF8AE7A1
:101DCC002046FFF76DFF2046FFF76CFF9BE7204690
:101DDC00FFF766FF2046FFF765FFACE72046FFF7ED
:101DEC005FFF2046FFF75EFFBDE76FF001021A614F
:101DFC002046FFF759FBC1E76FF080021A612046BD
:101E0C0000F0E6F9C3E76FF040021A612046FFF7D5
:101E1C004AFFC5E76FF020021A61204600F0D7F99F
:101E2C00C7E7000003681B4A90420AD0B0F1804F0C
:101E3C0007D0A2F59432904203D002F58062904212
:101E4C0003D123F070034A681343124A90420AD01C
:101E5C00B0F1804F07D0A2F59432904203D002F536
:101E6C008062904203D123F44073CA68134323F079
:101E7C0080034A69134303608B68C3620B688362F7
:101E8C00044B984202D00123436170470B690363F2
:101E9C00F9E700BF002C0140A8B110B5044690F83A
:101EAC003D305BB1022384F83D30211D2068FFF7E3
:101EBC00B9FF012384F83D30002010BD80F83C3080
:101ECC00FFF71AFDEEE701207047A8B110B50446E4
:101EDC0090F83D305BB1022384F83D30211D206821
:101EEC00FFF7A0FF012384F83D30002010BD80F8DF
:101EFC003C30FFF7CDFDEEE70120704730B4036AAC
:101F0C0023F010030362036A4468826922F4E642F8
:101F1C000D6842EA052223F020038D6843EA05137D
:101F2C000E4DA84209D00D4DA8420ED044608261DE
:101F3C004A688263036230BC704723F08003CD682B
:101F4C0043EA051323F04003EDE724F440644D69A4
:101F5C0044EA85048D6944EA8504E7E7002C0140D6
:101F6C0038B590F83C30012B66D00D460446012361
:101F7C0080F83C30022380F83D300C2A1AD8DFE878
:101F8C0002F00719191920191919341919194700D0
:101F9C000068FFF7C3FD2268936943F0080393615F
:101FAC002268936923F00403936122689369296979
:101FBC000B439361012384F83D30002084F83C00EE
:101FCC0038BD0068FFF79AFF2268936943F40063F9
:101FDC0093612268936923F4806393612268936907
:101FEC00296943EA01239361E4E70068FFF7C4FD24
:101FFC002268D36943F00803D3612268D36923F0C4
:10200C000403D3612268D36929690B43D361D1E7F7
:10201C000068FFF7E3FD2268D36943F40063D361E2
:10202C002268D36923F48063D3612268D369296958
:10203C0043EA0123D361BDE70220C1E710B48468F1
:10204C0024F47F4442EA03230B432343836010BCF4
:10205C00704790F83C30012B66D010B50446012334
:10206C0080F83C30022380F83D300268936823F4FA
:10207C007F4323F0770393600B68402B4AD013D92E
:10208C00602B3DD01ED9702B28D0B3F5005F30D11A
:10209C00CB684A6889680068FFF7D0FF22689368AC
:1020AC0043F48043936024E0102B06D004D9202BFA
:1020BC0003D0302B01D01CE0DBB919462068FFF7A8
:1020CC00D6FD16E0502B14D1CA6849680068FFF79A
:1020DC00A9FD50212068FFF7CAFD0AE0CB684A68C9
:1020EC0089680068FFF7AAFF2268936843F07703BA
:1020FC009360012384F83D30002084F83C0010BD2F
:10210C00CA6849680068FFF79FFD60212068FFF7E7
:10211C00AEFDEEE7CA6849680068FFF783FD402111
:10212C002068FFF7A4FDE4E70220704710B401F02B
:10213C001F01012303FA01F4036A23EA0403036277
:10214C00036A8A401343036210BC704710B50446FF
:10215C0001220068FFF7EAFF23680A4A93420BD07A
:10216C002268936803F00703062B03D0136843F02F
:10217C0001031360002010BD5A6C42F400425A64F3
:10218C00EEE700BF002C014090F83C30012B1CD036
:10219C0070B4012680F83C60022380F83D30026860
:1021AC005568936825F070050C682C4323F0800566
:1021BC004B682B4354600268936080F83D600023A9
:1021CC0080F83C30184670BC70470220704770474E
:1021DC0070470268D36823F49073D3600268536924
:1021EC0023F001035361202380F83A30704790F8B4
:1021FC003930DBB2212B2AD18368B3F5805F16D03E
:10220C00036A5A1C02621A7803685A60C38C013B39
:10221C009BB2C384EBB90268D36823F08003D3600C
:10222C000268D36843F04003D36000207047036A10
:10223C001B880268C3F30803536003691BB9036A64
:10224C0002330362E2E7036A01330362DEE7022032
:10225C00704700207047000038B5044602681369C7
:10226C0023F44053C1680B43136183680269134321
:10227C0042691A430168CB6823F4B05323F00C0372
:10228C001343CB600268536923F4407381690B4399
:10229C0053610268214B9A421FD000F0A5FD00EB60
:1022AC00800000EB800063689B00B0FBF3F01C4DDA
:1022BC00A5FB00325109642202FB110213013233D7
:1022CC00A5FB03235B0903F0F00202EB011203F000
:1022DC000F03216813448B6038BD00F095FD00EBB3
:1022EC00800000EB800063689B00B0FBF3F00C4DAA
:1022FC00A5FB00325109642202FB11021301323397
:10230C00A5FB03235B0903F0F00202EB011203F0BF
:10231C000F03216813448B60DEE700BF00380140D7
:10232C001F85EB512DE9F04105460F4616469846A0
:10233C00069C2B681B6837EA03030CBF01230023A0
:10234C00B3421DD1B4F1FF3FF3D02CB100F022FA0F
:10235C00A0EB0800A042ECD92A68D36823F4D07310
:10236C00D3602A68536923F001035361202385F855
:10237C00393085F83A30002385F83830032000E0F6
:10238C000020BDE8F08158B310B5044690F8393000
:10239C000BB3242384F839302268D36823F4005318
:1023AC00D3602046FFF758FF2268136923F490434B
:1023BC0013612268536923F02A0353612268D3689E
:1023CC0043F40053D3600020E063202384F83930B9
:1023DC0084F83A3010BD80F83830FFF7ADFAD8E702
:1023EC00012070472DE9F04182B01E4690F839303B
:1023FC00DBB2202B55D104460D469046002955D012
:10240C00002A55D090F83830012B53D0012380F896
:10241C0038300023C363212380F8393000F0BAF937
:10242C000746A4F82480A4F8268010E000963B46CA
:10243C00002280212046FFF775FF00283CD12B8815
:10244C002268C3F3080353602369C3B90235E38CD4
:10245C009BB2B3B1E38C013B9BB2E384A368B3F5AD
:10246C00805FE3D000963B46002280212046FFF798
:10247C0059FF18BB2A7823685A600135E7E7013504
:10248C00E5E700963B46002240212046FFF74AFF35
:10249C000346A8B9202284F83920002284F8382079
:1024AC0000E00223184602B0BDE8F0810123F9E7F1
:1024BC000123F7E70223F5E70323F3E70323F1E70F
:1024CC000323EFE790F83A30DBB2202B20D109B38D
:1024DC0012B390F83830012B20D081628285C285EE
:1024EC000023C363222280F83A2080F83830016838
:1024FC00CA6842F48072CA6001684A6942F00102FB
:10250C004A610168CA6842F02002CA6018467047E6
:10251C00022070470120704701207047022070474D
:10252C00704708B50168CB6823F04003CB602023CB
:10253C0080F83930FFF7F4FF002008BD08B590F89B
:10254C003A30DBB2222B45D18368B3F5805F0ED0D5
:10255C00036903BB03685A68836A591C81621A7049
:10256C00C38D013B9BB2C385F3B1002033E0826A7B
:10257C00036943B903685B68C3F308031380836A78
:10258C0002338362ECE703685B68DBB21380836A17
:10259C0001338362E4E703685B68826A511C8162E1
:1025AC0003F07F031370DBE70268D36823F020038A
:1025BC00D3600268D36823F48073D36002685369D4
:1025CC0023F001035361202380F83A30FFF7F0F831
:1025DC00002000E0022008BD7047000010B5044642
:1025EC0002681368D168526913F00F0005D113F01B
:1025FC00200F02D011F0200F53D1002867D012F019
:10260C00010202D111F4907F61D013F0010F06D0BA
:10261C0011F4807F03D0E06B40F00100E06313F015
:10262C00040F04D01AB1E06B40F00200E06313F029
:10263C00020F04D01AB1E06B40F00400E06313F019
:10264C00080F04D01AB1E26B42F00802E263E26BAD
:10265C00002A48D013F0200F02D011F0200F24D103
:10266C0023685B6903F04003E26B12F0080F00D1A2
:10267C003BB32046FFF7ADFD23685A6912F0400FBB
:10268C001BD05A6922F040025A61636B8BB11A4A13
:10269C005A63606B00F046FD28B3606B436B984740
:1026AC0021E02046FFF74AFF1DE02046FFF746FFDA
:1026BC00D6E72046FFF790FF15E02046FFF78CFF8A
:1026CC0011E02046FFF788FF0023E3630BE013F0D3
:1026DC00800F02D011F0800F06D113F0400F02D002
:1026EC0011F0400F04D110BD2046FFF780FDFAE732
:1026FC002046FFF716FFF6E70927000808B5406AE1
:10270C000023C385C384FFF767FF08BD10B50446DB
:10271C000E4B18784FF47A73B3FBF0F30C4A106835
:10272C00B0FBF3F000F09EFD68B90F2C01D901202D
:10273C000AE0002221464FF0FF3000F051FD054B1E
:10274C001C60002000E0012010BD00BF070000202D
:10275C000C0000200800002008B5074A136843F05D
:10276C0010031360032000F029FD0020FFF7CEFFBB
:10277C00FFF7A0F8002008BD00200240034A1168B2
:10278C00034B1B780B441360704700BF800800207C
:10279C0007000020014B1868704700BF800800201C
:1027AC0038B50446FFF7F6FF0546B4F1FF3F02D0FB
:1027BC00044B1B781C44FFF7EDFF401BA042FAD3DF
:1027CC0038BD00BF0700002082B0084B1B68084AC8
:1027DC00A2FB03235B0A00FB03F0019000BF019BEB
:1027EC005A1E0192002BF9D102B070470C00002048
:1027FC00D34D6210002800F0F58170B582B004460C
:10280C00036813F0010F2CD0AB4B5B6803F00C0387
:10281C00042B1DD0A84B5B6803F00C03082B12D0C3
:10282C006368B3F5803F41D0002B55D103F1804351
:10283C0003F504331A6822F480321A601A6822F401
:10284C0080221A6037E09C4B5B6813F4803FE7D022
:10285C00994B1B6813F4003F03D06368002B00F006
:10286C00C381236813F0020F76D0934B5B6813F08F
:10287C000C0F5FD0904B5B6803F00C03082B54D00B
:10288C002369002B00F08A808C4B01221A60FFF721
:10289C0081FF0546884B1B6813F0020F75D1FFF7BB
:1028AC0079FF401B0228F5D90320A0E1824A136866
:1028BC0043F480331360636843B3FFF76BFF054643
:1028CC007D4B1B6813F4003FCBD1FFF763FF401B1C
:1028DC006428F5D903208AE1B3F5A02F09D0764BF3
:1028EC001A6822F480321A601A6822F480221A6064
:1028FC00E1E703F18043A3F53C331A6842F48022EC
:10290C001A601A6842F480321A60D4E7FFF742FF6B
:10291C000546694B1B6813F4003FA2D0FFF73AFF42
:10292C00401B6428F5D9032061E1634B5B6813F409
:10293C00803FA5D1604B1B6813F0020F04D02369B4
:10294C00012B01D0012052E15B4A136823F0F803FC
:10295C00616943EAC1031360236813F0080F32D096
:10296C00A369002B5BD0564B01221A60FFF712FFB4
:10297C000546514B5B6A13F0020F21D1FFF70AFF9A
:10298C00401B0228F5D9032031E14B4A136823F090
:10299C00F803616943EAC1031360DDE7474B00228A
:1029AC001A60FFF7F7FE0546434B1B6813F0020F46
:1029BC00D2D0FFF7EFFE401B0228F5D9032016E119
:1029CC000120FFF701FF236813F0040F00F098803B
:1029DC00394BDB6913F0805F33D1374BDA6942F046
:1029EC008052DA61DB6903F080530193019B01256E
:1029FC00344B1B6813F4807F25D0E368012B36D051
:102A0C00002B4CD103F1804303F504331A6A22F0F6
:102A1C0001021A621A6A22F004021A622CE0284B94
:102A2C0000221A60FFF7B6FE0546234B5B6A13F0D3
:102A3C00020FC8D0FFF7AEFE401B0228F5D90320C9
:102A4C00D5E00025D4E71F4A136843F48073136064
:102A5C00FFF7A0FE06461B4B1B6813F4807FCCD1FE
:102A6C00FFF798FE801B6428F5D90320BFE0124ABB
:102A7C00136A43F001031362E3687BB3FFF78AFE2A
:102A8C0006460D4B1B6A13F0020F38D1FFF782FE7E
:102A9C00801B41F288339842F3D90320A7E0052B21
:102AAC0012D0054B1A6A22F001021A621A6A22F03D
:102ABC0004021A62E0E700BF00100240000042422C
:102ACC0080044242007000404C4B1A6A42F00402EF
:102ADC001A621A6A42F001021A62CDE7FFF75AFE37
:102AEC000646464B1B6A13F0020F08D0FFF752FE46
:102AFC00801B41F288339842F3D9032077E0E5B983
:102B0C00E369002B72D03D4A526802F00C02082A8D
:102B1C0056D0022B17D03A4B00221A60FFF73AFE20
:102B2C000446364B1B6813F0007F47D0FFF732FE8C
:102B3C00001B0228F5D9032059E0304AD36923F051
:102B4C008053D361DCE72E4B00221A60FFF722FE84
:102B5C0005462A4B1B6813F0007F06D0FFF71AFEC0
:102B6C00401B0228F5D9032041E0236AB3F5803FCE
:102B7C001AD022494B6823F47413226A606A024308
:102B8C0013434B601E4B01221A60FFF703FE0446F1
:102B9C001A4B1B6813F0007F0ED1FFF7FBFD001BD7
:102BAC000228F5D9032022E0144A536823F4003399
:102BBC00A1680B435360DCE7002018E0002016E00E
:102BCC00012B16D00D4B5B6803F48031226A9142C5
:102BDC0001D001200BE003F47013626A93420AD017
:102BEC00012004E001207047012000E0002002B029
:102BFC0070BD0120FBE70020F9E700BF0010024088
:102C0C006000424210B487B0164C94E80F000DF1EE
:102C1C00180C0CE90F00238AADF80430124B5B68DA
:102C2C0003F00C02082A1AD1C3F38342624412F84F
:102C3C00102C13F4803F05D10C4800FB02F007B0B8
:102C4C0010BC7047084B5B68C3F34043634413F8F4
:102C5C00143C074800FB02F0B0FBF3F0EFE704482C
:102C6C00EDE700BF442D01080010024000093D00B3
:102C7C0000127A00002800F0A38070B50446524B75
:102C8C001B6803F007038B420CD24F4A136823F0E6
:102C9C0007030B431360136803F007038B4201D047
:102CAC00012070BD236813F0020F17D013F0040F2E
:102CBC0004D0464A536843F4E0635360236813F02E
:102CCC00080F04D0414A536843F4605353603F4AA1
:102CDC00536823F0F003A068034353600D46236848
:102CEC0013F0010F31D06368012B20D0022B25D0BB
:102CFC00364A126812F0020F64D034494A6822F046
:102D0C00030213434B60FFF745FD06462F4B5B68F0
:102D1C0003F00C036268B3EB820F16D0FFF73AFD99
:102D2C00801B41F288339842F0D90320B9E7274A37
:102D3C00126812F4003FE0D10120B2E7234A126876
:102D4C0012F0007FD9D10120ABE71F4B1B6803F0B9
:102D5C000703AB420CD91C4A136823F007032B431F
:102D6C001360136803F00703AB4201D0012098E70E
:102D7C00236813F0040F06D0144A536823F4E0635D
:102D8C00E1680B435360236813F0080F07D00F4A18
:102D9C00536823F46053216943EAC1035360FFF77E
:102DAC0031FF0A4B5B68C3F30313094AD35CD84069
:102DBC00084B1860084B1868FFF7A8FC002070E758
:102DCC000120704701206CE70020024000100240F7
:102DDC00483201080C00002008000020014B186844
:102DEC00704700BF0C00002008B5FFF7F7FF044B3D
:102DFC005B68C3F30223034AD35CD84008BD00BF11
:102E0C00001002405832010808B5FFF7E7FF044BE9
:102E1C005B68C3F3C223034AD35CD84008BD00BF30
:102E2C00001002405832010830B587B00546384CC6
:102E3C0094E80F000DF1180C0CE90F00238AADF883
:102E4C000430022D50D0102D03D0012D2BD000209A
:102E5C0054E0304B5A681B6813F0807F50D0C2F39B
:102E6C00834306A90B4413F8100C12F4803F16D0C0
:102E7C00284B5B68C3F340430B4413F8142C264BCC
:102E8C00B3FBF2F300FB03F0224B5B6813F4800FEF
:102E9C0034D14000214BA3FB003040082EE0204BE6
:102EAC0003FB00F0F0E71B4B1B6A40F202321A40A6
:102EBC00B2F5817F26D003F44073B3F5007F04D0C4
:102ECC00B3F5407F09D0002018E0124A526A12F084
:102EDC00020FF5D049F6404010E00E4B1B6813F47E
:102EEC00003F12D1002009E0FFF78EFF094B5B6811
:102EFC00C3F3813301335B00B0FBF3F007B030BD9B
:102F0C000020FBE74FF40040F8E74FF22440F5E7D0
:102F1C00582D01080010024000127A00ABAAAAAA90
:102F2C0000093D00F0B482B000263246A2E0002D2C
:102F3C005AD0012D00D1CE68FF2B69D88446FF2BC7
:102F4C0069D89500DCF800400F27AF4024EA07044D
:102F5C0006FA05F52C43CCF800404C6814F0805F61
:102F6C0000F087805F4CA56945F00105A561A46957
:102F7C0004F001040194019C9508AF1C5A4C54F8C0
:102F8C00274002F00307BF004FF00F0C0CFA07FCB0
:102F9C0024EA0C0C554CA04243D004F58064A042AA
:102FAC0000F0818004F58064A0427ED004F580643A
:102FBC00A04234D0042435E04D4FBD4214D00BD97F
:102FCC004C4FBD4210D007F58037BD420CD0A7F551
:102FDC008017BD42B0D107E0A7F58017BD4203D0E2
:102FEC0007F58037BD42A7D18D687DB1012D08D082
:102FFC0044610826A0E7CE6808369DE7CE680C36FB
:10300C009AE70461082697E7002695E7042693E7DC
:10301C0000F1040C93E7A2F10805AD0092E703243C
:10302C0000E00024BC4044EA0C0402352E4F47F863
:10303C0025404C6814F4803F39D02F4D2C681C432C
:10304C002C604C6814F4003F37D02B4D6C681C433B
:10305C006C604C6814F4801F35D0274DAC681C4351
:10306C00AC604C6814F4001F33D0234DEC68234340
:10307C00EB6001320B6833FA02F430D00124944037
:10308C0023409C42F5D14D68122DB7D094D8022D17
:10309C00B1D07FF64CAF032DB6D0112D7FF44CAFD1
:1030AC00CE68043648E70124BCE70224BAE7124D87
:1030BC002C6824EA03042C60C3E70F4D6C6824EAE7
:1030CC0003046C60C5E70C4DAC6824EA0304AC60E7
:1030DC00C7E7094DEC6824EA0303EB60C9E702B0CB
:1030EC00F0BC704700100240000001400008014095
:1030FC0000002110000031100004014012B9090435
:10310C00016170470161704708B5054B5B6903426B
:10311C0000D108BD024B5861FEF792FBF9E700BFE6
:10312C000004014008B590F82130022B03D0042391
:10313C008363012008BD0268136823F00E0313603B
:10314C000268136823F0010313600368194A934261
:10315C0014D0143293421FD0143293421ED0143226
:10316C0093421ED0143293421ED01432934202D09A
:10317C004FF0807203E04FF4801200E001220E4BFE
:10318C005A60012380F82130002380F82030436BF3
:10319C006BB198470020CDE71022F0E74FF4807216
:1031AC00EDE74FF48052EAE74FF48032E7E7002076
:1031BC00C0E700BF0800024000000240074AD36885
:1031CC0023F4E0631B041B0C000200F4E0601843C2
:1031DC0040F0BF6040F40030D060704700ED00E07C
:1031EC0030B4174BDB68C3F30223C3F10704042C80
:1031FC0028BF04241D1D062D18D9033B4FF0FF35A5
:10320C0005FA04F421EA0401994005FA03F322EAD1
:10321C000303194300280BDB0901C9B200F160401C
:10322C0000F5614080F8001330BC70470023E5E7DF
:10323C0000F00F000901C9B2024B1954F4E700BFAA
:10324C0000ED00E014ED00E0002807DB00F01F02A9
:10325C00400901239340024A42F82030704700BFD6
:10326C0000E100E00138B0F1807F0AD2064B5860D3
:10327C00064AF02182F823100020986007221A6079
:10328C0070470120704700BF10E000E000ED00E047
:10329C00F0B583B005460C4600230193FFF77AFA8C
:1032AC002B689A6812F4807F23D106465A6812F470
:1032BC00807F03D1DB6A13F4700F24D04B4B1F6853
:1032CC000220FFF7B1FDB7FBF0F02B681969484AF3
:1032DC0011422FD1D96802F15C4211422AD11969ED
:1032EC00444A114239D1DA68434B1A4237D0292764
:1032FC003AE0AB6A43F02003AB62002385F824303C
:10330C00012003B0F0BD2B681B6813F0020F48D1ED
:10331C00B4F1FF3FF7D024B1FFF73CFA801BA04279
:10332C00F1D9AB6A43F00403AB62002385F8243077
:10333C000320E6E719692F4A114204D1D96802F13A
:10334C006E4211420DD019692C4A0A405AB9DA68FA
:10335C002A4B13405BB1FC2706E0292704E0142715
:10336C0002E0542700E0FC2707FB00F704E0542799
:10337C00FAE7019B01330193019BBB4211D2B4F1DB
:10338C00FF3FF6D024B1FFF705FA801BA042F0D91D
:10339C00AB6A43F00403AB62002385F824300320AE
:1033AC00AFE72B686FF012021A60AB6A43F400733C
:1033BC00AB622B689B6803F46023B3F5602F01D0DC
:1033CC0000209EE72B7B6BB9AB6A23F48073AB6256
:1033DC00AB6A13F4805F07D1AB6A43F00103AB62B5
:1033EC0000208EE700208CE700208AE70C000020EC
:1033FC00244992249224491292244900499224008F
:10340C000368D86C7047000030B482B0002301937D
:10341C0090F82430012B00F08B800246012380F8B9
:10342C0024304B68062B29D80568686B03EB8303A3
:10343C00053B1F249C4020EA04000C6804FA03F3AB
:10344C0003436B630B68092B38D91568E86803EBE9
:10345C0043031E3B07249C4020EA04008C6804FABA
:10346C0003F30343EB600B68103B012B34D90020B2
:10347C00002382F8243002B030BC70470C2B0ED8DD
:10348C000568286B03EB8303233B1F249C4020EA35
:10349C0004000C6804FA03F303432B63D2E70568BA
:1034AC00E86A03EB8303413B1F249C4020EA0400A1
:1034BC000C6804FA03F30343EB62C3E7156828694D
:1034CC0003EB430307249C4020EA04008C6804FAB5
:1034DC0003F303432B61C6E713681648834205D0F8
:1034EC00936A43F0200393620120C1E7986810F4BB
:1034FC00000F1BD1986840F4000098600B68102BEB
:10350C0001D00020B4E70C4B1B680C49A1FB031342
:10351C009B0C03EB83035900019102E0019B013BDF
:10352C000193019B002BF9D10020A1E700209FE71C
:10353C000220A0E7002401400C00002083DE1B4386
:10354C00806A704730B583B00023019303689A6892
:10355C0012F0010F2ED19A6842F001029A60174BBB
:10356C001B68174AA2FB03239B0C019302E0019BEF
:10357C00013B0193019B002BF9D10446FFF70AF99B
:10358C00054623689B6813F0010F11D1FFF702F970
:10359C00401B0228F5D9A36A43F01003A362E36A27
:1035AC0043F00103E362002384F82430012002E09D
:1035BC00002000E0002003B030BD00BF0C00002054
:1035CC0083DE1B4390F82430012B6AD010B50446DF
:1035DC00012380F82430FFF7B5FF024600285BD1A9
:1035EC00A36A23F4407323F0010343F48073A362B2
:1035FC0023682D498B4227D0A16A21F48011A16246
:10360C00596811F4806F05D0A16A21F4405141F43E
:10361C008051A162A16A11F4805F2BD0E16A21F084
:10362C000601E162002184F824106FF00201196098
:10363C002368996801F46021B1F5602F1DD0996859
:10364C0041F4801199602AE0A1F58061496811F478
:10365C00702FD1D0A16A41F48011A162134949683D
:10366C0011F4806FD6D0A16A21F4405141F48051FD
:10367C00A162CFE70021E162D4E70B498B4204D071
:10368C00996841F4A001996009E0A1F5806149684D
:10369C0011F4702FD3D1F3E7002384F824301046B3
:1036AC0010BD022210467047002801400024014042
:1036BC0038B503689A6812F0010F01D1002038BDAB
:1036CC0004469A6822F001029A60FFF763F80546F7
:1036DC0023689B6813F0010F0ED0FFF75BF8401BBB
:1036EC000228F5D9A36A43F01003A362E36A43F0FE
:1036FC000103E3620120E2E70020E0E700287FD02D
:10370C0038B50446836A002B33D02046FFF7D0FF30
:10371C00A36A13F010036DD100286BD1A26A22F4B6
:10372C00885222F0020242F00202A2626268E1694F
:10373C000A43257B42EA4502A168B1F5807F21D07E
:10374C0001291CD0217D01291FD02568696821F42D
:10375C0069410B436B6021688D682A4B2B401343E6
:10376C008B60A368B3F5807F20D0012B1ED0002185
:10377C001FE0C36280F82430FEF75AF9C5E74FF416
:10378C008073DFE74FF48073DCE735B9A169013949
:10379C0043EA413343F40063D7E7A16A41F02001C7
:1037AC00A162E16A41F00101E162CEE72369013BCC
:1037BC0019052568EB6A23F470030B43EB6223684D
:1037CC009968114B0B409A420BD0A36A23F0120359
:1037DC0043F01003A362E36A43F00103E3620120A8
:1037EC000DE00023E362A36A23F0030343F001031B
:1037FC00A36204E0A36A43F01003A362012038BD66
:10380C0001207047FDF7E1FFFE0E1FFF0F4B1A68FA
:10381C0042F001021A6059680D4A0A405A601A684F
:10382C0022F0847222F480321A601A6822F4802208
:10383C001A605A6822F4FE025A604FF41F029A6012
:10384C00044B4FF000629A60704700BF00100240BA
:10385C000000FFF800ED00E008B5034B1B7803B146
:10386C0008BDFEF79DFFFBE78408002008B5034B5D
:10387C001B78014618460EF004FD08BD050000201B
:10388C0008B5044B1B780A46014618460EF0AEFCF0
:10389C0008BD00BF0500002008B5044B1B780A4684
:1038AC00014618460EF0A2FC08BD00BF0600002021
:1038BC0008B50EF001FE08BD08B50EF0D6FD08BD2A
:1038CC0010B51C46134622460EF0ADFC10BD70B56B
:1038DC0088B004460D461646197868460DF04DFA28
:1038EC0033466A46294620460EF09DFC08B070BD52
:1038FC0010B5C0B014468DF800008DF801101946B3
:10390C000DF102000DF02EFA044B1878A31CDBB25B
:10391C006A46FD210EF087FC40B010BD050000206A
:10392C0038B50546002404E00520FEF739FF0134C4
:10393C00A4B2AC42F8D338BD08B50146024B187896
:10394C000EF0FBFA08BD00BF3009002008B50A468E
:10395C000146024B18780EF0CDFA08BD3009002054
:10396C0008B5FEF71DFF08BD08B5014640200EF056
:10397C0084FF08BD08B5014628200EF0CAFF0F4B86
:10398C0018600F4AA2FB0013DB0803EB8301A2FBB8
:10399C0001C2A0EB410303EB83030A49A1FB0330F3
:1039AC00400900EBD20000EB8000C0EB0010A1FB43
:1039BC0000304009044B186008BD00BF2C060020E5
:1039CC00CDCCCCCC1F85EB513406002008B50A4673
:1039DC0001464A200EF0C9FF08BD08B513460A4639
:1039EC00014628200FF053F908BD08B513460A46C6
:1039FC00014628200FF05AF808BD0000024A13783F
:103A0C0023EA0000107070476E060020024A1378FB
:103A1C0018431070704700BF6E060020014B1878D9
:103A2C00704700BF6E06002008B5082809D8DFE8EB
:103A3C0000F0050505050D0D0D0D09005220FFF7D1
:103A4C001FFF08BD5720FFF71BFFFAE75D20FFF7AC
:103A5C0017FFF6E7F8B505460C4617465320FFF757
:103A6C0005FF00F03F065E20FFF700FF00F03F016E
:103A7C0004F03F04082D0ED8DFE805F0050E1924DC
:103A8C002F37424D580031465320FFF7F9FE21469F
:103A9C005320FFF7F5FEF8BD46F040015320FFF729
:103AAC00EFFE44F040015320FFF7EAFEF3E746F047
:103ABC0080015320FFF7E4FE44F080015320FFF710
:103ACC00DFFEE8E746F0C0015320FFF7D9FE44F0D3
:103ADC00C0015320FFF7D4FEDDE75E20FFF7D0FED8
:103AEC0021465E20FFF7CCFED5E741F040015E2079
:103AFC00FFF7C6FE44F040015E20FFF7C1FECAE7A7
:103B0C0041F080015E20FFF7BBFE44F080015E2097
:103B1C00FFF7B6FEBFE741F0C0015E20FFF7B0FE35
:103B2C0044F0C0015E20FFF7ABFEB4E721465820FD
:103B3C00FFF7A6FE07F01F015920FFF7A1FEAAE729
:103B4C0038B5CDB2090A090101F07001D4B2C2F343
:103B5C000222082812D8DFE800F0050505051F1F12
:103B6C001F1F120011435420FFF78AFE29465520CF
:103B7C00FFF786FE21465620FFF782FE38BD114323
:103B8C005A20FFF77DFE29465B20FFF779FE214680
:103B9C005C20FFF775FEF1E711435F20FFF770FE25
:103BAC0029466020FFF76CFE21466120FFF768FE76
:103BBC00E4E7000070B506460C4614F8015B1021D2
:103BCC00FD20FFF75DFE3146FE20FFF759FE044B4A
:103BDC00187823462A46FF21FFF772FE70BD00BFFE
:103BEC000500002070B582B0064602AC04F8012D29
:103BFC000D787021FD20FFF743FE3146FE20FFF7C4
:103C0C003FFE044B187823462A46FF21FFF75FFE40
:103C1C0002B070BD0500002038B504460D46532097
:103C2C00FFF724FE00F03F01A40164B22143C9B2A6
:103C3C005320FFF725FE5E20FFF718FE00F03F0033
:103C4C0044EA0001C9B25E20FFF71AFE5120FFF7CB
:103C5C000DFE15F0080F01D100F0F70020F0070160
:103C6C0049B205F00F052943C9B25120FFF708FEF0
:103C7C0038BD10B504465120FFF7F8FD00F0FD01EA
:103C8C000CB141F0020141F008015120FFF7F8FDA1
:103C9C0010BD10B504466920FFF7E8FD00F00F01D8
:103CAC0041EA0411C9B26920FFF7EAFD002158204E
:103CBC00FFF7E6FD10BD0000072825D8DFE800F06F
:103CCC0004080C1014181C20114B124A1A6070476F
:103CDC000F4B114A1A6070470D4B104A1A6070470F
:103CEC000B4B0F4A1A607047094B0E4A1A6070470B
:103CFC00074B0D4A1A607047054B0C4A1A60704707
:103D0C00034B0B4A1A607047014B094A1A60704703
:103D1C007806002070760108887601087C76010808
:103D2C0094760108587601084C76010864760108EF
:103D3C00C076010870B48C6884420EDB9E681D68E6
:103D4C00761B0B68E41A18D0C01A06FB00F696FB1B
:103D5C00F4F42C44146001200DE05D689E68AD1BEA
:103D6C004B681B1B0BD0041B05FB04F595FBF3F5F3
:103D7C0035441560012070BC70470020FBE7002023
:103D8C00F9E708B5413892284BD8DFE800F0744ABF
:103D9C004A4A4A4A4A4A4A4A4A4A4A4A4A4A4A4A77
:103DAC004A4A4A4A4A4A4A4A4A4A4A4A4A4A4A4A67
:103DBC004A4A4A4A4A4A4A4A4A4A4A4A4A4A4A4A57
:103DCC004A4A4A4A4A4A4A4A4A4A4A4A4A4A4A4A47
:103DDC004A4A4A4A4A4A4A4A4A4A4A4A4A4A4A4A37
:103DEC004A4A4C50544A585C4AB04A4A4A4A4A4A8F
:103DFC004A4A4A4A4A4A4A4A4A4A4A4A4A4A4A4A17
:103E0C004A4A4A4A4A6460686C4A4A4A4A4A787C36
:103E1C0080844A94984A9C704A4A888C90A0A4A8A2
:103E2C00AC00002064E01220FFF742FD60E013209C
:103E3C00FFF73EFD5CE01420FFF73AFD58E0172039
:103E4C00FFF736FD54E01620FFF732FD50E0A320BB
:103E5C00FFF72EFD4CE0A020FFF72AFD48E0A42040
:103E6C00FFF726FD44E0AC20FFF722FD40E0AD203B
:103E7C00FFF71EFD3CE02020FFF71AFD38E0A520DF
:103E8C00FFF716FD34E0A620FFF712FD30E0A72067
:103E9C00FFF70EFD2CE0A820FFF70AFD28E0BC2060
:103EAC00FFF706FD24E0BD20FFF702FD20E0BE2059
:103EBC00FFF7FEFC1CE0A220FFF7FAFC18E0AE2096
:103ECC00FFF7F6FC14E0AA20FFF7F2FC10E0C0208C
:103EDC00FFF7EEFC0CE0C120FFF7EAFC08E0C22083
:103EEC00FFF7E6FC04E0C320FFF7E2FC00E07B20D8
:103EFC0008BD000010B584B00C469538052809D8CB
:103F0C00DFE800F0120318081E24134A6B4607CA98
:103F1C0083E807006B4603AA10492046FFF70AFF07
:103F2C009DF80C0004B010BD0D4A6B4607CA83E81F
:103F3C000700EFE70B4A6B4607CA83E80700E9E77F
:103F4C00094A6B4607CA83E80700E3E7074A6B4652
:103F5C0007CA83E80700DDE7280000208C05002055
:103F6C00340000205C020020A00000206802002029
:103F7C00F8B501290FD04FF0FF35204B1C682544B4
:103F8C001F4B1B68AB4203DC1D4B5B68AB4204DA76
:103F9C00E4B22046F8BD0125EFE70646ECB2214617
:103FAC00FFF7A8FF0746A6F19500052808D8DFE81B
:103FBC0000F00A030F07142039463120FFF760FC8C
:103FCC000E4B1D60E5E739463220FFF759FCF7E749
:103FDC0039463320FFF754FCF2E73420FFF746FC58
:103FEC0041B221F03F013943C9B23420FFF748FCFC
:103FFC00E6E739464E20FFF743FCE1E77006002068
:10400C008C05002010B59620FFF7BBFEC1B29620A0
:10401C00FFF770FF01463120FFF732FC9720FFF7C6
:10402C00B0FEC1B29720FFF765FF01463320FFF7C2
:10403C0027FC9520FFF7A5FEC1B29520FFF75AFF8C
:10404C0001463220FFF71CFC9920FFF79AFEC1B203
:10405C009920FFF74FFF04463420FFF707FC41B2CD
:10406C0021F03F012143C9B23420FFF709FC9A200B
:10407C00FFF787FEC1B29A20FFF73CFF0446A02150
:10408C004B20FFF7FDFB21464E20FFF7F9FB10BD3F
:10409C0008B53F4808F0EAFF3E4B1B78102B19D0AF
:1040AC0007D9502B54D0602B3BD0302B50D0002054
:1040BC0008BD032BFBD8FFF7B1FC10F0060F04D0A2
:1040CC0003210020FFF7A8FDF1E701210020FFF7F5
:1040DC00A3FDECE7FFF7A2FC10F0060F10D00321B4
:1040EC000020FFF799FD03210120FFF795FD032127
:1040FC000220FFF791FD03210846FFF78DFDD6E75F
:10410C0001210020FFF788FD01210846FFF784FDFF
:10411C0001210220FFF780FD01210320FFF77CFD28
:10412C00C5E7FFF77BFC10F0060F08D00321002039
:10413C00FFF772FD03210120FFF76EFDB7E70121A8
:10414C000020FFF769FD01210846FFF765FDAEE78A
:10415C00FFF764FC10F0060F0CD101210020FFF7D3
:10416C005BFD01210846FFF757FD01210220FFF7F7
:10417C0053FD9CE703210020FFF74EFD0321012096
:10418C00FFF74AFD03210220FFF746FD8FE700BF32
:10419C00D47401084C04002070B592B00446614DF3
:1041AC000EAB95E8070003C31A8005F10C0393E8E6
:1041BC0003000C908DF834100023ADF82E300E2334
:1041CC008DF8203078238DF821308DF822308DF841
:1041DC0023308DF824308DF825308DF826308DF86D
:1041EC0027308DF828308DF829308DF82A308DF84D
:1041FC002B308DF82C308DF82D308DF82E3004AE00
:10420C0005F114030FCB07C6338001AB243595E8B9
:10421C00070003C31A70444B11AA44492046FFF708
:10422C0089FD11987D2820DC414B83FB0023C517A9
:10423C00C5EB6305EBB206E012AA1A44702102F832
:10424C00381C0133DBB20E2BF6D9394A82FB003213
:10425C00C317C3EB620303EBC303C31A12AA1344C1
:10426C0013F8443C154405F8383C01230AE05A1E67
:10427C0012A90A4412F8381C12AA1A4402F8281C73
:10428C000133DBB20E2BF2D9632C08D8092C33D8AE
:10429C0012AB1C4414F8103C8DF8333022E0254B43
:1042AC00A3FB04235B0912AA1A4412F8102C8DF8F4
:1042BC003120642202FB1344E4B21F4BA3FB042302
:1042CC00DB0812AA1A4412F8102C8DF8322003EBDA
:1042DC0083035A00A31ADBB212AA134413F8103C3E
:1042EC008DF8333008A95520FFF764FC0CA9642025
:1042FC00FFF760FC12B070BD0F4BA3FB0423DB086F
:10430C0012AA1A4412F8102C8DF8322003EB8303F6
:10431C005A00A31ADBB212AA134413F8103C8DF8FE
:10432C003330DFE76C2D0108100000208C050020D5
:10433C00398EE3381F85EB51CDCCCCCC70B5BA207F
:10434C00FFF71FFD012800D070BDA220FFF7B0FAC7
:10435C000028F9D1404BDD78002DF5D1082214212D
:10436C001046FFF777FB40210820FFF75DFB40224A
:10437C0084210820FFF7E4FB10E005EB85039C008B
:10438C004034E4B2354E31462046FFF713FC02228E
:10439C0031462046FFF726FC0135EDB2072DECD94E
:1043AC002F4C21464020FFF705FC022221464020DD
:1043BC00FFF718FC2B4C21465420FFF7FBFB022285
:1043CC0021465420FFF70EFC274C21466820FFF7AE
:1043DC00F1FB062221466820FFF704FC234C214602
:1043EC007C20FFF7E7FB062221467C20FFF7FAFB37
:1043FC001F4C21469020FFF7DDFB06222146902022
:10440C00FFF7F0FB1B4C2146A420FFF7D3FB042243
:10441C002146A420FFF7E6FB174C2146B820FFF7F6
:10442C00C9FB04222146B820FFF7DCFB134C2146C4
:10443C00CC20FFF7BFFB04222146CC20FFF7D2FB98
:10444C000620FFF7DBFA1020FFF7E0FA0F2100201F
:10445C00FFF7E2FB78E700BF8C0600202479010807
:10446C0040780108587801087078010888780108AC
:10447C00A0780108B8780108D0780108E87801081C
:10448C0010B51E4808F0F2FD012202210820FFF7AA
:10449C00E1FA40210820FFF7C7FA1B22302108203F
:1044AC00FFF74EFB164B1B78012B18D0154C2146F1
:1044BC004020FFF77FFB022221464020FFF792FBB2
:1044CC000620FFF79BFAB920FFF75BFC90B10721A0
:1044DC000020FFF7A1FB0820FFF798FA10BD0A4C4B
:1044EC0021464020FFF766FB022221464020FFF7C1
:1044FC0079FBE5E70321FFF78FFBECE72477010855
:10450C00DC0600207C790108A879010810B5224B43
:10451C001B78ABB3214B1B78012B10D0022B19D07D
:10452C00032B22D0042B35D11D4C21460320FFF741
:10453C0041FB042221460320FFF754FB2AE0194CCF
:10454C0021460320FFF736FB042221460320FFF708
:10455C0049FB1FE0144C21460320FFF72BFB0422E0
:10456C0021460320FFF73EFB14E0104C21460320AC
:10457C00FFF720FB042221460320FFF733FB09E061
:10458C000B4C21460320FFF715FB04222146032088
:10459C00FFF728FB10BD00BFDF060020E00600205F
:1045AC00B4790108BC790108C0790108B079010817
:1045BC00B87901082DE9F04F83B0054688461746B7
:1045CC00B84A1478C4F3400604F00104032B15DC3C
:1045DC00B54B1B78002B00F0B781012B09D04FF0A5
:1045EC00E00B4FF4BA7301934FF01B0A4FF4DF79D1
:1045FC00AEE14FF0250A4FF0F409A9E1102B12D0CF
:10460C00502B6BD0302B00F0B080402B00F0F4809E
:10461C00602B00F03181702B00F05E814FF0400A6E
:10462C004FF0E00994E1A0B99F4B1B78002B00F0F0
:10463C00B681012B08D04FF0630BAD2301934FF0E3
:10464C001B0A4FF0F80983E14FF0250A4FF0F409EB
:10465C007EE1012812D0022826D0934B1B78002B28
:10466C0000F0AC81012B34D04FF4AA7B40F24123F3
:10467C0001934FF4867A4FF4237969E18A4B1B78C6
:10468C00002B00F09181012B09D04FF0630B40F20D
:10469C00412301934FF01B0A4FF4237958E14FF05B
:1046AC00250A40F2763953E17F4B1B78002B00F042
:1046BC008081012B08D04FF4AA7BAD2301934FF4DA
:1046CC00867A4FF0F80943E140F2911A4FF0F40961
:1046DC003EE140F2911A40F2763939E1A8B9724BB9
:1046EC001B78002B00F06F81012B09D04FF0630B6E
:1046FC004FF4BA7301934FF01B0A4FF4DF7927E1A3
:10470C004FF0250A4FF0F40922E1012813D00228BA
:10471C0040F01E81644B1B78002B00F05E81012B56
:10472C001ED04FF4AA7B40F2412301934FF4867ABA
:10473C004FF423790CE15C4B1B78002B00F0488183
:10474C00012B08D04FF4AA7BAD2301934FF4867A4A
:10475C004FF0F809FCE04FF0250A40F27639F7E00B
:10476C0040F2911A40F27639F2E0A0B94E4B1B7828
:10477C00002B00F03781012B08D04FF0DF0BAD235D
:10478C0001934FF01B0A4FF0F809E1E04FF0250AB6
:10479C004FF0F409DCE0012813D0022840F0D88057
:1047AC00414B1B78002B00F02781012B1FD04FF4BD
:1047BC00AA7B40F2412301934FF4867A4FF423797C
:1047CC00C6E0394B1B78002B00F01181012B09D06E
:1047DC004FF0630B40F2412301934FF01B0A4FF44F
:1047EC002379B5E04FF0250A40F27639B0E040F27B
:1047FC00911A40F27639ABE098B92B4B1B78002B11
:10480C0000F0FF80012B07D04FF0180B4FF4E27330
:10481C000193DA4699469BE04FF0250A40F276392F
:10482C0096E0012810D0022840F092801E4B1B7895
:10483C00002B00F0F080012B19D040F2091B302323
:10484C000193DA46994683E0174B1B78002B00F056
:10485C00DD80012B06D04FF0180B30230193DA4684
:10486C00994675E04FF0250A4FF0F40970E040F2DC
:10487C00911A4FF0F4096BE0C0B90B4B1B78002B6D
:10488C0000F0CE80012B08D04FF0DF0BAD2301934D
:10489C004FF01B0A4FF0F8095AE04FF0250A4FF081
:1048AC00F40955E052040020B0080020C94B1B78D5
:1048BC00002B00F0BA80012B09D04FF0DF0B40F237
:1048CC00412301934FF01B0A4FF4237940E04FF042
:1048DC00250A40F276393BE080B9BE4B1B78002BA1
:1048EC0000F0A880012B04D04FF0180A4FF03009CB
:1048FC002EE04FF0250A4FF0F40929E001280DD0E5
:10490C00022825D1B34B1B78002B00F09D80012B86
:10491C0015D04FF0180A4FF4137919E0AD4B1B78F2
:10492C00002B00F08C80012B04D04FF0180A4FF4B0
:10493C009F790DE04FF0250A40F29E2908E04FF0D8
:10494C00250A4FF4896903E04FF03D0A4FF0B40992
:10495C00002D40F0C980002E7BD19F4B1B78012B82
:10496C0000F090809D4B1B78012B00F09780FFF797
:10497C00CDFD002C40F09E800820FFF78AF9984B63
:10498C001B78032B00F0D481002E40F0F181002C19
:10499C0000F0F38101212846FFF73EF9D4E14FF0F6
:1049AC003D0A4FF0B409D3E74FF03D0A40F2744989
:1049BC00CEE740F25B2A4FF0B409C9E740F25B2A1C
:1049CC0040F27449C4E74FF03D0A4FF0B409BFE719
:1049DC004FF03D0A40F27449BAE740F25B2A40F2CC
:1049EC007449B5E74FF03D0A4FF0B409B0E74FF00A
:1049FC003D0A40F27449ABE740F25B2A40F274493D
:104A0C00A6E74FF03D0A40F27449A1E74FF03D0A8A
:104A1C004FF0B4099CE740F25B2A4FF0B40997E7DA
:104A2C004FF03D0A4FF0B40992E74FF03D0A40F2C7
:104A3C0074498DE74FF03D0A4FF0B40988E74FF009
:104A4C003D0A4FF44D7983E74FF03D0A40F2B459DB
:104A5C007EE7012298F800100020FEF7FBFF0021F2
:104A6C000846FEF7E1FF41460020FFF7A3F80222BB
:104A7C0041460020FFF7B6F8524649460020FFF7A2
:104A8C005FF86AE7DFF85C8141460120FFF792F896
:104A9C00062241460120FFF7A5F863E7DFF84881BD
:104AAC0041460520FFF786F8022241460520FFF714
:104ABC0099F85CE7012239780420FEF7CBFF182126
:104ACC000420FEF7B1FF39461820FFF773F80722D0
:104ADC0039461820FFF786F80BF1140292B20199AF
:104AEC000420FFF72DF847E7012D31D0022D00F0FF
:104AFC009580032D7FF440AF002E40F0E880364BBC
:104B0C00DB78012B00F0FC80344BDB78012B00F0C0
:104B1C000381FFF7FBFC002C3FF42EAF0122397808
:104B2C000720FEF797FF36210720FEF77DFF394659
:104B3C003620FFF73FF8072239463620FFF752F8A8
:104B4C000BF1140292B201990720FEF7F9FF13E75B
:104B5C0036BB214B5B78012B48D0204B5B78012B6B
:104B6C0050D0FFF7D3FC002C3FF406AF012239786C
:104B7C000520FEF76FFF22210520FEF755FF394671
:104B8C002220FFF717F8072239462220FFF72AF8D0
:104B9C000BF1140292B201990520FEF7D1FFEBE65E
:104BAC00012298F800101046FEF754FF0621012050
:104BBC00FEF73AFF41460620FEF7FCFF0222414673
:104BCC000620FFF70FF8524649460120FEF7B8FFC2
:104BDC00BFE700BFB008002050060020540600209C
:104BEC0052040020A4790108AC790108DFF8B881DF
:104BFC0041460720FEF7DEFF062241460720FEF75E
:104C0C00F1FFAAE7DFF8A48141460B20FEF7D2FFA3
:104C1C00022241460B20FEF7E5FFA2E736BB5E4BB6
:104C2C009B78012B3BD05D4B9B78012B43D0FFF73E
:104C3C006DFC002C3FF4A0AE012239780620FEF763
:104C4C0009FF2C210620FEF7EFFE39462C20FEF73B
:104C5C00B1FF072239462C20FEF7C4FF0BF11402DA
:104C6C0092B201990620FEF76BFF85E6012298F8B7
:104C7C0000100220FEF7EEFE0C210120FEF7D4FE00
:104C8C0041460C20FEF796FF022241460C20FEF70F
:104C9C00A9FF524649460220FEF752FFBFE7DFF854
:104CAC00088141460D20FEF785FF062241460D2066
:104CBC00FEF798FFB7E7DFF8F48041461120FEF7C6
:104CCC0079FF022241461120FEF78CFFAFE701224B
:104CDC0098F800100320FEF7BDFE12210320FEF70A
:104CEC00A3FE41461220FEF765FF02224146122028
:104CFC00FEF778FF524649460320FEF721FFFEE6F9
:104D0C00DFF8A48041461320FEF754FF06224146EB
:104D1C001320FEF767FFF7E6DFF890804146172077
:104D2C00FEF748FF022241461720FEF75BFFF0E634
:104D3C001B4B1B78042B03D11A4B1B78082B0AD066
:104D4C0005212846FEF768FFB920FFF71AF8C8B10D
:104D5C0003B0BDE8F08FBA20FFF713F80128EFD1AC
:104D6C00A220FEF7A5FD0028EAD1FFF7E7FAEBE752
:104D7C0004212846FEF750FFE6E700212846FEF7FF
:104D8C004BFFE1E70F2008F05DFA0F214FF4FA60BA
:104D9C0008F01EFADCE700BF500600205406002085
:104DAC00E0060020DF060020A4790108AC79010898
:104DBC0070B50D464138922800F29580DFE810F06E
:104DCC007A01930093009300930093009300930057
:104DDC00930093009300930093009300930093002F
:104DEC00930093009300930093009300930093001F
:104DFC00930093009300930093009300930093000F
:104E0C0093009300930093009300930093009300FE
:104E1C0093009300930093009300930093009300EE
:104E2C0093009300930093009300930093009300DE
:104E3C0093009300930093009300930093009300CE
:104E4C0093009300930093009300930093009300BE
:104E5C0093009300930093009300930093009300AE
:104E6C0093009300930093009500A400B30093006B
:104E7C00C200D1009300BE029300930093009300F4
:104E8C00930093009300930093009300930093007E
:104E9C00930093009300930093009300930093006E
:104EAC009300930093009300930093009300F400FD
:104EBC00E000070118019300930093009300930006
:104ECC0060018E01A801C20193002E0242029300E0
:104EDC0056022C0193009300DC01F00104026E02D7
:104EEC0082029602AA02002429E21220FEF7E0FCBC
:104EFC00BF4B186029469520FFF73AF80146044647
:104F0C001220FEF7D9FC1AE21320FEF7D1FCB84BA5
:104F1C00186029469620FFF72BF80146044613200B
:104F2C00FEF7CAFC0BE21420FEF7C2FCB04B186073
:104F3C0029469720FFF71CF8014604461420FEF77B
:104F4C00BBFCFCE11720FEF7B3FCA94B186029460B
:104F5C009920FFF70DF8014604461720FEF7ACFC2C
:104F6C00EDE11620FEF7A4FCA14B186029469A200F
:104F7C00FEF7FEFF014604461620FEF79DFCDEE11F
:104F8C00A320FEF795FC012D0AD0B0FA80F4640939
:104F9C00E5B22946A320FEF78FFC964B1D70CEE19F
:104FAC00B0FA80F46409F3E7A020FEF781FC012D30
:104FBC0009D0B0FA80F46409E1B28F4B1970A020CB
:104FCC00FEF77AFCBBE1B0FA80F46409F4E7A420A4
:104FDC00FEF76EFC012D07D0B0FA80F46409E1B243
:104FEC00A420FEF769FCAAE1B0FA80F46409F6E7A4
:104FFC00AC20FEF75DFC012D0AD0B0FA80F46409F8
:10500C00E5B22946AC20FEF757FC7C4B1D7096E1AF
:10501C00B0FA80F46409F3E7AD20FEF749FC012DEA
:10502C001BD0B0FA80F46409E5B2754B1D70012DEC
:10503C0017D00D21AE20FEF73FFC724B1B78032BD3
:10504C0014D80121AC20FEF737FC6C4B01221A70EE
:10505C002946AD20FEF730FC71E1B0FA80F464090A
:10506C00E2E70021AE20FEF727FCF1E7654E0023B6
:10507C00337009F0BFFB3178B020FEF71DFCE0E780
:10508C00A520FEF715FC012D10D0B0FA80F46409B0
:10509C005D4B1B78A34202D0002004F073FAE1B2FE
:1050AC00594B1970A520FEF707FC48E1B0FA80F4C3
:1050BC006409EDE72020FEF7FBFB012D0AD0B0FAC6
:1050CC0080F46409E5B229462020FEF7F5FB4F4B2E
:1050DC001D7034E1B0FA80F46409F3E7A620FEF702
:1050EC00E7FB012D10D0B0FA80F46409484B1B7813
:1050FC00A34202D0012004F045FAE1B2444B1970EE
:10510C00A620FEF7D9FB1AE1B0FA80F46409EDE7AA
:10511C00A720FEF7CDFB012D10D0B0FA80F4640966
:10512C003C4B1B78A34202D0022004F02BFAE1B2D4
:10513C00384B1970A720FEF7BFFB00E1B0FA80F4E2
:10514C006409EDE7A820FEF7B3FB012D10D0B0FAEF
:10515C0080F46409304B1B78A34202D0032004F086
:10516C0011FAE1B22C4B1970A820FEF7A5FBE6E072
:10517C00B0FA80F46409EDE7BC20FEF799FB012D31
:10518C0006D058B1441EE1B2BC20FEF795FBD6E028
:10519C00052801D8441CF6E70024F4E70624F2E7BE
:1051AC00BD20FEF785FB012D06D058B1441EE1B29F
:1051BC00BD20FEF781FBC2E0052801D8441CF6E7B0
:1051CC000024F4E70624F2E7BE20FEF771FB012D64
:1051DC0006D058B1441EE1B2BE20FEF76DFBAEE026
:1051EC00052801D8441CF6E70024F4E70624F2E76E
:1051FC0070060020C50600203A060020C8060020D4
:10520C0038070020ED07002070080020EC07002074
:10521C00EF0700203A07002039070020A220FEF7F4
:10522C0047FB012D06D058B1441EE1B2A220FEF777
:10523C0043FB84E0082801D8441CF6E70024F4E77B
:10524C000924F2E7AE20FEF733FB012D06D058B14E
:10525C00441EE1B2AE20FEF72FFB70E00C2801D803
:10526C00441CF6E70024F4E70D24F2E7AA20FEF72D
:10527C001FFB012D0AD002280ED9441EE5B2294687
:10528C00AA20FEF719FB2F4B1D7058E0632801D89C
:10529C00441CF3E70224F1E76424EFE7C020FEF797
:1052AC0007FB012D06D058B1441EE1B2C020FEF719
:1052BC0003FB44E0022801D8441CF6E70024F4E781
:1052CC000324F2E7C120FEF7F3FA012D06D058B102
:1052DC00441EE1B2C120FEF7EFFA30E0022801D8FB
:1052EC00441CF6E70024F4E70324F2E7C220FEF79F
:1052FC00DFFA012D06D058B1441EE1B2C220FEF7F0
:10530C00DBFA1CE0022801D8441CF6E70024F4E781
:10531C000324F2E7C320FEF7CBFA012D06D058B1D7
:10532C00441EE1B2C320FEF7C7FA08E0022801D8F8
:10533C00441CF6E70024F4E70324F2E77B24204620
:10534C0070BD00BF7E08002070B586B006461446BE
:10535C00474B03AD93E8070003C52A801A6B0292F2
:10536C009B8EADF8043004EB4403DD0035442B7BFD
:10537C00013B062B39D8DFE803F072387238043859
:10538C005A003C4807F072FEA87BFEF7FAFCC2B24A
:10539C00632A2CD9384BA3FB02135B0906A91944C9
:1053AC0011F80C1C8DF80910642101FB1323DBB2DE
:1053BC00324AA2FB0312D20806A9114411F80C1CA4
:1053CC008DF80A1002EB820251005B1ADBB206AABE
:1053DC00134413F80C3C8DF80B3004EB8404A00040
:1053EC00513002A9C0B2FEF7E5FB06B070BD092A28
:1053FC0015D9224BA3FB0213DB0806A9194411F89B
:10540C000C1C8DF80A1003EB83035900531ADBB202
:10541C0006AA134413F80C3C8DF80B30DDE7C0B230
:10542C0006AB184410F80C3C8DF80B30D5E714483B
:10543C0007F01CFEA87BFEF7A4FC29694A7804EB54
:10544C008404A3009B1ADBB2C0B202FB00F202324E
:10545C0003F155001144C0B2FEF7ACFBC5E704EBF9
:10546C008404A000533001A9C0B2FEF7A3FBBCE733
:10547C006C2D0108F87401081F85EB51CDCCCCCCF8
:10548C0000750108F8B5082214211046FEF7E2FA5F
:10549C0040210820FEF7C8FA722276210820FEF778
:1054AC004FFB002510E005EB85039C004034E4B273
:1054BC001B4E31462046FEF77DFB0222314620462C
:1054CC00FEF790FB0135EDB2072DECD900241CE062
:1054DC0004EB840295004035EDB204EB4402D60097
:1054EC00334459682846FEF765FB0E4F3B6833443E
:1054FC00022259682846FEF775FB002322461946FE
:10550C003868FFF721FF0134E4B2064B1B685A7868
:10551C00A242DDD8422204494020FEF763FBF8BDCD
:10552C0024790108880800203C79010808B5012875
:10553C0010D1114B1878302809D006D9502806D034
:10554C00602817D103F03AFE14E0102812D103F0B2
:10555C0035FE0FE00121B820FEF792F90121B920A8
:10556C00FEF78EF90221B820FEF78AF90121B92045
:10557C00FEF786F908BD00BF4C04002010B5234C83
:10558C002178234807F072FD2378102B1ED015D9F3
:10559C00502B03D0602B2DD0302B15D105210020A2
:1055AC00FEF73AFB05210120FEF736FB0521022010
:1055BC00FEF732FB0120FFF7B9FF05E0032B03D800
:1055CC0005210020FEF728FB002010BD052100203E
:1055DC00FEF722FB05210120FEF71EFB0521022010
:1055EC00FEF71AFB05210320FEF716FB0120FFF73F
:1055FC009DFFE9E705210020FEF70EFB05210120A8
:10560C00FEF70AFB0120FFF791FFDDE74C040020B9
:10561C001077010808B5334807F028FD0521002054
:10562C00FEF7FAFAFEF7FAF910F0200F23D02E4B02
:10563C0019782E4B5B5C012B0AD02D4B1B78D3B108
:10564C00294B1B78032B13D8DFE803F00C31373EC2
:10565C00192007F0C5FA01211B2007F0C1FA06F04A
:10566C0001FFEAE7234B01221A70002003F08AFFA6
:10567C001F4B00221A707620FEF7C0F9FFF77EFF51
:10568C000F2007F0DFFD0F214FF4FA6007F0A0FDAB
:10569C000E2007F0D7FD09F0ADF8174B1B78012B46
:1056AC0019D00020154B1870154B187008BD01202F
:1056BC00144B187003F066FFDAE7134B01221A70D3
:1056CC00022003F05FFFD3E7104B01221A70032076
:1056DC0003F058FFCCE70E4B1B78002BE1D1FEF703
:1056EC00CFFEDEE7E4740108ED0700208C060020F5
:1056FC003909002070080020740A0020C706002019
:10570C00C6060020EF0700203A07002039070020CA
:10571C00DF06002010B504460146064807F0A6FC3B
:10572C009B2C01D0012010BDFFF774FF08F024F969
:10573C00F8E700BF0C75010810B53C4B1B7813F053
:10574C00040F26D03A4C2078FEF726FD217838201D
:10575C00FEF7B2F80420FEF759F90A210020FEF7F3
:10576C005BFA0A210120FEF757FA0A210220FEF704
:10577C0053FA0A210320FEF74FFA0020FFF7D6FE5A
:10578C000E2007F05FFD0E2140F6B83007F020FD2B
:10579C0010BD00210846FEF73FFA00210120FEF75C
:1057AC003BFA00210220FEF737FA00210320FEF716
:1057BC0033FA032214210820FEF74CF9402108206B
:1057CC00FEF732F94FF4B47280210820FEF7B8F9D5
:1057DC00184C21464020FEF7EDF9022221464020CC
:1057EC00FEF700FA144C21465420FEF7E3F902228E
:1057FC0021465420FEF7F6F9104B1B78012B0AD0EA
:10580C000F4C21466820FEF7D5F90222214668206C
:10581C00FEF7E8F996E70B4C21466820FEF7CAF92B
:10582C00022221466820FEF7DDF98BE76E06002088
:10583C008B050020887B0108687B0108C7060020C7
:10584C0024790108A07B010810B5BB20FEF799FA5A
:10585C00012838D0012214210820FEF7FBF8402142
:10586C000820FEF7E1F84FF4B6724FF4907108205F
:10587C00FEF766F9214C21464020FEF79BF90222E7
:10588C0021464020FEF7AEF90620FEF7B7F80A21B4
:10589C000020FEF7C1F90A210120FEF7BDF90A210B
:1058AC000220FEF7B9F90A210320FEF7B5F9002012
:1058BC00FFF73CFE0E2007F0C5FC0E214FF4FA60FA
:1058CC0007F086FC10BD012214210820FEF7C2F857
:1058DC0040210820FEF7A8F84FF4B6724FF49A71E5
:1058EC000820FEF72DF9064C21464020FEF762F900
:1058FC00042221464020FEF775F9C5E7C47901085A
:10590C008C79010870B586B0BF4B03AC93E80700E7
:10591C0003C42280383393E803000190ADF80810DB
:10592C0000210846FEF778F900210120FEF774F9F2
:10593C0000210220FEF770F900210320FEF76CF91C
:10594C000020FFF7F3FDB14807F090FB082214216B
:10595C001046FEF77FF840210820FEF765F840223C
:10596C0084210820FEF7ECF8002510E005EB8503F8
:10597C009C004034E4B2A64E31462046FEF71AF99C
:10598C00022231462046FEF72DF90135EDB2072DE6
:10599C00ECD9A04C21464020FEF70CF9722221468E
:1059AC004020FEF71FF977229B494020FEF71AF999
:1059BC009A4C21465420FEF7FDF8722221465420C1
:1059CC00FEF710F9772296495420FEF70BF9954C07
:1059DC0021466820FEF7EEF8722221466820FEF779
:1059EC0001F9772290496820FEF7FCF88F4C21468C
:1059FC007C20FEF7DFF8722221467C20FEF7F2F8BD
:105A0C0077228B497C20FEF7EDF88A4C21469020BA
:105A1C00FEF7D0F8722221469020FEF7E3F87722A9
:105A2C0085499020FEF7DEF8844C2146A420FEF731
:105A3C00C1F872222146A420FEF7D4F877228049BF
:105A4C00A420FEF7CFF87F4C2146B820FEF7B2F821
:105A5C0072222146B820FEF7C5F87B4C2146CC209B
:105A6C00FEF7A8F873222146CC20FEF7BBF8774B43
:105A7C001A68774BA3FB0232D208D1B2632976D9CC
:105A8C00744BA3FB01235B0906AA1A4412F80C2CD5
:105A9C008DF80520642202FB1313DBB26C4AA2FBC7
:105AAC000312D20806A9114411F80C1C8DF806102B
:105ABC0002EB820251005B1ADBB206AA134413F804
:105ACC000C3C8DF8083001A9D020FEF773F85F4B21
