:020000040800F2
:100000000050002065190108B91E0008BB1E000839
:10001000BD1E0008BF1E0008C11E00080000000031
:10002000000000000000000000000000C31E0008E7
:10003000C51E000800000000C71E0008C91E0008F9
:10004000AD190108AD190108AD190108AD19010874
:10005000AD190108AD190108D11E0008AD1901083C
:10006000AD190108AD190108AD190108AD19010854
:10007000AD190108AD190108AD190108AD19010844
:10008000AD190108AD190108AD190108AD19010834
:10009000AD190108AD190108AD190108AD19010824
:1000A000AD190108AD190108AD190108AD19010814
:1000B000AD190108DD1E0008AD190108AD190108D0
:1000C000AD190108AD190108AD190108AD190108F4
:1000D000AD190108ED1E0008FD1E0008AD1901084C
:1000E000AD190108AD190108AD19010800000000A3
:1000F0000000000000000000000000000000000000
:0C01000000000000000000005FF808F1A3
:10010C0010B5054C237833B9044B13B10448AFF345
:10011C0000800123237010BD900900200000000016
:10012C00D436010808B5034B1BB103490348AFF3A0
:10013C00008008BD0000000094090020D43601089E
:10014C002DE9F04188B00025049505950695079595
:10015C00414B9A6942F004029A619A6902F00402D6
:10016C000092009A9A6942F008029A619A6902F028
:10017C0008020192019A9A6942F010029A619A69F6
:10018C0002F010020292029A9A6942F020029A61DD
:10019C009B6903F020030393039B304F012213212F
:1001AC00384603F0D1FA40F2F3130493012405947A
:1001BC0006940226079604A9384603F0D9F904944C
:1001CC00274B0593069507F5006704A9384603F0FD
:1001DC00CFF9049405950694DFF88C8004A9404669
:1001EC0003F0C6F94FF4704304930595069404A9E3
:1001FC00404603F0BDF940F60103049305940694C0
:10020C00079604A9404603F0B3F943F2073304936D
:10021C0005940694079604A9384603F0A9F9C0235F
:10022C0004930595069404A9384603F0A1F9042318
:10023C00049305940694079604A90A4803F098F9C8
:10024C002A462946062003F0F1FA062003F022FB89
:10025C0008B0BDE8F08100BF00100240000801406A
:10026C000000211000140140000C014070B58AB050
:10027C000024089409940194029403940494059422
:10028C0006940794114D4FF080432B6008266E6046
:10029C00AC604FF47A63EB602C61AC61284602F0E1
:1002AC003AF90894099408A9284602F093FA6023B5
:1002BC000193029403940594324601A9284602F056
:1002CC0075F9284601F01EFF0AB070BD8C0B00209A
:1002DC0030B587B0002402940394049405940094E0
:1002EC0001940E4D0E4B2B6023236B60AC600923E5
:1002FC00EB602C618023AB61284602F0F3F84FF4DD
:10030C008053029302A9284602F0C9F90094019483
:10031C006946284602F05EFA07B030BDD00A0020CC
:10032C000004004008B50848084B03604FF4E13363
:10033C00436000238360C36003610C2242618361CC
:10034C00C36102F046FB08BD440B0020003801409D
:10035C0008B50848084B03604FF4E13343600023B1
:10036C008360C36003610C2242618361C36102F04C
:10037C0030FB08BDCC0B00200044004070B584B0AD
:10038C0000250195029503950D4C0E4B2360A5603D
:10039C00257325754FF46023E361656001262661A2
:1003AC00204603F0D1FC0D2301930296039501A97D
:1003BC00204603F04FFB204601F060FE04B070BDF8
:1003CC00140B00200024014010B50138012809D875
:1003DC0014464FF47A7392B2074802F029FB40B1ED
:1003EC00002010BD11F0DEFA092303604FF0FF303E
:1003FC00F7E72046F5E700BF440B002000B583B0BB
:10040C0002A901F8010D4FF6FF730122024802F018
:10041C000FFB03B05DF804FBCC0B002008B50DF00E
:10042C0041FD3E2140F6B8300DF04CFD37214FF424
:10043C00FA600DF047FD3A214FF47A700DF042FD51
:10044C0008BD000070B50446362848D8DFE810F027
:10045C0037005E006F0081009300A400CB00B10256
:10046C00DA006003FE051707180632064D069006E3
:10047C00AC06C706E2063207FC0600012101410169
:10048C0061018101CE01EE010F022F024F02D80251
:10049C00F9021903700290024C078703A703C703E4
:1004AC00E7030704270448046A048B04AC04F4042F
:1004BC0015053605570578059A05BB05DC05B54BC2
:1004CC0000221A7001255D70B34B1B78B34A137070
:1004DC00B34A1370B34811F017FBB34B1D70AD4802
:1004EC000AF020FE012010F0BBF804F03FF93F2089
:1004FC000DF022FD3F214FF47A700DF0E3FCE4B2D5
:10050C00204610F0BBF8A94B1C7070BDA14A01230A
:10051C00137002215170A64A1278A0490A70A049A2
:10052C004A70A14A1370A34811F0EEFAD7E7994B21
:10053C0002221A7003225A709F4B1B78974A137031
:10054C00974A9370984B01221A709C4811F0DCFA70
:10055C00C5E7904B03221A7004225A70984B1B78F3
:10056C008E4A13708E4AD3708F4B01221A709548A5
:10057C0011F0CAFAB3E7874B04221A705A70924BE7
:10058C001B78864A1370864AD370874B01221A70E7
:10059C008E4811F0B9FAA2E77E4B10221A70012195
:1005AC00597002229A700322DA7004221A717A4B63
:1005BC001E787A4B1E707E4A15785D707E4A1078D4
:1005CC0098707F4A1278DA70754B1E705D70987057
:1005DC00DA70754B00221A705A709A70D9707C4878
:1005EC0011F092FA7BE76B4B20221A7001225A70A1
:1005FC0002229A700322DA7004221A71754811F0E3
:10060C0083FA6CE7634B30221A7001225A70022174
:10061C0099700321D970042119715F4B1E785F4BBF
:10062C001E7063490D785D70634908789870644951
:10063C000978D9705A4B1E705D709870D9705A4BEE
:10064C001A7000225A709A70634811F05DFA46E7EE
:10065C00504B30221A7004225A70012199700222D8
:10066C00DA7000221A71564B1E784C4B1E704A4899
:10067C0005785D704E4800789870494B1E705D701F
:10068C009870494B19705A709A70544811F03CFA92
:10069C0025E7404B30221A7001225A7002219970C2
:1006AC000321D9703C4B1D783C4B1D704049087898
:1006BC005870414909789970394B1D705870997070
:1006CC00394B1A7000225A709A70434811F01CFA78
:1006DC0005E7304B30221A7001225A7002219970B2
:1006EC000421D9702C4B1D782C4B1D703049087887
:1006FC005870334909789970294B1D70587099704E
:10070C00294B0021197059709A70354811F0FCF979
:10071C00E5E6204B30221A7001225A7003219970A1
:10072C000421D9701C4B1D781C4B1D702249087874
:10073C005870234909789970194B1D70587099702D
:10074C00194B0021197059709A70264811F0DCF978
:10075C00C5E6104B30221A7002225A7001229A7090
:10076C000321D970124B1D780C4B1D700A49087867
:10077C005870114909789970094B1D70587099700F
:10078C00094B1A7000225A709A70174811F0BCF974
:10079C00A5E600BF100C00200C0C0020D409002092
:1007AC00140A002098380108D8090020BD0900203F
:1007BC00880B0020AC380108CE0A0020C038010894
:1007CC00CD0A0020D4380108870B0020E838010836
:1007DC00FC3801080C3901081C39010838390108AA
:1007EC0054390108703901088C390108B54B302295
:1007FC001A7002225A7001229A700421D970B24BDD
:10080C001D78B24B1D70B24908785870B1490978FF
:10081C009970B14B1D7058709970B04B00211970C4
:10082C0059709A70AE4811F06FF958E6A54B30220A
:10083C001A7002225A7003229A700422DA70A44BA6
:10084C001878A24B1870A74A11785970A14A1278DF
:10085C009A70A14B187059709A70A04B00221A70A4
:10086C005A7001229A70A04811F04EF937E6954B58
:10087C0030221A7003225A7001229A700221D97008
:10088C00984B1D78914B1D709149087858708E4982
:10089C0009789970904B1D70587099708F4B1A7025
:1008AC0000225A709A70914811F02EF917E6854B78
:1008BC0030221A7003225A7001229A700421D970C6
:1008CC00884B1D78814B1D7081490878587081497F
:1008DC0009789970804B1D70587099707F4B00216E
:1008EC00197059709A70824811F00EF9F7E5754B32
:1008FC0030221A7003225A7002229A700422DA7083
:10090C00784B1878714B18706F4A11785970714A7E
:10091C0012789A70704B187059709A706F4B002245
:10092C001A705A7001229A70724811F0EDF8D6E5DF
:10093C00644B30221A7004225A7001229A700321DF
:10094C00D970644B1D78614B1D70614908785870E3
:10095C00644909789970604B1D70587099705F4BA1
:10096C001A7000225A709A70634811F0CDF8B6E5EF
:10097C00544B30221A7004225A7002229A700322AD
:10098C00DA70544B1878514B18704F4A11785970D3
:10099C00544A12789A70504B187059709A704F4B89
:1009AC0001221A7000225A709A70544811F0ACF857
:1009BC0095E5444B50221A700121597002229A700D
:1009CC000322DA7004221A71414B1D783F4B1D70C3
:1009DC00444A12785A709A703E480078D8703E4B50
:1009EC001D70394D2D785D709A70D8703B4B197015
:1009FC0000225A709A70DA70414811F085F86EE551
:100A0C00304B50221A7004225A7001219970022224
:100A1C00DA7000221A712F4B1E782C4B1E702C484A
:100A2C0005785D702848007898702B4B1E705D70AF
:100A3C0098702A4B19705A709A70324811F064F8F9
:100A4C004DE5204B50221A7004225A7001229A70E4
:100A5C000321D9701F4B1D781C4B1D701C49087845
:100A6C0058702049097899701B4B1D7058709970FB
:100A7C001A4B1A7000225A709A70234811F044F8DD
:100A8C002DE5104B50221A7004225A7002229A70D3
:100A9C000322DA700F4B18780C4B18700A4A117835
:100AAC005970104A12789A700B4B187059709A70D2
:100ABC000A4B01221A7000225A709A70134811F0D6
:100ACC0023F80CE5100C0020880B0020D409002022
:100ADC000C0C0020CD0A0020140A0020D80900209C
:100AEC00A8390108CE0A0020C4390108E0390108F0
:100AFC00FC390108183A0108343A0108503A010847
:100B0C006C3A0108883A0108A43A0108C03A010875
:100B1C00B64B40221A7001225A700221997003219F
:100B2C00D97004211971B24B1E78B24B1E70B249A8
:100B3C000D785D70B14908789870B1490978D97011
:100B4C00B04B1E705D709870D970AF4B1A7000224C
:100B5C005A709A70DA70AD4810F0D6FFBFE4A34B10
:100B6C0040221A7004225A7001229A700221D97004
:100B7C00A34B1D789F4B1D709D49087858709E495A
:100B8C00097899709F4B1D70587099709E4B1A7014
:100B9C0000225A709A709E4810F0B6FF9FE4934B57
:100BAC0040221A7001225A70022199700321D970C7
:100BBC008F4B1D788F4B1D708F49087858708F495B
:100BCC00097899708F4B1D70587099708E4B1A70F4
:100BDC0000225A709A708F4810F096FF7FE4834B76
:100BEC0040221A7001225A70022199700421D97086
:100BFC007F4B1D787F4B1D707F490878587080495A
:100C0C00097899707F4B1D70587099707E4B1A70D3
:100C1C0000225A709A70804810F076FF5FE4734B94
:100C2C0040221A7001225A70032199700421D97044
:100C3C006F4B1D786F4B1D70704908785870704958
:100C4C00097899706F4B1D70587099706E4B1A70B3
:100C5C0000225A709A70714810F056FF3FE4634BB3
:100C6C0040221A7002225A7001229A700321D97004
:100C7C00614B1D785F4B1D705D49087858705F495A
:100C8C00097899705F4B1D70587099705E4B1A7093
:100C9C0000225A709A70624810F036FF1FE4534BD2
:100CAC0040221A7002225A7001229A700421D970C3
:100CBC00514B1D784F4B1D704D4908785870504959
:100CCC00097899704F4B1D70587099704E4B1A7073
:100CDC0000225A709A70534810F016FFFFF7FFBBB2
:100CEC00424B40221A7002225A7003229A7004223C
:100CFC00DA70414B18783F4B1870404A1178597094
:100D0C003F4A12789A703F4B187059709A703E4B4C
:100D1C0001221A7000225A709A70434810F0F4FEA7
:100D2C00FFF7DDBB314B40221A7003225A700122AF
:100D3C009A700221D970314B1D782E4B1D702C49A5
:100D4C00087858702C49097899702E4B1D70587082
:100D5C0099702D4B1A7000225A709A70334810F00B
:100D6C00D3FEFFF7BCBB214B40221A7003225A70F2
:100D7C0001229A700421D970204B1D781D4B1D70D7
:100D8C001B49087858701E49097899701D4B1D70C5
:100D9C00587099701C4B1A7000225A709A70244823
:100DAC0010F0B2FEFFF79BBB104B40221A700322CF
:100DBC005A7002229A700422DA70104B18780D4B7C
:100DCC0018700D4A117859700D4A12789A700D4BA3
:100DDC00187059709A700C4B01221A7000225A70BC
:100DEC009A70144810F090FEFFF779BB100C00209D
:100DFC000C0C0020D4090020880B0020CE0A002007
:100E0C00CD0A0020140A0020D8090020DC3A010881
:100E1C00EC3A0108083B0108243B0108403B01085F
:100E2C005C3B0108783B0108943B0108B03B01088E
:100E3C00CC3B0108E83B0108B94B50221A70012247
:100E4C005A70022199700421D970B64B1D78B64B9B
:100E5C001D70B64908785870B54909789970B54B2A
:100E6C001D7058709970B44B1A7000225A709A7099
:100E7C00B24810F049FEFFF732BBA94B50221A7052
:100E8C0001225A70032199700421D970A54B1D7849
:100E9C00A54B1D70AA4908785870A5490978997016
:100EAC00A44B1D7058709970A34B1A7000225A7085
:100EBC009A70A44810F028FEFFF711BB984B5022F3
:100ECC001A7002225A7001229A700321D970974B22
:100EDC001D78954B1D70934908785870984909787E
:100EEC009970944B1D7058709970934B1A70002226
:100EFC005A709A70944810F007FEFFF7F0BA884BBE
:100F0C0050221A7002225A7001229A700421D97050
:100F1C00864B1D78844B1D70824908785870844923
:100F2C0009789970834B1D7058709970824B1A70A8
:100F3C0000225A709A70854810F0E6FDFFF7CFBA80
:100F4C00774B50221A7002225A7003229A70042294
:100F5C00DA70764B1878744B1870794A117859708E
:100F6C00734A12789A70734B187059709A70724B4E
:100F7C0001221A7000225A709A70754810F0C4FD44
:100F8C00FFF7ADBA664B50221A7003225A70012239
:100F9C009A700221D9706A4B1D78634B1D706149A0
:100FAC0008785870614909789970624B1D705870B7
:100FBC009970614B1A7000225A709A70654810F043
:100FCC00A3FDFFF78CBA564B50221A7003225A70AD
:100FDC0001229A700421D970594B1D78524B1D7007
:100FEC00504908785870524909789970514B1D70C6
:100FFC0058709970504B1A7000225A709A7056485B
:10100C0010F082FDFFF76BBA454B50221A70032289
:10101C005A7002229A700422DA70494B1878424BAB
:10102C001870424A11785970414A12789A70414BA3
:10103C00187059709A70404B01221A7000225A7025
:10104C009A70464810F060FDFFF749BA344B6022A5
:10105C001A7001225A7002219970324B1878324B57
:10106C001870324909785970324B18705970324BDC
:10107C001A7000225A703A4810F046FDFFF72FBA4A
:10108C00274B60221A7001225A7004219970254B4B
:10109C001878254B1870264909785970254B18700B
:1010AC005970254B002119705A702E4810F02CFDE8
:1010BC00FFF715BA1A4B60221A7004225A700222DA
:1010CC009A701B4B1978184B1970184A12785A7071
:1010DC00184B19705A70184B01221A7000225A7052
:1010EC00214810F011FDFFF7FAB90D4B60221A7070
:1010FC0004225A7003229A700D4B19780A4B1970FE
:10110C000F4A12785A700B4B19705A700A4B012205
:10111C001A7000225A70154810F0F6FCFFF7DFB970
:10112C00100C00200C0C0020D4090020880B00208F
:10113C00CD0A0020140A0020D8090020043C010824
:10114C00CE0A0020203C01083C3C0108583C010818
:10115C00743C0108903C0108AC3C0108C83C0108F7
:10116C00E43C0108FC3C0108143D01082C3D01083D
:10117C006E4B60221A7002225A7001229A706C4BCC
:10118C0019786C4B19706C48007858706B4B19704F
:10119C006B49097859706B4B1A7000225A706A4867
:1011AC0010F0B2FCFFF79BB9604B60221A70022260
:1011BC005A7003229A705E4B19785E4B1970634A11
:1011CC0012785A705D4B19705A705E4B01221A706E
:1011DC0000225A705E4810F097FCFFF780B9534B11
:1011EC0060221A7002225A7004229A70504B19789D
:1011FC00504B1970524A12785A70504B19705A70E1
:10120C00504B00221A7001225A70524810F07CFC8C
:10121C00FFF765B9454B60221A7001225A70032101
:10122C009970454B1878434B187048490978597098
:10123C00424B18705970434B1A7000225A70464832
:10124C0010F062FCFFF74BB9384B60221A70032286
:10125C005A7002229A703D4B1978364B1970344AE9
:10126C0012785A70354B19705A70364B01221A701D
:10127C0000225A70394810F047FCFFF730B92B4B5D
:10128C0060221A7003225A7004229A702F4B19781C
:10129C00284B19702A4A12785A70284B19705A70B8
:1012AC00284B00221A7001225A702D4810F02CFC89
:1012BC00FFF715B91D4B60221A7003225A700122D8
:1012CC009A70224B18781B4B18701B49097859706F
:1012DC001A4B187059701B4B1A7000225A70214807
:1012EC0010F012FCFFF7FBB8104B70221A700122A1
:1012FC005A70022199700321D9700F4B1D780D4B38
:10130C001D700B49087858701049097899700B4B6F
:10131C001D70587099700B4B1A7000225A70DA704D
:10132C00114810F0F1FBFFF7DAB800BF100C0020E9
:10133C00880B0020D40900200C0C0020140A00207B
:10134C00CD0A0020D8090020443D0108CE0A002017
:10135C005C3D0108743D01088C3D0108A43D010869
:10136C00BC3D0108D43D0108EC3D010838B50DF039
:10137C0073F90446014616480CF0F2FC0DF06CF9BA
:10138C0001280BD10DF068F9012816D1012C1DD0C4
:10139C000DF0FCFA0F480CF0E3FC17E00E4D0121A8
:1013AC0028460CF0DDFC01200DF07CF90DF054F911
:1013BC00014628460CF0D4FCE4E708480CF0D0FCBD
:1013CC0007480CF0CDFC074BFF221A7038BD00BF4C
:1013DC001038010830380108203801086C38010831
:1013EC0088380108860B002010B5012826D0294822
:1013FC000CF0B6FC284C01224FF40051204602F0B0
:10140C00A3F900224FF40061244802F09DF9192041
:10141C0002F048FD00220421204602F095F9192023
:10142C0002F040FD002280211D4802F08DF90020C1
:10143C000FF016F91B4B01221A7010BD1A480CF054
:10144C008FFC154C01224FF40051204602F07CF920
:10145C0000224FF40061114802F076F9322002F0BC
:10146C0021FD642002F01EFD00220421204602F022
:10147C006BF9322002F016FDA4F5006401224FF442
:10148C008071204602F060F900228021204602F093
:10149C005BF9CCE78C37010800100140000C0140CF
:1014AC0000080140CC0900207C37010810B5144815
:1014BC000CF056FC134C00224FF48071204602F0C5
:1014CC0043F901228021204602F03EF904F5006424
:1014DC0000224FF40051204602F036F901224FF45D
:1014EC000061094802F030F901220421204602F083
:1014FC002BF901200FF0B4F8044B00221A7010BD28
:10150C006C37010800080140000C0140CC09002098
:10151C0008B501224FF48071014802F015F908BD9D
:10152C000008014008B500224FF48071014802F018
:10153C000BF908BD0008014010B5084C00224021F1
:10154C00204602F001F900222021204602F0FCF88E
:10155C0001221021204602F0F7F810BD00080140CE
:10156C0010B588B060230193029000230393059378
:10157C00054C082201A9204601F018F80821204644
:10158C0001F00AF908B010BD8C0B002008B5C0435F
:10159C00C0B2632812D9A0F16403DBB2272B24D983
:1015AC0000F17403DBB2272B21D900F14C03DBB221
:1015BC00272B1ED9DB281ED8002200E04622164B12
:1015CC001B78012B1FD1154B1B78934215D9013B6E
:1015DC00124A1370124B00221A70104B1878C0EB81
:1015EC00001080B2FFF7BCFF08BD5A22E7E76E225D
:1015FC00E5E78222E3E79122E1E79342EAD2013365
:10160C00064A1370E6E7054BFF221A70054B188843
:10161C00FFF7A6FFE8E700BFBE090020020000208C
:10162C00AC0900200C00002010B5AB2002F066FCC9
:10163C00454B1870B02002F061FC444B1870AC2084
:10164C0002F05CFC424B1870A32002F057FC414B9B
:10165C001870AA2002F052FC3F4B1870AD2002F01B
:10166C004DFC3E4B1870A02002F048FC3C4B18700F
:10167C00AF2002F043FC3B4B1870202002F03EFCE4
:10168C00394B18700DF094F9384C2070A52002F0ED
:10169C0035FC374B1870A62002F030FC354B187017
:1016AC00A72002F02BFC344B1870A82002F026FC6B
:1016BC00324B1870192002F021FC314B18700DF0D0
:1016CC0077F92070BF2002F019FC2E4B18702020E7
:1016DC0002F014FC2C4B1870212002F00FFC2B4B49
:1016EC001870222002F00AFC294B1870232002F0FB
:1016FC0005FC284B1870252002F000FC264B1870B6
:10170C00242002F0FBFB254B1870C92002F0F6FBDD
:10171C00234C2070CC2002F0F1FB6070CF2002F043
:10172C00EDFBA070D82002F0E9FB1E4C2070D920F4
:10173C0002F0E4FB6070DA2002F0E0FBA070DB202A
:10174C0002F0DCFBE07010BD03000020850B0020D4
:10175C00600A00205D0A00201A0C0020CC0A002030
:10176C00BE090020080E0020840B00200309002075
:10177C000C0C0020880B0020CE0A0020CD0A002083
:10178C00870B0020E60900200B000020070000203A
:10179C0008000020100B0020090000200A00002087
:1017AC00FC0C00201C0A002010B52B4B1B7833B10D
:1017BC002A480CF0D5FA2A4B00221A7032E02F205E
:1017CC000CF0D8FBFFF772FE04F082FD11200CF038
:1017DC00B3FBEDE7AB2002F095FB2D200CF0CAFB20
:1017EC0004F028FD1F4B1B78012B2DD00F200CF083
:1017FC00A3FB0F214FF4FA600CF064FB11214FF4A2
:10180C00FA700CF05FFB0023174A1370174A137021
:10181C0017480CF0A5FA10BD0EF08EFC0CF0F8FE7B
:10182C000AF07AFB0DF0B8FE124B19780129D1D0D1
:10183C000EF078FA04460028EED02D200CF09AFB1E
:10184C0020460EF079FCE9E7034B1B78002BCDD139
:10185C0003F060FBCAE700BF770A00209C37010841
:10186C00EA090020080E0020E9090020E709002001
:10187C00AC3701080300002008B513E0184B1B68B7
:10188C00012B1CD00EF04EFA164B1B78D3B10DF079
:10189C0083FEE8B1144B1B78012B16D0134B1B782D
:1018AC00012B16D00CF0B4FE114B1B78002BE5D19C
:1018BC000B4B1B68012BE1D10AF02EFBDEE70BF082
:1018CC00DFFDDFE70EF038FCE1E70A4B00221A706F
:1018DC0008BD0021074B1970AB2002F013FBF7E792
:1018EC009807002000000020E9090020E7090020EB
:1018FC00320A00200300002070B590B02022002195
:10190C0007A810F084F80024019402940394049422
:10191C0005940225069501260A9610230B930D9526
:10192C004FF4E0130F9306A801F08AFA0F230193EA
:10193C000295039404940594314601A801F0C0FC6F
:10194C0010B070BD70B501F02DFAFFF7D5FFFEF7A2
:10195C0065FDFEF7F5FBFFF7A9FD01200EF080FEFB
:10196C002D200CF007FBFEF781FCFEF7B1FCFEF717
:10197C00D9FCFEF7EDFCFEF701FD11F0FFF811F0BC
:10198C0079FA11F07BFC11F099FE4FF47A60FFF7B5
:10199C00E7FDFFF7D1FD0DF00BF8444B187000205C
:1019AC0002F00EFB424B18600020FFF71DFD3220A9
:1019BC0002F078FA01223F493F4801F0A9F83F4C68
:1019CC0000221021204601F0BFFE002210212046EB
:1019DC0001F0BAFE00220121204601F0B5FE642080
:1019EC0002F060FA01221021204601F0ADFE012226
:1019FC001021204601F0A8FE01221146204601F0DC
:101A0C00A3FE2F4A2F49304810F00AF8002002F0AC
:101A1C0053FA01462D4810F003F82D49252005F006
:101A2C008BFEFFF7A3FCFFF7FFFD0124294B1C7075
:101A3C005A21204602F04AFA274B04225A711C7292
:101A4C000325DD7110221A7002269E71002009F008
:101A5C0001FB204609F0FEFA304609F0FBFA284655
:101A6C0009F0F8FA0DF070FF1C4B1B78A3420DD057
:101A7C000BF00AFB01200FF08DF8194800F025FC43
:101A8C0002F028FE00200EF0EBFD08E00EF04AF903
:101A9C000028EDD1FFF73CFDEAE7FFF785FE0F4B81
:101AAC001B78012BF9D1FFF7E7FEF6E703090020BD
:101ABC00B4090020E4090020440B00200008014078
:101ACC00BC370108C8370108D4370108F8370108BA
:101ADC0094A001080D0C0020100C00200300002025
:101AEC00D00A002002689C4B9A4200D0704730B458
:101AFC009A4A13780133DBB21370994A1168013199
:101B0C0011609848026801320260632B09D996482B
:101B1C00036801330360914B00201870934B012034
:101B2C001860934B1868013018601868914B9842F4
:101B3C0006D98F4B002018608F4B1B78012B20D0BF
:101B4C008E4B9B68DB43C3F381338D48C4789C4236
:101B5C0008D045780570857845708470C370894BC2
:101B6C0001201860884B1B78DBB2012B0FD0B1F52C
:101B7C007A7F00F08A80B2F57A7F00F0D88030BC92
:101B8C007047824803780133DBB20370D8E7804B8F
:101B9C001878C0B27F4B1B78DBB2984223D07C4BB9
:101BAC001B78DBB2212B15D87B4B1B78DBB2012BBE
:101BBC0053D07A4B1B889BB240F2E240834209D946
:101BCC00764B1B889BB240F2A950834202D8724BD1
:101BDC0001201870714B002018806E4B1B78DBB203
:101BEC006B480370C3E76D48038801339BB20380D5
:101BFC0003889BB243F698208342B8D9684B1B7874
:101C0C00DBB21F2B09D9674B1B689BB2664803805C
:101C1C0003889BB2B3F57F4F0FD00023604803704D
:101C2C005E4803805A4803705A4803705648037044
:101C3C005C4803605848037099E75A480368C3F33B
:101C4C0007435A4C237003686FEA1363DBB258489E
:101C5C000370584B01201870DFE7504B1B889BB268
:101C6C005A2BA6D94F4803685B0803604B4B1B8863
:101C7C009BB2A02B03D9036843F000430360484890
:101C8C0003780133DBB2037093E7354B0021196005
:101C9C00494B9968C94301F0C001A3F580639B6867
:101CAC00DB431B0A03F030030B4338D043490B686A
:101CBC0001330B60424B1B78032B06D0642B19D0DD
:101CCC003F490B7801330B7055E73B4B9B68DB436B
:101CDC0003F0C00329498968C943090A01F030019E
:101CEC000B4338490B70384B00211960374B0121DD
:101CFC001960E5E7304B9B68DB4303F0C0031F49D9
:101D0C008968C943090A01F030010B432D490B7056
:101D1C002E4B012119602A4B0A211970D0E70023A0
:101D2C0027490B7027490B7024490B6023E70D4B97
:101D3C0000221A60264B1B78002B55D0254A1278AE
:101D4C00032A06D0962A49D0224A137801331370FD
:101D5C0015E7214A1370F7E700040040480A0020F9
:101D6C004C0A0020500A00203C0A0020380A0020AF
:101D7C00F0090020A086010001000020000C0140A9
:101D8C007C0A0020200E0020C5090020D00900206C
:101D9C00DC090020C6090020CB090020C80900205E
:101DAC00CA090020C0090020F6090020F90900200A
:101DBC00F8090020C409002000100140440A00204A
:101DCC00EC0900201B0E0020140E0020040E002035
:101DDC00800A0020F4090020090E0020054A137027
:101DEC00054B04221A70AFE70023034A1370014A13
:101DFC001370C4E6090E0020F409002010B5044647
:101E0C000268184B9A4204D02268174B9A4214D09D
:101E1C0010BD16490A78531CDBB20B7014490878B4
:101E2C00144988541D2B02D9104B00221A70012220
:101E3C000F49114800F06CFEE6E710490A78531C74
:101E4C00DBB20B700E4908780E4988541D2B02D951
:101E5C000A4B00221A70012209490B4800F058FE67
:101E6C00D6E700BF0038014000440040340A00208F
:101E7C00E4090020400D0020440B0020330A002010
:101E8C00E0090020800D0020CC0B0020012800D0A0
:101E9C007047044B01221A70034A13780133DBB2EA
:101EAC001370F5E7C5090020C60900207047FEE74E
:101EBC00FEE7FEE7FEE770477047704708B500F095
:101ECC0083FF08BD08B5012001F044FC08BD0000EB
:101EDC0008B5024800F00EFA08BD00BFD00A002079
:101EEC0008B5024800F0A0FE08BD00BF440B00205E
:101EFC0008B5024800F098FE08BD00BFCC0B0020CE
:101F0C0082B00E4B9A6942F001029A619A6902F012
:101F1C0001020092009ADA6942F08052DA61DB69C0
:101F2C0003F080530193019B054A536823F0E0634F
:101F3C0043F00073536002B0704700BF00100240C2
:101F4C000000014002680E4B9A4200D0704700B569
:101F5C0083B003F50333DA6942F00202DA61DB691C
:101F6C0003F002030193019B002211461D2001F096
:101F7C005DFC1D2001F08EFC03B05DF804FB00BF7E
:101F8C000004004070B588B0044600230493059308
:101F9C00069307930268364B9A4205D02268354B5C
:101FAC009A4234D008B070BD03F558439A6942F494
:101FBC0080429A619A6902F480420092009A9A696E
:101FCC0042F004029A619B6903F004030193019BA4
:101FDC004FF4007304930223059303230793264EB7
:101FEC0004A9304601F0C4FA4FF480630493002531
:101FFC000595069504A9304601F0BAFA2A462946F9
:10200C00252001F013FC252001F044FCC6E703F564
:10201C00E633DA6942F40032DA61DA6902F400324A
:10202C000292029A9A6942F004029A619B6903F047
:10203C0004030393039B04230493022305930323B8
:10204C0007930D4D04A9284601F092FA0823049336
:10205C0000240594069404A9284601F089FA224626
:10206C002146262001F0E2FB262001F013FC99E723
:10207C0000380140004400400008014000B587B022
:10208C00002302930393049305930268114B9A4225
:10209C0002D007B05DF804FB03F56C439A6942F477
:1020AC0000729A619A6902F400720092009A9A691D
:1020BC0042F010029A619B6903F010030193019B9B
:1020CC00082302930323039302A9034801F050FA57
:1020DC00DFE700BF00240140001001400368B3F1AA
:1020EC00804F00D0704782B003F50433DA6942F0B8
:1020FC000102DA61DB6903F001030193019B02B079
:10210C007047000000B587B000230293039304933B
:10211C0005930368B3F1804F02D007B05DF804FB60
:10212C0003F504339A6942F008029A619B6903F043
:10213C0008030193019B4FF48063029302230393E2
:10214C00059302A9064801F013FA064A536823F4D2
:10215C00407343F0E06343F400735360DDE700BF6A
:10216C00000C01400000014070B4036A23F001032D
:10217C000362036A4268846924F073040D6845EABB
:10218C00040623F002048B6823430D4DA84209D0AA
:10219C000B4DA8420DD0426086614A6842630362CF
:1021AC0070BC704723F00803CC68234323F004036E
:1021BC00EEE722F440724C6914438A692243EAE741
:1021CC00002C014030B4036A23F480730362036A69
:1021DC004268C46924F073040D682C4323F4007323
:1021EC008D6843EA05230F4DA84209D00D4DA84236
:1021FC000ED04260C4614A68C263036230BC70474F
:10220C0023F40063CD6843EA052323F48063EDE7F0
:10221C0022F440524D6942EA05128D6942EA0512D8
:10222C00E7E700BF002C014030B4036A23F480536D
:10223C000362036A4468C26922F4E6420D6842EA0A
:10224C00052223F400538D6843EA0533074DA84259
:10225C0006D04460C2614A680264036230BC7047B5
:10226C0024F480444D6944EA8514F2E7002C0140C3
:10227C0010B4036A046A24F001040462846924F033
:10228C00F00444EA021223F00A030B438261036256
:10229C0010BC704710B4036A23F010030362846906
:1022AC00036A24F4704444EA023223F0A00343EAA4
:1022BC0001138261036210BC7047836823F07003C2
:1022CC00194341F00701816070470268D36843F0FD
:1022DC000103D3600268936803F00703062B03D055
:1022EC00136843F001031360002070477047704778
:1022FC007047704710B5044603681A6912F0020F54
:10230C0011D0DA6812F0020F0DD06FF002021A61D0
:10231C000123037703689B6913F0030F70D0FFF759
:10232C00E6FF0023237723681A6912F0040F12D0FA
:10233C00DA6812F0040F0ED06FF004021A61022357
:10234C00237723689B6913F4407F5FD02046FFF707
:10235C00CEFF0023237723681A6912F0080F12D0DE
:10236C00DA6812F0080F0ED06FF008021A6104231D
:10237C0023772368DB6913F0030F4ED02046FFF759
:10238C00B6FF0023237723681A6912F0100F12D0BE
:10239C00DA6812F0100F0ED06FF010021A610823D9
:1023AC0023772368DB6913F4407F3DD02046FFF789
:1023BC009EFF0023237723681A6912F0010F03D0C4
:1023CC00DA6812F0010F36D123681A6912F0800F07
:1023DC0003D0DA6812F0800F34D123681A6912F036
:1023EC00400F03D0DA6812F0400F32D123681A691B
:1023FC0012F0200F03D0DA6812F0200F30D110BD8C
:10240C00FFF774FF2046FFF773FF8AE72046FFF7BC
:10241C006DFF2046FFF76CFF9BE72046FFF766FF3A
:10242C002046FFF765FFACE72046FFF75FFF20462D
:10243C00FFF75EFFBDE76FF001021A612046FFF760
:10244C0051FBC1E76FF080021A61204600F0E6F9FB
:10245C00C3E76FF040021A612046FFF74AFFC5E759
:10246C006FF020021A61204600F0D7F9C7E7000090
:10247C0003681B4A90420AD0B0F1804F07D0A2F5F6
:10248C009432904203D002F58062904203D123F043
:10249C0070034A681343124A90420AD0B0F1804F3D
:1024AC0007D0A2F59432904203D002F5806290429C
:1024BC0003D123F44073CA68134323F080034A69A1
:1024CC00134303608B68C3620B688362044B9842AE
:1024DC0002D00123436170470B690363F9E700BF26
:1024EC00002C0140A8B110B5044690F83D305BB10A
:1024FC00022384F83D30211D2068FFF7B9FF01232A
:10250C0084F83D30002010BD80F83C30FFF71AFDF8
:10251C00EEE701207047A8B110B5044690F83D30A5
:10252C005BB1022384F83D30211D2068FFF7A0FF2A
:10253C00012384F83D30002010BD80F83C30FFF7BB
:10254C00CDFDEEE70120704730B4036A23F0100391
:10255C000362036A4468826922F4E6420D6842EA27
:10256C00052223F020038D6843EA05130E4DA84283
:10257C0009D00D4DA8420ED0446082614A68826336
:10258C00036230BC704723F08003CD6843EA051327
:10259C0023F04003EDE724F440644D6944EA8504DC
:1025AC008D6944EA8504E7E7002C014038B590F8C2
:1025BC003C30012B66D00D460446012380F83C309C
:1025CC00022380F83D300C2A1AD8DFE802F00719F4
:1025DC001919201919193419191947000068FFF72E
:1025EC00C3FD2268936943F00803936122689369E1
:1025FC0023F0040393612268936929690B43936167
:10260C00012384F83D30002084F83C0038BD00687C
:10261C00FFF79AFF2268936943F400639361226881
:10262C00936923F48063936122689369296943EA6F
:10263C0001239361E4E70068FFF7C4FD2268D369C6
:10264C0043F00803D3612268D36923F00403D361F8
:10265C002268D36929690B43D361D1E70068FFF77E
:10266C00E3FD2268D36943F40063D3612268D36924
:10267C0023F48063D3612268D369296943EA012377
:10268C00D361BDE70220C1E710B4846824F47F4411
:10269C0042EA03230B432343836010BC704790F83A
:1026AC003C30012B66D010B50446012380F83C3039
:1026BC00022380F83D300268936823F47F4323F0B3
:1026CC00770393600B68402B4AD013D9602B3DD015
:1026DC001ED9702B28D0B3F5005F30D1CB684A6877
:1026EC0089680068FFF7D0FF2268936843F4804341
:1026FC00936024E0102B06D004D9202B03D0302B70
:10270C0001D01CE0DBB919462068FFF7D6FD16E0B6
:10271C00502B14D1CA6849680068FFF7A9FD5021F5
:10272C002068FFF7CAFD0AE0CB684A688968006830
:10273C00FFF7AAFF2268936843F0770393600123A5
:10274C0084F83D30002084F83C0010BDCA6849680C
:10275C000068FFF79FFD60212068FFF7AEFDEEE7F4
:10276C00CA6849680068FFF783FD40212068FFF7BD
:10277C00A4FDE4E70220704710B401F01F0101230F
:10278C0003FA01F4036A23EA04030362036A8A402E
:10279C001343036210BC704710B504460122006855
:1027AC00FFF7EAFF23680A4A93420BD0226893682A
:1027BC0003F00703062B03D0136843F001031360E7
:1027CC00002010BD5A6C42F400425A64EEE700BF80
:1027DC00002C014090F83C30012B1CD070B4012629
:1027EC0080F83C60022380F83D300268556893689D
:1027FC0025F070050C682C4323F080054B682B43A7
:10280C0054600268936080F83D60002380F83C308F
:10281C00184670BC704702207047704770470268BA
:10282C00D36823F49073D3600268536923F00103D7
:10283C005361202380F83A30704790F83930DBB27E
:10284C00212B2AD18368B3F5805F16D0036A5A1CFA
:10285C0002621A7803685A60C38C013B9BB2C38432
:10286C00EBB90268D36823F08003D3600268D368A5
:10287C0043F04003D36000207047036A1B88026852
:10288C00C3F30803536003691BB9036A0233036281
:10289C00E2E7036A01330362DEE70220704700209F
:1028AC007047000038B504460268136923F440539E
:1028BC00C1680B43136183680269134342691A436D
:1028CC000168CB6823F4B05323F00C031343CB60A3
:1028DC000268536923F4407381690B4353610268A6
:1028EC00214B9A421FD000F0A5FD00EB800000EBBD
:1028FC00800063689B00B0FBF3F01C4DA5FB00321D
:10290C005109642202FB110213013233A5FB03238C
:10291C005B0903F0F00202EB011203F00F032168D4
:10292C0013448B6038BD00F095FD00EB800000EB8C
:10293C00800063689B00B0FBF3F00C4DA5FB0032EC
:10294C005109642202FB110213013233A5FB03234C
:10295C005B0903F0F00202EB011203F00F03216894
:10296C0013448B60DEE700BF003801401F85EB513C
:10297C002DE9F04105460F4616469846069C2B68F5
:10298C001B6837EA03030CBF01230023B3421DD19C
:10299C00B4F1FF3FF3D02CB100F022FAA0EB080009
:1029AC00A042ECD92A68D36823F4D073D3602A6888
:1029BC00536923F001035361202385F8393085F8DE
:1029CC003A30002385F83830032000E00020BDE8C1
:1029DC00F08158B310B5044690F839300BB324236A
:1029EC0084F839302268D36823F40053D36020462E
:1029FC00FFF758FF2268136923F490431361226890
:102A0C00536923F02A0353612268D36843F40053BB
:102A1C00D3600020E063202384F8393084F83A3006
:102A2C0010BD80F83830FFF7ADFAD8E701207047B9
:102A3C002DE9F04182B01E4690F83930DBB2202BE4
:102A4C0055D104460D469046002955D0002A55D044
:102A5C0090F83830012B53D0012380F83830002304
:102A6C00C363212380F8393000F0BAF90746A4F883
:102A7C002480A4F8268010E000963B46002280219A
:102A8C002046FFF775FF00283CD12B882268C3F342
:102A9C00080353602369C3B90235E38C9BB2B3B10D
:102AAC00E38C013B9BB2E384A368B3F5805FE3D076
:102ABC0000963B46002280212046FFF759FF18BBA9
:102ACC002A7823685A600135E7E70135E5E7009677
:102ADC003B46002240212046FFF74AFF0346A8B997
:102AEC00202284F83920002284F8382000E00223C8
:102AFC00184602B0BDE8F0810123F9E70123F7E79E
:102B0C000223F5E70323F3E70323F1E70323EFE7BE
:102B1C0090F83A30DBB2202B20D109B312B390F8E5
:102B2C003830012B20D081628285C2850023C3639B
:102B3C00222280F83A2080F838300168CA6842F4C2
:102B4C008072CA6001684A6942F001024A610168F8
:102B5C00CA6842F02002CA601846704702207047CB
:102B6C00012070470120704702207047704708B55C
:102B7C000168CB6823F04003CB60202380F8393008
:102B8C00FFF7F4FF002008BD08B590F83A30DBB22F
:102B9C00222B45D18368B3F5805F0ED0036903BB4C
:102BAC0003685A68836A591C81621A70C38D013B91
:102BBC009BB2C385F3B1002033E0826A036943B949
:102BCC0003685B68C3F308031380836A0233836270
:102BDC00ECE703685B68DBB21380836A01338362C2
:102BEC00E4E703685B68826A511C816203F07F032F
:102BFC001370DBE70268D36823F02003D36002680C
:102C0C00D36823F48073D3600268536923F0010303
:102C1C005361202380F83A30FFF7F0F8002000E0F1
:102C2C00022008BD7047000010B504460268136806
:102C3C00D168526913F00F0005D113F0200F02D0A8
:102C4C0011F0200F53D1002867D012F0010202D1ED
:102C5C0011F4907F61D013F0010F06D011F4807F36
:102C6C0003D0E06B40F00100E06313F0040F04D0DC
:102C7C001AB1E06B40F00200E06313F0020F04D0D5
:102C8C001AB1E06B40F00400E06313F0080F04D0BD
:102C9C001AB1E26B42F00802E263E26B002A48D000
:102CAC0013F0200F02D011F0200F24D123685B69A0
:102CBC0003F04003E26B12F0080F00D13BB3204647
:102CCC00FFF7ADFD23685A6912F0400F1BD05A690B
:102CDC0022F040025A61636B8BB11A4A5A63606BE3
:102CEC0000F046FD28B3606B436B984721E020460B
:102CFC00FFF74AFF1DE02046FFF746FFD6E72046C8
:102D0C00FFF790FF15E02046FFF78CFF11E02046FF
:102D1C00FFF788FF0023E3630BE013F0800F02D072
:102D2C0011F0800F06D113F0400F02D011F0400FBC
:102D3C0004D110BD2046FFF780FDFAE72046FFF7CF
:102D4C0016FFF6E7552D000808B5406A0023C38529
:102D5C00C384FFF767FF08BD10B504460E4B187807
:102D6C004FF47A73B3FBF0F30C4A1068B0FBF3F03A
:102D7C0000F09EFD68B90F2C01D901200AE0002259
:102D8C0021464FF0FF3000F051FD054B1C60002038
:102D9C0000E0012010BD00BF100000201800002032
:102DAC001400002008B5074A136843F010031360A1
:102DBC00032000F029FD0020FFF7CEFFFFF7A0F85D
:102DCC00002008BD00200240034A1168034B1B7809
:102DDC000B441360704700BF1C0C00201000002037
:102DEC00014B1868704700BF1C0C002038B5044616
:102DFC00FFF7F6FF0546B4F1FF3F02D0044B1B78FA
:102E0C001C44FFF7EDFF401BA042FAD338BD00BFB6
:102E1C001000002082B0084B1B68084AA2FB032359
:102E2C005B0A00FB03F0019000BF019B5A1E01924C
:102E3C00002BF9D102B0704718000020D34D62105E
:102E4C00002800F0F58170B582B00446036813F0D9
:102E5C00010F2CD0AB4B5B6803F00C03042B1DD083
:102E6C00A84B5B6803F00C03082B12D06368B3F516
:102E7C00803F41D0002B55D103F1804303F504333F
:102E8C001A6822F480321A601A6822F480221A60BE
:102E9C0037E09C4B5B6813F4803FE7D0994B1B6881
:102EAC0013F4003F03D06368002B00F0C381236848
:102EBC0013F0020F76D0934B5B6813F00C0F5FD0BE
:102ECC00904B5B6803F00C03082B54D02369002B48
:102EDC0000F08A808C4B01221A60FFF781FF0546B7
:102EEC00884B1B6813F0020F75D1FFF779FF401B5D
:102EFC000228F5D90320A0E1824A136843F48033F9
:102F0C001360636843B3FFF76BFF05467D4B1B688B
:102F1C0013F4003FCBD1FFF763FF401B6428F5D9B6
:102F2C0003208AE1B3F5A02F09D0764B1A6822F45E
:102F3C0080321A601A6822F480221A60E1E703F1E9
:102F4C008043A3F53C331A6842F480221A601A6855
:102F5C0042F480321A60D4E7FFF742FF0546694B12
:102F6C001B6813F4003FA2D0FFF73AFF401B642804
:102F7C00F5D9032061E1634B5B6813F4803FA5D165
:102F8C00604B1B6813F0020F04D02369012B01D096
:102F9C00012052E15B4A136823F0F803616943EAAC
:102FAC00C1031360236813F0080F32D0A369002B00
:102FBC005BD0564B01221A60FFF712FF0546514BAE
:102FCC005B6A13F0020F21D1FFF70AFF401B0228A6
:102FDC00F5D9032031E14B4A136823F0F8036169FA
:102FEC0043EAC1031360DDE7474B00221A60FFF789
:102FFC00F7FE0546434B1B6813F0020FD2D0FFF7C8
:10300C00EFFE401B0228F5D9032016E10120FFF743
:10301C0001FF236813F0040F00F09880394BDB6933
:10302C0013F0805F33D1374BDA6942F08052DA61AA
:10303C00DB6903F080530193019B0125344B1B6822
:10304C0013F4807F25D0E368012B36D0002B4CD1B4
:10305C0003F1804303F504331A6A22F001021A6269
:10306C001A6A22F004021A622CE0284B00221A6021
:10307C00FFF7B6FE0546234B5B6A13F0020FC8D070
:10308C00FFF7AEFE401B0228F5D90320D5E0002542
:10309C00D4E71F4A136843F480731360FFF7A0FE54
:1030AC0006461B4B1B6813F4807FCCD1FFF798FEB0
:1030BC00801B6428F5D90320BFE0124A136A43F041
:1030CC0001031362E3687BB3FFF78AFE06460D4BE0
:1030DC001B6A13F0020F38D1FFF782FE801B41F2FE
:1030EC0088339842F3D90320A7E0052B12D0054B67
:1030FC001A6A22F001021A621A6A22F004021A6297
:10310C00E0E700BF0010024000004242800442424F
:10311C00007000404C4B1A6A42F004021A621A6AA0
:10312C0042F001021A62CDE7FFF75AFE0646464B03
:10313C001B6A13F0020F08D0FFF752FE801B41F2FE
:10314C0088339842F3D9032077E0E5B9E369002B83
:10315C0072D03D4A526802F00C02082A56D0022B5B
:10316C0017D03A4B00221A60FFF73AFE0446364B52
:10317C001B6813F0007F47D0FFF732FE001B0228BC
:10318C00F5D9032059E0304AD36923F08053D36139
:10319C00DCE72E4B00221A60FFF722FE05462A4B75
:1031AC001B6813F0007F06D0FFF71AFE401B0228A5
:1031BC00F5D9032041E0236AB3F5803F1AD02249A8
:1031CC004B6823F47413226A606A024313434B6006
:1031DC001E4B01221A60FFF703FE04461A4B1B68B4
:1031EC0013F0007F0ED1FFF7FBFD001B0228F5D971
:1031FC00032022E0144A536823F40033A1680B43E4
:10320C005360DCE7002018E0002016E0012B16D0FC
:10321C000D4B5B6803F48031226A914201D001208E
:10322C000BE003F47013626A93420AD0012004E0AD
:10323C0001207047012000E0002002B070BD012089
:10324C00FBE70020F9E700BF00100240600042429B
:10325C0010B487B0164C94E80F000DF1180C0CE963
:10326C000F00238AADF80430124B5B6803F00C029C
:10327C00082A1AD1C3F38342624412F8102C13F4B7
:10328C00803F05D10C4800FB02F007B010BC704722
:10329C00084B5B68C3F34043634413F8143C074882
:1032AC0000FB02F0B0FBF3F0EFE70448EDE700BFE2
:1032BC00EC3601080010024000093D0000127A00B3
:1032CC00002800F0A38070B50446524B1B6803F035
:1032DC0007038B420CD24F4A136823F007030B43AE
:1032EC001360136803F007038B4201D0012070BDFB
:1032FC00236813F0020F17D013F0040F04D0464AC2
:10330C00536843F4E0635360236813F0080F04D050
:10331C00414A536843F4605353603F4A536823F067
:10332C00F003A068034353600D46236813F0010FAC
:10333C0031D06368012B20D0022B25D0364A12687D
:10334C0012F0020F64D034494A6822F0030213438E
:10335C004B60FFF745FD06462F4B5B6803F00C03F3
:10336C006268B3EB820F16D0FFF73AFD801B41F277
:10337C0088339842F0D90320B9E7274A126812F42F
:10338C00003FE0D10120B2E7234A126812F0007F1F
:10339C00D9D10120ABE71F4B1B6803F00703AB42ED
:1033AC000CD91C4A136823F007032B4313601368D2
:1033BC0003F00703AB4201D0012098E7236813F018
:1033CC00040F06D0144A536823F4E063E1680B43FE
:1033DC005360236813F0080F07D00F4A536823F487
:1033EC006053216943EAC1035360FFF731FF0A4B75
:1033FC005B68C3F30313094AD35CD840084B1860CD
:10340C00084B1868FFF7A8FC002070E701207047F4
:10341C0001206CE70020024000100240043E01082D
:10342C001800002014000020014B1868704700BFE2
:10343C001800002008B5FFF7F7FF044B5B68C3F3D7
:10344C000223034AD35CD84008BD00BF00100240E1
:10345C00143E010808B5FFF7E7FF044B5B68C3F3A4
:10346C00C223034AD35CD84008BD00BF0010024001
:10347C00143E010830B587B00546384C94E80F006F
:10348C000DF1180C0CE90F00238AADF80430022D55
:10349C0050D0102D03D0012D2BD0002054E0304BF8
:1034AC005A681B6813F0807F50D0C2F3834306A97F
:1034BC000B4413F8100C12F4803F16D0284B5B68A9
:1034CC00C3F340430B4413F8142C264BB3FBF2F319
:1034DC0000FB03F0224B5B6813F4800F34D14000E7
:1034EC00214BA3FB003040082EE0204B03FB00F0E7
:1034FC00F0E71B4B1B6A40F202321A40B2F5817F97
:10350C0026D003F44073B3F5007F04D0B3F5407FAD
:10351C0009D0002018E0124A526A12F0020FF5D0BE
:10352C0049F6404010E00E4B1B6813F4003F12D1DB
:10353C00002009E0FFF78EFF094B5B68C3F3813372
:10354C0001335B00B0FBF3F007B030BD0020FBE7AC
:10355C004FF40040F8E74FF22440F5E7003701083C
:10356C000010024000127A00ABAAAAAA00093D0082
:10357C00F0B482B000263246A2E0002D5AD0012DC4
:10358C0000D1CE68FF2B69D88446FF2B69D89500F3
:10359C00DCF800400F27AF4024EA070406FA05F5D3
:1035AC002C43CCF800404C6814F0805F00F087800E
:1035BC005F4CA56945F00105A561A46904F00104FF
:1035CC000194019C9508AF1C5A4C54F8274002F00A
:1035DC000307BF004FF00F0C0CFA07FC24EA0C0C8D
:1035EC00554CA04243D004F58064A04200F0818089
:1035FC0004F58064A0427ED004F58064A04234D0EF
:10360C00042435E04D4FBD4214D00BD94C4FBD4274
:10361C0010D007F58037BD420CD0A7F58017BD42FE
:10362C00B0D107E0A7F58017BD4203D007F580376E
:10363C00BD42A7D18D687DB1012D08D0446108260B
:10364C00A0E7CE6808369DE7CE680C369AE7046191
:10365C00082697E7002695E7042693E700F1040C6B
:10366C0093E7A2F10805AD0092E7032400E00024E3
:10367C00BC4044EA0C0402352E4F47F825404C68F8
:10368C0014F4803F39D02F4D2C681C432C604C68AF
:10369C0014F4003F37D02B4D6C681C436C604C68A5
:1036AC0014F4801F35D0274DAC681C43AC604C68BB
:1036BC0014F4001F33D0234DEC682343EB6001322C
:1036CC000B6833FA02F430D00124944023409C421E
:1036DC00F5D14D68122DB7D094D8022DB1D07FF60C
:1036EC004CAF032DB6D0112D7FF44CAFCE68043601
:1036FC0048E70124BCE70224BAE7124D2C6824EAFF
:10370C0003042C60C3E70F4D6C6824EA03046C605F
:10371C00C5E70C4DAC6824EA0304AC60C7E7094D5F
:10372C00EC6824EA0303EB60C9E702B0F0BC704715
:10373C000010024000000140000801400000211070
:10374C00000031100004014012B9090401617047F6
:10375C000161704708B5054B5B69034200D108BD98
:10376C00024B5861FEF792FBF9E700BF00040140E1
:10377C0008B590F82130022B03D004238363012079
:10378C0008BD0268136823F00E0313600268136807
:10379C0023F0010313600368194A934214D01432C6
:1037AC0093421FD0143293421ED0143293421ED037
:1037BC00143293421ED01432934202D04FF08072D6
:1037CC0003E04FF4801200E001220E4B5A600123FB
:1037DC0080F82130002380F82030436B6BB1984780
:1037EC000020CDE71022F0E74FF48072EDE74FF4A4
:1037FC008052EAE74FF48032E7E70020C0E700BFD1
:10380C000800024000000240074AD36823F4E0633A
:10381C001B041B0C000200F4E060184340F0BF6076
:10382C0040F40030D060704700ED00E030B4174B2E
:10383C00DB68C3F30223C3F10704042C28BF042460
:10384C001D1D062D18D9033B4FF0FF3505FA04F466
:10385C0021EA0401994005FA03F322EA0303194310
:10386C0000280BDB0901C9B200F1604000F5614092
:10387C0080F8001330BC70470023E5E700F00F0020
:10388C000901C9B2024B1954F4E700BF00ED00E086
:10389C0014ED00E0002807DB00F01F0240090123B3
:1038AC009340024A42F82030704700BF00E100E02C
:1038BC000138B0F1807F0AD2064B5860064AF021DD
:1038CC0082F823100020986007221A6070470120AC
:1038DC00704700BF10E000E000ED00E0F0B583B0F1
:1038EC0005460C4600230193FFF77AFA2B689A6879
:1038FC0012F4807F23D106465A6812F4807F03D1DC
:10390C00DB6A13F4700F24D04B4B1F680220FFF7B7
:10391C00B1FDB7FBF0F02B681969484A11422FD161
:10392C00D96802F15C4211422AD11969444A114208
:10393C0039D1DA68434B1A4237D029273AE0AB6ABF
:10394C0043F02003AB62002385F82430012003B040
:10395C00F0BD2B681B6813F0020F48D1B4F1FF3F88
:10396C00F7D024B1FFF73CFA801BA042F1D9AB6A27
:10397C0043F00403AB62002385F824300320E6E710
:10398C0019692F4A114204D1D96802F16E421142D1
:10399C000DD019692C4A0A405AB9DA682A4B1340DF
:1039AC005BB1FC2706E0292704E0142702E054272A
:1039BC0000E0FC2707FB00F704E05427FAE7019B23
:1039CC0001330193019BBB4211D2B4F1FF3FF6D0FE
:1039DC0024B1FFF705FA801BA042F0D9AB6A43F083
:1039EC000403AB62002385F824300320AFE72B6877
:1039FC006FF012021A60AB6A43F40073AB622B686F
:103A0C009B6803F46023B3F5602F01D000209EE780
:103A1C002B7B6BB9AB6A23F48073AB62AB6A13F488
:103A2C00805F07D1AB6A43F00103AB6200208EE7E5
:103A3C0000208CE700208AE71800002024499224FB
:103A4C009224491292244900499224000368D86CAC
:103A5C007047000030B482B00023019390F82430FA
:103A6C00012B00F08B800246012380F824304B6838
:103A7C00062B29D80568686B03EB8303053B1F24D1
:103A8C009C4020EA04000C6804FA03F303436B63C4
:103A9C000B68092B38D91568E86803EB43031E3B08
:103AAC0007249C4020EA04008C6804FA03F30343C7
:103ABC00EB600B68103B012B34D90020002382F8FB
:103ACC00243002B030BC70470C2B0ED80568286B24
:103ADC0003EB8303233B1F249C4020EA04000C6867
:103AEC0004FA03F303432B63D2E70568E86A03EB9C
:103AFC008303413B1F249C4020EA04000C6804FA19
:103B0C0003F30343EB62C3E71568286903EB430334
:103B1C0007249C4020EA04008C6804FA03F3034356
:103B2C002B61C6E713681648834205D0936A43F0AD
:103B3C00200393620120C1E7986810F4000F1BD199
:103B4C00986840F4000098600B68102B01D000209E
:103B5C00B4E70C4B1B680C49A1FB03139B0C03EB48
:103B6C0083035900019102E0019B013B0193019BEE
:103B7C00002BF9D10020A1E700209FE70220A0E74D
:103B8C00002401401800002083DE1B43806A70472C
:103B9C0030B583B00023019303689A6812F0010FCB
:103BAC002ED19A6842F001029A60174B1B68174A93
:103BBC00A2FB03239B0C019302E0019B013B0193AD
:103BCC00019B002BF9D10446FFF70AF9054623683F
:103BDC009B6813F0010F11D1FFF702F9401B02286B
:103BEC00F5D9A36A43F01003A362E36A43F001031F
:103BFC00E362002384F82430012002E0002000E07E
:103C0C00002003B030BD00BF1800002083DE1B4332
:103C1C0090F82430012B6AD010B50446012380F8AB
:103C2C002430FFF7B5FF024600285BD1A36A23F4CA
:103C3C00407323F0010343F48073A36223682D497E
:103C4C008B4227D0A16A21F48011A162596811F42A
:103C5C00806F05D0A16A21F4405141F48051A162DA
:103C6C00A16A11F4805F2BD0E16A21F00601E162B8
:103C7C00002184F824106FF0020119602368996800
:103C8C0001F46021B1F5602F1DD0996841F48011C9
:103C9C0099602AE0A1F58061496811F4702FD1D0A8
:103CAC00A16A41F48011A1621349496811F4806F33
:103CBC00D6D0A16A21F4405141F48051A162CFE7E2
:103CCC000021E162D4E70B498B4204D0996841F49E
:103CDC00A001996009E0A1F58061496811F4702F89
:103CEC00D3D1F3E7002384F82430104610BD022210
:103CFC0010467047002801400024014038B5036885
:103D0C009A6812F0010F01D1002038BD04469A6860
:103D1C0022F001029A60FFF763F8054623689B685E
:103D2C0013F0010F0ED0FFF75BF8401B0228F5D9FA
:103D3C00A36A43F01003A362E36A43F00103E36256
:103D4C000120E2E70020E0E700287FD038B50446E8
:103D5C00836A002B33D02046FFF7D0FFA36A13F001
:103D6C0010036DD100286BD1A26A22F4885222F084
:103D7C00020242F00202A2626268E1690A43257BF8
:103D8C0042EA4502A168B1F5807F21D001291CD0FF
:103D9C00217D01291FD02568696821F469410B43F5
:103DAC006B6021688D682A4B2B4013438B60A36892
:103DBC00B3F5807F20D0012B1ED000211FE0C36201
:103DCC0080F82430FEF75AF9C5E74FF48073DFE72B
:103DDC004FF48073DCE735B9A169013943EA41330B
:103DEC0043F40063D7E7A16A41F02001A162E16AC4
:103DFC0041F00101E162CEE72369013B1905256819
:103E0C00EB6A23F470030B43EB6223689968114B44
:103E1C000B409A420BD0A36A23F0120343F0100319
:103E2C00A362E36A43F00103E36201200DE0002387
:103E3C00E362A36A23F0030343F00103A36204E0EB
:103E4C00A36A43F01003A362012038BD0120704720
:103E5C00FDF7E1FFFE0E1FFF0F4B1A6842F0010247
:103E6C001A6059680D4A0A405A601A6822F0847226
:103E7C0022F480321A601A6822F480221A605A687E
:103E8C0022F4FE025A604FF41F029A60044B4FF06A
:103E9C0000629A60704700BF001002400000FFF8FB
:103EAC0000ED00E008B5034B1B7803B108BDFEF72D
:103EBC009DFFFBE7200C002008B5034B1B78014647
:103ECC0018460FF028F808BD0500002008B5044B73
:103EDC001B780A46014618460EF0D2FF08BD00BFFB
:103EEC000500002008B5044B1B780A46014618460D
:103EFC000EF0C6FF08BD00BF0600002008B50FF08D
:103F0C0025F908BD08B50FF0FAF808BD10B51C4628
:103F1C00134622460EF0D1FF10BD70B588B0044692
:103F2C000D461646197868460DF071FD33466A4603
:103F3C00294620460EF0C1FF08B070BD10B5C0B0C8
:103F4C0014468DF800008DF8011019460DF1020091
:103F5C000DF052FD044B1878A31CDBB26A46FD2110
:103F6C000EF0ABFF40B010BD0500002038B5054683
:103F7C00002404E00520FEF739FF0134A4B2AC4262
:103F8C00F8D338BD08B50146024B18780EF01FFE69
:103F9C0008BD00BFCC0C002008B50A460146024BF8
:103FAC0018780EF0F1FD08BDCC0C002008B5FEF71A
:103FBC001DFF08BD08B5014640200FF0A8FA08BD4A
:103FCC0008B5014628200FF0EEFA0F4B18600F4A87
:103FDC00A2FB0013DB0803EB8301A2FB01C2A0EBE5
:103FEC00410303EB83030A49A1FB0330400900EBB7
:103FFC00D20000EB8000C0EB0010A1FB00304009A8
:10400C00044B186008BD00BFB0090020CDCCCCCC4F
:10401C001F85EB51B809002008B50A4601464A2015
:10402C000FF0EDFA08BD0000024A137823EA0000F5
:10403C0010707047FA090020024A13781843107068
:10404C00704700BFFA090020014B1878704700BF79
:10405C00FA09002008B5082809D8DFE800F00505A2
:10406C0005050D0D0D0D09005220FFF72FFF08BDA2
:10407C005720FFF72BFFFAE75D20FFF727FFF6E746
:10408C00F8B505460C4617465320FFF715FF00F010
:10409C003F065E20FFF710FF00F03F0104F03F04E5
:1040AC00082D0ED8DFE805F0050E19242F37424DE8
:1040BC00580031465320FFF709FF21465320FFF7E4
:1040CC0005FFF8BD46F040015320FFF7FFFE44F01A
:1040DC0040015320FFF7FAFEF3E746F0800153202E
:1040EC00FFF7F4FE44F080015320FFF7EFFEE8E702
:1040FC0046F0C0015320FFF7E9FE44F0C001532005
:10410C00FFF7E4FEDDE75E20FFF7E0FE21465E20D0
:10411C00FFF7DCFED5E741F040015E20FFF7D6FE4D
:10412C0044F040015E20FFF7D1FECAE741F0800168
:10413C005E20FFF7CBFE44F080015E20FFF7C6FE49
:10414C00BFE741F0C0015E20FFF7C0FE44F0C001A4
:10415C005E20FFF7BBFEB4E721465820FFF7B6FE02
:10416C0007F01F015920FFF7B1FEAAE738B5CDB211
:10417C00090A090101F07001D4B2C2F30222082825
:10418C0012D8DFE800F0050505051F1F1F1F1200E0
:10419C0011435420FFF79AFE29465520FFF796FE4F
:1041AC0021465620FFF792FE38BD11435A20FFF7E7
:1041BC008DFE29465B20FFF789FE21465C20FFF728
:1041CC0085FEF1E711435F20FFF780FE2946602052
:1041DC00FFF77CFE21466120FFF778FEE4E7000044
:1041EC0070B506460C4614F8015B1021FD20FFF754
:1041FC006DFE3146FE20FFF769FE044B187823460E
:10420C002A46FF21FFF782FE70BD00BF050000208B
:10421C0070B582B0064602AC04F8012D0D78702101
:10422C00FD20FFF753FE3146FE20FFF74FFE044BF7
:10423C00187823462A46FF21FFF76FFE02B070BDA7
:10424C000500002038B504460D465320FFF734FE18
:10425C0000F03F01A40164B22143C9B25320FFF71F
:10426C0035FE5E20FFF728FE00F03F0044EA000117
:10427C00C9B25E20FFF72AFE5120FFF71DFE15F094
:10428C00080F01D100F0F70020F0070149B205F04A
:10429C000F052943C9B25120FFF718FE38BD10B5E0
:1042AC0004465120FFF708FE00F0FD010CB141F06F
:1042BC00020141F008015120FFF708FE10BD10B5B6
:1042CC0004466920FFF7F8FD00F00F0141EA0411E4
:1042DC00C9B26920FFF7FAFD00215820FFF7F6FD5F
:1042EC0010BD0000072825D8DFE800F004080C10EA
:1042FC0014181C20114B124A1A6070470F4B114AAC
:10430C001A6070470D4B104A1A6070470B4B0F4ADE
:10431C001A607047094B0E4A1A607047074B0D4ADA
:10432C001A607047054B0C4A1A607047034B0B4AD6
:10433C001A607047014B094A1A607047040A002042
:10434C0098820108B0820108A4820108BC8201088D
:10435C0080820108748201088C820108F0820108B5
:10436C0070B48C6884420EDB9E681D68761B0B68EB
:10437C00E41A18D0C01A06FB00F696FBF4F42C4491
:10438C00146001200DE05D689E68AD1B4B681B1B23
:10439C000BD0041B05FB04F595FBF3F535441560B8
:1043AC00012070BC70470020FBE70020F9E708B53E
:1043BC004138932800F2D880DFE800F086D6D6D6B4
:1043CC00D6D6D6D6D6D6D6D6D6D6D6D6D6D6D69ABD
:1043DC00D6D6D6D6D6D6D6D6D6D6D6CACED2D6D689
:1043EC00D6D6D6D6D6D6D6D6D6D6D6D6D6D6D6D661
:1043FC00D6D6D6D6D6D6D6D6D6D6D6D6D6D6D6D651
:10440C00D6D6D6D6D6D6D6D6D6D6D6D6D6D6D6D640
:10441C004A4E52D6565AD65ED6D6D6D6D6D6D6D63C
:10442C00D6D6D6D6D6D6D6D6D6D6D6D6D6D6D6D620
:10443C00D6D6D666626A6E767A7E82D68A8E929648
:10444C00D6AAAED6B272D6D69EA2A6B6BABEC2C6F0
:10445C001220FFF753FD08BD1320FFF74FFDFAE7BD
:10446C001420FFF74BFDF6E71720FFF747FDF2E7A7
:10447C001620FFF743FDEEE71820FFF73FFDEAE7B4
:10448C00A320FFF73BFDE6E7A020FFF737FDE2E7AF
:10449C00A420FFF733FDDEE7AC20FFF72FFDDAE7B2
:1044AC00AD20FFF72BFDD6E7BF20FFF727FDD2E7A6
:1044BC002020FFF723FDCEE72120FFF71FFDCAE7E1
:1044CC002220FFF71BFDC6E72020FFF717FDC2E7F0
:1044DC00A520FFF713FDBEE7A620FFF70FFDBAE7F7
:1044EC00A720FFF70BFDB6E7A820FFF707FDB2E703
:1044FC001920FFF703FDAEE7BC20FFF7FFFCAAE78E
:10450C00BD20FFF7FBFCA6E7BE20FFF7F7FCA2E7F8
:10451C00A220FFF7F3FC9EE7AE20FFF7EFFC9AE733
:10452C00AA20FFF7EBFC96E7C020FFF7E7FC92E729
:10453C00C120FFF7E3FC8EE7C220FFF7DFFC8AE720
:10454C00C320FFF7DBFC86E7C420FFF7D7FC82E72C
:10455C002320FFF7D3FC7EE72420FFF7CFFC7AE77C
:10456C002520FFF7CBFC76E7002074E710B584B06C
:10457C000C46953807280AD8DFE800F0130419090F
:10458C001F25092B164A6B4607CA83E807006B46A2
:10459C0003AA14492046FFF7E3FE9DF80C0004B073
:1045AC0010BD114A6B4607CA83E80700EFE70F4AB4
:1045BC006B4607CA83E80700E9E70D4A6B4607CA52
:1045CC0083E80700E3E70B4A6B4607CA83E807005A
:1045DC00DDE7094A6B4607CA83E80700D7E700BF47
:1045EC0040000020040900204C000020040300209F
:1045FC00E8000020100300203400002000B583B038
:10460C009C20FFF7D4FE054B01AA0549FFF7A8FE35
:10461C000198044B186003B05DF804FB34000020D3
:10462C00100900200C000020F8B501290FD04FF024
:10463C00FF35254B1C682544244B1B68AB4203DC1F
:10464C00224B5B68AB4204DAE4B22046F8BD01258C
:10465C00EFE70646ECB22146FFF788FF0746A6F1C6
:10466C009500072809D8DFE800F00B041008152185
:10467C00082639463120FFF729FC134B1D60E4E76F
:10468C0039463220FFF722FCF7E739463320FFF793
:10469C001DFCF2E73420FFF70FFC41B221F03F0183
:1046AC003943C9B23420FFF711FCE6E739464E20F6
:1046BC00FFF70CFCE1E7FFF7A1FFFFF79FFF0146B7
:1046CC00034809F04DFBD8E7FC0900200409002041
:1046DC009080010810B59620FFF769FEC1B29620B4
:1046EC00FFF744FF01463120FFF7F0FB9720FFF75F
:1046FC005EFEC1B29720FFF739FF01463320FFF76A
:10470C00E5FB9520FFF753FEC1B29520FFF72EFF76
:10471C0001463220FFF7DAFB9920FFF748FEC1B2C1
:10472C009920FFF723FF04463420FFF7C5FB41B265
:10473C0021F03F012143C9B23420FFF7C7FB9A2077
:10474C00FFF735FEC1B29A20FFF710FF0446A021F7
:10475C004B20FFF7BBFB21464E20FFF7B7FBFFF7C3
:10476C004DFF80B2FCF7FCFE10BD000010B53A4BBB
:10477C001B78012B0CD0384B5B78012B21D0364B9E
:10478C009B78012B36D0344BDB78012B4BD010BDF2
:10479C00324B1B7853B9324C21460420FFF720FDD5
:1047AC00022221460420FFF733FDF0E72D4C214671
:1047BC000420FFF715FD022221460420FFF728FDF7
:1047CC00E5E7264B1B7853B9254C21460A20FFF709
:1047DC0007FD022221460A20FFF71AFDD7E7214CDC
:1047EC0021460A20FFF7FCFC022221460A20FFF793
:1047FC000FFDCCE7194B1B7853B9194C21461020EF
:10480C00FFF7EEFC022221461020FFF701FDBEE768
:10481C00144C21461020FFF7E3FC02222146102005
:10482C00FFF7F6FCB3E70D4B1B7853B10D4C21464B
:10483C001620FFF7D5FC022221461620FFF7E8FCD4
:10484C00A5E7074C21461620FFF7CAFC0222214699
:10485C001620FFF7DDFC9AE7D80900200309002099
:10486C007C8E0108788E010808B5404809F078FA6A
:10487C003F4B1B78302B59D019D8042B2DD9102B2A
:10488C0029D1FFF7E1FB10F0060F35D003210020F2
:10489C00FFF7D8FC03210120FFF7D4FC03210220F1
:1048AC00FFF7D0FC03210846FFF7CCFC13E0502B9C
:1048BC003CD0602B0DD1FFF7C7FB10F0060F2CD0AE
:1048CC0003210020FFF7BEFC03210120FFF7BAFCF7
:1048DC0001E0402B2AD0002008BDFFF7B5FB10F0FB
:1048EC00060F04D003210020FFF7ACFCF3E70121F5
:1048FC000020FFF7A7FCEEE701210020FFF7A2FC48
:10490C0001210846FFF79EFC01210220FFF79AFCCB
:10491C0001210320FFF796FCDDE701210020FFF7C2
:10492C0091FC01210846FFF78DFCD4E7FFF78CFBC7
:10493C0010F0060F0CD101210020FFF783FC0121A0
:10494C000846FFF77FFC01210220FFF77BFCC2E742
:10495C0003210020FFF776FC03210120FFF772FCF6
:10496C0003210220FFF76EFCB5E700BFAC80010805
:10497C008407002070B592B00446614D0EAB95E8EB
:10498C00070003C31A8005F10C0393E803000C9095
:10499C008DF834100023ADF82E300E238DF8203016
:1049AC0078238DF821308DF822308DF823308DF856
:1049BC0024308DF825308DF826308DF827308DF881
:1049CC0028308DF829308DF82A308DF82B308DF861
:1049DC002C308DF82D308DF82E3004AE05F11403EB
:1049EC000FCB07C6338001AB243595E8070003C312
:1049FC001A70444B11AA44492046FFF7B1FC119898
:104A0C007D2820DC414B83FB0023C517C5EB6305D8
:104A1C00EBB206E012AA1A44702102F8381C0133DA
:104A2C00DBB20E2BF6D9394A82FB0032C317C3EB2B
:104A3C00620303EBC303C31A12AA134413F8443CD6
:104A4C00154405F8383C01230AE05A1E12A90A4401
:104A5C0012F8381C12AA1A4402F8281C0133DBB2D3
:104A6C000E2BF2D9632C08D8092C33D812AB1C446A
:104A7C0014F8103C8DF8333022E0254BA3FB0423B3
:104A8C005B0912AA1A4412F8102C8DF831206422FA
:104A9C0002FB1344E4B21F4BA3FB0423DB0812AA52
:104AAC001A4412F8102C8DF8322003EB83035A00B1
:104ABC00A31ADBB212AA134413F8103C8DF833304E
:104ACC0008A95520FFF78CFB0CA96420FFF788FB85
:104ADC0012B070BD0F4BA3FB0423DB0812AA1A44BF
:104AEC0012F8102C8DF8322003EB83035A00A31A12
:104AFC00DBB212AA134413F8103C8DF83330DFE705
:104B0C00143701081C00002004090020398EE338FA
:104B1C001F85EB51CDCCCCCCF0B585B0A34C01AB03
:104B2C0094E8070003C31A80236B0093A220FFF7BD
:104B3C00E5F9002840F0DE809D4BDE78002E40F039
:104B4C00D980354610E005EBC5035C004034E4B277
:104B5C00984F39462046FFF743FB02223946204640
:104B6C00FFF756FB0135EDB2072DECD9924B1978B6
:104B7C00C1F113010822C9B21046FFF781FA402196
:104B8C000820FFF767FA8D4B1B78012B14D0013BE3
:104B9C00894A1178013903EB830303EB830303EB9D
:104BAC000111402289B20820FFF7E0FA824B1B78F2
:104BBC00012B3BD0344666E07F4B19780139090153
:104BCC008331402289B20820FFF7D0FAEEE704EBDC
:104BDC00C4035D004035EDB2794B53F824102846E0
:104BEC00FFF7FEFAA31EDBB2022B0FD9631FDBB259
:104BFC00022B13D90222724B53F824102846FFF7CC
:104C0C0007FB0134E4B2072CE1D93EE006226C4BE1
:104C1C0053F824102846FFF7FBFAF2E70422684BFE
:104C2C0053F824102846FFF7F3FAEAE73446EAE78C
:104C3C00614B1B78C3F11300023B624A52F82330DC
:104C4C00A50000FB04F0403053F82410C0B2FFF76D
:104C5C00C7FAA31EDBB2022B4ED9631FDBB2022BA9
:104C6C005CD9554B1B78C3F11300023B554A52F8E3
:104C7C00233000FB04F0403002225959C0B2FFF738
:104C8C00C7FA0134E4B2072CD2D90620FFF7CCF9CD
:104C9C001020FFF7D1F94C4B1B781BB3BE2B4ED019
:104CAC00BF2B74D0092E75D9484BA3FB0623DB0808
:104CBC0004AA1A4412F80C2C8DF8022003EB83037F
:104CCC005A00B31ADBB204AA134413F80C3C8DF847
:104CDC000330042269464020FFF79AFA69464020C7
:104CEC00FFF77EFA384B1B78002B5AD10E2100208F
:104CFC00FFF7A8FA05B0F0BD2F4B1B78C3F11300DA
:104D0C00023B304A52F8233000FB04F040300622BC
:104D1C0053F82410C0B2FFF77BFAB2E7264B1B788E
:104D2C00C3F11300023B274A52F8233000FB04F076
:104D3C00403004225959C0B2FFF76AFAA1E71F4B61
:104D4C001E78632EAED9224BA3FB06235B0904AA63
:104D5C001A4412F80C2C8DF80120642202FB136308
:104D6C00DBB21A4AA2FB0312D20804A9114411F8AF
:104D7C000C1C8DF8021002EB820251005B1ADBB2A4
:104D8C0004AA134413F80C3C8DF80330A1E70A4B2A
:104D9C001E78D6E704AB1E4416F80C3C8DF8033095
:104DAC0097E70A210020FFF74DFAA3E71437010813
:104DBC001C0A0020FC8D01080800002007000020C0
:104DCC007084010850850108010A0020CDCCCCCCA0
:104DDC001F85EB51F0B583B0484B93E8030000906E
:104DEC00ADF80410090C8DF80610A220FFF786F818
:104DFC0000287BD1424BDC78002C77D1254623E070
:104E0C00404F3B78013B02AA134413F8080CC0F145
:104E1C0014003D4E00FB05F040303146C0B2FFF7A8
:104E2C00DFF93B78013B02AA134413F8082C05EB7D
:104E3C0085039800801AC0B2403002223146C0B2BD
:104E4C00FFF7E6F90135EDB2072DD9D92D4B1B78BB
:104E5C00013B02AA134413F8081CC1F114010822E7
:104E6C00C9B21046FFF70CF940210820FFF7F2F801
:104E7C00402283210820FFF779F928E0214E33786E
:104E8C00013B02AA1A4412F8080CC0F114001F4D81
:104E9C0055F8233000FB04F0403053F82410C0B216
:104EAC00FFF79EF93378013B02AA1A4412F8080C5A
:104EBC00C0F1140055F8233000FB04F040300222FE
:104ECC0053F82410C0B2FFF7A3F90134E4B2072C55
:104EDC00D4D93620FFF7A8F88020FFF7ADF80C4B9B
:104EEC001B782BB90E210020FFF7ACF903B0F0BDF5
:104EFC000A210020FFF7A6F9F8E700BF48370108A0
:104F0C001C0A00200A000020FC8D0108D48901082D
:104F1C00020A002010B51E4808F022FF01220221CF
:104F2C000820FFF7ADF840210820FFF793F81B226B
:104F3C0030210820FFF71AF9164B1B78012B18D0DB
:104F4C00154C21464020FFF74BF902222146402008
:104F5C00FFF75EF90620FFF767F8B920FFF727FA8D
:104F6C0090B107210020FFF76DF90820FFF764F8D6
:104F7C0010BD0A4C21464020FFF732F9022221468F
:104F8C004020FFF745F9E5E70321FFF75BF9ECE774
:104F9C003C830108740A0020488E0108748E0108B5
:104FAC0010B5234B1B78BBB3224B1B78012B12D0B3
:104FBC00022B1BD0032B24D0052B22D0042B35D154
:104FCC001D4C21460320FFF70BF904222146032038
:104FDC00FFF71EF92AE0194C21460320FFF700F9D0
:104FEC00042221460320FFF713F91FE0144C21463D
:104FFC000320FFF7F5F8042221460320FFF708F9F8
:10500C0014E0104C21460320FFF7EAF80422214655
:10501C000320FFF7FDF809E00B4C21460320FFF7B6
:10502C00DFF8042221460320FFF7F2F810BD00BF81
:10503C00770A0020780A0020848E01088C8E0108E3
:10504C00908E0108808E0108888E01082DE9F04FA2
:10505C0083B0054688461746BB4A1478C4F340060D
:10506C0004F00104042B15DCB84B1B78002B00F06A
:10507C00BD81012B09D04FF0E00B4FF4BA730193B3
:10508C004FF01B0A4FF4DF79B4E14FF0250A4FF0D3
:10509C00F409AFE1102B12D0502B6BD0302B00F059
:1050AC00B080402B00F0F480602B00F03781702B27
:1050BC0000F064814FF0400A4FF0E0099AE1A0B98A
:1050CC00A24B1B78002B00F0BC81012B08D04FF0B9
:1050DC00630BAD2301934FF01B0A4FF0F80989E1E4
:1050EC004FF0250A4FF0F40984E1012812D0022870
:1050FC0026D0964B1B78002B00F0B281012B34D0BC
:10510C004FF4AA7B40F2412301934FF4867A4FF47B
:10511C0023796FE18D4B1B78002B00F09781012BCD
:10512C0009D04FF0630B40F2412301934FF01B0A5F
:10513C004FF423795EE14FF0250A40F2763959E1BC
:10514C00824B1B78002B00F08681012B08D04FF48A
:10515C00AA7BAD2301934FF4867A4FF0F80949E10D
:10516C0040F2911A4FF0F40944E140F2911A40F2E6
:10517C0076393FE1A8B9754B1B78002B00F075818F
:10518C00012B09D04FF0630B4FF4BA7301934FF01E
:10519C001B0A4FF4DF792DE14FF0250A4FF0F4098B
:1051AC0028E1012813D0022840F02481674B1B789A
:1051BC00002B00F06481012B1ED04FF4AA7B40F22F
:1051CC00412301934FF4867A4FF4237912E15F4B1C
:1051DC001B78002B00F04E81012B08D04FF4AA7BDA
:1051EC00AD2301934FF4867A4FF0F80902E14FF0AA
:1051FC00250A40F27639FDE040F2911A40F27639F8
:10520C00F8E0A0B9514B1B78002B00F03D81012B2D
:10521C0008D04FF0DF0BAD2301934FF01B0A4FF07A
:10522C00F809E7E04FF0250A4FF0F409E2E0012815
:10523C0013D0022840F0DE80444B1B78002B00F08A
:10524C002D81012B1FD04FF4AA7B40F241230193F7
:10525C004FF4867A4FF42379CCE03C4B1B78002B2F
:10526C0000F01781012B09D04FF0630B40F2412362
:10527C0001934FF01B0A4FF42379BBE04FF0250A42
:10528C0040F27639B6E040F2911A40F27639B1E04C
:10529C00A8B92E4B1B78002B00F00581012B09D0EF
:1052AC004FF0DF0B40F2412301934FF01B0A4FF4F8
:1052BC0023799FE04FF0250A40F276399AE00128D5
:1052CC0012D0022840F09680204B1B78002B00F067
:1052DC00F480012B1DD04FF4AA7BAD2301934FF426
:1052EC00867A4FF0F80985E0184B1B78002B00F0FC
:1052FC00DF80012B08D04FF0630BAD2301934FF0EF
:10530C001B0A4FF0F80975E04FF0250A4FF0F4092D
:10531C0070E040F2911A4FF0F4096BE0C0B90B4BFE
:10532C001B78002B00F0CE80012B08D04FF0DF0B48
:10533C00AD2301934FF01B0A4FF0F8095AE04FF0E0
:10534C00250A4FF0F40955E08A0700204C0C002088
:10535C00C44B1B78002B00F0BA80012B09D04FF006
:10536C00DF0B40F2412301934FF01B0A4FF42379DA
:10537C0040E04FF0250A40F276393BE080B9B94B5A
:10538C001B78002B00F0A880012B04D04FF0180ADA
:10539C004FF030092EE04FF0250A4FF0F40929E0C8
:1053AC0001280DD0022825D1AE4B1B78002B00F024
:1053BC009D80012B15D04FF0180A4FF4137919E08A
:1053CC00A84B1B78002B00F08C80012B04D04FF0E5
:1053DC00180A4FF49F790DE04FF0250A40F29E29F0
:1053EC0008E04FF0250A4FF4896903E04FF03D0ABD
:1053FC004FF0B409002D40F0D880002E7BD19A4B91
:10540C001B78012B00F09080984B1B78012B00F03F
:10541C009780FFF7C5FD002C40F0AD800820FEF70B
:10542C004EFF934B1B78032B00F0E781002E40F0CE
:10543C000482002C00F0068201212846FEF702FFB0
:10544C00E7E14FF03D0A4FF0B409D3E74FF03D0AC6
:10545C0040F27449CEE740F25B2A4FF0B409C9E739
:10546C0040F25B2A40F27449C4E74FF03D0A4FF01A
:10547C00B409BFE74FF03D0A40F27449BAE740F275
:10548C005B2A40F27449B5E74FF03D0A4FF0B4097E
:10549C00B0E74FF03D0A40F27449ABE740F25B2AAB
:1054AC0040F27449A6E74FF03D0A40F27449A1E777
:1054BC004FF03D0A4FF0B4099CE740F25B2A4FF0E5
:1054CC00B40997E74FF03D0A4FF0B40992E74FF05B
:1054DC003D0A40F274498DE74FF03D0A4FF0B40994
:1054EC0088E74FF03D0A4FF44D7983E74FF03D0AC2
:1054FC0040F2B4597EE7012298F800100020FEF724
:10550C00BFFD00210846FEF7A5FD41460020FEF731
:10551C0067FE022241460020FEF77AFE52464946BB
:10552C000020FEF723FE6AE7DFF84C81414601209C
:10553C00FEF756FE062241460120FEF769FE63E7A0
:10554C004C4B1B785BB9DFF8348141460320FEF7E6
:10555C0047FE022241460320FEF75AFE59E7DFF8C8
:10556C00208141460420FEF73BFE022241460420E6
:10557C00FEF74EFE4DE7012239780420FEF780FD40
:10558C0018210420FEF766FD39461820FEF728FE88
:10559C00072239461820FEF73BFE0BF1140292B29B
:1055AC0001990420FEF7E2FD38E7012D31D0022DE0
:1055BC0000F09980032D7FF431AF002E40F0EC8089
:1055CC00294BDB78012B00F00081284BDB78012B79
:1055DC0000F00781FFF7E4FC002C3FF41FAF012221
:1055EC0039780720FEF74CFD36210720FEF732FDF7
:1055FC0039463620FEF7F4FD072239463620FEF7F1
:10560C0007FE0BF1140292B201990720FEF7AEFDD2
:10561C0004E7002E36D1144B5B78012B4BD0134B87
:10562C005B78012B53D0FFF7BBFC002C3FF4F6AE9C
:10563C00012239780520FEF723FD22210520FEF7F3
:10564C0009FD39462220FEF7CBFD072239462220E0
:10565C00FEF7DEFD0BF1140292B201990520FEF764
:10566C0085FDDBE64C0C0020D4090020D809002075
:10567C008A07002003090020708E01087C8E010827
:10568C00788E0108012298F800101046FEF7F8FCFD
:10569C0006210120FEF7DEFC41460620FEF7A0FDA8
:1056AC00022241460620FEF7B3FD52464946012030
:1056BC00FEF75CFDAFE7DFF8B88141460720FEF747
:1056CC008FFD062241460720FEF7A2FDA7E7DFF873
:1056DC00A48141460A20FEF783FD022241460A209E
:1056EC00FEF796FD9FE736BB5D4B9B78012B3BD0BD
:1056FC005C4B9B78012B43D0FFF752FC002C3FF402
:10570C008DAE012239780620FEF7BAFC2C2106203A
:10571C00FEF7A0FC39462C20FEF762FD0722394625
:10572C002C20FEF775FD0BF1140292B201990620A4
:10573C00FEF71CFD72E6012298F800100220FEF71D
:10574C009FFC0C210120FEF785FC41460C20FEF746
:10575C0047FD022241460C20FEF75AFD52464946AF
:10576C000220FEF703FDBFE7DFF8048141460D2060
:10577C00FEF736FD062241460D20FEF749FDB7E740
:10578C00DFF8F08041461020FEF72AFD0222414648
:10579C001020FEF73DFDAFE7012298F80010032022
:1057AC00FEF76EFC12210320FEF754FC414612203A
:1057BC00FEF716FD022241461220FEF729FD524645
:1057CC0049460320FEF7D2FCFAE6DFF8A4804146F6
:1057DC001320FEF705FD062241461320FEF718FDA7
:1057EC00F3E6DFF8908041461620FEF7F9FC022222
:1057FC0041461620FEF70CFDECE61B4B1B78042BE8
:10580C0003D11A4B1B78082B0AD005212846FEF72A
:10581C0019FDB920FEF7CBFDC8B103B0BDE8F08F80
:10582C00BA20FEF7C4FD0128EFD1A220FEF766FBDB
:10583C000028EAD1FFF770F9EBE704212846FEF7C0
:10584C0001FDE6E700212846FEF7FCFCE1E70F200E
:10585C0008F072FB0F214FF4FA6008F033FBDCE721
:10586C00D4090020D8090020780A0020770A0020EB
:10587C00708E0108788E010870B50D46413893285A
:10588C0000F29B83DFE810F0EE0199039903990372
:10589C00990399039903990399039903990399031C
:1058AC0099039903990399039903990399036A023C
:1058BC0099039903990399039903990399039903FC
:1058CC00990399039903640377038E03990399034E
:1058DC0099039903990399039903990399039903DC
:1058EC0099039903990399039903990399039903CC
:1058FC0099039903990399039903990399039903BC
:10590C0099039903990399039903990399039903AB
:10591C00990399039903990399039903990399039B
:10592C00990399039903990399039903990399038B
:10593C009400A400B3009903C200D1009903E000C5
:10594C00990399039903990399039903990399036B
:10595C00990399039903990399039903990399035B
:10596C00990399039903990399039903990399034B
:10597C009903990399036701EF007A018B010301E5
:10598C002101390150019903D4010202360250025F
:10599C009903C002D4029903E8029F019903990369
:1059AC0084029802AC020003140328033C03500346
:1059BC001220FEF7A3FAC24B186029469520FEF779
:1059CC0033FE014604461220FEF79CFA204670BDB9
:1059DC001320FEF793FABA4B186029469620FEF76F
:1059EC0023FE014604461320FEF78CFAEEE7142042
:1059FC00FEF784FAB24B186029469720FEF714FE86
:105A0C00014604461420FEF77DFADFE71720FEF767
:105A1C0075FAAB4B186029469920FEF705FE014636
:105A2C0004461720FEF76EFAD0E71620FEF766FA4A
:105A3C00A34B186029469A20FEF7F6FD0146044652
:105A4C001620FEF75FFAC1E71820FEF757FA9C4BB9
:105A5C00186029469C20FEF7E7FD014604461820F5
:105A6C00FEF750FAB2E7A320FEF748FA012D0AD050
:105A7C00B0FA80F46409E5B22946A320FEF742FA95
:105A8C00904B1D70A2E7B0FA80F46409F3E7BF20D5
:105A9C00FEF734FA012D14D0B0FA80F46409E5B2A3
:105AAC002946BF20FEF72EFA874B1D70012D8DD194
:105ABC004C2008F041FA4C2142F2107008F002FA26
:105ACC0084E7B0FA80F46409E9E72020FEF716FABF
