:020000040800F2
:1000000000500020652E0108312000083320000830
:1000100035200008372000083920000800000000C3
:100020000000000000000000000000003B2000086D
:100030003D200008000000003F200008412000088B
:10004000AD2E0108AD2E0108AD2E0108AD2E010820
:10005000AD2E0108AD2E010849200008AD2E010883
:10006000AD2E0108AD2E0108AD2E0108AD2E010800
:10007000AD2E0108AD2E0108AD2E0108AD2E0108F0
:10008000AD2E0108AD2E0108AD2E0108AD2E0108E0
:10009000AD2E0108AD2E0108AD2E0108AD2E0108D0
:1000A000AD2E0108AD2E0108AD2E0108AD2E0108C0
:1000B000AD2E010855200008AD2E0108AD2E010817
:1000C000AD2E0108AD2E0108AD2E0108AD2E0108A0
:1000D000AD2E01086520000875200008AD2E01082E
:1000E000AD2E0108AD2E0108AD2E01080000000064
:1000F0000000000000000000000000000000000000
:0C01000000000000000000005FF808F1A3
:10010C0010B5054C237833B9044B13B10448AFF345
:10011C0000800123237010BDF409002000000000B2
:10012C00E04C010808B5034B1BB103490348AFF37E
:10013C00008008BD00000000F8090020E04C010818
:10014C002DE9F04188B00025049505950695079595
:10015C00414B9A6942F004029A619A6902F00402D6
:10016C000092009A9A6942F008029A619A6902F028
:10017C0008020192019A9A6942F010029A619A69F6
:10018C0002F010020292029A9A6942F020029A61DD
:10019C009B6903F020030393039B304F012213212F
:1001AC00384603F0B5FB40F2F31304930124059495
:1001BC0006940226079604A9384603F099FA04948B
:1001CC00274B0593069507F5006704A9384603F0FD
:1001DC008FFA049405950694DFF88C8004A94046A8
:1001EC0003F086FA4FF4704304930595069404A922
:1001FC00404603F07DFA40F60103049305940694FF
:10020C00079604A9404603F073FA43F207330493AC
:10021C0005940694079604A9384603F069FAC0239E
:10022C0004930595069404A9384603F061FA042357
:10023C00049305940694079604A90A4803F058FA07
:10024C002A462946062003F0D5FB062003F006FCBF
:10025C0008B0BDE8F08100BF00100240000801406A
:10026C000000211000140140000C014070B58AB050
:10027C000024089409940194029403940494059422
:10028C0006940794114D4FF080432B6008266E6046
:10029C00AC604FF47A63EB602C61AC61284602F0E1
:1002AC00F7F90894099408A9284602F053FB602337
:1002BC000193029403940594324601A9284602F056
:1002CC0033FA284601F0DAFF0AB070BDE80B0020C3
:1002DC0030B587B0002402940394049405940094E0
:1002EC0001940E4D0E4B2B6023236B60AC600923E5
:1002FC00EB602C618023AB61284602F0AFF94FF420
:10030C008053029302A9284602F087FA00940194C4
:10031C006946284602F01EFB07B030BD2C0B0020AE
:10032C000004004008B50848084B03604FF4E13363
:10033C00436000238360C36003610C2242618361CC
:10034C00C36102F007FC08BDA00B0020003801407F
:10035C0008B50848084B03604FF4E13343600023B1
:10036C008360C36003610C2242618361C36102F04C
:10037C00F1FB08BD280C00200044004070B584B08F
:10038C0000250195029503950D4C0E4B2360A5603D
:10039C00257325754FF46023E361656001262661A2
:1003AC00204603F0AFFD0D2301930296039501A99E
:1003BC00204603F031FC204601F01CFF04B070BD58
:1003CC00700B00200024014010B50138012809D819
:1003DC0014464FF47A7392B2074802F0EAFB40B924
:1003EC00204610BD12F05EFD092303604FF0FF3074
:1003FC00F7E70020F5E700BFA00B002000B583B0A5
:10040C008DF807004FF6FF7301220DF10701034829
:10041C0002F0CFFB03B05DF804FB00BF280C0020FA
:10042C0008B50EF023FD3E214FF47A700EF02EFD30
:10043C003A214FF47A700EF029FD08BDF8B5044648
:10044C00372849D8DFE810F03800660077008900BB
:10045C009B00AC00D300BB02E2006A0308063C0719
:10046C0022063C0656069A06B506D106EC06070788
:10047C005707210707012901490169018901D801A1
:10048C00F801190239025902E202030323037A022A
:10049C009A0271079103B103D103F10311043104E2
:1004AC00520474049504B604FE041F05400561054E
:1004BC008205A405C505E605B84B00221A70012576
:1004CC005D70B74B1B78B74A1370B74A1370B748B7
:1004DC0012F0AEFDB64B1D70B0480BF06BFC04F087
:1004EC00CDFA3F200EF00CFDE5B2284611F0E4FAEF
:1004FC00042C00F03B87AF4B1B78052B00F0428798
:10050C00032C00F346873F2164200EF0BFFCAA4B5E
:10051C001D70F8BDA14A0123137003215170A74A25
:10052C001278A0490A70A0494A70A14A1370A448D5
:10053C0012F07EFDD0E7994B02221A7004225A70F9
:10054C00A04B1B78974A1370974A9370984B0122D3
:10055C001A709D4812F06CFDBEE7904B03221A7086
:10056C0002225A70994B1B788E4A13708E4AD370A4
:10057C008F4B01221A70964812F05AFDACE7874B4C
:10058C0004221A705A70934B1B78864A1370864A51
:10059C00D370874B01221A708F4812F049FD9BE7EC
:1005AC007E4B10221A700121597003229A7004227A
:1005BC00DA7002221A717A4B1E787A4B1E707F4ABF
:1005CC0015785D707F4A10789870804A1278DA70CE
:1005DC00754B1E705D709870DA70754B00221A7036
:1005EC005A709A70D9707D4812F022FD74E76B4BEB
:1005FC0020221A7001225A7003229A700422DA7097
:10060C0002221A71764812F013FD65E7634B302213
:10061C001A700121597003229A700422DA70002298
:10062C001A715F4B1F785F4B1F70644806785E70C1
:10063C00644805789D7065480078D8705A4B1F70D7
:10064C005E709D70D8705A4B19705A709A706548CC
:10065C0012F0EEFC40E7514B30221A7002225A7015
:10066C0001229A700321D97004211971574B1D78FE
:10067C004C4B1D704A49087858705049097899704C
:10068C00494B1D7058709970494B1A7000225A7062
:10069C009A70554812F0CCFC1EE7404B30221A7071
:1006AC0001225A70032199700421D9703C4B1D789A
:1006BC003C4B1D7041490878587042490978997033
:1006CC00394B1D7058709970394B1A7000225A7042
:1006DC009A70444812F0ACFCFEE6304B30221A7093
:1006EC0001225A70032199700221D9702C4B1D786C
:1006FC002C4B1D7031490878587034490978997021
:10070C00294B1D7058709970294B00211970597024
:10071C009A70364812F08CFCDEE6204B30221A70B0
:10072C0001225A70042199700221D9701C4B1D783A
:10073C001C4B1D702349087858702449097899700E
:10074C00194B1D7058709970194B00211970597004
:10075C009A70274812F06CFCBEE6104B30221A70CF
:10076C0003225A7001229A700421D970134B1D7800
:10077C000C4B1D700A490878587012490978997009
:10078C00094B1D7058709970094B1A7000225A70E1
:10079C009A70184812F04CFC9EE600BF6C0C0020BE
:1007AC00680C0020380A0020700A0020304D010827
:1007BC003C0A0020D40A0020210A0020E40B00206F
:1007CC00444D01082A0B0020584D0108290B00202C
:1007DC006C4D0108E30B0020804D0108944D01087D
:1007EC00A44D0108B44D0108D04D0108EC4D010891
:1007FC00084E0108244E0108B54B30221A70032212
:10080C005A7001229A700221D970B24B1D78B24BEA
:10081C001D70B24908785870B14909789970B14B7C
:10082C001D7058709970B04B0021197059709A70E6
:10083C00AE4812F0FDFB4FE6A54B30221A70032296
:10084C005A7004229A700222DA70A44B1878A24BC8
:10085C001870A74A11785970A14A12789A70A14B56
:10086C00187059709A70A04B00221A705A7001229D
:10087C009A70A04812F0DCFB2EE6954B30221A70D1
:10088C0004225A7001229A700321D970984B1D785A
:10089C00914B1D709149087858708E490978997060
:1008AC00904B1D70587099708F4B1A7000225A70B3
:1008BC009A70914812F0BCFB0EE6854B30221A70F0
:1008CC0004225A7001229A700221D970884B1D782B
:1008DC00814B1D708149087858708149097899704D
:1008EC00804B1D70587099707F4B00211970597096
:1008FC009A70824812F09CFBEEE5754B30221A7010
:10090C0004225A7003229A700222DA70784B1878FB
:10091C00714B18706F4A11785970714A12789A702D
:10092C00704B187059709A706F4B00221A705A7075
:10093C0001229A70724812F07BFBCDE5644B302299
:10094C001A7002225A7001229A700421D970644BD9
:10095C001D78614B1D70614908785870644909789D
:10096C009970604B1D70587099705F4B1A70002213
:10097C005A709A70634812F05BFBADE5544B302211
:10098C001A7002225A7003229A700422DA70544BA5
:10099C001878514B18704F4A11785970544A127884
:1009AC009A70504B187059709A704F4B01221A70F4
:1009BC0000225A709A70544812F03AFB8CE5444B62
:1009CC0050221A700121597003229A700422DA7095
:1009DC0002221A71414B1D783F4B1D70444A12780C
:1009EC005A709A703E480078D8703E4B1D70394D45
:1009FC002D785D709A70D8703B4B197000225A702C
:100A0C009A70DA70414812F013FB65E5304B5022B6
:100A1C001A7002225A70012199700322DA70002296
:100A2C001A712F4B1E782C4B1E702C4805785D705C
:100A3C002848007898702B4B1E705D7098702A4B6C
:100A4C0019705A709A70324812F0F2FA44E5204B41
:100A5C0050221A7002225A7001229A700421D97005
:100A6C001F4B1D781C4B1D701C4908785870204971
:100A7C00097899701B4B1D70587099701A4B1A702D
:100A8C0000225A709A70234812F0D2FA24E5104BC7
:100A9C0050221A7002225A7003229A700422DA70C1
:100AAC000F4B18780C4B18700A4A11785970104A71
:100ABC0012789A700B4B187059709A700A4B01226D
:100ACC001A7000225A709A70134812F0B1FA03E5AA
:100ADC006C0C0020E40B0020380A0020680C00206D
:100AEC00290B0020700A00203C0A0020404E01080F
:100AFC002A0B00205C4E0108784E0108944E010828
:100B0C00B04E0108CC4E0108E84E0108044F010814
:100B1C00204F01083C4F0108584F0108B64B4022AA
:100B2C001A7001225A70032199700421D970022184
:100B3C001971B24B1E78B24B1E70B2490D785D70B4
:100B4C00B14908789870B1490978D970B04B1E70CA
:100B5C005D709870D970AF4B1A7000225A709A70F1
:100B6C00DA70AD4812F064FAB6E4A34B40221A7066
:100B7C0002225A7001229A700321D970A34B1D785E
:100B8C009F4B1D709D49087858709E490978997043
:100B9C009F4B1D70587099709E4B1A7000225A70A2
:100BAC009A709E4812F044FA96E4934B40221A70C5
:100BBC0001225A70032199700421D9708F4B1D7832
:100BCC008F4B1D708F49087858708F490978997030
:100BDC008F4B1D70587099708E4B1A7000225A7082
:100BEC009A708F4812F024FA76E4834B40221A70E4
:100BFC0001225A70032199700221D9707F4B1D7804
:100C0C007F4B1D707F49087858708049097899701E
:100C1C007F4B1D70587099707E4B1A7000225A7061
:100C2C009A70804812F004FA56E4734B40221A7002
:100C3C0001225A70042199700221D9706F4B1D78D2
:100C4C006F4B1D707049087858707049097899700D
:100C5C006F4B1D70587099706E4B1A7000225A7041
:100C6C009A70714812F0E4F936E4634B40221A7022
:100C7C0003225A7001229A700421D970614B1D789D
:100C8C005F4B1D705D49087858705F490978997001
:100C9C005F4B1D70587099705E4B1A7000225A7021
:100CAC009A70624812F0C4F916E4534B40221A7041
:100CBC0003225A7001229A700221D970514B1D786F
:100CCC004F4B1D704D4908785870504909789970F0
:100CDC004F4B1D70587099704E4B1A7000225A7001
:100CEC009A70534812F0A4F9FFF7F6BB424B40221E
:100CFC001A7003225A7004229A700222DA70414B45
:100D0C0018783F4B1870404A117859703F4A127846
:100D1C009A703F4B187059709A703E4B01221A70A2
:100D2C0000225A709A70434812F082F9FFF7D4BB34
:100D3C00314B40221A7004225A7001229A700321FE
:100D4C00D970314B1D782E4B1D702C49087858707A
:100D5C002C49097899702E4B1D70587099702D4B39
:100D6C001A7000225A709A70334812F061F9FFF72A
:100D7C00B3BB214B40221A7004225A7001229A7084
:100D8C000221D970204B1D781D4B1D701B49087812
:100D9C0058701E49097899701D4B1D7058709970C8
:100DAC001C4B1A7000225A709A70244812F040F9A9
:100DBC00FFF792BB104B40221A7004225A70032288
:100DCC009A700222DA70104B18780D4B18700D4A7D
:100DDC00117859700D4A12789A700D4B1870597021
:100DEC009A700C4B01221A7000225A709A70144897
:100DFC0012F01EF9FFF770BB6C0C0020680C002081
:100E0C00380A0020E40B00202A0B0020290B0020BC
:100E1C00700A00203C0A0020744F0108844F01081E
:100E2C00A04F0108BC4F0108D84F0108F44F01082E
:100E3C00105001082C50010848500108645001085A
:100E4C0080500108B94B50221A7001225A700321AC
:100E5C0099700221D970B64B1D78B64B1D70B649EE
:100E6C0008785870B54909789970B54B1D70587051
:100E7C009970B44B1A7000225A709A70B24812F0E2
:100E8C00D7F8FFF729BBA94B50221A7001225A70D0
:100E9C00042199700221D970A54B1D78A54B1D70AA
:100EAC00AA4908785870A54909789970A44B1D7007
:100EBC0058709970A34B1A7000225A709A70A448FB
:100ECC0012F0B6F8FFF708BB984B50221A700322A9
:100EDC005A7001229A700421D970974B1D78954B4A
:100EEC001D70934908785870984909789970944BFB
:100EFC001D7058709970934B1A7000225A709A702A
:100F0C00944812F095F8FFF7E7BA884B50221A7004
:100F1C0003225A7001229A700221D970864B1D78D7
:100F2C00844B1D70824908785870844909789970EF
:100F3C00834B1D7058709970824B1A7000225A7036
:100F4C009A70854812F074F8FFF7C6BA774B5022A6
:100F5C001A7003225A7004229A700222DA70764BAD
:100F6C001878744B1870794A11785970734A127842
:100F7C009A70734B187059709A70724B01221A70D8
:100F8C0000225A709A70754812F052F8FFF7A4BA02
:100F9C00664B50221A7004225A7001229A70032157
:100FAC00D9706A4B1D78634B1D7061490878587075
:100FBC00614909789970624B1D7058709970614B3A
:100FCC001A7000225A709A70654812F031F8FFF7C7
:100FDC0083BA564B50221A7004225A7001229A700E
:100FEC000221D970594B1D78524B1D70504908780D
:100FFC005870524909789970514B1D7058709970FE
:10100C00504B1A7000225A709A70564812F010F811
:10101C00FFF762BA454B50221A7004225A70032211
:10102C009A700222DA70494B1878424B1870424A77
:10103C0011785970414A12789A70414B1870597056
:10104C009A70404B01221A7000225A709A704648CE
:10105C0011F0EEFFFFF740BA344B60221A700122F8
:10106C005A7003219970324B1878324B18703249F0
:10107C0009785970324B18705970324B1A70002223
:10108C005A703A4811F0D4FFFFF726BA274B60226A
:10109C001A7001225A7002219970254B1878254B31
:1010AC001870264909785970254B18705970254BC2
:1010BC00002119705A702E4811F0BAFFFFF70CBAC4
:1010CC001A4B60221A7002225A7001229A701B4B22
:1010DC001878184B1870164909785970184B1870F5
:1010EC005970184B1A7000225A70224811F0A0FF48
:1010FC00FFF7F2B90D4B60221A7002225A700322CC
:10110C009A700E4B19780B4B19700B4A12785A7057
:10111C000B4B19705A700B4B01221A7000225A702B
:10112C00154811F085FFFFF7D7B900BF6C0C0020F4
:10113C00680C0020380A0020E40B0020290B00204A
:10114C00700A00203C0A00209C5001082A0B002049
:10115C00B8500108D4500108F05001080C51010896
:10116C002851010844510108605101087C510108C3
:10117C0094510108AC510108C4510108884B6022FC
:10118C001A7002225A7004229A70864B1978864B78
:10119C001970864A12785A70854B19705A70854BA3
:1011AC0001221A7000225A70834811F041FFFFF798
:1011BC0093B97B4B60221A7003225A7001229A70E9
:1011CC007E4B1978784B19707D4800785870784BA5
:1011DC001970744909785970764B1A7000225A703C
:1011EC00784811F025FFFFF777B96D4B60221A7024
:1011FC0003225A7004229A70704B19786A4B19703A
:10120C006A4A12785A706A4B19705A70694B0122EB
:10121C001A7000225A706C4811F00AFFFFF75CB983
:10122C005F4B60221A7003225A7002229A70634B31
:10123C0019785D4B19705B4A12785A705C4B1970B7
:10124C005A705C4B00221A7001225A705F4811F0E0
:10125C00EFFEFFF741B9524B60221A7001225A700F
:10126C0004219970564B18784F4B18704F490978D8
:10127C0059704F4B187059704E4B1A7000225A709F
:10128C00534811F0D5FEFFF727B9454B60221A7071
:10129C0004225A7003229A70444B1978424B1970ED
:1012AC00464A12785A70424B19705A70414B0122BF
:1012BC001A7000225A70474811F0BAFEFFF70CB9A9
:1012CC00374B60221A7004225A7002229A70374BE4
:1012DC001978354B1970334A12785A70344B19708F
:1012EC005A70344B00221A7001225A703A4811F08D
:1012FC009FFEFFF7F1B82A4B60221A7004225A7035
:10130C0001229A70294B1878274B18702C490978B0
:10131C005970274B18705970264B1A7000225A704E
:10132C002E4811F085FEFFF7D7B81D4B70221A70AE
:10133C0001225A70032199700421D970204B1D7819
:10134C00194B1D701D490878587018490978997007
:10135C00174B1D7058709970164B1A7000225A70EA
:10136C00DA701F4811F064FEFFF7B6B81D4B1B78FE
:10137C00002B7FF4C0A83F214FF4FA600DF086FDDE
:10138C00FFF7C5B83F2140F6B8300DF07FFDFFF7F1
:10139C00BEB83F214FF4FA700DF078FDFFF7B7B8E7
:1013AC006C0C0020290B0020380A00202A0B00208E
:1013BC00700A00203C0A0020DC510108E40B0020DC
:1013CC00680C0020F45101080C5201082452010849
:1013DC003C520108545201086C5201088452010815
:1013EC009C520108D30A002038B50EF065F904466A
:1013FC00014619480DF098FC0EF05EF9072806D14D
:10140C000EF05AF907281CD1072C0FD138BD134DFB
:10141C00072128460DF088FC07200EF073F90EF01A
:10142C004BF9014628460DF07FFCE9E70C4C0123F3
:10143C0023700EF0D9FA002323700A480DF074FCC7
:10144C00E4E709480DF070FC08480DF06DFC084B02
:10145C00FF221A70DAE700BFB4520108C452010827
:10146C00410A0020D4520108105301082C530108E2
:10147C00E20B002010B5012823D0284C01224FF498
:10148C000051204602F044FA00224FF40061244837
:10149C0002F03EFA192002F0DFFD01220421204661
:1014AC0002F036FA192002F0D7FD002280211D48E7
:1014BC0002F02EFA1C4B1B7863B31C4B01221A70E2
:1014CC0010BD164C01224FF40051204602F020FAB8
:1014DC0000224FF40061124802F01AFA322002F096
:1014EC00BBFD642002F0B8FD01220421204602F06D
:1014FC000FFA322002F0B0FDA4F5006401224FF483
:10150C008071204602F004FA00228021204602F06D
:10151C00FFF9CFE7002010F0C1FACEE70010014030
:10152C00000C01400008014000000020300A00209F
:10153C0010B514480DF0F8FB134C00224FF48071D9
:10154C00204602F0E5F901228021204602F0E0F964
:10155C0004F5006400224FF40051204602F0D8F943
:10156C0001224FF40061094802F0D2F90022042153
:10157C00204602F0CDF9012010F090FA044B002225
:10158C001A7010BD3C53010800080140000C0140CA
:10159C00300A002008B50021322002F07DFD08BD84
:1015AC0008B5012010F07AFA00224FF4807103483C
:1015BC0002F0AEF9FFF7EEFF08BD00BF00080140D6
:1015CC0008B58021322002F067FD08BD08B5012264
:1015DC004FF48071044802F09BF9044B1B7803B163
:1015EC0008BDFFF7EDFFFBE70008014000000020FD
:1015FC0010B5084C00224021204602F089F9002247
:10160C002021204602F084F901221021204602F00C
:10161C007FF910BD0008014010B588B0602301931C
:10162C000290002303930593054C082201A9204640
:10163C0001F07AF80821204601F06EF908B010BDCF
:10164C00E80B002008B5632812D9A0F16403DBB2C3
:10165C00272B29D900F17403DBB2272B26D900F1F3
:10166C004C03DBB2272B23D9DB2823D8002200E044
:10167C000F221C4B1B78012B24D11B4B1B78934244
:10168C001AD9013B184A1370184B00221A70164BCA
:10169C001B78F92B02D9144BFA221A70124B1878BA
:1016AC000001FFF7B9FF08BD1422E2E72822E0E7AA
:1016BC003C22DEE74B22DCE79342E5D201330A4AB7
:1016CC001370E1E70A4B18680346002806DB1B1170
:1016DC00054A137080B2FFF79FFFE4E700F10F0398
:1016EC00F5E700BF220A002002000020100A0020AB
:1016FC001400002010B5AB2002F0DAFC494B187036
:10170C00B02002F0D5FC484B1870AC2002F0D0FC95
:10171C00464B1870A32002F0CBFC454B1870AA2046
:10172C0002F0C6FC434B1870AD2002F0C1FC424BDA
:10173C001870A02002F0BCFC404B1870AF2002F0D7
:10174C00B7FC3F4B1870202002F0B2FC3D4B1870D8
:10175C000EF05CF93C4B1870A52002F0A9FC3B4B39
:10176C001870A62002F0A4FC394B1870A72002F0C8
:10177C009FFC384B1870A82002F09AFC364B18705E
:10178C00192002F095FC354B1870BF2002F090FC2C
:10179C00334B1870202002F08BFC324B1870212038
:1017AC0002F086FC304B1870222002F081FC2F4B8B
:1017BC001870232002F07CFC2D4B1870252002F0B1
:1017CC0077FC2C4C2070242002F072FC2A4B1870F1
:1017DC002178622003F030F8284B1860C92002F001
:1017EC0067FC274C2070CC2002F062FC6070CF208C
:1017FC0002F05EFCA070D22002F05AFCE070D820FF
:10180C0002F056FC1F4C2070D92002F051FC607085
:10181C00DA2002F04DFCA070DB2002F049FCE070F5
:10182C0010BD00BF03000020E10B0020BD0A00200A
:10183C00BA0A0020760C0020280B0020220A002077
:10184C00680E0020E00B002067090020680C0020C7
:10185C00E40B00202A0B0020290B0020E30B0020B6
:10186C004A0A002010000020070000200800002079
:10187C006C0B00200A0000200B0000200C00002044
:10188C005C0D0020780A002010B5344B1B7843B156
:10189C0033480DF049FA0023324A1370324A137060
:1018AC0041E02F200DF04AFBFFF742FE05F0C2F994
:1018BC0011200DF025FBEBE7AB2002F0FDFB2D20FA
:1018CC000DF03CFB05F066F9284B1B78012B3CD046
:1018DC000F200DF015FB0F214FF4FA600DF0D6FA26
:1018EC004A200DF00DFB4A214FF4FA700DF0CEFAA0
:1018FC0011214FF4FA700DF0C9FA00231C4A137031
:10190C001C4A13701C4B1B68002B25DB1B111B4A3C
:10191C0013701B480DF008FA10BD0FF023FE0DF0EC
:10192C00A7FE0BF03BF90EF05DFE164B1978012962
:10193C00C2D00FF0B7FB04460028EED02D200DF0DE
:10194C00FDFA20460FF00EFEE9E7044B1B78002B46
:10195C00BED103F079FEBBE70F33D7E7D30A0020E3
:10196C004C530108420A00204E0A0020680E002049
:10197C004D0A00204B0A0020140000200200002019
:10198C005C5301080300002008B50CE00FF0EAFDE1
:10199C000EF028FEB8B1104B1B78012B10D00F4B5A
:1019AC001B78012B10D00DF063FE0BF0F7F80CF048
:1019BC003FFD0FF077FB0A4B1B78002BE8D1E5E7D6
:1019CC00084B00221A7008BD0021064B1970AB2081
:1019DC0002F072FBF7E700BF4D0A00204B0A002013
:1019EC00000000200300002070B590B00024079484
:1019FC00089409940C94019402940394049405940F
:101A0C000225069501260A9610230B930D950E942C
:101A1C004FF4E0130F9306A801F0D4FA0F230193AF
:101A2C000295039404940594314601A801F00AFD33
:101A3C0010B070BD10B501F077FAFFF7D5FFFEF7C7
:101A4C00EFFCFEF77DFBFFF773FDFEF70FFCFEF7D7
:101A5C003FFCFEF767FCFEF77BFCFEF78FFC12F0F9
:101A6C0093FB12F00DFD12F00FFF13F02DF9AB20CC
:101A7C0002F01EFB002800F0A1802D200DF05EFA74
:101A8C00012010F00BF8B02002F012FB534B187031
:101A9C0010F070F8FFF7ACFD0DF0B8FF504B18705C
:101AAC00002002F067FB4F4B1860012010F0ECFA9D
:101ABC000020FFF7DFFC322002F0CEFA01224A4967
:101ACC004A4801F0E6F84A4C00221021204601F069
:101ADC001FFF00221021204601F01AFF00220121D5
:101AEC00204601F015FF642002F0B6FA0122102105
:101AFC00204601F00DFF01221021204601F008FFC5
:101B0C0001221146204601F003FF3A4A3A493B486C
:101B1C0011F008FA002002F0A9FA0146384811F039
:101B2C0001FA3849252006F06BFCFFF75DFCFFF746
:101B3C00E1FD0021322002F0AFFA0124324B1C707F
:101B4C005A21204602F09CFA304B04225A711C7226
:101B5C000322DA7110221A7002229A712C4B07227E
:101B6C001A705A709A70DA702A4B00221A705A70D6
:101B7C009A70DA7002F03CFF0FF086F80CF044FA21
:101B8C00254800F05EFCFA200DF0F8F802F07AFE21
:101B9C0080B2FFF741FD214B1B68002B12DB1B11A0
:101BAC001F4A1370FFF70CFD1E4B1B78012B0DD138
:101BBC000FF078FA50B9FFF709FD07E02F200DF070
:101BCC00BDF95DE70F33EAE7FFF75EFE154B1B78B7
:101BDC00012BF9D1FFF7D8FEF6E700BFE10B00208F
:101BEC0067090020180A0020480A0020A00B0020DA
:101BFC00000801406C530108785301088453010814
:101C0C00A8530108B0B80108690C00206C0C002026
:101C1C00A80C0020A40C00202C0B00201400002089
:101C2C00020000200300002002689E4B9A4200D064
:101C3C00704730B49C4A13780133DBB213709B4A63
:101C4C001168013111609A48026801320260632BFD
:101C5C0009D99848036801330360934B002018702E
:101C6C00954B01201860954B186801301860186866
:101C7C00934B984206D9914B00201860914B1B78DE
:101C8C00012B20D0904B9B68DB43C3F381338F48EF
:101C9C00C4789C4208D0457805708578457084706E
:101CAC00C3708B4B012018608A4B1B78DBB2012B65
:101CBC000FD0B1F57A7F00F08B80B2F57A7F00F00F
:101CCC00318130BC7047844803780133DBB2037038
:101CDC00D8E7824B1878C0B2814B1B78DBB29842A4
:101CEC0023D07E4B1B78DBB2212B15D87D4B1B7878
:101CFC00DBB2012B54D07C4B1B889BB240F2E240F0
:101D0C00834209D9784B1B889BB240F2A95083427D
:101D1C0002D8744B01201870734B00201880704B44
:101D2C001B78DBB26D480370C3E76F4803889BB226
:101D3C0001339BB2038003889BB243F69820834205
:101D4C00B7D96A4B1B78DBB21F2B09D9684B1B68C0
:101D5C009BB26848038003889BB2B3F57F4F0FD0CA
:101D6C00002362480370604803805C4803705C4841
:101D7C000370584803705E4803605A48037098E734
:101D8C005B480368C3F307435B4C237003686FEA3B
:101D9C001363DBB259480370594B01201870DFE70D
:101DAC00514B1B889BB25A2BA5D9514803685B0831
:101DBC0003604D4B1B889BB2A02B03D9036843F0E7
:101DCC0000430360494803780133DBB2037092E7A8
:101DDC00364B002119604B4B9968C94301F0C00187
:101DEC00A3F580639B68DB431B0A03F030030B43B2
:101DFC0038D045490B6801330B60444B1B78032BDF
:101E0C0006D0642B19D041490B7801330B7054E781
:101E1C003C4B9B68DB4303F0C0032B498968C943E7
:101E2C00090A01F030010B4339490B70394B002181
:101E3C001960394B01211960E5E7324B9B68DB4394
:101E4C0003F0C00320498968C943090A01F0300135
:101E5C000B432F490B70304B012119602B4B0A217E
:101E6C001970D0E72D4B1B78012B09D0032B15D003
:101E7C00002326490B7026490B7023490B601CE785
:101E8C00214909680029F1D05629EFD8244909784D
:101E9C000129EBD1214B02211970E9E71F4B0021DD
:101EAC001970E5E700040040A40A0020A80A0020ED
:101EBC00AC0A0020980A0020940A0020540A002042
:101ECC00A086010001000020000C0140D80A00206F
:101EDC00800E0020290A0020340A0020400A00202D
:101EEC002A0A00202F0A00202C0A00202E0A00208B
:101EFC00240A00205A0A00205D0A00205C0A0020F7
:101F0C00280A002000100140A00A0020500A0020DE
:101F1C007B0E0020740E0020640E0020420A00206C
:101F2C00030000200F4B00221A600F4B1B789BB153
:101F3C000E4A1278032A06D0962A07D00B4A137839
:101F4C0001331370BDE60A4A1370F7E7084A1370A1
:101F5C00064B04221A70F1E70023044A1370044A5A
:101F6C001370AEE6AC0A0020DC0A0020580A0020F0
:101F7C00690E002010B504460268184B9A4204D032
:101F8C002268174B9A4214D010BD16490A78531C7C
:101F9C00DBB20B7014490878144988541D2B02D9F4
:101FAC00104B00221A7001220F49114800F071FEEB
:101FBC00E6E710490A78531CDBB20B700E4908781F
:101FCC000E4988541D2B02D90A4B00221A7001228B
:101FDC0009490B4800F05DFED6E700BF0038014010
:101FEC0000440040900A0020480A0020A00D002068
:101FFC00A00B00208F0A0020440A0020E00D0020D6
:10200C00280C0020012800D07047044B01221A70C4
:10201C00034A13780133DBB21370F5E7290A002069
:10202C002A0A00207047FEE7FEE7FEE7FEE770474E
:10203C007047704708B500F089FF08BD08B501204E
:10204C0001F06CFC08BD000008B5024800F00EFA67
:10205C0008BD00BF2C0B002008B5024800F0A6FEFE
:10206C0008BD00BFA00B002008B5024800F09EFE82
:10207C0008BD00BF280C002082B00E4B9A6942F0BC
:10208C0001029A619A6902F001020092009ADA69DF
:10209C0042F08052DA61DB6903F080530193019BBB
:1020AC00054A536823F0E06343F00073536002B0B9
:1020BC00704700BF001002400000014002680E4B48
:1020CC009A4200D0704700B583B003F50333DA6948
:1020DC0042F00202DA61DB6903F002030193019B17
:1020EC00002211461D2001F085FC1D2001F0B6FCDC
:1020FC0003B05DF804FB00BF0004004070B588B06D
:10210C000446002304930593069307930268364B09
:10211C009A4205D02268354B9A4234D008B070BD33
:10212C0003F558439A6942F480429A619A6902F421
:10213C0080420092009A9A6942F004029A619B696B
:10214C0003F004030193019B4FF4007304930223E7
:10215C00059303230793264E04A9304601F0C8FAD1
:10216C004FF48063049300250595069504A9304629
:10217C0001F0BEFA2A462946252001F03BFC252019
:10218C0001F06CFCC6E703F5E633DA6942F4003281
:10219C00DA61DA6902F400320292029A9A6942F028
:1021AC0004029A619B6903F004030393039B0423C9
:1021BC00049302230593032307930D4D04A928468A
:1021CC0001F096FA0823049300240594069404A9BC
:1021DC00284601F08DFA22462146262001F00AFC01
:1021EC00262001F03BFC99E70038014000440040F8
:1021FC000008014000B587B00023029303930493B9
:10220C0005930268114B9A4202D007B05DF804FBAB
:10221C0003F56C439A6942F400729A619A6902F46C
:10222C0000720092009A9A6942F010029A619B69BE
:10223C0003F010030193019B0823029303230393E0
:10224C0002A9034801F054FADFE700BF0024014063
:10225C00001001400368B3F1804F00D0704782B08A
:10226C0003F50433DA6942F00102DA61DB6903F049
:10227C0001030193019B02B07047000000B587B0C9
:10228C00002302930393049305930368B3F1804FE7
:10229C0002D007B05DF804FB03F504339A6942F0F1
:1022AC0008029A619B6903F008030193019B4FF4A8
:1022BC008063029302230393059302A9064801F05D
:1022CC0017FA064A536823F4407343F0E06343F46F
:1022DC0000735360DDE700BF000C014000000140BB
:1022EC0070B4036A23F001030362036A46688269CF
:1022FC0022F073020C6844EA020523F002028B6898
:10230C0013430D4CA04209D00B4CA0420DD046609B
:10231C0085614A684263036270BC704723F008030E
:10232C00CA68134323F00403EEE726F440764A69A7
:10233C0032438E691643EAE7002C014030B4036A3D
:10234C0023F480730362036A4568C26922F0730246
:10235C000C68224323F400738C6843EA04230F4C6B
:10236C00A04209D00D4CA0420ED04560C2614A6813
:10237C00C263036230BC704723F40063CC6843EA49
:10238C00042323F48063EDE725F440554C6945EABA
:10239C0004158C6945EA0415E7E700BF002C0140E1
:1023AC0030B4036A23F480530362036A4468C2693D
:1023BC0022F4E6420D6842EA052223F400538D68AC
:1023CC0043EA0533074DA84206D04460C2614A680F
:1023DC000264036230BC704724F480444D6944EAC3
:1023EC008514F2E7002C014030B4036A056A25F02D
:1023FC0001050562846924F0F00444EA021423F018
:10240C000A030B438461036230BC704730B4056A25
:10241C0025F0100505628469036A24F4704444EACB
:10242C00023423F0A00343EA01138461036230BC3D
:10243C007047836823F070030B4343F007038360FA
:10244C0070470268D36843F00103D3600268936855
:10245C0003F00703062B03D0136843F0010313604A
:10246C0000207047704770477047704710B504469E
:10247C0003681A6912F0020F11D0DA6812F0020F19
:10248C000DD06FF002021A610123037703689B6978
:10249C0013F0030F70D0FFF7E6FF002323772368B8
:1024AC001A6912F0040F12D0DA6812F0040F0ED071
:1024BC006FF004021A610223237723689B6913F4DB
:1024CC00407F5FD02046FFF7CEFF002323772368A1
:1024DC001A6912F0080F12D0DA6812F0080F0ED039
:1024EC006FF008021A61042323772368DB6913F069
:1024FC00030F4ED02046FFF7B6FF00232377236847
:10250C001A6912F0100F12D0DA6812F0100F0ED0F8
:10251C006FF010021A61082323772368DB6913F428
:10252C00407F3DD02046FFF79EFF00232377236892
:10253C001A6912F0010F03D0DA6812F0010F36D1CC
:10254C0023681A6912F0800F03D0DA6812F0800F3A
:10255C0034D123681A6912F0400F03D0DA6812F0F4
:10256C00400F32D123681A6912F0200F03D0DA68B9
:10257C0012F0200F30D110BDFFF774FF2046FFF78B
:10258C0073FF8AE72046FFF76DFF2046FFF76CFFCD
:10259C009BE72046FFF766FF2046FFF765FFACE799
:1025AC002046FFF75FFF2046FFF75EFFBDE76FF0A9
:1025BC0001021A612046FFF737FBC1E76FF080027A
:1025CC001A61204600F0EAF9C3E76FF040021A6185
:1025DC002046FFF74AFFC5E76FF020021A6120463C
:1025EC0000F0DBF9C7E7000003681B4A90420AD0F1
:1025FC00B0F1804F07D0A2F59432904203D002F58F
:10260C008062904203D123F070034A681343124A4C
:10261C0090420AD0B0F1804F07D0A2F5943290428C
:10262C0003D002F58062904203D123F44073CA6850
:10263C00134323F080034A69134303608B68C3621E
:10264C000B688362044B984202D0012343617047AC
:10265C000B690363F9E700BF002C0140B0B110B562
:10266C00044690F83D3063B1022384F83D30214696
:10267C0051F8040BFFF7B8FF012384F83D3000201C
:10268C0010BD80F83C30FFF719FDEDE701207047D5
:10269C00B0B110B5044690F83D3063B1022384F814
:1026AC003D30214651F8040BFFF79EFF012384F8BF
:1026BC003D30002010BD80F83C30FFF7CBFDEDE73E
:1026CC000120704730B4036A23F010030362036ADD
:1026DC004468826922F4E6420D6842EA052223F03E
:1026EC0020038D6843EA05130E4DA84209D00D4D09
:1026FC00A8420ED0446082614A688263036230BC97
:10270C00704723F08003CD6843EA051323F04003A0
:10271C00EDE724F440644D6944EA85048D6944EA8C
:10272C008504E7E7002C014038B590F83C30012BCC
:10273C0066D004460D46012380F83C30022380F815
:10274C003D300C2A1AD8DFE802F0071919192019A4
:10275C0019193419191947000068FFF7C1FD2268CF
:10276C00936943F0080393612268936923F004038F
:10277C0093612268936929690B439361012384F85F
:10278C003D30002084F83C0038BD0068FFF79AFF0C
:10279C002268936943F4006393612268936923F47C
:1027AC008063936122689369296943EA01239361E9
:1027BC00E4E70068FFF7C2FD2268D36943F0080321
:1027CC00D3612268D36923F00403D3612268D369EF
:1027DC0029690B43D361D1E70068FFF7E1FD22685B
:1027EC00D36943F40063D3612268D36923F4806313
:1027FC00D3612268D369296943EA0123D361BDE718
:10280C000220C1E710B4846824F47F4442EA032216
:10281C000A432243826010BC704790F83C30012B75
:10282C0066D010B50446012380F83C30022380F8B2
:10283C003D300268936823F47F4323F07703936061
:10284C000B68602B40D022D8402B47D00BD9502B93
:10285C000ED1CA6849680068FFF7C6FD5021206890
:10286C00FFF7E7FD04E0202B0CD008D9302B09D062
:10287C00012384F83D30002084F83C0010BD0BB1DE
:10288C00102BF5D119462068FFF7D3FDF0E7702B1C
:10289C000ED0B3F5005FEBD1CB684A68896800684D
:1028AC00FFF7B0FF2268936843F480439360DFE73F
:1028BC00CB684A6889680068FFF7A4FF22689368B0
:1028CC0043F077039360D3E7CA6849680068FFF761
:1028DC009DFD60212068FFF7ACFDC9E7CA68496817
:1028EC000068FFF781FD40212068FFF7A2FDBFE7DC
:1028FC000220704710B401F01F01012303FA01F408
:10290C00036A23EA04030362036A02FA01F10B432C
:10291C00036210BC7047000010B504460122006829
:10292C00FFF7E8FF23680A4A93420BD022689368AA
:10293C0003F00703062B03D0136843F00103136065
:10294C00002010BD5A6C42F400425A64EEE700BFFE
:10295C00002C014090F83C30012B1CD070B40126A7
:10296C0080F83C60022380F83D300268556893681B
:10297C0025F070050C682C4323F080054B682B4325
:10298C0054600268936080F83D60002380F83C300E
:10299C00184670BC70470220704770477047026839
:1029AC00D36823F49073D3600268536923F0010356
:1029BC005361202380F83A30704790F83930DBB2FD
:1029CC00212B01D0022070478368B3F5805F17D0AC
:1029DC00036A5A1C02621A7803685A60C38C9BB251
:1029EC00013B9BB2C3844BB90268D36823F08003CC
:1029FC00D3600268D36843F04003D3600020704773
:102A0C00036A1B880268C3F30803536003691BB98C
:102A1C00036A02330362E1E7036A01330362DDE711
:102A2C0038B504460268136923F44053C1680B435C
:102A3C00136183680269134342691A430168CB68C6
:102A4C0023F4B05323F00C031343CB600268536997
:102A5C0023F4407381690B4353610268214B9A4202
:102A6C001FD000F0ABFD00EB800000EB8000636832
:102A7C009B00B0FBF3F01C4DA5FB00325109642305
:102A8C0003FB11031B013233A5FB03235B0903F08A
:102A9C00F00202EB011203F00F03216813448B6068
:102AAC0038BD00F09BFD00EB800000EB80006368FC
:102ABC009B00B0FBF3F00C4DA5FB003251096423D5
:102ACC0003FB11031B013233A5FB03235B0903F04A
:102ADC00F00202EB011203F00F03216813448B6028
:102AEC00DEE700BF003801401F85EB512DE9F843AC
:102AFC0005460F4616469946DDF820802C6824685A
:102B0C0037EA04030CBF01240024B4421FD1B8F1EE
:102B1C00FF3FF3D0B8F1000F05D000F023FAA0EB83
:102B2C0009004045EAD92A68D36823F4D073D360EE
:102B3C002A68536923F001035361202385F8393047
:102B4C0085F83A30002385F83830032000E0002067
:102B5C00BDE8F88358B310B5044690F839300BB380
:102B6C00242384F839302268D36823F40053D360CB
:102B7C002046FFF755FF2268136923F49043136135
:102B8C002268536923F02A0353612268D36843F403
:102B9C000053D3600020E063202384F8393084F89C
:102BAC003A3010BD80F83830FFF7A8FAD8E701208A
:102BBC0070472DE9F04182B01E4690F83930DBB2F7
:102BCC00202B58D104460D469046002957D0002A98
:102BDC0057D090F83830012B55D0012380F838307D
:102BEC000023C363212380F8393000F0BBF907467A
:102BFC00A4F82480A4F8268017E000963B46002217
:102C0C0080212046FFF772FF00283ED12B882268D6
:102C1C00C3F30803536023690BB9023505E0013592
:102C2C0003E015F8012B23685A60E38C9BB29BB12F
:102C3C00E28C92B2013A92B2E284A368B3F5805F5F
:102C4C00DBD000963B46002280212046FFF74EFF4A
:102C5C000028E6D003200FE000963B4600224021DE
:102C6C002046FFF743FF90B9202384F83930002326
:102C7C0084F8383000E0022002B0BDE8F081012079
:102C8C00FAE70120F8E70220F6E70320F4E7032037
:102C9C00F2E790F83A30DBB2202B20D109B312B313
:102CAC0090F83830012B20D081628285C2850023B8
:102CBC00C363222280F83A2080F838300168CA6851
:102CCC0042F48072CA6001684A6942F001024A61AA
:102CDC000168CA6842F02002CA6018467047022098
:102CEC0070470120704701207047022070477047E1
:102CFC0008B50168CA6822F04002CA60202280F838
:102D0C003920FFF7F4FF002008BD08B590F83A30E1
:102D1C00DBB2222B46D18368B3F5805F0FD00369F9
:102D2C000BBB03685A68836A591C81621A70C38D85
:102D3C009BB2013B9BB2C385F3B1002008BD826AF4
:102D4C00036943B903685B68C3F308031380836AA0
:102D5C0002338362EBE703685B68DBB21380836A40
:102D6C0001338362E3E703685B68826A511C81620A
:102D7C0003F07F031370DAE70268D36823F02003B3
:102D8C00D3600268D36823F48073D36002685369FC
:102D9C0023F001035361202380F83A30FFF7EAF85F
:102DAC000020CBE70220C9E77047000010B50446AD
:102DBC0002681368D168526913F00F0005D113F043
:102DCC00200F02D011F0200F13D128B112F0010204
:102DDC0013D111F4907F10D113F0800F02D011F0A9
:102DEC00800F69D113F0400F02D011F0400F67D162
:102DFC0010BD2046FFF789FFFAE713F0010F06D04C
:102E0C0011F4807F03D0E06B40F00100E06313F01D
:102E1C00040F04D01AB1E06B40F00200E06313F031
:102E2C00020F04D01AB1E06B40F00400E06313F021
:102E3C00080F04D01AB1E26B42F00802E263E26BB5
:102E4C00002AD5D013F0200F02D011F0200F21D181
:102E5C0023685B6903F04003E26B12F0080F00D1AA
:102E6C0023B32046FFF79BFD23685A6912F0400FED
:102E7C0018D05A6922F040025A61636B73B1124A3E
:102E8C005A63606B00F058FD0028B1D0606B436B47
:102E9C009847ADE72046FFF738FFD9E72046FFF704
:102EAC0083FFA5E72046FFF77FFFA1E72046FFF74A
:102EBC007BFF0023E3639BE72046FFF77EFD97E74C
:102ECC002046FFF715FF93E7D92E000808B5406A96
:102EDC000023C385C384FFF767FF08BD10B5044604
:102EEC000E4B18784FF47A73B3FBF0F30C4A10685E
:102EFC00B0FBF3F000F0C0FD68B90F2C01D9012034
:102F0C000AE0002221464FF0FF3000F073FD054B24
:102F1C001C60002000E0012010BD00BF1800002044
:102F2C00200000201C00002008B5074A136843F05D
:102F3C0010031360032000F04BFD0020FFF7CEFFC1
:102F4C00FFF79AF8002008BD00200240034A1168E0
:102F5C00034B1B780B441360704700BF780C0020A8
:102F6C0018000020014B1868704700BF780C002037
:102F7C0038B50446FFF7F6FF0546B4F1FF3F02D023
:102F8C00044B1B781C44FFF7EDFF401BA042FAD307
:102F9C0038BD00BF1800002082B0084B1B68084ADF
:102FAC00A2FB03235B0A00FB03F3019300BF019B0D
:102FBC005A1E0192002BF9D102B07047200000205C
:102FCC00D34D6210002800F0F38170B582B0044636
:102FDC00036813F0010F2CD0AB4B5B6803F00C03B0
:102FEC00042B1DD0A84B5B6803F00C03082B12D0EC
:102FFC006368B3F5803F41D0002B56D103F1804379
:10300C0003F504331A6822F480321A601A6822F429
:10301C0080221A6037E09C4B5B6813F4803FE7D04A
:10302C00994B1B6813F4003F03D06368002B00F02E
:10303C00C181236813F0020F77D0934B5B6813F0B8
:10304C000C0F61D0904B5B6803F00C03082B56D02F
:10305C002369002B00F08B808C4B01221A60FFF748
:10306C0081FF0546884B1B6813F0020F76D1FFF7E2
:10307C0079FF401B0228F5D90320A0E1824A13688E
:10308C0043F48033136063684BB3FFF76BFF054663
:10309C007D4B1B6813F4003FCBD1FFF763FF401B44
:1030AC00B0F5803FF4D3032089E1B3F5A02F09D00C
:1030BC00754B1A6822F480321A601A6822F4802246
:1030CC001A60E0E703F18043A3F53C331A6842F43D
:1030DC0080221A601A6842F480321A60D3E7FFF734
:1030EC0041FF0546684B1B6813F4003FA1D0FFF766
:1030FC0039FF401BB0F5803FF4D303205FE1624BF6
:10310C005B6813F4803FA3D15F4B1B6813F0020F75
:10311C0003D02369012B40F04F815B4A136823F0E5
:10312C00F803616943EAC1031360236813F0080FC5
:10313C0032D0A369002B45D0554B01221A60FFF702
:10314C0011FF0546504B5B6A13F0020F21D1FFF7BC
:10315C0009FF401B0228F5D9032030E14A4A1368C5
:10316C0023F0F803616943EAC1031360DDE7474BC1
:10317C0000221A60FFF7F6FE0546434B1B6813F05E
:10318C00020FD2D0FFF7EEFE401B0228F5D9032028
:10319C0015E10120FFF700FF236813F0040F00F086
:1031AC009780394BDB6913F0805F1DD1364BDA69A0
:1031BC0042F08052DA61DB6903F080530193019B8A
:1031CC00012512E0324B00221A60FFF7CBFE0546B8
:1031DC002D4B5B6A13F0020FDED0FFF7C3FE401BD2
:1031EC000228F5D90320EAE000252A4B1B6813F4CA
:1031FC00807F11D0E368012B22D0002B38D103F152
:10320C00804303F504331A6A22F001021A621A6A27
:10321C0022F004021A6218E01E4A136843F4807309
:10322C001360FFF79FFE06461A4B1B6813F4807F52
:10323C00E0D1FFF797FE801B6428F5D90320BEE090
:10324C00114A136A43F001031362E36873B3FFF787
:10325C0089FE06460C4B1B6A13F0020F37D1FFF7A1
:10326C0081FE801B41F288339842F3D90320A6E0FB
:10327C00052B11D0044B1A6A22F001021A621A6A49
:10328C0022F004021A62E0E7001002400000424201
:10329C0080044242007000404D4B1A6A42F0040216
:1032AC001A621A6A42F001021A62CEE7FFF75AFE5E
:1032BC000646474B1B6A13F0020F08D0FFF752FE6D
:1032CC00801B41F288339842F3D9032077E0E5B9AB
:1032DC00E369002B72D03E4A526802F00C02082AB5
:1032EC0056D0022B17D03B4B00221A60FFF73AFE48
:1032FC000446374B1B6813F0007F47D0FFF732FEB4
:10330C00001B0228F5D9032059E0314AD36923F078
:10331C008053D361DCE72F4B00221A60FFF722FEAB
:10332C0005462B4B1B6813F0007F06D0FFF71AFEE7
:10333C00401B0228F5D9032041E0236AB3F5803FF6
:10334C001AD023494B6823F47413226A606A02432F
:10335C0013434B601F4B01221A60FFF703FE044618
:10336C001B4B1B6813F0007F0ED1FFF7FBFD001BFE
:10337C000228F5D9032022E0154A536823F40033C0
:10338C00A1680B435360DCE7002018E0002016E036
:10339C00012B16D00E4B5B6803F48031226A9142EC
:1033AC0011D103F47013626A93420ED1002006E02F
:1033BC0001207047012002E0012000E0002002B053
:1033CC0070BD0120FBE70120F9E70120F7E700BF02
:1033DC00001002406000424286B0164B0FCB0DF13C
:1033EC00180C0CE90F0040F20123ADF80430124B1D
:1033FC005B6803F00C02082A02D0104806B0704734
:10340C00C3F38342624412F8102C13F4803F0CD0A7
:10341C00094B5B68C3F34043634413F8143C0748FF
:10342C0000FB02F0B0FBF3F0E8E7054800FB02F00C
:10343C00E4E700BFC05301080010024000127A00FC
:10344C0000093D00002800F0A08070B50D46044630
:10345C00524B1B6803F007038B420BD24F4A136885
:10346C0023F007030B431360136803F007038B422D
:10347C0040F08D80236813F0020F17D013F0040F67
:10348C0004D0474A536843F4E0635360236813F055
:10349C00080F04D0424A536843F460535360404AC7
:1034AC00536823F0F003A1680B435360236813F0B7
:1034BC00010F31D06368012B20D0022B25D0384A64
:1034CC00126812F0020F64D035494A6822F00302E8
:1034DC0013434B60FFF746FD0646314B5B6803F028
:1034EC000C036268B3EB820F16D0FFF73BFD801B19
:1034FC0041F288339842F0D9032045E0284A1268FB
:10350C0012F4003FE0D101203EE0254A126812F08F
:10351C00007FD9D1012037E0204B1B6803F0070353
:10352C00AB420AD91D4A136823F007032B431360DF
:10353C00136803F00703AB422DD1236813F0040F7B
:10354C0006D0174A536823F4E063E1680B435360D9
:10355C00236813F0080F07D0114A536823F4605303
:10356C00216943EAC1035360FFF736FF0C4B5B68DC
:10357C00C3F303130B4AD35CD8400B4B18600B4BB3
:10358C001868FFF7ABFC002070BD012070470120CC
:10359C00FAE70120F8E70120F6E700BF002002401F
:1035AC0000100240D4530108200000201C00002011
:1035BC00014B1868704700BF2000002008B5FFF7CA
:1035CC00F7FF044B5B68C3F30223034AD35CD84078
:1035DC0008BD00BF00100240E453010808B5FFF716
:1035EC00E7FF044B5B68C3F3C223034AD35CD840A8
:1035FC0008BD00BF00100240E453010810B586B0AE
:10360C000446364B0FCB0DF1180C0CE90F0040F2B1
:10361C000123ADF80430022C52D0102C04D0012C14
:10362C002CD0002006B010BD2D4B5A68186810F035
:10363C008070F7D0C2F3834306A90B4413F8100C27
:10364C0012F4803F16D0264B5B68C3F340430B4407
:10365C0013F8142C234BB3FBF2F300FB03F0204BB9
:10366C005B6813F4800FDDD140001F4BA3FB0030CF
:10367C004008D7E71D4B03FB00F0F0E7184B1B6A23
:10368C0040F202321A40B2F5817F24D003F4407329
:10369C00B3F5007F04D0B3F5407F09D00020C1E71B
:1036AC000F4A526A12F0020FF5D049F64040B9E7C2
:1036BC000B4B186810F40030B4D04FF22440B1E733
:1036CC00FFF78CFF064B5B68C3F3813301335B0060
:1036DC00B0FBF3F0A6E74FF40040A3E7C05301089A
:1036EC000010024000127A00ABAAAAAA00093D0001
:1036FC00F0B482B000252C46A3E07F4FBB4210D023
:10370C0007D97E4FBB420CD007F58037BB4208D09F
:10371C0013E0A7F58017BB4203D007F57027BB4217
:10372C0007D18B68002B58D0012B51D04261082552
:10373C0003E0A7F58017BB42F3D0FF2E4FD8844689
:10374C00FF2E4FD8A200DCF800300F27974023EA59
:10375C00070305FA02F21343CCF800304B6813F060
:10376C00805F6DD0664B9A6942F001029A619B6949
:10377C0003F001030193019BA208971C614B53F8C2
:10378C00273004F00307BF004FF00F0C0CFA07FCB6
:10379C0023EA0C0C5C4B98422AD003F580639842C8
:1037AC0000F08A8003F58063984200F0878003F56F
:1037BC00806398421AD004231BE0CD68BDE7CD6826
:1037CC000435BAE7CD680835B7E7CD680C35B4E7F2
:1037DC0002610825B1E70025AFE70425ADE700F14C
:1037EC00040CADE7A4F108029200ACE7032300E05F
:1037FC000023BB4043EA0C030232424F47F822300D
:10380C004B6813F4803F5BD0404A1368334313601A
:10381C004B6813F4003F59D03C4A53683343536010
:10382C004B6813F4801F57D0384A93683343936026
:10383C004B6813F4001F55D0344AD3681E43D6602E
:10384C0001340B6833FA04F252D00122A24003EA8D
:10385C00020632EA0303F3D14B68122B3FF64DAF4D
:10386C00122B3FF66AAF01A757F823F02F37000849
:10387C00C7370008D1370008E3370008473700087E
:10388C004737000847370008473700084737000814
:10389C004737000847370008473700084737000804
:1038AC0047370008473700084737000847370008F4
:1038BC00CB370008D737000801239AE7022398E793
:1038CC00124A136823EA06031360A1E70F4A5368F0
:1038DC0023EA06035360A3E70C4A936823EA060322
:1038EC009360A5E7094AD36823EA0606D660A7E7E2
:1038FC0002B0F0BC704700BF000022100000311075
:10390C00001002400000014000080140000401408A
:10391C000AB10161704709040161704708B5054B94
:10392C005B69034200D108BD024B5861FEF76AFB8C
:10393C00F9E700BF0004014008B590F82130022BD4
:10394C0003D004238363012008BD0268136823F0AD
:10395C000E0313600268136823F0010313600368FD
:10396C00194A934214D0143293421FD0143293420A
:10397C001ED0143293421ED0143293421ED01432F5
:10398C00934202D04FF0807203E04FF4801200E0BB
:10399C0001220E4B5A60012380F82130002380F85D
:1039AC002030436B6BB198470020CDE71022F0E735
:1039BC004FF48072EDE74FF48052EAE74FF4803217
:1039CC00E7E70020C0E700BF08000240000002400B
:1039DC00074AD36823F4E0631B041B0C000200F4B9
:1039EC00E060034343F0BF6343F40033D36070479C
:1039FC0000ED00E030B4174BDB68C3F30223C3F1D6
:103A0C000704042C28BF04241D1D062D18D9033BC4
:103A1C004FF0FF3505FA04F421EA0401994005FA48
:103A2C0003F322EA0303194300280BDB0901C9B293
:103A3C0000F1604000F5614080F8001330BC704725
:103A4C000023E5E700F00F000901C9B2024B19543D
:103A5C00F4E700BF00ED00E014ED00E0002807DB08
:103A6C0000F01F02400901239340024A42F8203023
:103A7C00704700BF00E100E00138B0F1807F0AD24E
:103A8C00064B5860064AF02182F8231000209860FB
:103A9C0007221A6070470120704700BF10E000E059
:103AAC0000ED00E0F0B583B005460C460023019311
:103ABC00FFF758FA2B689A6812F4807F23D10746D7
:103ACC005A6812F4807F03D1DB6A13F4700F24D090
:103ADC004A4B1E680220FFF791FDB6FBF0F02B68F5
:103AEC001969474A11422FD1D96802F15C4211423F
:103AFC002AD11969434A114239D1DA68424B1A4228
:103B0C0037D029263AE0AB6A43F02003AB6200239E
:103B1C0085F82430012003B0F0BD2B681B6813F02E
:103B2C00020F48D1B4F1FF3FF7D024B1FFF71AFAD6
:103B3C00C01BA042F1D9AB6A43F00403AB62002373
:103B4C0085F824300320E6E719692E4A114204D186
:103B5C00D96802F16E4211420DD019692B4A0A4004
:103B6C005AB9DA68294B13405BB1FC2606E02926CA
:103B7C0004E0142602E0542600E0FC2606FB00F6C6
:103B8C0004E05426FAE7019B01330193019BB342F5
:103B9C0011D2B4F1FF3FF6D024B1FFF7E3F9C31B08
:103BAC00A342F0D9AB6A43F00403AB62002385F85F
:103BBC0024300320AFE72B686FF012021A60AB6A57
:103BCC0043F40073AB622B689B6803F46023B3F57A
:103BDC00602F01D000209EE7287B60B9AB6A23F4EC
:103BEC008073AB62AB6A13F4805F94D1AB6A43F021
:103BFC000103AB628FE700208DE700BF200000209F
:103C0C002449922492244912922449004992240076
:103C1C000368D86C7047000030B482B00022019267
:103C2C0090F82420012A00F08B800346012280F8B2
:103C3C0024204A68062A29D80568686B02EB8202A0
:103C4C00053A1F24944020EA04000C6804FA02F29E
:103C5C0002436A630A68092A38D91D68E86802EBCE
:103C6C0042021E3A0724944020EA04008C6804FAAD
:103C7C0002F20243EA600A68103A012A34D90020A1
:103C8C00002283F8242002B030BC70470C2A0ED8D6
:103C9C000568286B02EB8202233A1F24944020EA29
:103CAC0004000C6804FA02F202432A63D2E70568A6
:103CBC00E86A02EB8202413A1F24944020EA040095
:103CCC000C6804FA02F20243EA62C3E71D68286931
:103CDC0002EB42020724944020EA04008C6804FAA8
:103CEC0002F202432A61C6E71A681648824205D0DE
:103CFC009A6A42F020029A620120C1E7906810F49F
:103D0C00000F1BD1906840F4000090600A68102AE4
:103D1C0001D00020B4E70C4A12680C49A1FB021236
:103D2C00920C02EB82025200019202E0019A013ADB
:103D3C000192019A002AF9D10020A1E700209FE707
:103D4C000220A0E7002401402000002083DE1B435A
:103D5C00806A704730B583B00023019303689A687A
:103D6C0012F0010F2DD104469A6842F001029A60BC
:103D7C00154B1B68154AA2FB03239B0C0193019B5B
:103D8C001BB1019B013B0193F9E7FFF7EBF80546EB
:103D9C0023689B6813F0010F11D1FFF7E3F8431B65
:103DAC00022BF5D9A36A43F01003A362E36A43F034
:103DBC000103E362002384F82430012002E0002098
:103DCC0000E0002003B030BD2000002083DE1B4348
:103DDC0090F82430012B68D010B50446012380F8EC
:103DEC002430FFF7B7FF00285BD1A36A23F440739C
:103DFC0023F0010343F48073A36223682C4A93429B
:103E0C0027D0A26A22F48012A2625A6812F4806F40
:103E1C0005D0A26A22F4405242F48052A262A26AF5
:103E2C0012F4805F2BD0E26A22F00602E2620022DA
:103E3C0084F824206FF002021A6023689A6802F456
:103E4C006022B2F5602F1DD09A6842F480129A60FD
:103E5C002AE0A2F58062526812F4702FD1D0A26AC7
:103E6C0042F48012A262134A526812F4806FD6D0C8
:103E7C00A26A22F4405242F48052A262CFE700229E
:103E8C00E262D4E70A4A934204D09A6842F4A00250
:103E9C009A6009E0A2F58062526812F4702FD3D1B7
:103EAC00F3E7002384F8243010BD0220704700BFD4
:103EBC00002801400024014038B503689A6812F0CC
:103ECC00010F01D1002038BD04469A6822F001028E
:103EDC009A60FFF747F8054623689B6813F0010FBB
:103EEC000ED0FFF73FF8431B022BF5D9A36A43F022
:103EFC001003A362E36A43F00103E3620120E2E7EB
:103F0C000020E0E700287BD070B50446836A002BC4
:103F1C004DD02046FFF7D0FFA36A13F0100369D1F0
:103F2C00002867D1A26A22F4885222F0020242F0E1
:103F3C000202A2626268E1690A43217B42EA410201
:103F4C00A568B5F5807F02D0012D36D01D46267DA3
:103F5C00012E35D02668716821F4694129437160BE
:103F6C002568AE68274931401143A960A168B1F5B5
:103F7C00807F01D0012902D12369013B1B052568F3
:103F8C00E96A21F470010B43EB62236899681E4BBC
:103F9C000B409A4225D0A36A23F0120343F010037E
:103FAC00A362E36A43F00103E362012027E0C362EA
:103FBC0080F82430FEF71EF9ABE74FF48075C6E7A6
:103FCC0031B9A169013945EA413141F40065C1E7D4
:103FDC00A16A41F02001A162E16A41F00101E162B4
:103FEC00B8E70023E362A36A23F0030343F0010361
:103FFC00A36204E0A36A43F01003A362012070BD26
:10400C0001207047FDF7E1FFFE0E1FFF0F4B1A68F2
:10401C0042F001021A6059680D4A0A405A601A6847
:10402C0022F0847222F480321A601A6822F4802200
:10403C001A605A6822F4FE025A604FF41F029A600A
:10404C00044B4FF000629A60704700BF00100240B2
:10405C000000FFF800ED00E008B5034B1B7803B13E
:10406C0008BDFEF785FFFBE77C0C002008B5014678
:10407C00024B187810F055FA08BD00BF050000205F
:10408C0008B50A46034B1B780146184610F0FEF99A
:10409C0008BD00BF0500002008B50A46034B1B787D
:1040AC000146184610F0F2F908BD00BF06000020CA
:1040BC0008B510F051FB08BD08B510F026FB08BD83
:1040CC0010B514461A46234610F0FDF910BD70B514
:1040DC0088B004460D461646197868460EF01AFF4D
:1040EC0033466A462946204610F0EDF908B070BDFB
:1040FC0010B5C0B014468DF800008DF801101946AB
:10410C000DF102000EF0F8FE044B1878A31CDBB284
:10411C006A46FD2110F0D7F940B010BD0500002013
:10412C0038B505460024AC4205D20520FEF720FF29
:10413C000134A4B2F7E738BD08B50146024B187834
:10414C0010F04BF808BD00BF2C0D002008B50A4636
:10415C000146024B187810F01DF808BD2C0D0020FC
:10416C0008B5FEF705FF08BD08B50146402010F064
:10417C00D4FC08BD08B50146282010F01AFD0F4BE1
:10418C0018600F4AA2FB0013DB0803EB8303A2FBAE
:10419C000312A0EB430000EB80000A4BA3FB0010C2
:1041AC00400900EBD20000EB8000C0EB0010A3FB39
:1041BC0000304009044B186008BD00BF140A0020F1
:1041CC00CDCCCCCC1F85EB511C0A002008B50A467F
:1041DC0001464A2010F019FD08BD0000024A137870
:1041EC0023EA0003137070475E0A0020024B1A7812
:1041FC0010431870704700BF5E0A0020014B1878FE
:10420C00704700BF5E0A002008B5072807D80428AD
:10421C000BD2032802D85220FFF732FF08BD082822
:10422C00FCD15720FFF72CFFF8E75D20FFF728FFA4
:10423C00F4E7F8B505460C4617465320FFF716FF72
:10424C0000F03F065E20FFF711FF00F03F0104F085
:10425C003F04082D0ED8DFE805F0050E19242F3782
:10426C00424D580031465320FFF70AFF2146532098
:10427C00FFF706FFF8BD46F040015320FFF700FFA3
:10428C0044F040015320FFF7FBFEF3E746F08001BA
:10429C005320FFF7F5FE44F080015320FFF7F0FEAA
:1042AC00E8E746F0C0015320FFF7EAFE44F0C001F6
:1042BC005320FFF7E5FEDDE75E20FFF7E1FE214628
:1042CC005E20FFF7DDFED5E741F040015E20FFF7F1
:1042DC00D7FE44F040015E20FFF7D2FECAE741F062
:1042EC0080015E20FFF7CCFE44F080015E20FFF7DA
:1042FC00C7FEBFE741F0C0015E20FFF7C1FE44F0EE
:10430C00C0015E20FFF7BCFEB4E721465820FFF742
:10431C00B7FE07F01F015920FFF7B2FEAAE738B528
:10432C00CCB2090A090101F07001D5B2C2F3022224
:10433C00072810D804281DD203280BD81143542069
:10434C00FFF79EFE21465520FFF79AFE2946562080
:10435C00FFF796FE38BD0828FCD111435A20FFF711
:10436C008FFE21465B20FFF78BFE29465C20FFF772
:10437C0087FEEFE711435F20FFF782FE21466020A6
:10438C00FFF77EFE29466120FFF77AFEE2E7000088
:10439C0070B505460C4614F8016B1021FD20FFF793
:1043AC006FFE2946FE20FFF76BFE044B1878234660
:1043BC003246FF21FFF784FE70BD00BF05000020D0
:1043CC0030B583B004468DF807200D787021FD20A0
:1043DC00FFF756FE2146FE20FFF752FE044B1878DD
:1043EC000DF107032A46FF21FFF771FE03B030BD24
:1043FC000500002030B583B005461C468DF807201B
:10440C007021FD20FFF73CFE2946FE20FFF738FE09
:10441C00044B18780DF107032246FF21FFF757FED6
:10442C0003B030BD0500002038B504460D465320BE
:10443C00FFF71CFE00F03F01A40164B22143C9B296
:10444C005320FFF71DFE5E20FFF710FE00F03F002B
:10445C000443E1B25E20FFF713FE5120FFF706FE86
:10446C0015F0080F01D100F0F70020F0070040B262
:10447C0005F00F010143C9B25120FFF701FE38BD11
:10448C0010B504465120FFF7F1FD00F0FD010CB111
:10449C0041F0020141F008015120FFF7F1FD10BD80
:1044AC0010B504466920FFF7E1FD00F00F0141EA69
:1044BC000411C9B26920FFF7E3FD00215820FFF772
:1044CC00DFFD10BD072825D8DFE800F004080C102C
:1044DC0014181C20114B124A1A6070470F4B114ACA
:1044EC001A6070470D4B104A1A6070470B4B0F4AFD
:1044FC001A607047094B0E4A1A607047074B0D4AF9
:10450C001A607047054B0C4A1A607047034B0B4AF4
:10451C001A607047014B094A1A607047680A0020FC
:10452C002C9A0108449A0108389A0108509A0108FB
:10453C00149A0108089A0108209A0108849A010823
:10454C0070B48C6884420FDB9D681E68AD1B0B68D1
:10455C00E41A18D0C01A05FB00F595FBF4F43444AA
:10456C001460012070BC70475D689E68AD1B4B6881
:10457C001B1B0AD0001B05FB00F595FBF3F535441E
:10458C0015600120EEE70020ECE70020EAE70000D0
:10459C0008B54138932800F2E080DFE800F086DEB1
:1045AC00DEDEDEDEDEDEDEDEDEDEDEDEDEDEDEDE1F
:1045BC00DE9ADEDEDEDEDEDEDEDEDEDEDECACEDA7B
:1045CC00DEDEDEDEDEDEDEDEDEDEDEDEDEDEDEDEFF
:1045DC00DEDEDEDEDEDEDEDEDEDEDEDEDEDEDEDEEF
:1045EC00DEDEDEDEDEDEDEDEDEDEDEDEDEDEDEDEDF
:1045FC00DEDE4A4E52DE565ADE5EDEDEDEDEDEDE0B
:10460C00DEDEDEDEDEDEDEDEDEDEDEDEDEDEDEDEBE
:10461C00DEDEDEDEDE66626A6E767A7E82DE8A8EB2
:10462C009296DEAAAEDEB272DEDE9EA2A6B6BABE4E
:10463C00C2C61220FFF73CFD90E01320FFF738FDB7
:10464C008CE01420FFF734FD88E01720FFF730FDD5
:10465C0084E01620FFF72CFD80E01820FFF728FDE2
:10466C007CE0A320FFF724FD78E0A020FFF720FDDD
:10467C0074E0A420FFF71CFD70E0AC20FFF718FDE0
:10468C006CE0AD20FFF714FD68E0BF20FFF710FDD4
:10469C0064E02020FFF70CFD60E02120FFF708FD0F
:1046AC005CE02220FFF704FD58E02020FFF700FD1E
:1046BC0054E0A520FFF7FCFC50E0A620FFF7F8FC27
:1046CC004CE0A720FFF7F4FC48E0A820FFF7F0FC33
:1046DC0044E01920FFF7ECFC40E0BC20FFF7E8FCBD
:1046EC003CE0BD20FFF7E4FC38E0BE20FFF7E0FC27
:1046FC0034E0A220FFF7DCFC30E0AE20FFF7D8FC62
:10470C002CE0AA20FFF7D4FC28E0C020FFF7D0FC57
:10471C0024E0C120FFF7CCFC20E0C220FFF7C8FC4E
:10472C001CE0C320FFF7C4FC18E0C420FFF7C0FC5A
:10473C0014E02320FFF7BCFC10E0094B1B78612B25
:10474C0003D02520FFF7B4FC08E02420FFF7B0FCD1
:10475C0004E02520FFF7ACFC00E0002008BD00BF02
:10476C00670A002010B584B00C4662283AD011D3E9
:10477C009C280FD895280DD3953807280AD8DFE840
:10478C0000F0130419091F25092B214A6B4607CA8F
:10479C0083E807006B4603AA1E492046FFF7D0FEAC
:1047AC009DF80C0004B010BD1B4A6B4607CA83E889
:1047BC000700EFE7194A6B4607CA83E80700E9E7E9
:1047CC00174A6B4607CA83E80700E3E7154A6B46AE
:1047DC0007CA83E80700DDE7134A6B4607CA83E87C
:1047EC000700D7E7114B1B78022B0BD0352B09D0C8
:1047FC00362B07D0372B05D00D4A6B4607CA83E8FA
:10480C000700C7E70B4A6B4607CA83E80700C1E7F6
:10481C0048000020680900205400002030030020CC
:10482C00080100203C0300203C000020090000206F
:10483C00FC000020F000002010B584B00C4662286B
:10484C0008D06B4603AA0B492046FFF779FE039864
:10485C0004B010BD084B1B78022B05D0074A6B46E1
:10486C0007CA83E80700ECE7054A6B4607CA83E8EA
:10487C000700E6E76809002009000020FC00002082
:10488C00F000002000B583B09C20FFF781FE054BA3
:10489C0001AA0549FFF754FE0198044B186003B0B8
:1048AC005DF804FB3C00002074090020140000207B
:1048BC00F8B50446622813D0012918D04FF0FF3602
:1048CC00622C16D0434B1D682E44434B1B68B342DD
:1048DC0003DC414B5B68B34247DAEDB22846F8BDC6
:1048EC00012902D06FF00306EAE70426E8E7012667
:1048FC00E6E73A4B1978032916D800216220FFF716
:10490C009BFF0146364B1B78022B14D0354B187885
:10491C004000053001EB0011B1F5C87F21D93248B8
:10492C000AF002FA0026CDE73144C9B26220FFF743
:10493C0083FF0146E6E72B4B1B785B0005331A011E
:10494C0001EB0313B3F5487F02D864328A4204D9D1
:10495C0025480AF0E9F90026B4E724480AF0E4F9FE
:10496C00B0E722480AF0E0F9ACE7F5B22946204658
:10497C00FFF7F8FE0746953C072C09D8DFE804F052
:10498C000B0410081521082601463120FFF778FB8F
:10499C00104B1E60A2E701463220FFF771FBF7E7D0
:1049AC0001463320FFF76CFBF2E73420FFF75EFB88
:1049BC0040B220F03F003843C1B23420FFF760FB17
:1049CC00E6E701464E20FFF75BFBE1E7FFF75AFFF6
:1049DC00DEE700BF600A0020680900200A00002002
:1049EC00090000200B000020609601086C9601085D
:1049FC0010B59620FFF7CCFDC1B29620FFF7B2FEA2
:104A0C0001463120FFF73CFB9720FFF7C1FDC1B2F7
:104A1C009720FFF7A7FE01463320FFF731FB9520C7
:104A2C00FFF7B6FDC1B29520FFF79CFE0146322080
:104A3C00FFF726FB9920FFF7ABFDC1B29920FFF7DA
:104A4C0091FE04463420FFF711FB41B221F03F01E7
:104A5C002143C9B23420FFF713FB9A20FFF798FDCE
:104A6C00C1B29A20FFF77EFE0446A0214B20FFF72F
:104A7C0007FB21464E20FFF703FB10BD10B53A4B48
:104A8C001B78012B0CD0384B5B78012B21D0364B8B
:104A9C009B78012B36D0344BDB78012B4BD010BDDF
:104AAC00324B1B7853B9324C21460420FFF770FC73
:104ABC00022221460420FFF783FCF0E72D4C21460F
:104ACC000420FFF765FC022221460420FFF778FC46
:104ADC00E5E7264B1B7853B9254C21460A20FFF7F6
:104AEC0057FC022221460A20FFF76AFCD7E7214C2B
:104AFC0021460A20FFF74CFC022221460A20FFF730
:104B0C005FFCCCE7194B1B7853B9194C214610208C
:104B1C00FFF73EFC022221461020FFF751FCBEE7B6
:104B2C00144C21461020FFF733FC022221461020A2
:104B3C00FFF746FCB3E70D4B1B7853B90C4C2146E1
:104B4C001620FFF725FC022221461620FFF738FC21
:104B5C00A5E7084C21461620FFF71AFC0222214635
:104B6C001620FFF72DFC9AE73C0A0020670900206D
:104B7C007CA5010878A5010808B567480AF0D4F8A7
:104B8C00664B1B78302B23D019D8042B33D9102B20
:104B9C0018D1FFF733FB10F0A60F45D003210020EE
:104BAC00FFF742FC03210120FFF73EFC032102200A
:104BBC00FFF73AFC03210846FFF736FC02E0602BB6
:104BCC0059D001D9002008BD402B01D0502BF9D170
:104BDC00FFF714FB10F0060F00F09080032100206B
:104BEC00FFF722FC03210120FFF71EFC032102200A
:104BFC00FFF71AFCE6E7FFF701FB10F0A60F04D055
:104C0C000B210020FFF710FCDCE7FFF7F7FA10F0A0
:104C1C00800F04D101210020FFF706FCD2E70B2105
:104C2C000020FFF701FCCDE7FFF7E8FA10F0800F4A
:104C3C0010D101210020FFF7F7FB01210846FFF7F7
:104C4C00F3FB01210220FFF7EFFB01210320FFF70B
:104C5C00EBFBB7E703210020FFF7E6FB0321012064
:104C6C00FFF7E2FB03210220FFF7DEFB03210846DE
:104C7C00FFF7DAFBA6E7FFF7C1FA10F0A60F13D087
:104C8C0003210020FFF7D0FB03210120FFF7CCFB11
:104C9C0003210220FFF7C8FB03210846FFF7C4FBE2
:104CAC001F480AF041F88DE71E480AF03DF8FFF75F
:104CBC00A5FA10F0800F10D101210020FFF7B4FBF2
:104CCC0001210846FFF7B0FB01210220FFF7ACFBE6
:104CDC0001210320FFF7A8FB74E703210020FFF755
:104CEC00A3FB03210120FFF79FFB03210220FFF709
:104CFC009BFB03210846FFF797FB63E7012100208C
:104D0C00FFF792FB01210846FFF78EFB01210220E1
:104D1C00FFF78AFB56E700BF78960108E8070020EA
:104D2C00889601089096010830B593B00446504A15
:104D3C000EAB07CA03C31A804E4B93E803000C90CA
:104D4C008DF834104C4B08AD0FCB85E80F004B4B56
:104D5C0004AD0FCB07C52B80494A01AB07CA03C36F
:104D6C001A70484B11AA48492046FFF7E9FB1198E5
:104D7C007D2820DC454B83FB0023C517C5EB630561
:104D8C00EBB206E012AA1A44702102F8381C013367
:104D9C00DBB20E2BF6D93D4A82FB0032C317C3EBB4
:104DAC00620303EBC303C31A12AA134413F8443C63
:104DBC00154405F8383C01230E2B0BD85A1E12A9AA
:104DCC000A4412F8381C12AA1A4402F8281C01339F
:104DDC00DBB2F1E7632C2CD92D4AA2FB0432530928
:104DEC0012A901EB521212F8102C8DF8312064220A
:104DFC0002FB1344E4B2274AA2FB0432D30801EBB2
:104E0C00D20212F8102C8DF8322003EB8303A4EBA2
:104E1C004303DBB20B4413F8103C8DF8333008A974
:104E2C005520FFF7B5FA0CA96420FFF7B1FA13B0BF
:104E3C0030BD092C15D9174AA2FB0432D30812A98C
:104E4C0001EBD20212F8102C8DF8322003EB830305
:104E5C00A4EB4303DBB20B4413F8103C8DF8333056
:104E6C00DDE712AB1C4414F8103C8DF83330D6E758
:104E7C0098960108A4960108AC960108BC96010806
:104E8C00CC9601082400002068090020398EE338F4
:104E9C001F85EB51CDCCCCCCF0B589B0AA4A05AB73
:104EAC0007CA03C31A80A94B0493A94A01AB07CACA
:104EBC0003C323F8022B120C1A70A220FFF7F8F888
:104ECC0018B9A44BDE78002E3FD009B0F0BD05EB2D
:104EDC00C50464004034E4B29F4F39462046FFF7C6
:104EEC0057FA022239462046FFF76AFA0135EDB22D
:104EFC00072DECD9994B1B7808AA134413F81C1CEA
:104F0C00C1F112010822C9B21046FFF792F94021F3
:104F1C000820FFF779F9924B1B78052B17D08F4A95
:104F2C00127808A90A4412F81C1C03EB830303EB48
:104F3C008303402203EB01110820FFF7F0F9874BA4
:104F4C001B78012B65D0344698E03546D0E7834B6F
:104F5C001B7808AA134413F81C1C09014022833146
:104F6C000820FFF7DCF9EAE77C4B1B7808AA13440E
:104F7C0013F81C0CC0F11200A50000FB04F040302B
:104F8C00784B53F82410C0B2FFF702FAA31EDBB221
:104F9C00022B19D9631FDBB2022B28D96F4B1B785C
:104FAC0008AA134413F81C0CC0F1120000FB04F007
:104FBC00403002226B4B5959C0B2FFF701FA013451
:104FCC00E4B2072CD0D95BE0644B1B7808AA1344DD
:104FDC0013F81C0CC0F1120000FB04F04030062248
:104FEC00604B53F82410C0B2FFF7EAF9E7E75B4BCC
:104FFC001B7808AA134413F81C0CC0F1120000FB18
:10500C0004F040300422574B5959C0B2FFF7D8F97D
:10501C00D5E73446D5E7514B1B7808AA1A4412F849
:10502C001C0CC0F11200013B4F4A52F82330A50072
:10503C0000FB04F0403053F82410C0B2FFF7A8F97D
:10504C00A31EDBB2022B53D9631FDBB2022B65D933
:10505C00424B1B7808AA1A4412F81C0CC0F112001F
:10506C00013B414A52F8233000FB04F0403002224D
:10507C005959C0B2FFF7A4F90134E4B2072CCAD9CC
:10508C000620FFF7ABF81020FFF7B0F8374B1B7872
:10509C002BB3BE2B6ED0BF2B00F09580092E40F2A7
:1050AC009580334AA2FB0632D30808A901EBD20241
:1050BC0012F80C2C8DF8122003EB8303A6EB4303A0
:1050CC00DBB20B4413F80C3C8DF81330042204A90A
:1050DC004020FFF775F904A94020FFF759F9234B3D
:1050EC001B78002B79D00A210020FFF79DF9ECE604
:1050FC001A4B1B7808AA1A4412F81C0CC0F11200A7
:10510C00013B194A52F8233000FB04F040300622D0
:10511C0053F82410C0B2FFF753F9ADE70F4B1B78CF
:10512C0008AA1A4412F81C0CC0F11200013B0E4ADA
:10513C0052F8233000FB04F0403004225959C0B21D
:10514C00FFF73EF998E700BF98960108036D6D6D67
:10515C00F84C0108780A0020B0A4010808000020CF
:10516C000700002068040020809C0108660A0020CB
:10517C00CDCCCCCC1B4B1E78632E8FD91A4AA2FBFC
:10518C000632530908A901EB521212F80C2C8DF8B7
:10519C001120642202FB1363DBB2144AA2FB03123C
:1051AC00D10808A800EBD20212F80C2C8DF81220B2
:1051BC0001EB8101A3EB4103DBB2034413F80C3C7C
:1051CC008DF8133082E70A4B1E78D5E708AB1E44E6
:1051DC0016F80C3C8DF8133078E70E210020FFF701
:1051EC0023F972E6070000201F85EB51CDCCCCCC07
:1051FC000800002070B582B09A4B93E80300009031
:10520C00ADF80410090C8DF80610974B1B78022B87
:10521C000ED0964B19786220FFF70EFB944B1B783F
:10522C005B000533A0EBC303924A1360002431E00A
:10523C008E4B19786220FFF7FFFA8D4B1B785B00C1
:10524C000533A0EB03138B4A1360EFE7884E3378DA
:10525C00013B02AA134413F8080CC0F11400864D4C
:10526C0000FB04F040302946C0B2FFF791F83378C8
:10527C00013B02AA134413F8080C04EB8403C0EBA3
:10528C008300C0B2403007222946C0B2FFF798F81D
:10529C000134E4B2072CD9D9754B1B78013B02AA17
:1052AC00134413F8081CC1F114010822C9B21046AA
:1052BC00FEF7BFFF40210820FEF7A6FF6A4B1B78C4
:1052CC00023B352B22D8DFE803F01B212154214966
:1052DC002121212C21212135213521352C2C21492D
:1052EC00213F49213F2C2C2C21494949492121544A
:1052FC00212335213F23232321544921545E5E5E13
:10530C0040225C4B19880820FFF709F8002471E053
:10531C00584B19681831402289B20820FEF7FFFF5C
:10532C00F4E7544B19681831B82289B20820FEF7FB
:10533C00F6FFEBE74F4B196801F5D671B82289B22D
:10534C000820FEF7ECFFE1E74A4B196801F5D47130
:10535C00402289B20820FEF7E2FFD7E7454B1968D7
:10536C0001F5D6714FF4987289B20820FEF7D7FF79
:10537C00CCE7404B196818314FF4987289B2082069
:10538C00FEF7CDFFC2E73B4B1968E031402289B2F2
:10539C000820FEF7C4FFB9E7354B1B78013B02AA86
:1053AC001A4412F8080CC0F11400344A52F8233095
:1053BC0000FB04F04030042253F82410C0B2FEF776
:1053CC00FFFF47E02A4B1A78531E02A9194411F823
:1053DC00080CC0F1140000FB0420C0B2274A52F89C
:1053EC0023104230012302224959C0B2FFF702F8C0
:1053FC000134E4B2072C45D81D4B1B78013B02AAA3
:10540C001A4412F8080CC0F114001C4A52F823304C
:10541C00A50000FB04F0403053F82410C0B2FEF796
:10542C00B7FF174B1B78002BB6D0114B1B78013BE9
:10543C0002AA1A4412F8080CC0F114000F4A52F8D0
:10544C00233000FB04F04030062253F82410C0B285
:10545C00FEF7B6FF0A4B1B78612BB3D0002BC7D1DC
:10546C00B0E700BFD8960108090000200A00002010
:10547C000B0000200C000020B0A4010808A10108BA
:10548C00670A00203620FEF7A9FE194B1B78022B69
:10549C000BD007210020FEF7C7FF164B1B784BB92A
:1054AC008020FEF7A3FE02B070BD0E210020FEF797
:1054BC00BBFFF2E7012216210420FEF7BAFE1821E9
:1054CC000420FEF7A1FE0C4C21461820FEF760FFCD
:1054DC00042221461820FEF773FF4FF4C87258219E
:1054EC000420FEF71CFF0F210020FEF79DFFD7E7DD
:1054FC0009000020670A00200499010808B5372824
:10550C0024D8DFE800F01C1C2C1C1C2C1C2C1C1C94
:10551C001C2C1C231C2C1C2C1C2C2C2C1C2C1C2C38
:10552C002C1C2C2C2C2C1C2C2C2C2C1C1C2C1C2CFF
:10553C002C1C2C2C2C2C1C2C2C1C2C2C2C2C0B4BD1
:10554C0038221A7005210020FEF76EFF074B1B78DE
:10555C00382B03D0064B1B78012B03D008BD034B13
:10556C001870F3E7FFF746FEF8E700BF09000020CC
:10557C006C0B002008B5044809F0D6FB0349182031
:10558C00FEF706FF08BD00BFE09601081C99010854
:10559C0070B5284809F0C8FB022221210820FEF72B
:1055AC0048FE40210820FEF72FFE4FF4E6724421FE
:1055BC000820FEF7B4FE00240FE004EB4415403540
:1055CC00EDB21D4E31462846FEF7E2FE0222314670
:1055DC002846FEF7F5FE0134E4B2012CEDD9174C48
:1055EC0021464020FEF7D4FE042221464020FEF73F
:1055FC00E7FE134C21466120FEF7CAFE0422214629
:10560C006120FEF7DDFED620FEF7E8FDB920FEF79F
:10561C00BFFF48B90321FEF707FF2020FEF7E6FD88
:10562C00084B01221A7070BD07210020FEF7FCFE0A
:10563C00F3E700BFF896010824A50108FCA40108B3
:10564C0000A50108650A002010B5404B1B78012B02
:10565C0002D0012B41D010BD3D4A12781AB13D4AFF
:10566C001278382AF5D1012202210820FEF7E1FD3B
:10567C0040210820FEF7C8FD1B2230210820FEF730
:10568C004EFE354B1B78012B17D0344C2146402055
:10569C00FEF77EFE022221464020FEF791FE0620F8
:1056AC00FEF79CFDB920FEF773FF88B90321FEF7C6
:1056BC00BBFE0820FEF79AFDCDE7294C2146402081
:1056CC00FEF766FE022221464020FEF779FEE6E751
:1056DC0007210020FEF7A8FEEBE70122022106209D
:1056EC00FEF7A7FD2C210620FEF78EFD1B4C214654
:1056FC002C20FEF74DFE022221462C20FEF760FEE8
:10570C001B2230210620FEF70AFE164B1B78002BBD
:10571C00A1D1154B1B78002B9DD101220A2104200D
:10572C00FEF787FD18210420FEF76EFD0F4C214675
:10573C001820FEF72DFE072221461820FEF740FE0A
:10574C007722AD210420FEF7EAFD84E7680E0020E5
:10575C006C0B002009000020D00A002048A501088D
:10576C0074A50108D30A0020A40C0020849A010817
:10577C0010B5294B1B78002B42D0284B1B78012BE2
:10578C0012D0022B1BD0032B24D0042B2DD0052B95
:10579C0040D1234C21460320FEF7FAFD042221467A
:1057AC000320FEF70DFE35E01E4C21460320FEF7CC
:1057BC00EFFD042221460320FEF702FE2AE01A4CDC
:1057CC0021460320FEF7E4FD042221460320FEF7C8
:1057DC00F7FD1FE0154C21460320FEF7D9FD0422EE
:1057EC0021460320FEF7ECFD14E0114C214603206A
:1057FC00FEF7CEFD042221460320FEF7E1FD09E071
:10580C000C4C21460320FEF7C3FD04222146032045
:10581C00FEF7D6FD10BD00BFD30A0020D40A00202D
:10582C0084A5010890A5010894A5010880A501088C
:10583C0088A501088CA501082DE9F04F83B004461A
:10584C008846174600260196B346B44A1578C5F328
:10585C00400905F00105042B14DCB14B1B78002B1F
:10586C0000F0AC81012B09D04FF0E00B4FF4BA7370
:10587C0001934FF01B0A4FF4DF76A2E14FF0250A9B
:10588C00F4269EE1B246102B11D0502B66D0302B53
:10589C0000F0A980402B00F0EB80602B00F02A81F7
:1058AC00702B00F055814FF0400AE02689E190B949
:1058BC009B4B1B78002B00F0C981012B07D04FF0BC
:1058CC00630BAD2301934FF01B0AF82679E14FF0DF
:1058DC00250AF42675E1012812D0022826D0904B17
:1058EC001B78002B00F0BF81012B32D04FF4AA7B28
:1058FC0040F2412301934FF4867A4FF4237660E112
:10590C00874B1B78002B00F0A581012B09D04FF0A1
:10591C00630B40F2412301934FF01B0A4FF42376A3
:10592C004FE14FF0250A40F276364AE17C4B1B786A
:10593C00002B00F09481012B07D04FF4AA7BAD23F0
:10594C0001934FF4867AF8263BE140F2911AF42643
:10595C0037E140F2911A40F2763632E1A0B9704B41
:10596C001B78002B00F08481012B09D04FF0630BC6
:10597C004FF4BA7301934FF01B0A4FF4DF7620E11A
:10598C004FF0250AF4261CE1012813D0022840F020
:10599C001881634B1B78002B00F07381012B1DD0F9
:1059AC004FF4AA7B40F2412301934FF4867A4FF4D3
:1059BC00237606E15A4B1B78002B00F05D81012BFE
:1059CC0007D04FF4AA7BAD2301934FF4867AF826C7
:1059DC00F7E04FF0250A40F27636F2E040F2911AE9
:1059EC0040F27636EDE090B94D4B1B78002B00F071
:1059FC004D81012B07D04FF0DF0BAD2301934FF0FE
:105A0C001B0AF826DDE04FF0250AF426D9E0012820
:105A1C0013D0022840F0D580414B1B78002B00F0AE
:105A2C003E81012B1FD04FF4AA7B40F241230193FE
:105A3C004FF4867A4FF42376C3E0394B1B78002B56
:105A4C0000F02881012B09D04FF0630B40F2412369
:105A5C0001934FF01B0A4FF42376B2E04FF0250A66
:105A6C0040F27636ADE040F2911A40F27636A8E07C
:105A7C00A8B92B4B1B78002B00F01681012B09D0F9
:105A8C004FF0DF0B40F2412301934FF01B0A4FF410
:105A9C00237696E04FF0250A40F2763691E0012805
:105AAC0011D0022840F08D801D4B1B78002B00F08C
:105ABC000481012B1AD04FF4AA7BAD2301934FF430
:105ACC00867AF8267DE0164B1B78002B00F0F180CF
