:020000040800F2
:10000000005000203D440108FD1F0008FF1F0008AC
:10001000012000080320000805200008000000005F
:1000200000000000000000000000000007200008A1
:1000300009200008000000000B2000080D20000827
:100040008544010885440108854401088544010868
:1000500085440108854401081520000885440108ED
:100060008544010885440108854401088544010848
:100070008544010885440108854401088544010838
:100080008544010885440108854401088544010828
:100090008544010885440108854401088544010818
:1000A0008544010885440108854401088544010808
:1000B0008544010821200008854401088544010881
:1000C00085440108854401088544010885440108E8
:1000D00085440108312000084120000885440108BA
:1000E000854401088544010885440108000000009A
:1000F0000000000000000000000000000000000000
:0C01000000000000000000005FF808F1A3
:10010C0010B5054C237833B9044B13B10448AFF345
:10011C0000800123237010BDFC09002000000000AA
:10012C000065010808B5034B1BB103490348AFF345
:10013C00008008BD00000000000A002000650108D6
:10014C002DE9F04188B00025049505950695079595
:10015C00414B9A6942F004029A619A6902F00402D6
:10016C000092009A9A6942F008029A619A6902F028
:10017C0008020192019A9A6942F010029A619A69F6
:10018C0002F010020292029A9A6942F020029A61DD
:10019C009B6903F020030393039B304F012213212F
:1001AC00384603F075FB40F2F313049301240594D5
:1001BC0006940226079604A9384603F07DFA0494A7
:1001CC00274B0593069507F5006704A9384603F0FD
:1001DC0073FA049405950694DFF88C8004A94046C4
:1001EC0003F06AFA4FF4704304930595069404A93E
:1001FC00404603F061FA40F601030493059406941B
:10020C00079604A9404603F057FA43F207330493C8
:10021C0005940694079604A9384603F04DFAC023BA
:10022C0004930595069404A9384603F045FA042373
:10023C00049305940694079604A90A4803F03CFA23
:10024C002A462946062003F095FB062003F0C6FB40
:10025C0008B0BDE8F08100BF00100240000801406A
:10026C000000211000140140000C014070B58AB050
:10027C000024089409940194029403940494059422
:10028C0006940794114D4FF080432B6008266E6046
:10029C00AC604FF47A63EB602C61AC61284602F0E1
:1002AC00DCF90894099408A9284602F035FB602370
:1002BC000193029403940594324601A9284602F056
:1002CC0017FA284601F0C0FF0AB070BDF80B0020E9
:1002DC0030B587B0002402940394049405940094E0
:1002EC0001940E4D0E4B2B6023236B60AC600923E5
:1002FC00EB602C618023AB61284602F095F94FF43A
:10030C008053029302A9284602F06BFA00940194E0
:10031C006946284602F000FB07B030BD3C0B0020BC
:10032C000004004008B50848084B03604FF4E13363
:10033C00436000238360C36003610C2242618361CC
:10034C00C36102F0E8FB08BDB00B0020003801408F
:10035C0008B50848084B03604FF4E13343600023B1
:10036C008360C36003610C2242618361C36102F04C
:10037C00D2FB08BD380C00200044004070B584B09E
:10038C0000250195029503950D4C0E4B2360A5603D
:10039C00257325754FF46023E361656001262661A2
:1003AC00204603F075FD0D2301930296039501A9D8
:1003BC00204603F0F3FB204601F002FF04B070BDB1
:1003CC00800B00200024014010B50138012809D809
:1003DC0014464FF47A7392B2074802F0CBFB40B14B
:1003EC00002010BD14F04AF8092303604FF0FF30D1
:1003FC00F7E72046F5E700BFB00B002000B583B04F
:10040C0002A901F8010D4FF6FF730122024802F018
:10041C00B1FB03B05DF804FB380C002008B50FF0FD
:10042C00DBFD4D2142F210700FF0E6FD3E214FF442
:10043C007A700FF0E1FD3A214FF47A700FF0DCFD89
:10044C0008BD0000F8B50446362848D8DFE810F09F
:10045C0037006600770089009B00AC00D300BB021C
:10046C00E2006A030806210722063C0657069A0694
:10047C00B606D106EC063C0706070701290149011F
:10048C0069018901D801F801190239025902E20205
:10049C00030323037A029A0256079103B103D10393
:1004AC00F10311043104520474049504B604FE04DF
:1004BC001F05400561058205A405C505E605B94B78
:1004CC0000221A7001255D70B74B1B78B74A137068
:1004DC00B74A1370B74814F083F8B74B1D70B14886
:1004EC000BF04CFD04F0CCFA3F200FF0BFFDE5B251
:1004FC00284612F063FD042C00F02187AF4B1B78CB
:10050C00052B00F02887032C40F32C873F214FF458
:10051C00FA700FF071FDAA4B1D70F8BDA14A0123B2
:10052C00137003215170A74A1278A0490A70A04990
:10053C004A70A14A1370A44814F052F8CFE7994BB3
:10054C0002221A7004225A70A04B1B78974A13701F
:10055C00974A9370984B01221A709D4814F040F8FA
:10056C00BDE7904B03221A7002225A70994B1B78EC
:10057C008E4A13708E4AD3708F4B01221A70964894
:10058C0014F02EF8ABE7874B04221A705A70934B79
:10059C001B78864A1370864AD370874B01221A70D7
:1005AC008F4814F01DF89AE77E4B10221A70012127
:1005BC00597003229A700422DA7002221A717A4B53
:1005CC001E787A4B1E707F4A15785D707F4A1078C2
:1005DC009870804A1278DA70754B1E705D70987046
:1005EC00DA70754B00221A705A709A70D9707D4867
:1005FC0013F0F6FF73E76B4B20221A7001225A702E
:10060C0003229A700422DA7002221A71764813F0CF
:10061C00E7FF64E7634B30221A7001215970032203
:10062C009A700422DA7000221A715F4B1F785F4BAC
:10063C001F70644806785E70644805789D70654844
:10064C000078D8705A4B1F705E709D70D8705A4BE2
:10065C0019705A709A70654813F0C2FF3FE7514BFE
:10066C0030221A7002225A7001229A700321D9701A
:10067C0004211971574B1D784C4B1D704A49087851
:10068C005870504909789970494B1D705870997081
:10069C00494B1A7000225A709A70554813F0A0FFFB
:1006AC001DE7404B30221A7001225A7003219970B9
:1006BC000421D9703C4B1D783C4B1D704149087886
:1006CC005870424909789970394B1D70587099705F
:1006DC00394B1A7000225A709A70444813F080FFFC
:1006EC00FDE6304B30221A7001225A7003219970AA
:1006FC000221D9702C4B1D782C4B1D703149087878
:10070C005870344909789970294B1D70587099703C
:10071C00294B0021197059709A70364813F060FFFC
:10072C00DDE6204B30221A7001225A700421997098
:10073C000221D9701C4B1D781C4B1D702349087865
:10074C005870244909789970194B1D70587099701C
:10075C00194B0021197059709A70274813F040FFFB
:10076C00BDE6104B30221A7003225A7001229A7087
:10077C000421D970134B1D780C4B1D700A49087855
:10078C005870124909789970094B1D7058709970FE
:10079C00094B1A7000225A709A70184813F020FFF7
:1007AC009DE600BF7C0C0020780C0020400A002045
:1007BC00780A00202C670108440A0020E40A002073
:1007CC00290A0020F40B0020406701083A0B002096
:1007DC0054670108390B002068670108F30B0020EF
:1007EC007C67010890670108A0670108B0670108E1
:1007FC00CC670108E8670108046801082068010853
:10080C00B54B30221A7003225A7001229A700221C1
:10081C00D970B24B1D78B24B1D70B2490878587024
:10082C00B14909789970B14B1D7058709970B04BE3
:10083C000021197059709A70AE4813F0D1FE4EE633
:10084C00A54B30221A7003225A7004229A7002228D
:10085C00DA70A44B1878A24B1870A74A117859700B
:10086C00A14A12789A70A14B187059709A70A04BCB
:10087C0000221A705A7001229A70A04813F0B0FE30
:10088C002DE6954B30221A7004225A7001229A7070
:10089C000321D970984B1D78914B1D7091490878A4
:1008AC0058708E4909789970904B1D7058709970DA
:1008BC008F4B1A7000225A709A70914813F090FE68
:1008CC000DE6854B30221A7004225A7001229A7060
:1008DC000221D970884B1D78814B1D708149087895
:1008EC005870814909789970804B1D7058709970B7
:1008FC007F4B0021197059709A70824813F070FE6A
:10090C00EDE5754B30221A7004225A7003229A704E
:10091C000222DA70784B1878714B18706F4A117884
:10092C005970714A12789A70704B187059709A708D
:10093C006F4B00221A705A7001229A70724813F091
:10094C004FFECCE5644B30221A7002225A70012201
:10095C009A700421D970644B1D78614B1D706149EC
:10096C0008785870644909789970604B1D705870FC
:10097C0099705F4B1A7000225A709A70634813F08A
:10098C002FFEACE5544B30221A7002225A7003220F
:10099C009A700422DA70544B1878514B18704F4AE5
:1009AC0011785970544A12789A70504B18705970CB
:1009BC009A704F4B01221A7000225A709A70544848
:1009CC0013F00EFE8BE5444B50221A700121597026
:1009DC0003229A700422DA7002221A71414B1D789C
:1009EC003F4B1D70444A12785A709A703E480078FA
:1009FC00D8703E4B1D70394D2D785D709A70D87043
:100A0C003B4B197000225A709A70DA70414813F0FF
:100A1C00E7FD64E5304B50221A7002225A70012116
:100A2C0099700322DA7000221A712F4B1E782C4B0E
:100A3C001E702C4805785D702848007898702B4BF8
:100A4C001E705D7098702A4B19705A709A703248EB
:100A5C0013F0C6FD43E5204B50221A7002225A7047
:100A6C0001229A700421D9701F4B1D781C4B1D70EC
:100A7C001C49087858702049097899701B4B1D70D7
:100A8C00587099701A4B1A7000225A709A70234839
:100A9C0013F0A6FD23E5104B50221A7002225A7057
:100AAC0003229A700422DA700F4B18780C4B1870D2
:100ABC000A4A11785970104A12789A700B4B1870B8
:100ACC0059709A700A4B01221A7000225A709A704F
:100ADC00134813F085FD02E57C0C0020F40B00207C
:100AEC00400A0020780C0020390B0020780A0020E6
:100AFC00440A00203C6801083A0B002058680108A1
:100B0C007468010890680108AC680108C86801089D
:100B1C00E4680108006901081C69010838690108CA
:100B2C0054690108B64B40221A7001225A700321F5
:100B3C0099700421D97002211971B24B1E78B24BF5
:100B4C001E70B2490D785D70B14908789870B14942
:100B5C000978D970B04B1E705D709870D970AF4B1E
:100B6C001A7000225A709A70DA70AD4813F038FD82
:100B7C00B5E4A34B40221A7002225A7001229A70DB
:100B8C000321D970A34B1D789F4B1D709D4908788C
:100B9C0058709E49097899709F4B1D7058709970C8
:100BAC009E4B1A7000225A709A709E4813F018FDD2
:100BBC0095E4934B40221A7001225A7003219970CC
:100BCC000421D9708F4B1D788F4B1D708F4908787D
:100BDC0058708F49097899708F4B1D7058709970A7
:100BEC008E4B1A7000225A709A708F4813F0F8FCD2
:100BFC0075E4834B40221A7001225A7003219970BC
:100C0C000221D9707F4B1D787F4B1D707F4908786E
:100C1C0058708049097899707F4B1D705870997085
:100C2C007E4B1A7000225A709A70804813F0D8FCD0
:100C3C0055E4734B40221A7001225A7004219970AA
:100C4C000221D9706F4B1D786F4B1D70704908785D
:100C5C0058707049097899706F4B1D705870997065
:100C6C006E4B1A7000225A709A70714813F0B8FCCF
:100C7C0035E4634B40221A7003225A7001229A7099
:100C8C000421D970614B1D785F4B1D705D4908784C
:100C9C0058705F49097899705F4B1D705870997046
:100CAC005E4B1A7000225A709A70624813F098FCCE
:100CBC0015E4534B40221A7003225A7001229A7089
:100CCC000221D970514B1D784F4B1D704D4908783E
:100CDC0058705049097899704F4B1D705870997025
:100CEC004E4B1A7000225A709A70534813F078FCCD
:100CFC00FFF7F5BB424B40221A7003225A700422B4
:100D0C009A700222DA70414B18783F4B1870404AA7
:100D1C00117859703F4A12789A703F4B187059707D
:100D2C009A703E4B01221A7000225A709A704348F6
:100D3C0013F056FCFFF7D3BB314B40221A70042240
:100D4C005A7001229A700321D970314B1D782E4BA9
:100D5C001D702C49087858702C49097899702E4BC5
:100D6C001D70587099702D4B1A7000225A709A7021
:100D7C00334813F035FCFFF7B2BB214B40221A70FD
:100D8C0004225A7001229A700221D970204B1D78CE
:100D9C001D4B1D701B49087858701E4909789970B5
:100DAC001D4B1D70587099701C4B1A7000225A7094
:100DBC009A70244813F014FCFFF791BB104B40229F
:100DCC001A7004225A7003229A700222DA70104BA5
:100DDC0018780D4B18700D4A117859700D4A12780D
:100DEC009A700D4B187059709A700C4B01221A7036
:100DFC0000225A709A70144813F0F2FBFFF76FBB85
:100E0C007C0C0020780C0020400A0020F40B002001
:100E1C003A0B0020390B0020780A0020440A0020ED
:100E2C0070690108806901089C690108B8690108AA
:100E3C00D4690108F06901080C6A0108286A0108E4
:100E4C00446A0108606A01087C6A0108B94B5022A7
:100E5C001A7001225A70032199700221D970B64B75
:100E6C001D78B64B1D70B64908785870B54909788D
:100E7C009970B54B1D7058709970B44B1A70002254
:100E8C005A709A70B24813F0ABFBFFF728BBA94B12
:100E9C0050221A7001225A70042199700221D970C3
:100EAC00A54B1D78A54B1D70AA4908785870A5490B
:100EBC0009789970A44B1D7058709970A34B1A70D7
:100ECC0000225A709A70A44813F08AFBFFF707BBF4
:100EDC00984B50221A7003225A7001229A700421E6
:100EEC00D970974B1D78954B1D70934908785870A5
:100EFC00984909789970944B1D7058709970934B60
:100F0C001A7000225A709A70944813F069FBFFF71C
:100F1C00E6BA884B50221A7003225A7001229A703A
:100F2C000221D970864B1D78844B1D70824908783C
:100F3C005870844909789970834B1D70587099705A
:100F4C00824B1A7000225A709A70854813F048FB35
:100F5C00FFF7C5BA774B50221A7003225A7004223D
:100F6C009A700222DA70764B1878744B1870794AA2
:100F7C0011785970734A12789A70734B18705970B3
:100F8C009A70724B01221A7000225A709A7075482E
:100F9C0013F026FBFFF7A3BA664B50221A700422FB
:100FAC005A7001229A700321D9706A4B1D78634BD9
:100FBC001D70614908785870614909789970624BC5
:100FCC001D7058709970614B1A7000225A709A708B
:100FDC00654813F005FBFFF782BA564B50221A7086
:100FEC0004225A7001229A700221D970594B1D7833
:100FFC00524B1D70504908785870524909789970B5
:10100C00514B1D7058709970504B1A7000225A70C9
:10101C009A70564813F0E4FAFFF761BA454B502228
:10102C001A7004225A7003229A700222DA70494B09
:10103C001878424B1870424A11785970414A12780C
:10104C009A70414B187059709A70404B01221A706B
:10105C0000225A709A70464813F0C2FAFFF73FBA52
:10106C00344B60221A7001225A7003219970324B52
:10107C001878324B1870324909785970324B187005
:10108C005970324B1A7000225A703A4813F0A8FA71
:10109C00FFF725BA274B60221A7001225A700221E1
:1010AC009970254B1878254B18702649097859707A
:1010BC00254B18705970254B002119705A702E4809
:1010CC0013F08EFAFFF70BBA1A4B60221A70022239
:1010DC005A7003229A701B4B1978184B1970184AC6
:1010EC0012785A70184B19705A70184B01221A70DA
:1010FC0000225A70214813F073FAFFF7F0B90D4B28
:10110C0060221A7002225A7004229A700D4B1978C0
:10111C000A4B19700F4A12785A700B4B19705A708F
:10112C000A4B01221A7000225A70154813F058FA13
:10113C00FFF7D5B97C0C0020780C0020400A002069
:10114C00F40B0020390B0020780A0020440A002000
:10115C00986A01083A0B0020B46A0108D06A0108A9
:10116C00EC6A0108086B0108246B0108406B01084C
:10117C005C6B0108786B0108906B0108A86B010887
:10118C00C06B01087A4B60221A7003225A7001223C
:10119C009A70784B1978784B197078480078587099
:1011AC00774B1970774909785970774B1A70002270
:1011BC005A70764813F014FAFFF791B96C4B602211
:1011CC001A7003225A7004229A706A4B19786A4B6F
:1011DC0019706F4A12785A70694B19705A706A4BB1
:1011EC0001221A7000225A706A4813F0F9F9FFF7BD
:1011FC0076B95F4B60221A7003225A7002229A70E1
:10120C005C4B19785C4B19705E4A12785A705C4BC7
:10121C0019705A705C4B00221A7001225A705E4889
:10122C0013F0DEF9FFF75BB9514B60221A70012203
:10123C005A7004219970514B18784F4B18705449BF
:10124C00097859704E4B187059704F4B1A70002218
:10125C005A70524813F0C4F9FFF741B9444B60225D
:10126C001A7004225A7003229A70494B1978424B17
:10127C001970404A12785A70414B19705A70424B8F
:10128C0001221A7000225A70454813F0A9F9FFF791
:10129C0026B9374B60221A7004225A7002229A70B7
:1012AC003B4B1978344B1970364A12785A70344BC0
:1012BC0019705A70344B00221A7001225A70394836
:1012CC0013F08EF9FFF70BB9294B60221A70042228
:1012DC005A7001229A702E4B1878274B1870274998
:1012EC0009785970264B18705970274B1A700022C8
:1012FC005A702D4813F074F9FFF7F1B81C4B70229B
:10130C001A7001225A70032199700421D9701B4B59
:10131C001D78194B1D701749087858701C490978AD
:10132C009970174B1D7058709970174B1A700022DA
:10133C005A70DA701D4813F053F9FFF7D0B81C4BF4
:10134C001B78002B7FF4DAA83F214FF4FA600EF0E3
:10135C0053FEFFF7E0B83F2140F6B8300EF04CFEDC
:10136C00FFF7D9B83F2164200EF046FEFFF7D3B843
:10137C007C0C0020F40B0020400A0020780C00208C
:10138C00780A0020390B0020440A0020D86B010891
:10139C003A0B0020F06B0108086C0108206C010866
:1013AC00386C0108506C0108686C0108806C0108ED
:1013BC00E30A002038B50FF0BFFA0446014618487E
:1013CC000EF056FD0FF0B8FA03280AD10FF0B4FA5C
:1013DC0003281BD1032C13D1214612480EF048FDD3
:1013EC0038BD114D032128460EF042FD03200FF0AD
:1013FC00C9FA0FF0A1FA014628460EF039FDE5E7CF
:10140C000FF09EFC09480EF033FDE5E708480EF09E
:10141C002FFD08480EF02CFD074BFF221A70DFE75A
:10142C00786601080067010888660108986601085B
:10143C00D4660108F0660108F20B002010B50128F3
:10144C0026D02B480EF014FD2A4C01224FF40051EB
:10145C00204602F01DFA00224FF40061264802F0EB
:10146C0017FA192002F0C2FD01220421204602F0D5
:10147C000FFA192002F0BAFD002280211F4802F059
:10148C0007FA1F4B1B787BB31E4B01221A7010BD41
:10149C001D480EF0EDFC174C01224FF40051204674
:1014AC0002F0F6F900224FF40061134802F0F0F953
:1014BC00322002F09BFD642002F098FD01220421F1
:1014CC00204602F0E5F9322002F090FDA4F500640C
:1014DC0001224FF48071204602F0DAF900228021BB
:1014EC00204602F0D5F9CCE7002011F059FDCBE7EE
:1014FC00F465010800100140000C01400008014097
:10150C0000000020380A0020E465010810B51448DA
:10151C000EF0AEFC134C00224FF48071204602F00A
:10152C00B7F901228021204602F0B2F904F50064DB
:10153C0000224FF40051204602F0AAF901224FF488
:10154C000061094802F0A4F900220421204602F0AF
:10155C009FF9012011F024FD044B00221A7010BDDC
:10156C00D465010800080140000C0140380A002035
:10157C0008B50021322002F063FD08BD08B501203A
:10158C0011F00EFD00224FF48071034802F080F937
:10159C00FFF7EEFF08BD00BF0008014008B5802131
:1015AC00322002F04DFD08BD08B501224FF48071C8
:1015BC00044802F06DF9044B1B7803B108BDFFF72A
:1015CC00EDFFFBE7000801400000002010B5084CBF
:1015DC0000224021204602F05BF900222021204607
:1015EC0002F056F901221021204602F051F910BDEB
:1015FC000008014010B588B06023019302900023CD
:10160C0003930593054C082201A9204601F070F8BC
:10161C000821204601F062F908B010BDF80B00203B
:10162C0008B5632812D9A0F16403DBB2272B24D9A7
:10163C0000F17403DBB2272B21D900F14C03DBB290
:10164C00272B1ED9DB281ED8002200E00F22164BB8
:10165C001B78012B1FD1154B1B78934215D9013BDD
:10166C00124A1370124B00221A70104B1878C0EBF0
:10167C00001080B2FFF7BEFF08BD3C22E7E7502206
:10168C00E5E76422E3E77322E1E79342EAD2013310
:10169C00064A1370E6E7054BFF221A70054B1888B3
:1016AC00FFF7A8FFE8E700BF2A0A0020020000208D
:1016BC00180A00201400002010B5AB2002F0CCFC5E
:1016CC00494B1870B02002F0C7FC484B1870AC2086
:1016DC0002F0C2FC464B1870A32002F0BDFC454B37
:1016EC001870AA2002F0B8FC434B1870AD2002F021
:1016FC00B3FC424B1870A02002F0AEFC404B1870AB
:10170C00AF2002F0A9FC3F4B1870202002F0A4FC83
:10171C003D4B18700FF026FB3C4B1870A52002F0C7
:10172C009BFC3B4B1870A62002F096FC394B1870B2
:10173C00A72002F091FC384B1870A82002F08CFC0A
:10174C00364B1870192002F087FC354B1870BF20EF
:10175C0002F082FC334B1870202002F07DFC324BDF
:10176C001870212002F078FC304B1870222002F007
:10177C0073FC2F4B1870232002F06EFC2D4B18704D
:10178C00252002F069FC2C4C2070242002F064FC13
:10179C002A4B18702178622003F050F8284B1860FF
:1017AC00C92002F059FC274C2070CC2002F054FCCC
:1017BC006070CF2002F050FCA070D22002F04CFCE4
:1017CC00E070D82002F048FC1F4C2070D92002F0A9
:1017DC0043FC6070DA2002F03FFCA070DB2002F0CA
:1017EC003BFCE07010BD00BF03000020F10B00209B
:1017FC00CD0A0020CA0A0020860C0020380B0020DD
:10180C002A0A0020780E0020F00B00206F0900201F
:10181C00780C0020F40B00203A0B0020390B002030
:10182C00F30B0020520A00201000002007000020BB
:10183C00080000207C0B00200A0000200B00002078
:10184C000C0000206C0D0020800A002010B5304BDD
:10185C001B7843B12F480EF00BFB00232E4A13705C
:10186C002E4A13703AE02F200EF05AFCFFF74EFE72
:10187C0005F042FA11200EF0F9FBEBE7AB2002F079
:10188C00EFFB2D200EF04CFC05F0E8F9244B1B78F7
:10189C00012B35D00F200EF0E9FB0F214FF4FA602D
:1018AC000EF0AAFB4A200EF0E1FB4A214FF4FA702D
:1018BC000EF0A2FB11214FF4FA700EF09DFB0023E9
:1018CC00184A1370184A137018480EF0D1FA10BD4C
:1018DC0011F0B4F80FF00CF80BF066FA10F050F8A9
:1018EC00134B19780129C9D010F0D6FD04460028F5
:1018FC00EED02D200EF014FC204611F09FF8E9E7F5
:10190C00034B1B78002BC5D103F0CCFEC2E700BF04
:10191C00E30A002004660108490A0020560A002048
:10192C00780E0020550A0020530A00201466010886
:10193C000300002008B501E00DF0BEFC0DF0DCF951
:10194C000028F9D1214B1B68012B24D0204B1B788C
:10195C001BB91E4B1B68012B20D01C4B1B68012B89
:10196C001FD01A4B1B68012B22D0184B1B68012B64
:10197C00E4D110F005F838B3164B1B78012B20D0AE
:10198C00154B1B78012BD9D10021144B1970AB20AE
:10199C0002F066FB18E00EF0ABFFD7E70BF004FA91
:1019AC00DBE70F4B1B78002BDBD10CF03BFED8E7B1
:1019BC0010F072FD0B4B1B78002BD6D111F03EF8BA
:1019CC00D3E7064B00221A7008BD00BFFC070020AD
:1019DC00970A0020550A0020530A0020030000201B
:1019EC00E00A00200000002070B590B020220021F9
:1019FC0007A812F078FD0024019402940394049437
:101A0C0005940225069501260A9610230B930D9535
:101A1C004FF4E0130F9306A801F0B4FA0F230193CF
:101A2C000295039404940594314601A801F0ECFC52
:101A3C0010B070BD70B501F057FAFFF7D5FFFEF787
:101A4C00EDFCFEF77DFBFFF761FD2D200EF068FB32
:101A5C00FEF70CFCFEF73CFCFEF764FCFEF778FC92
:101A6C00FEF78CFC13F0F6FD13F070FF14F072F916
:101A7C0014F000FC012011F093FAB02002F0ECFA03
:101A8C004D4B187011F0F6FAFFF7A0FD0FF06AF944
:101A9C004A4B1870002002F041FB494B18600120A2
:101AAC0011F0D0FD0020FFF7C9FC322002F09EFAA5
:101ABC0001224449444801F0CDF8444C0022102145
:101ACC00204601F0E5FE00221021204601F0E0FE48
:101ADC0000220121204601F0DBFE642002F086FA90
:101AEC0001221021204601F0D3FE012210212046B4
:101AFC0001F0CEFE01221146204601F0C9FE344A07
:101B0C003449354812F0F8FC002002F079FA01460D
:101B1C00324812F0F1FC3249252006F0FDFCFFF7AB
:101B2C0049FCFFF7C9FD0021322002F089FA01249B
:101B3C002C4B1C705A21204602F06CFA2A4B0422C2
:101B4C005A711C720325DD7110221A7002269E71C7
:101B5C0000200AF0ABF920460AF0A8F930460AF04A
:101B6C00A5F928460AF0A2F902F044FF10F07AFA1F
:101B7C000CF050FB1D4800F04AFC4FF4FA700EF0CC
:101B8C00B3F902F081FE80B2FFF734FDFFF706FDDA
:101B9C00174B1B78A34207D110F07EFC20B9FFF73E
:101BAC0003FD01E0FFF752FE114B1B78012BF9D11D
:101BBC00FFF7C0FEF6E700BFF10B00206F09002015
:101BCC00200A0020500A0020B00B00200008014021
:101BDC0024660108306601083C660108606601084D
:101BEC0014E00108790C00207C0C00203C0B002038
:101BFC000300002002689E4B9A4200D0704730B41C
:101C0C009C4A13780133DBB213709B4A1168013183
:101C1C0011609A48026801320260632B09D9984816
:101C2C00036801330360934B00201870954B01201F
:101C3C001860954B1868013018601868934B9842DF
:101C4C0006D9914B00201860914B1B78012B20D0AA
:101C5C00904B9B68DB43C3F381338F48C4789C4221
:101C6C0008D045780570857845708470C3708B4BAF
:101C7C00012018608A4B1B78DBB2012B0FD0B1F519
:101C8C007A7F00F08A80B2F57A7F00F0318130BC27
:101C9C007047844803780133DBB20370D8E7824B7A
:101CAC001878C0B2814B1B78DBB2984223D07E4BA4
:101CBC001B78DBB2212B15D87D4B1B78DBB2012BAB
:101CCC0053D07C4B1B889BB240F2E240834209D933
:101CDC00784B1B889BB240F2A950834202D8744BBC
:101CEC0001201870734B00201880704B1B78DBB2EE
:101CFC006D480370C3E76F48038801339BB20380C0
:101D0C0003889BB243F698208342B8D96A4B1B7860
:101D1C00DBB21F2B09D9694B1B689BB26848038047
:101D2C0003889BB2B3F57F4F0FD00023624803703A
:101D3C00604803805C4803705C480370584803702B
:101D4C005E4803605A48037099E75C480368C3F324
:101D5C0007435C4C237003686FEA1363DBB25A4889
:101D6C0003705A4B01201870DFE7524B1B889BB253
:101D7C005A2BA6D9514803685B0803604D4B1B884E
:101D8C009BB2A02B03D9036843F0004303604A487D
:101D9C0003780133DBB2037093E7374B00211960F2
:101DAC004B4B9968C94301F0C001A3F580639B6854
:101DBC00DB431B0A03F030030B4338D045490B6857
:101DCC0001330B60444B1B78032B06D0642B19D0CA
:101DDC0041490B7801330B7055E73D4B9B68DB4356
:101DEC0003F0C0032B498968C943090A01F030018B
:101DFC000B433A490B703A4B00211960394B0121C6
:101E0C001960E5E7324B9B68DB4303F0C0032149C3
:101E1C008968C943090A01F030010B432F490B7043
:101E2C00304B012119602C4B0A211970D0E72E4B35
:101E3C001B78012B09D0032B15D0002326490B70DE
:101E4C0026490B7023490B601DE7224909680029BC
:101E5C00F1D05629EFD8254909780129EBD1224B2D
:101E6C0002211970E9E7204B00211970E5E700BF4A
:101E7C0000040040B40A0020B80A0020BC0A00206C
:101E8C00A80A0020A40A00205C0A0020A0860100F9
:101E9C0001000020000C0140E80A0020900E0020F8
:101EAC00310A00203C0A0020480A0020320A002097
:101EBC00370A0020340A0020360A00202C0A0020A1
:101ECC00620A0020650A0020640A0020300A002003
:101EDC0000100140B00A0020580A00208B0E002090
:101EEC00840E0020740E0020490A002003000020FC
:101EFC000F4B00221A600F4B1B789BB10E4A1278C5
:101F0C00032A06D0962A07D00B4A13780133137094
:101F1C00BDE60A4A1370F7E7084A1370064B042211
:101F2C001A70F1E70023044A1370044A1370AEE6EA
:101F3C00BC0A0020EC0A0020600A0020790E002068
:101F4C0010B504460268184B9A4204D02268174B0D
:101F5C009A4214D010BD16490A78531CDBB20B7090
:101F6C0014490878144988541D2B02D9104B0022AF
:101F7C001A7001220F49114800F06CFEE6E7104977
:101F8C000A78531CDBB20B700E4908780E49885442
:101F9C001D2B02D90A4B00221A70012209490B4849
:101FAC0000F058FED6E700BF003801400044004066
:101FBC00990A0020500A0020B00D0020B00B002020
:101FCC00980A00204C0A0020F00D0020380C00204C
:101FDC00012800D07047044B01221A70034A137871
:101FEC000133DBB21370F5E7310A0020320A00200E
:101FFC007047FEE7FEE7FEE7FEE770477047704765
:10200C0008B500F083FF08BD08B5012001F046FCBF
:10201C0008BD000008B5024800F00EFA08BD00BF6C
:10202C003C0B002008B5024800F0A0FE08BD00BF24
:10203C00B00B002008B5024800F098FE08BD00BFA8
:10204C00380C002082B00E4B9A6942F001029A6162
:10205C009A6902F001020092009ADA6942F0805209
:10206C00DA61DB6903F080530193019B054A5368E5
:10207C0023F0E06343F00073536002B0704700BF7D
:10208C00001002400000014002680E4B9A4200D042
:10209C00704700B583B003F50333DA6942F00202EE
:1020AC00DA61DB6903F002030193019B0022114604
:1020BC001D2001F05FFC1D2001F090FC03B05DF8C9
:1020CC0004FB00BF0004004070B588B00446002338
:1020DC0004930593069307930268364B9A4205D0F6
:1020EC002268354B9A4234D008B070BD03F5584382
:1020FC009A6942F480429A619A6902F48042009291
:10210C00009A9A6942F004029A619B6903F00403F5
:10211C000193019B4FF40073049302230593032353
:10212C000793264E04A9304601F0C6FA4FF480639B
:10213C00049300250595069504A9304601F0BCFAD8
:10214C002A462946252001F015FC252001F046FCE5
:10215C00C6E703F5E633DA6942F40032DA61DA698C
:10216C0002F400320292029A9A6942F004029A61D5
:10217C009B6903F004030393039B0423049302233E
:10218C000593032307930D4D04A9284601F094FAF7
:10219C000823049300240594069404A9284601F00E
:1021AC008BFA22462146262001F0E4FB262001F082
:1021BC0015FC99E70038014000440040000801403C
:1021CC0000B587B000230293039304930593026830
:1021DC00114B9A4202D007B05DF804FB03F56C4337
:1021EC009A6942F400729A619A6902F40072009240
:1021FC00009A9A6942F010029A619B6903F01003ED
:10220C000193019B082302930323039302A9034820
:10221C0001F052FADFE700BF00240140001001403A
:10222C000368B3F1804F00D0704782B003F50433DC
:10223C00DA6942F00102DA61DB6903F00103019310
:10224C00019B02B07047000000B587B000230293D9
:10225C000393049305930368B3F1804F02D007B046
:10226C005DF804FB03F504339A6942F008029A61A5
:10227C009B6903F008030193019B4FF48063029365
:10228C0002230393059302A9064801F015FA064AA6
:10229C00536823F4407343F0E06343F400735360DA
:1022AC00DDE700BF000C01400000014070B4036A80
:1022BC0023F001030362036A4268846924F0730407
:1022CC000D6845EA040623F002048B6823430D4D88
:1022DC00A84209D00B4DA8420DD0426086614A68D5
:1022EC004263036270BC704723F00803CC6823433D
:1022FC0023F00403EEE722F440724C6914438A691C
:10230C002243EAE7002C014030B4036A23F48073C3
:10231C000362036A4268C46924F073040D682C4399
:10232C0023F400738D6843EA05230F4DA84209D0AE
:10233C000D4DA8420ED04260C4614A68C26303626C
:10234C0030BC704723F40063CD6843EA052323F4C3
:10235C008063EDE722F440524D6942EA05128D6923
:10236C0042EA0512E7E700BF002C014030B4036AD3
:10237C0023F480530362036A4468C26922F4E64280
:10238C000D6842EA052223F400538D6843EA0533B5
:10239C00074DA84206D04460C2614A6802640362D9
:1023AC0030BC704724F480444D6944EA8514F2E74C
:1023BC00002C014010B4036A046A24F00104046286
:1023CC00846924F0F00444EA021223F00A030B435C
:1023DC008261036210BC704710B4036A23F01003CF
:1023EC0003628469036A24F4704444EA023223F0E1
:1023FC00A00343EA01138261036210BC7047836837
:10240C0023F07003194341F00701816070470268A3
:10241C00D36843F00103D3600268936803F00703A9
:10242C00062B03D0136843F00103136000207047A0
:10243C00704770477047704710B5044603681A69B7
:10244C0012F0020F11D0DA6812F0020F0DD06FF0FB
:10245C0002021A610123037703689B6913F0030FCF
:10246C0070D0FFF7E6FF0023237723681A6912F078
:10247C00040F12D0DA6812F0040F0ED06FF00402C1
:10248C001A610223237723689B6913F4407F5FD082
:10249C002046FFF7CEFF0023237723681A6912F03A
:1024AC00080F12D0DA6812F0080F0ED06FF0080285
:1024BC001A61042323772368DB6913F0030F4ED0D2
:1024CC002046FFF7B6FF0023237723681A6912F022
:1024DC00100F12D0DA6812F0100F0ED06FF010023D
:1024EC001A61082323772368DB6913F4407F3DD0FE
:1024FC002046FFF79EFF0023237723681A6912F00A
:10250C00010F03D0DA6812F0010F36D123681A6973
:10251C0012F0800F03D0DA6812F0800F34D12368E8
:10252C001A6912F0400F03D0DA6812F0400F32D162
:10253C0023681A6912F0200F03D0DA6812F0200F0A
:10254C0030D110BDFFF774FF2046FFF773FF8AE709
:10255C002046FFF76DFF2046FFF76CFF9BE72046F8
:10256C00FFF766FF2046FFF765FFACE72046FFF755
:10257C005FFF2046FFF75EFFBDE76FF001021A61B7
:10258C002046FFF737FBC1E76FF080021A61204647
:10259C0000F0E6F9C3E76FF040021A612046FFF73E
:1025AC004AFFC5E76FF020021A61204600F0D7F908
:1025BC00C7E7000003681B4A90420AD0B0F1804F75
:1025CC0007D0A2F59432904203D002F5806290427B
:1025DC0003D123F070034A681343124A90420AD085
:1025EC00B0F1804F07D0A2F59432904203D002F59F
:1025FC008062904203D123F44073CA68134323F0E2
:10260C0080034A69134303608B68C3620B6883625F
:10261C00044B984202D00123436170470B6903635A
:10262C00F9E700BF002C0140A8B110B5044690F8A2
:10263C003D305BB1022384F83D30211D2068FFF74B
:10264C00B9FF012384F83D30002010BD80F83C30E8
:10265C00FFF71AFDEEE701207047A8B110B504464C
:10266C0090F83D305BB1022384F83D30211D206889
:10267C00FFF7A0FF012384F83D30002010BD80F847
:10268C003C30FFF7CDFDEEE70120704730B4036A14
:10269C0023F010030362036A4468826922F4E64261
:1026AC000D6842EA052223F020038D6843EA0513E6
:1026BC000E4DA84209D00D4DA8420ED04460826147
:1026CC004A688263036230BC704723F08003CD6894
:1026DC0043EA051323F04003EDE724F440644D690D
:1026EC0044EA85048D6944EA8504E7E7002C01403F
:1026FC0038B590F83C30012B66D00D4604460123CA
:10270C0080F83C30022380F83D300C2A1AD8DFE8E0
:10271C0002F0071919192019191934191919470038
:10272C000068FFF7C3FD2268936943F008039361C7
:10273C002268936923F004039361226893692969E1
:10274C000B439361012384F83D30002084F83C0056
:10275C0038BD0068FFF79AFF2268936943F4006361
:10276C0093612268936923F480639361226893696F
:10277C00296943EA01239361E4E70068FFF7C4FD8C
:10278C002268D36943F00803D3612268D36923F02C
:10279C000403D3612268D36929690B43D361D1E760
:1027AC000068FFF7E3FD2268D36943F40063D3614B
:1027BC002268D36923F48063D3612268D3692969C1
:1027CC0043EA0123D361BDE70220C1E710B484685A
:1027DC0024F47F4442EA03230B432343836010BC5D
:1027EC00704790F83C30012B66D010B5044601239D
:1027FC0080F83C30022380F83D300268936823F463
:10280C007F4323F0770393600B68402B4AD013D996
:10281C00602B3DD01ED9702B28D0B3F5005F30D182
:10282C00CB684A6889680068FFF7D0FF2268936814
:10283C0043F48043936024E0102B06D004D9202B62
:10284C0003D0302B01D01CE0DBB919462068FFF710
:10285C00D6FD16E0502B14D1CA6849680068FFF702
:10286C00A9FD50212068FFF7CAFD0AE0CB684A6831
:10287C0089680068FFF7AAFF2268936843F0770322
:10288C009360012384F83D30002084F83C0010BD97
:10289C00CA6849680068FFF79FFD60212068FFF750
:1028AC00AEFDEEE7CA6849680068FFF783FD40217A
:1028BC002068FFF7A4FDE4E70220704710B401F094
:1028CC001F01012303FA01F4036A23EA04030362E0
:1028DC00036A8A401343036210BC704710B5044668
:1028EC0001220068FFF7EAFF23680A4A93420BD0E3
:1028FC002268936803F00703062B03D0136843F098
:10290C0001031360002010BD5A6C42F400425A645B
:10291C00EEE700BF002C014090F83C30012B1CD09E
:10292C0070B4012680F83C60022380F83D300268C8
:10293C005568936825F070050C682C4323F08005CE
:10294C004B682B4354600268936080F83D60002311
:10295C0080F83C30184670BC7047022070477047B6
:10296C0070470268D36823F49073D360026853698C
:10297C0023F001035361202380F83A30704790F81C
:10298C003930DBB2212B2AD18368B3F5805F16D0A6
:10299C00036A5A1C02621A7803685A60C38C013BA2
:1029AC009BB2C384EBB90268D36823F08003D36075
:1029BC000268D36843F04003D36000207047036A79
:1029CC001B880268C3F30803536003691BB9036ACD
:1029DC0002330362E2E7036A01330362DEE702209B
:1029EC00704700207047000038B504460268136930
:1029FC0023F44053C1680B4313618368026913438A
:102A0C0042691A430168CB6823F4B05323F00C03DA
:102A1C001343CB600268536923F4407381690B4301
:102A2C0053610268214B9A421FD000F0A7FD00EBC6
:102A3C00800000EB800063689B00B0FBF3F01C4D42
:102A4C00A5FB00325109642202FB1102130132333F
:102A5C00A5FB03235B0903F0F00202EB011203F068
:102A6C000F03216813448B6038BD00F097FD00EB19
:102A7C00800000EB800063689B00B0FBF3F00C4D12
:102A8C00A5FB00325109642202FB110213013233FF
:102A9C00A5FB03235B0903F0F00202EB011203F028
:102AAC000F03216813448B60DEE700BF0038014040
:102ABC001F85EB512DE9F04105460F461646984609
:102ACC00069C2B681B6837EA03030CBF0123002309
:102ADC00B3421DD1B4F1FF3FF3D02CB100F022FA78
:102AEC00A0EB0800A042ECD92A68D36823F4D07379
:102AFC00D3602A68536923F001035361202385F8BE
:102B0C00393085F83A30002385F83830032000E05E
:102B1C000020BDE8F08158B310B5044690F8393068
:102B2C000BB3242384F839302268D36823F4005380
:102B3C00D3602046FFF758FF2268136923F49043B3
:102B4C0013612268536923F02A0353612268D36806
:102B5C0043F40053D3600020E063202384F8393021
:102B6C0084F83A3010BD80F83830FFF7ADFAD8E76A
:102B7C00012070472DE9F04182B01E4690F83930A3
:102B8C00DBB2202B55D104460D469046002955D07A
:102B9C00002A55D090F83830012B53D0012380F8FF
:102BAC0038300023C363212380F8393000F0BAF9A0
:102BBC000746A4F82480A4F8268010E000963B4633
:102BCC00002280212046FFF775FF00283CD12B887E
:102BDC002268C3F3080353602369C3B90235E38C3D
:102BEC009BB2B3B1E38C013B9BB2E384A368B3F516
:102BFC00805FE3D000963B46002280212046FFF701
:102C0C0059FF18BB2A7823685A600135E7E701356C
:102C1C00E5E700963B46002240212046FFF74AFF9D
:102C2C000346A8B9202284F83920002284F83820E1
:102C3C0000E00223184602B0BDE8F0810123F9E759
:102C4C000123F7E70223F5E70323F3E70323F1E777
:102C5C000323EFE790F83A30DBB2202B20D109B3F5
:102C6C0012B390F83830012B20D081628285C28556
:102C7C000023C363222280F83A2080F838300168A0
:102C8C00CA6842F48072CA6001684A6942F0010263
:102C9C004A610168CA6842F02002CA60184670474F
:102CAC0002207047012070470120704702207047B6
:102CBC00704708B50168CB6823F04003CB60202334
:102CCC0080F83930FFF7F4FF002008BD08B590F804
:102CDC003A30DBB2222B45D18368B3F5805F0ED03E
:102CEC00036903BB03685A68836A591C81621A70B2
:102CFC00C38D013B9BB2C385F3B1002033E0826AE4
:102D0C00036943B903685B68C3F308031380836AE0
:102D1C0002338362ECE703685B68DBB21380836A7F
:102D2C0001338362E4E703685B68826A511C816249
:102D3C0003F07F031370DBE70268D36823F02003F2
:102D4C00D3600268D36823F48073D360026853693C
:102D5C0023F001035361202380F83A30FFF7F0F899
:102D6C00002000E0022008BD7047000010B50446AA
:102D7C0002681368D168526913F00F0005D113F083
:102D8C00200F02D011F0200F53D1002867D012F081
:102D9C00010202D111F4907F61D013F0010F06D023
:102DAC0011F4807F03D0E06B40F00100E06313F07E
:102DBC00040F04D01AB1E06B40F00200E06313F092
:102DCC00020F04D01AB1E06B40F00400E06313F082
:102DDC00080F04D01AB1E26B42F00802E263E26B16
:102DEC00002A48D013F0200F02D011F0200F24D16C
:102DFC0023685B6903F04003E26B12F0080F00D10B
:102E0C003BB32046FFF7ADFD23685A6912F0400F23
:102E1C001BD05A6922F040025A61636B8BB11A4A7B
:102E2C005A63606B00F048FD28B3606B436B9847A6
:102E3C0021E02046FFF74AFF1DE02046FFF746FF42
:102E4C00D6E72046FFF790FF15E02046FFF78CFFF2
:102E5C0011E02046FFF788FF0023E3630BE013F03B
:102E6C00800F02D011F0800F06D113F0400F02D06A
:102E7C0011F0400F04D110BD2046FFF780FDFAE79A
:102E8C002046FFF716FFF6E7992E000808B5406AB2
:102E9C000023C385C384FFF767FF08BD10B5044644
:102EAC000E4B18784FF47A73B3FBF0F30C4A10689E
:102EBC00B0FBF3F000F0A0FD68B90F2C01D9012094
:102ECC000AE0002221464FF0FF3000F053FD054B85
:102EDC001C60002000E0012010BD00BF1800002085
:102EEC00200000201C00002008B5074A136843F09E
:102EFC0010031360032000F02BFD0020FFF7CEFF22
:102F0C00FFF7A0F8002008BD00200240034A11681A
:102F1C00034B1B780B441360704700BF880C0020D8
:102F2C0018000020014B1868704700BF880C002067
:102F3C0038B50446FFF7F6FF0546B4F1FF3F02D063
:102F4C00044B1B781C44FFF7EDFF401BA042FAD347
:102F5C0038BD00BF1800002082B0084B1B68084A1F
:102F6C00A2FB03235B0A00FB03F0019000BF019B53
:102F7C005A1E0192002BF9D102B07047200000209C
:102F8C00D34D6210002800F0F78170B582B0044672
:102F9C00036813F0010F2CD0AC4B5B6803F00C03EF
:102FAC00042B1DD0A94B5B6803F00C03082B12D02B
:102FBC006368B3F5803F41D0002B56D103F18043B9
:102FCC0003F504331A6822F480321A601A6822F46A
:102FDC0080221A6037E09D4B5B6813F4803FE7D08A
:102FEC009A4B1B6813F4003F03D06368002B00F06E
:102FFC00C581236813F0020F78D0944B5B6813F0F3
:10300C000C0F61D0914B5B6803F00C03082B56D06E
:10301C002369002B00F08C808D4B01221A60FFF786
:10302C0081FF0546894B1B6813F0020F77D1FFF720
:10303C0079FF401B0228F5D90320A2E1834A1368CB
:10304C0043F48033136063684BB3FFF76BFF0546A3
:10305C007E4B1B6813F4003FCBD1FFF763FF401B83
:10306C00B0F5803FF4D303208BE1B3F5A02F09D04A
:10307C00764B1A6822F480321A601A6822F4802285
:10308C001A60E0E703F18043A3F53C331A6842F47D
:10309C0080221A601A6842F480321A60D3E7FFF774
:1030AC0041FF0546694B1B6813F4003FA1D0FFF7A5
:1030BC0039FF401BB0F5803FF4D3032061E1634B33
:1030CC005B6813F4803FA3D1604B1B6813F0020FB5
:1030DC0004D02369012B01D0012052E15B4A136813
:1030EC0023F0F803616943EAC1031360236813F00A
:1030FC00080F32D0A369002B5BD0564B01221A600B
:10310C00FFF710FF0546514B5B6A13F0020F21D1FC
:10311C00FFF708FF401B0228F5D9032031E14B4A89
:10312C00136823F0F803616943EAC1031360DDE718
:10313C00474B00221A60FFF7F5FE0546434B1B6810
:10314C0013F0020FD2D0FFF7EDFE401B0228F5D989
:10315C00032016E10120FFF7FFFE236813F0040F94
:10316C0000F09880394BDB6913F0805F33D1374B1B
:10317C00DA6942F08052DA61DB6903F08053019323
:10318C00019B0125344B1B6813F4807F25D0E36829
:10319C00012B36D0002B4CD103F1804303F50433C3
:1031AC001A6A22F001021A621A6A22F004021A62E6
:1031BC002CE0284B00221A60FFF7B4FE0546234B87
:1031CC005B6A13F0020FC8D0FFF7ACFE401B02285D
:1031DC00F5D90320D5E00025D4E71F4A136843F442
:1031EC0080731360FFF79EFE06461B4B1B6813F49F
:1031FC00807FCCD1FFF796FE801B6428F5D9032085
:10320C00BFE0124A136A43F001031362E3687BB315
:10321C00FFF788FE06460D4B1B6A13F0020F38D1E0
:10322C00FFF780FE801B41F288339842F3D90320CC
:10323C00A7E0052B12D0054B1A6A22F001021A6284
:10324C001A6A22F004021A62E0E700BF0010024082
:10325C000000424280044242007000404C4B1A6A0B
:10326C0042F004021A621A6A42F001021A62CDE7B5
:10327C00FFF758FE0646464B1B6A13F0020F08D0A8
:10328C00FFF750FE801B41F288339842F3D903209C
:10329C0077E0E5B9E369002B72D03D4A526802F041
:1032AC000C02082A56D0022B17D03A4B00221A6077
:1032BC00FFF738FE0446364B1B6813F0007F47D0EF
:1032CC00FFF730FE001B0228F5D9032059E0304AE5
:1032DC00D36923F08053D361DCE72E4B00221A60B4
:1032EC00FFF720FE05462A4B1B6813F0007F06D023
:1032FC00FFF718FE401B0228F5D9032041E0236A92
:10330C00B3F5803F1AD022494B6823F47413226A18
:10331C00606A024313434B601E4B01221A60FFF795
:10332C0001FE04461A4B1B6813F0007F0ED1FFF709
:10333C00F9FD001B0228F5D9032022E0144A53683A
:10334C0023F40033A1680B435360DCE7002018E042
:10335C00002016E0012B16D00D4B5B6803F4803176
:10336C00226A914201D001200BE003F47013626ACF
:10337C0093420AD0012004E001207047012000E0B4
:10338C00002002B070BD0120FBE70020F9E700BF70
:10339C00001002406000424210B487B0164C94E812
:1033AC000F000DF1180C0CE90F00238AADF8043056
:1033BC00124B5B6803F00C02082A1AD1C3F3834248
:1033CC00624412F8102C13F4803F05D10C4800FB1A
:1033DC0002F007B010BC7047084B5B68C3F3404366
:1033EC00634413F8143C074800FB02F0B0FBF3F005
:1033FC00EFE70448EDE700BF186501080010024034
:10340C0000093D0000127A00002800F0A38070B57E
:10341C000446524B1B6803F007038B420CD24F4AF5
:10342C00136823F007030B431360136803F00703BF
:10343C008B4201D0012070BD236813F0020F17D00E
:10344C0013F0040F04D0464A536843F4E06353600E
:10345C00236813F0080F04D0414A536843F46053B7
:10346C0053603F4A536823F0F003A0680343536052
:10347C000D46236813F0010F31D06368012B20D067
:10348C00022B25D0364A126812F0020F64D0344950
:10349C004A6822F0030213434B60FFF743FD0646D4
:1034AC002F4B5B6803F00C036268B3EB820F16D0F2
:1034BC00FFF738FD801B41F288339842F0D9032086
:1034CC00B9E7274A126812F4003FE0D10120B2E7B5
:1034DC00234A126812F0007FD9D10120ABE71F4BB1
:1034EC001B6803F00703AB420CD91C4A136823F08A
:1034FC0007032B431360136803F00703AB4201D09F
:10350C00012098E7236813F0040F06D0144A53687F
:10351C0023F4E063E1680B435360236813F0080F56
:10352C0007D00F4A536823F46053216943EAC1035F
:10353C005360FFF731FF0A4B5B68C3F30313094A6F
:10354C00D35CD840084B1860084B1868FFF7A6FCF2
:10355C00002070E70120704701206CE7002002403A
:10356C0000100240986C0108200000201C00002074
:10357C00014B1868704700BF2000002008B5FFF70A
:10358C00F7FF044B5B68C3F30223034AD35CD840B8
:10359C0008BD00BF00100240A86C010808B5FFF779
:1035AC00E7FF044B5B68C3F3C223034AD35CD840E8
:1035BC0008BD00BF00100240A86C010830B587B0F0
:1035CC000546384C94E80F000DF1180C0CE90F006F
:1035DC00238AADF80430022D50D0102D03D0012DCC
:1035EC002BD0002054E0304B5A681B6813F0807FBE
:1035FC0050D0C2F3834306A90B4413F8100C12F4F9
:10360C00803F16D0284B5B68C3F340430B4413F840
:10361C00142C264BB3FBF2F300FB03F0224B5B683C
:10362C0013F4800F34D14000214BA3FB0030400831
:10363C002EE0204B03FB00F0F0E71B4B1B6A40F223
:10364C0002321A40B2F5817F26D003F44073B3F5F1
:10365C00007F04D0B3F5407F09D0002018E0124A57
:10366C00526A12F0020FF5D049F6404010E00E4BB2
:10367C001B6813F4003F12D1002009E0FFF78EFF06
:10368C00094B5B68C3F3813301335B00B0FBF3F090
:10369C0007B030BD0020FBE74FF40040F8E74FF2D5
:1036AC002440F5E72C6501080010024000127A0056
:1036BC00ABAAAAAA00093D00F0B482B0002632469B
:1036CC00A2E0002D5AD0012D00D1CE68FF2B69D875
:1036DC008446FF2B69D89500DCF800400F27AF40DB
:1036EC0024EA070406FA05F52C43CCF800404C6894
:1036FC0014F0805F00F087805F4CA56945F00105F0
:10370C00A561A46904F001040194019C9508AF1C07
:10371C005A4C54F8274002F00307BF004FF00F0C2F
:10372C000CFA07FC24EA0C0C554CA04243D004F5CF
:10373C008064A04200F0818004F58064A0427ED0B9
:10374C0004F58064A04234D0042435E04D4FBD42D2
:10375C0014D00BD94C4FBD4210D007F58037BD4269
:10376C000CD0A7F58017BD42B0D107E0A7F58017A4
:10377C00BD4203D007F58037BD42A7D18D687DB11E
:10378C00012D08D044610826A0E7CE6808369DE7D5
:10379C00CE680C369AE70461082697E7002695E771
:1037AC00042693E700F1040C93E7A2F10805AD00A1
:1037BC0092E7032400E00024BC4044EA0C040235E8
:1037CC002E4F47F825404C6814F4803F39D02F4DCC
:1037DC002C681C432C604C6814F4003F37D02B4DE4
:1037EC006C681C436C604C6814F4801F35D0274DFA
:1037FC00AC681C43AC604C6814F4001F33D0234DF0
:10380C00EC682343EB6001320B6833FA02F430D0DE
:10381C000124944023409C42F5D14D68122DB7D021
:10382C0094D8022DB1D07FF64CAF032DB6D0112D0C
:10383C007FF44CAFCE68043648E70124BCE7022481
:10384C00BAE7124D2C6824EA03042C60C3E70F4D31
:10385C006C6824EA03046C60C5E70C4DAC6824EA80
:10386C000304AC60C7E7094DEC6824EA0303EB6082
:10387C00C9E702B0F0BC70470010024000000140E4
:10388C00000801400000211000003110000401402C
:10389C0012B90904016170470161704708B5054B05
:1038AC005B69034200D108BD024B5861FEF790FBE7
:1038BC00F9E700BF0004014008B590F82130022B55
:1038CC0003D004238363012008BD0268136823F02E
:1038DC000E0313600268136823F00103136003687E
:1038EC00194A934214D0143293421FD0143293428B
:1038FC001ED0143293421ED0143293421ED0143276
:10390C00934202D04FF0807203E04FF4801200E03B
:10391C0001220E4B5A60012380F82130002380F8DD
:10392C002030436B6BB198470020CDE71022F0E7B5
:10393C004FF48072EDE74FF48052EAE74FF4803297
:10394C00E7E70020C0E700BF08000240000002408B
:10395C00074AD36823F4E0631B041B0C000200F439
:10396C00E060184340F0BF6040F40030D060704716
:10397C0000ED00E030B4174BDB68C3F30223C3F156
:10398C000704042C28BF04241D1D062D18D9033B45
:10399C004FF0FF3505FA04F421EA0401994005FAC9
:1039AC0003F322EA0303194300280BDB0901C9B214
:1039BC0000F1604000F5614080F8001330BC7047A6
:1039CC000023E5E700F00F000901C9B2024B1954BE
:1039DC00F4E700BF00ED00E014ED00E0002807DB89
:1039EC0000F01F02400901239340024A42F82030A4
:1039FC00704700BF00E100E00138B0F1807F0AD2CF
:103A0C00064B5860064AF02182F82310002098607B
:103A1C0007221A6070470120704700BF10E000E0D9
:103A2C0000ED00E0F0B583B005460C460023019391
:103A3C00FFF778FA2B689A6812F4807F23D1064638
:103A4C005A6812F4807F03D1DB6A13F4700F24D010
:103A5C004B4B1F680220FFF7B1FDB7FBF0F02B6852
:103A6C001969484A11422FD1D96802F15C421142BE
:103A7C002AD11969444A114239D1DA68434B1A42A6
:103A8C0037D029273AE0AB6A43F02003AB6200231E
:103A9C0085F82430012003B0F0BD2B681B6813F0AF
:103AAC00020F48D1B4F1FF3FF7D024B1FFF73AFA37
:103ABC00801BA042F1D9AB6A43F00403AB62002334
:103ACC0085F824300320E6E719692F4A114204D106
:103ADC00D96802F16E4211420DD019692C4A0A4084
:103AEC005AB9DA682A4B13405BB1FC2706E0292748
:103AFC0004E0142702E0542700E0FC2707FB00F742
:103B0C0004E05427FAE7019B01330193019BBB426C
:103B1C0011D2B4F1FF3FF6D024B1FFF703FA801BAA
:103B2C00A042F0D9AB6A43F00403AB62002385F8E2
:103B3C0024300320AFE72B686FF012021A60AB6AD7
:103B4C0043F40073AB622B689B6803F46023B3F5FA
:103B5C00602F01D000209EE72B7B6BB9AB6A23F45E
:103B6C008073AB62AB6A13F4805F07D1AB6A43F02E
:103B7C000103AB6200208EE700208CE700208AE76F
:103B8C0020000020244992249224491292244900B6
:103B9C00499224000368D86C7047000030B482B09E
:103BAC000023019390F82430012B00F08B80024607
:103BBC00012380F824304B68062B29D80568686BE4
:103BCC0003EB8303053B1F249C4020EA04000C6894
:103BDC0004FA03F303436B630B68092B38D915689C
:103BEC00E86803EB43031E3B07249C4020EA0400D7
:103BFC008C6804FA03F30343EB600B68103B012B56
:103C0C0034D90020002382F8243002B030BC704735
:103C1C000C2B0ED80568286B03EB8303233B1F2466
:103C2C009C4020EA04000C6804FA03F303432B6362
:103C3C00D2E70568E86A03EB8303413B1F249C40F1
:103C4C0020EA04000C6804FA03F30343EB62C3E7B5
:103C5C001568286903EB430307249C4020EA040001
:103C6C008C6804FA03F303432B61C6E71368164808
:103C7C00834205D0936A43F0200393620120C1E78D
:103C8C00986810F4000F1BD1986840F400009860FD
:103C9C000B68102B01D00020B4E70C4B1B680C49AF
:103CAC00A1FB03139B0C03EB83035900019102E06E
:103CBC00019B013B0193019B002BF9D10020A1E753
:103CCC0000209FE70220A0E70024014020000020F4
:103CDC0083DE1B43806A704730B583B000230193A9
:103CEC0003689A6812F0010F2ED19A6842F0010213
:103CFC009A60174B1B68174AA2FB03239B0C01937A
:103D0C0002E0019B013B0193019B002BF9D104467E
:103D1C00FFF708F9054623689B6813F0010F11D1D2
:103D2C00FFF700F9401B0228F5D9A36A43F01003F2
:103D3C00A362E36A43F00103E362002384F82430B6
:103D4C00012002E0002000E0002003B030BD00BFE5
:103D5C002000002083DE1B4390F82430012B6AD016
:103D6C0010B50446012380F82430FFF7B5FF024656
:103D7C0000285BD1A36A23F4407323F0010343F4BE
:103D8C008073A36223682D498B4227D0A16A21F44A
:103D9C008011A162596811F4806F05D0A16A21F4D9
:103DAC00405141F48051A162A16A11F4805F2BD083
:103DBC00E16A21F00601E162002184F824106FF021
:103DCC00020119602368996801F46021B1F5602F34
:103DDC001DD0996841F4801199602AE0A1F58061A9
:103DEC00496811F4702FD1D0A16A41F48011A162FD
:103DFC001349496811F4806FD6D0A16A21F440515F
:103E0C0041F48051A162CFE70021E162D4E70B4974
:103E1C008B4204D0996841F4A001996009E0A1F5A6
:103E2C008061496811F4702FD3D1F3E7002384F833
:103E3C002430104610BD0222104670470028014065
:103E4C000024014038B503689A6812F0010F01D1C3
:103E5C00002038BD04469A6822F001029A60FFF7F0
:103E6C0061F8054623689B6813F0010F0ED0FFF72D
:103E7C0059F8401B0228F5D9A36A43F01003A3623A
:103E8C00E36A43F00103E3620120E2E70020E0E78C
:103E9C0000287FD038B50446836A002B33D02046E7
:103EAC00FFF7D0FFA36A13F010036DD100286BD17C
:103EBC00A26A22F4885222F0020242F00202A262AA
:103ECC006268E1690A43257B42EA4502A168B1F5C3
:103EDC00807F21D001291CD0217D01291FD025688C
:103EEC00696821F469410B436B6021688D682A4B2A
:103EFC002B4013438B60A368B3F5807F20D0012B3C
:103F0C001ED000211FE0C36280F82430FEF758F960
:103F1C00C5E74FF48073DFE74FF48073DCE735B906
:103F2C00A169013943EA413343F40063D7E7A16A3D
:103F3C0041F02001A162E16A41F00101E162CEE7AA
:103F4C002369013B19052568EB6A23F470030B43C5
:103F5C00EB6223689968114B0B409A420BD0A36A11
:103F6C0023F0120343F01003A362E36A43F001034E
:103F7C00E36201200DE00023E362A36A23F0030354
:103F8C0043F00103A36204E0A36A43F01003A362AD
:103F9C00012038BD01207047FDF7E1FFFE0E1FFF29
:103FAC000F4B1A6842F001021A6059680D4A0A4018
:103FBC005A601A6822F0847222F480321A601A68ED
:103FCC0022F480221A605A6822F4FE025A604FF4DE
:103FDC001F029A60044B4FF000629A60704700BF5A
:103FEC00001002400000FFF800ED00E008B5034BA4
:103FFC001B7803B108BDFEF79BFFFBE78C0C002080
:10400C0008B5034B1B780146184611F0F0FC08BDAF
:10401C000500002008B5044B1B780A4601461846DB
:10402C0011F09AFC08BD00BF0500002008B5034B39
:10403C001B780146184611F0DAFC08BD060000207A
:10404C0008B5044B1B780A460146184611F084FC4F
:10405C0008BD00BF0600002008B511F0E3FD08BD47
:10406C0008B511F0B8FD08BD10B51C461346224624
:10407C0011F08FFC10BD70B588B004460D46164685
:10408C001978684610F02FFA33466A4629462046BE
:10409C0011F07FFC08B070BD10B5C0B014468DF89F
:1040AC0000008DF8011019460DF1020010F010FA05
:1040BC00044B1878A31CDBB26A46FD2111F069FC95
:1040CC0040B010BD0500002038B50546002404E0C2
:1040DC000520FEF72DFF0134A4B2AC42F8D338BD55
:1040EC0008B50146024B187811F0DDFA08BD00BF87
:1040FC003C0D002008B50A460146024B187811F019
:10410C00AFFA08BD3C0D002008B5FEF711FF08BD45
:10411C0008B50146402011F066FF08BD08B5014600
:10412C00282011F0E0FF0F4B18600F4AA2FB001380
:10413C00DB0803EB8301A2FB01C2A0EB410303EB01
:10414C0083030A49A1FB0330400900EBD20000EBCA
:10415C008000C0EB0010A1FB00304009044B18603C
:10416C0008BD00BF1C0A0020CDCCCCCC1F85EB5168
:10417C00240A002008B501464A2011F080FF08BD32
:10418C0008B50A4601464A2011F0D9FF08BD08B50A
:10419C0013460A460146282012F063F908BD08B5FB
:1041AC0013460A460146282012F06AF808BD0000A2
:1041BC00024A137823EA000010707047660A002048
:1041CC00024A137818431070704700BF660A00202B
:1041DC00014B1878704700BF660A002008B5082804
:1041EC0009D8DFE800F0050505050D0D0D0D0900DA
:1041FC005220FFF70FFF08BD5720FFF70BFFFAE720
:10420C005D20FFF707FFF6E7F8B505460C461746A5
:10421C005320FFF7F5FE00F03F065E20FFF7F0FE9F
:10422C0000F03F0104F03F04082D0ED8DFE805F044
:10423C00050E19242F37424D580031465320FFF7F5
:10424C00E9FE21465320FFF7E5FEF8BD46F040019C
:10425C005320FFF7DFFE44F040015320FFF7DAFE56
:10426C00F3E746F080015320FFF7D4FE44F08001C1
:10427C005320FFF7CFFEE8E746F0C0015320FFF7CD
:10428C00C9FE44F0C0015320FFF7C4FEDDE75E20F9
:10429C00FFF7C0FE21465E20FFF7BCFED5E741F0DC
:1042AC0040015E20FFF7B6FE44F040015E20FFF7B0
:1042BC00B1FECAE741F080015E20FFF7ABFE44F08F
:1042CC0080015E20FFF7A6FEBFE741F0C0015E2033
:1042DC00FFF7A0FE44F0C0015E20FFF79BFEB4E7A1
:1042EC0021465820FFF796FE07F01F015920FFF7D3
:1042FC0091FEAAE738B5CDB2090A090101F07001A7
:10430C00D4B2C2F30222082812D8DFE800F0050567
:10431C0005051F1F1F1F120011435420FFF77AFEC3
:10432C0029465520FFF776FE21465620FFF772FEF0
:10433C0038BD11435A20FFF76DFE29465B20FFF76D
:10434C0069FE21465C20FFF765FEF1E711435F2013
:10435C00FFF760FE29466020FFF75CFE21466120D6
:10436C00FFF758FEE4E7000070B506460C4614F85B
:10437C00015B1021FD20FFF74DFE3146FE20FFF7BB
:10438C0049FE044B187823462A46FF21FFF76CFEA2
:10439C0070BD00BF0500002070B582B0064602ACAF
:1043AC0004F8012D0D787021FD20FFF733FE314606
:1043BC00FE20FFF72FFE044B187823462A46FF21D8
:1043CC00FFF759FE02B070BD0500002070B582B039
:1043DC0006461D4602AC04F8012D7021FD20FFF7A6
:1043EC0019FE3146FE20FFF715FE044B18782346C4
:1043FC002A46FF21FFF73FFE02B070BD05000020EA
:10440C0038B504460D465320FFF7FAFD00F03F0186
:10441C00A40164B22143C9B25320FFF7FBFD5E2017
:10442C00FFF7EEFD00F03F0044EA0001C9B25E2048
:10443C00FFF7F0FD5120FFF7E3FD15F0080F01D158
:10444C0000F0F70020F0070149B205F00F052943F1
:10445C00C9B25120FFF7DEFD38BD10B5044651201E
:10446C00FFF7CEFD00F0FD010CB141F0020141F06F
:10447C0008015120FFF7CEFD10BD10B50446692090
:10448C00FFF7BEFD00F00F0141EA0411C9B269202B
:10449C00FFF7C0FD00215820FFF7BCFD10BD000048
:1044AC00072825D8DFE800F004080C1014181C208D
:1044BC00114B124A1A6070470F4B114A1A60704721
:1044CC000D4B104A1A6070470B4B0F4A1A6070471D
:1044DC00094B0E4A1A607047074B0D4A1A60704719
:1044EC00054B0C4A1A607047034B0B4A1A60704715
:1044FC00014B094A1A607047700A0020FCB1010890
:10450C0014B2010808B2010820B20108E4B1010894
:10451C00D8B10108F0B1010854B2010870B48C682C
:10452C0084420EDB9E681D68761B0B68E41A18D05B
:10453C00C01A06FB00F696FBF4F42C441460012020
:10454C000DE05D689E68AD1B4B681B1B0BD0041BFC
:10455C0005FB04F595FBF3F535441560012070BCA3
:10456C0070470020FBE70020F9E7000008B5413850
:10457C00932800F2E080DFE800F086DEDEDEDEDE8F
:10458C00DEDEDEDEDEDEDEDEDEDEDEDEDE9ADEDE83
:10459C00DEDEDEDEDEDEDEDEDECACEDADEDEDEDE57
:1045AC00DEDEDEDEDEDEDEDEDEDEDEDEDEDEDEDE1F
:1045BC00DEDEDEDEDEDEDEDEDEDEDEDEDEDEDEDE0F
:1045CC00DEDEDEDEDEDEDEDEDEDEDEDEDEDE4A4E23
:1045DC0052DE565ADE5EDEDEDEDEDEDEDEDEDEDE07
:1045EC00DEDEDEDEDEDEDEDEDEDEDEDEDEDEDEDEDF
:1045FC00DE66626A6E767A7E82DE8A8E9296DEAA9B
:10460C00AEDEB272DEDE9EA2A6B6BABEC2C6122064
:10461C00FFF722FD08BD1320FFF71EFDFAE714205B
:10462C00FFF71AFDF6E71720FFF716FDF2E7162045
:10463C00FFF712FDEEE71820FFF70EFDEAE7A320C7
:10464C00FFF70AFDE6E7A020FFF706FDE2E7A4204E
:10465C00FFF702FDDEE7AC20FFF7FEFCDAE7AD204A
:10466C00FFF7FAFCD6E7BF20FFF7F6FCD2E72020D5
:10467C00FFF7F2FCCEE72120FFF7EEFCCAE7222081
:10468C00FFF7EAFCC6E72020FFF7E6FCC2E7A5200F
:10469C00FFF7E2FCBEE7A620FFF7DEFCBAE7A72097
:1046AC00FFF7DAFCB6E7A820FFF7D6FCB2E7192033
:1046BC00FFF7D2FCAEE7BC20FFF7CEFCAAE7BD208B
:1046CC00FFF7CAFCA6E7BE20FFF7C6FCA2E7A220B4
:1046DC00FFF7C2FC9EE7AE20FFF7BEFC9AE7AA20CC
:1046EC00FFF7BAFC96E7C020FFF7B6FC92E7C120B3
:1046FC00FFF7B2FC8EE7C220FFF7AEFC8AE7C320BF
:10470C00FFF7AAFC86E7C420FFF7A6FC82E723206C
:10471C00FFF7A2FC7EE7094B1B78612B03D0252009
:10472C00FFF79AFC76E72420FFF796FC72E725202A
:10473C00FFF792FC6EE700206CE700BF6F0A0020C9
:10474C0010B584B00C4662383A2824D8DFE800F063
:10475C004B232323232323232323232323232323F5
:10476C00232323232323232323232323232323230D
:10477C0023232323232323232323232323232323FD
:10478C002323232D1E3323393F234500214A6B4617
:10479C0007CA83E807006B4603AA1F492046FFF7A8
:1047AC00BDFE9DF80C0004B010BD1C4A6B4607CA38
:1047BC0083E80700EFE71A4A6B4607CA83E807004D
:1047CC00E9E7184A6B4607CA83E80700E3E7164A8D
:1047DC006B4607CA83E80700DDE7144A6B4607CA35
:1047EC0083E80700D7E7124B1B78022B0BD0342B36
:1047FC0009D0352B07D0362B05D00E4A6B4607CA8D
:10480C0083E80700C7E70C4A6B4607CA83E8070032
:10481C00C1E700BF480000207009002054000020B0
:10482C0030030020080100203C0300203C00002045
:10483C0009000020FC000020F000002010B584B01E
:10484C000C46622808D10C4B1B78022B0DD00B4A5E
:10485C006B4607CA83E807006B4603AA0849204643
:10486C00FFF75CFE039804B010BD064A6B4607CAFE
:10487C0083E80700F0E700BF09000020FC000020DF
:10488C0070090020F000002000B583B09C20FFF7D9
:10489C006DFE054B01AA0549FFF740FE0198044B3C
:1048AC00186003B05DF804FB3C0000207C0900207C
:1048BC0014000020F8B50646622813D0012918D040
:1048CC004FF0FF35622E16D0434B1C682544434BEA
:1048DC001B68AB4203DC414B5B68AB4246DAE4B28B
:1048EC002046F8BD012902D06FF00305EAE7042544
:1048FC00E8E70125E6E73A4B1978032915D800219A
:10490C006220FFF79BFF374B1B78022B13D0364BE3
:10491C0019784900053100EB0111B1F5C87F21D997
:10492C0032480BF0A5FA0025CEE72944C9B2622023
:10493C00FFF784FFE7E72C4B1B785B0005331B016B
:10494C001A18B2F5487F02D86433834205D9014660
:10495C0026480BF08DFA0025B6E7014624480BF0EB
:10496C0087FAB1E722480BF083FAADE7ECB22146A7
:10497C003046FFF7E5FE0746A6F19500072809D853
:10498C00DFE800F00B041008152108263946312009
:10499C00FFF740FB104B1D60A2E739463220FFF7B2
:1049AC0039FBF7E739463320FFF734FBF2E73420C5
:1049BC00FFF726FB41B221F03F013943C9B2342045
:1049CC00FFF728FBE6E739464E20FFF723FBE1E72C
:1049DC00FFF75AFFDEE700BF680A002070090020CD
:1049EC000A000020090000200B0000203CAF010849
:1049FC0048AF010810B59620FFF7B8FDC1B296205C
:104A0C00FFF79EFE01463120FFF704FB9720FFF7CE
:104A1C00ADFDC1B29720FFF793FE01463320FFF79F
:104A2C00F9FA9520FFF7A2FDC1B29520FFF788FE99
:104A3C0001463220FFF7EEFA9920FFF797FDC1B23D
:104A4C009920FFF77DFE04463420FFF7D9FA41B2D6
:104A5C0021F03F012143C9B23420FFF7DBFA9A2041
:104A6C00FFF784FDC1B29A20FFF76AFE0446A0212D
:104A7C004B20FFF7CFFA21464E20FFF7CBFA10BDA3
:104A8C0010B53A4B1B78012B0CD0384B5B78012BB3
:104A9C0021D0364B9B78012B36D0344BDB78012B55
:104AAC004BD010BD324B1B7853B9324C21460420ED
:104ABC00FFF75AFC022221460420FFF76DFCF0E7B9
:104ACC002D4C21460420FFF74FFC022221460420E6
:104ADC00FFF762FCE5E7264B1B7853B9254C2146C2
:104AEC000A20FFF741FC022221460A20FFF754FC62
:104AFC00D7E7214C21460A20FFF736FC022221463B
:104B0C000A20FFF749FCCCE7194B1B7853B9194C19
:104B1C0021461020FFF728FC022221461020FFF727
:104B2C003BFCBEE7144C21461020FFF71DFC022273
:104B3C0021461020FFF730FCB3E70D4B1B7853B127
:104B4C000D4C21461620FFF70FFC022221461620A1
:104B5C00FFF722FCA5E7074C21461620FFF704FCC3
:104B6C00022221461620FFF717FC9AE7440A002080
:104B7C006F09002078BE010874BE010808B56748AB
:104B8C000BF076F9664B1B78302B00F0A7801ED803
:104B9C00042B43D9102B3FD1FFF71AFB10F0A60FB3
:104BAC0055D1FFF715FB10F0800F61D101210020CA
:104BBC00FFF726FC01210846FFF722FC0121022009
:104BCC00FFF71EFC01210320FFF71AFC24E0502BF9
:104BDC0000F08480602B1DD1FFF7FAFA10F0A60FBD
:104BEC0057D150480BF044F9FFF7F2FA10F0800F50
:104BFC0063D101210020FFF703FC01210846FFF7D8
:104C0C00FFFB01210220FFF7FBFB01210320FFF733
:104C1C00F7FB01E0402B61D0002008BDFFF7D8FA6C
:104C2C0010F0A60F09D1FFF7D3FA10F0800F09D1BD
:104C3C0001210020FFF7E4FBEEE70B210020FFF73A
:104C4C00DFFBE9E70B210020FFF7DAFBE4E70321A8
:104C5C000020FFF7D5FB03210120FFF7D1FB032137
:104C6C000220FFF7CDFB03210846FFF7C9FBD3E772
:104C7C0003210020FFF7C4FB03210120FFF7C0FB39
:104C8C0003210220FFF7BCFB03210846FFF7B8FB0A
:104C9C00C2E703210020FFF7B3FB03210120FFF73C
:104CAC00AFFB03210220FFF7ABFB03210846FFF704
:104CBC00A7FB1D480BF0DCF8AEE703210020FFF743
:104CCC009FFB03210120FFF79BFB03210220FFF731
:104CDC0097FB03210846FFF793FB9DE7FFF778FA54
:104CEC0010F0060F0CD101210020FFF789FB0121E8
:104CFC000846FFF785FB01210220FFF781FB8BE7BC
:104D0C0003210020FFF77CFB03210120FFF778FB38
:104D1C0003210220FFF774FB7EE700BF54AF0108AC
:104D2C00E80700206CAF010864AF010870B592B0C1
:104D3C000446614D0EAB95E8070003C31A8005F1DC
:104D4C000C0393E803000C908DF834100023ADF89D
:104D5C002E300E238DF8203078238DF821308DF8ED
:104D6C0022308DF823308DF824308DF825308DF8D5
:104D7C0026308DF827308DF828308DF829308DF8B5
:104D8C002A308DF82B308DF82C308DF82D308DF895
:104D9C002E3004AE05F114030FCB07C6338001ABE4
:104DAC00243595E8070003C31A70444B11AA4449F3
:104DBC002046FFF7B3FB11987D2820DC414B83FB89
:104DCC000023C517C5EB6305EBB206E012AA1A4423
:104DDC00702102F8381C0133DBB20E2BF6D9394A9C
:104DEC0082FB0032C317C3EB620303EBC303C31A8A
:104DFC0012AA134413F8443C154405F8383C01231B
:104E0C000AE05A1E12A90A4412F8381C12AA1A44B3
:104E1C0002F8281C0133DBB20E2BF2D9632C08D814
:104E2C00092C33D812AB1C4414F8103C8DF83330D9
:104E3C0022E0254BA3FB04235B0912AA1A4412F8A7
:104E4C00102C8DF83120642202FB1344E4B21F4B6A
:104E5C00A3FB0423DB0812AA1A4412F8102C8DF8B9
:104E6C00322003EB83035A00A31ADBB212AA1344B9
:104E7C0013F8103C8DF8333008A95520FFF774FA5D
:104E8C000CA96420FFF770FA12B070BD0F4BA3FB96
:104E9C000423DB0812AA1A4412F8102C8DF83220C5
:104EAC0003EB83035A00A31ADBB212AA134413F8C0
:104EBC00103C8DF83330DFE74065010824000020FA
:104ECC0070090020398EE3381F85EB51CDCCCCCC4A
:104EDC00F0B589B0AC4B05AC93E8070003C4228055
:104EEC001A6B049201AC343393E8070003C424F822
:104EFC00022B120C2270A220FFF7AEF8002840F013
:104F0C001581A24BDE78002E40F01081354610E062
:104F1C0005EBC5035C004034E4B29D4F3946204696
:104F2C00FFF722FA022239462046FFF735FA0135FF
:104F3C00EDB2072DECD9974B1B7808AA134413F844
:104F4C001C1CC1F112010822C9B21046FFF75CF912
:104F5C0040210820FFF742F98F4B1B78052B15D009
:104F6C008C4A127808A90A4412F81C1C03EB830320
:104F7C0003EB8303402203EB01110820FFF7BAF97E
:104F8C00844B1B78012B63D0344696E0814B1B7805
:104F9C0008AA134413F81C1C090140228331082071
:104FAC00FFF7A8F9ECE77B4B1B7808AA134413F81E
:104FBC001C0CC0F11200A50000FB04F04030774B34
:104FCC0053F82410C0B2FFF7CFF9A31EDBB2022BAB
:104FDC0019D9631FDBB2022B28D96E4B1B7808AA98
:104FEC00134413F81C0CC0F1120000FB04F0403009
:104FFC0002226A4B5959C0B2FFF7CEF90134E4B220
:10500C00072CD0D95BE0634B1B7808AA134413F828
:10501C001C0CC0F1120000FB04F0403006225F4B68
:10502C0053F82410C0B2FFF7B7F9E7E7594B1B78D8
:10503C0008AA134413F81C0CC0F1120000FB04F076
:10504C0040300422554B5959C0B2FFF7A5F9D5E7AA
:10505C003446D5E74F4B1B7808AA1A4412F81C0C9F
:10506C00C0F11200013B4E4A52F82330A50000FB60
:10507C0004F0403053F82410C0B2FFF775F9A31EAA
:10508C00DBB2022B54D9631FDBB2022B66D9414B26
:10509C001B7808AA1A4412F81C0CC0F11200013B30
:1050AC003F4A52F8233000FB04F040300222595999
:1050BC00C0B2FFF771F90134E4B2072CCAD906204B
:1050CC00FFF776F81020FFF77BF8364B1B782BB3E5
:1050DC00BE2B6BD0BF2B00F09180092E40F291803B
:1050EC00314BA3FB0623DB0808AA1A4412F80C2C3C
:1050FC008DF8122003EB83035A00B31ADBB208AA13
:10510C00134413F80C3C8DF81330042204A94020EE
:10511C00FFF742F904A94020FFF726F9214B1B7831
:10512C00002B75D10E210020FFF76AF909B0F0BDF4
:10513C00184B1B7808AA1A4412F81C0CC0F1120068
:10514C00013B174A52F8233000FB04F04030062292
:10515C0053F82410C0B2FFF71FF9ACE70D4B1B78C6
:10516C0008AA1A4412F81C0CC0F11200013B0C4A9C
:10517C0052F8233000FB04F0403004225959C0B2DD
:10518C00FFF70AF997E700BF40650108800A002085
:10519C00ACBD0108080000200700002068040020B6
:1051AC007CB501086E0A0020CDCCCCCC1B4B1E78F4
:1051BC00632E92D91A4BA3FB06235B0908AA1A4447
:1051CC0012F80C2C8DF81120642202FB1363DBB255
:1051DC00144AA2FB0312D20808A9114411F80C1CA2
:1051EC008DF8121002EB820251005B1ADBB208AA96
:1051FC00134413F80C3C8DF8133086E70A4B1E78D9
:10520C00D6E708AB1E4416F80C3C8DF813307CE73F
:10521C000A210020FFF7F4F888E700BF0700002000
:10522C001F85EB51CDCCCCCC0800002070B582B0E2
:10523C00784B93E803000090ADF80410090C8DF83E
:10524C000610754906200AF02FFE744B1B78022BB2
:10525C000ED0734B19786220FFF7F0FA714B1B7864
:10526C005B000533A0EBC3006F4B1860002431E0EA
:10527C006B4B19786220FFF7E1FA6A4B1B785B00E5
:10528C000533A0EB0310684B1860EFE7654E3378DD
:10529C00013B02AA134413F8080CC0F11400634D2F
:1052AC0000FB04F040302946C0B2FFF75DF83378BC
:1052BC00013B02AA134413F8082C04EB8403980056
:1052CC00801AC0B2403007222946C0B2FFF764F8FA
:1052DC000134E4B2072CD9D9524B1B78013B02AAFA
:1052EC00134413F8081CC1F114010822C9B210466A
:1052FC00FEF78AFF40210820FEF770FF474B1B7812
:10530C00023B342B22D8DFE803F01B21215C215116
:10531C002121213421213D213D213D3434215121B4
:10532C0047512147343434215151515121215C21B1
:10533C002B3D21472B2B2B215C51215C6666660093
:10534C004022394B19880820FEF7D4FF364B1B68D6
:10535C00344A1278364906200AF0A6FD002483E070
:10536C00314B19681831402289B20820FEF7C2FF70
:10537C00ECE72D4B19681831B82289B20820FEF7DA
:10538C00B9FFE3E7284B196801F5D671B82289B249
:10539C000820FEF7AFFFD9E7234B196801F5D4714C
:1053AC00402289B20820FEF7A5FFCFE71E4B1968F3
:1053BC0001F5D6714FF4987289B20820FEF79AFF66
:1053CC00C4E7194B196818314FF4987289B2082048
:1053DC00FEF790FFBAE7144B1968E031402289B20E
:1053EC000820FEF787FFB1E70E4B1B78013B02AAA2
:1053FC001A4412F8080CC0F114000E4A52F823306B
:10540C0000FB04F04030042253F82410C0B2FEF725
:10541C00C3FF59E080650108FCB2010809000020B7
:10542C000A0000200B0000200C000020ACBD01087D
:10543C0014B3010804BA0108424B1A78531E02A98E
:10544C00194411F8080CC0F1140000FB0420C0B280
:10545C003D4A52F823104230012302224959C0B26E
:10546C00FEF7B4FF0134E4B2072C34D8354B1B786B
:10547C00013B02AA1A4412F8080CC0F11400324A7B
:10548C0052F82330A50000FB04F0403053F82410F0
:10549C00C0B2FEF769FF2D4B1B78002BA4D0294B13
:1054AC001B78013B02AA1A4412F8080CC0F1140034
:1054BC00254A52F8233000FB04F04030062253F802
:1054CC002410C0B2FEF768FF204B1B78612BB3D0C1
:1054DC00002BC7D1B0E73620FEF76AFE1C4B1B78B9
:1054EC00022B0BD007210020FEF78AFF174B1B78ED
:1054FC004BB98020FEF764FE02B070BD0E21002077
:10550C00FEF77EFFF2E7012216210420FEF77CFE57
:10551C0018210420FEF762FE0E4C21461820FEF7DF
:10552C0023FF042221461820FEF736FF4FF4C872E1
:10553C0058210420FEF7DEFE0F210020FEF760FF4D
:10554C00D7E700BF0B00002004BA01086F0A002047
:10555C0009000020F8AF010808B5362824D8DFE888
:10556C0000F01C1C2C1C1C2C1C2C1C1C1C2C1C1C77
:10557C002C1C2C1C2C2C2C1C2C1C2C2C1C2C2C2CAF
:10558C002C1C2C2C2C2C1C1C2C1C2C2C1C2C2C2C9F
:10559C002C1C2C2C1C2C2C2C2C000B4B37221A705A
:1055AC0005210020FEF72CFF074B1B78372B03D06F
:1055BC00064B1B78012B03D008BD034B1870F3E787
:1055CC00FFF734FEF8E700BF090000207C0B002039
:1055DC0008B504480AF04CFC03491820FEF7C4FE39
:1055EC0008BD00BF24AF010810B0010870B52848F1
:1055FC000AF03EFC022221210820FEF705FE402184
:10560C000820FEF7EBFD4FF4E67244210820FEF76C
:10561C0071FE00240FE004EB44154035EDB21D4E35
:10562C0031462846FEF7A0FE022231462846FEF7F8
:10563C00B3FE0134E4B2012CEDD9174C21464020C5
:10564C00FEF792FE042221464020FEF7A5FE134CE5
:10565C0021466120FEF788FE042221466120FEF7D8
:10566C009BFED620FEF7A4FDB920FEF77FFF50B1BC
:10567C0007210020FEF7C4FE2020FEF7A1FD084BF9
:10568C0001221A7070BD0321FEF7BAFEF4E700BFC9
:10569C00E8B2010820BE0108F8BD0108FCBD0108F4
:1056AC006D0A002010B5434B1B78012B02D0012B47
:1056BC0044D010BD404A12781AB1404A1278372AA9
:1056CC00F5D13F480AF0D4FB012202210820FEF755
:1056DC009BFD40210820FEF781FD1B22A021082004
:1056EC00FEF708FE374B1B78012B17D0364C2146A2
:1056FC004020FEF739FE022221464020FEF74CFEE8
:10570C000620FEF755FDB920FEF730FF88B90321BE
:10571C00FEF776FE0820FEF753FDCAE72B4C214618
:10572C004020FEF721FE022221464020FEF734FEE7
:10573C00E6E707210020FEF763FEEBE724480AF0BA
:10574C0097FB012202210620FEF75EFD2C2106208C
:10575C00FEF744FD1C4C21462C20FEF705FE0222D0
:10576C0021462C20FEF718FE1B2230210620FEF7C6
:10577C00C1FD184B1B78002B9BD1174B1B78002BB2
:10578C0097D101220A210420FEF73EFD18210420A6
:10579C00FEF724FD114C21461820FEF7E5FD0722EB
:1057AC0021461820FEF7F8FD7722AD210420FEF7E4
:1057BC00A1FD7EE7780E00207C0B00200900002064
:1057CC004CB30108E00A002044BE010870BE010879
:1057DC0060B30108E30A0020B40C002054B20108A5
:1057EC0010B52D4B1B78002B48D02C4B1B78012B64
:1057FC000DD0022B16D0032B1FD0042B28D0052B39
:10580C0031D0264B197826480AF032FB10BD254CB6
:10581C0021460320FEF7A8FD042221460320FEF7B3
:10582C00BBFDEEE7204C21460320FEF79DFD042234
:10583C0021460320FEF7B0FDE3E71C4C2146032074
:10584C00FEF792FD042221460320FEF7A5FDD8E7C2
:10585C00174C21460320FEF787FD04222146032026
:10586C00FEF79AFDCDE7134C21460320FEF77CFD95
:10587C00042221460320FEF78FFDC2E70E4C214681
:10588C000320FEF771FD042221460320FEF784FD60
:10589C000A480AF0EDFAB9E7E30A0020E40A00200E
:1058AC0080B301088CBE010890BE01087CBE0108C3
:1058BC0084BE010880BE010888BE010894B30108AB
:1058CC002DE9F04F83B0044688461746BB4A15783D
:1058DC00C5F3400605F00105042B15DCB84B1B780D
:1058EC00002B00F0C281012B09D04FF484794FF4C6
:1058FC00157301934FF01B0B40F29E2AB9E14FF048
:10590C00250B4FF0F40AB4E1102B12D0502B6DD0B4
:10591C00302B00F0B380402B00F0F880602B00F0AF
:10592C003B81702B00F069814FF0400B4FF0E00A87
:10593C009FE1A8B9A24B1B78002B00F0B881012B7A
:10594C0009D04FF08B0940F25B1301934FF01B0B06
:10595C004FF4D37A8DE14FF0250B4FF0F40A88E128
:10596C00012812D0022826D0954B1B78002B00F072
:10597C00AD81012B35D04FF4D77940F253330193DD
:10598C004FF4A47B40F29E3A73E18D4B1B78002BB5
:10599C0000F09281012B09D04FF08B0940F2533368
:1059AC0001934FF01B0B40F29E3A62E14FF0250B36
:1059BC0040F2763A5DE1824B1B78002B00F081813E
:1059CC00012B09D04FF4D77940F25B1301934FF4BC
:1059DC00A47B4FF4D37A4CE140F2911B4FF0F40AC4
:1059EC0047E140F2911B40F2763A42E1A8B9744B80
:1059FC001B78002B00F06F81012B09D04FF08B0925
:105A0C004FF4157301934FF01B0B40F29E2A30E1BB
:105A1C004FF0250B4FF0F40A2BE1012813D002288C
:105A2C0040F02781664B1B78002B00F05E81012B28
:105A3C001FD04FF4D77940F2533301934FF4A47B2A
:105A4C0040F29E3A15E15E4B1B78002B00F048812A
:105A5C00012B09D04FF4D77940F25B1301934FF42B
:105A6C00A47B4FF4D37A04E14FF0250B40F2763A45
:105A7C00FFE040F2911B40F2763AFAE0A8B9504BA5
:105A8C001B78002B00F03681012B09D040F207194E
:105A9C0040F25B1301934FF01B0B4FF4D37AE8E009
:105AAC004FF0250B4FF0F40AE3E0012813D0022845
:105ABC0040F0DF80424B1B78002B00F02581012B3E
:105ACC001FD04FF4D77940F2533301934FF4A47B9A
