:020000040800F2
:100000000050002061E70008751700087717000806
:10001000791700087B1700087D1700080000000012
:100020000000000000000000000000007F17000832
:1000300081170008000000008317000885170008DA
:10004000A9E70008A9E70008A9E70008A9E7000850
:10005000A9E70008A9E70008A9E70008A9E7000840
:100060008D170008A9E70008A9E70008A9E700081C
:10007000A9E70008A9E70008A9E70008A9E7000820
:10008000A9E70008A9E70008A9E70008A9E7000810
:10009000A9E70008A9E70008A9E70008A9E7000800
:1000A000A9E70008A9E70008A9E70008A9E70008F0
:1000B000A9E7000899170008A9E70008A9E70008C0
:1000C000A9E70008A9E70008A9E70008A9E70008D0
:1000D000A9E70008A9170008A9E70008A9E7000890
:1000E000A9E70008A9E70008A9E700080000000048
:1000F0000000000000000000000000000000000000
:0C01000000000000000000005FF808F1A3
:10010C0010B5054C237833B9044B13B10448AFF345
:10011C0000800123237010BD680500200000000042
:10012C004806010808B5034B1BB103490348AFF35C
:10013C00008008BD000000006C0500204806010886
:10014C0010F8012B11F8013B012A28BF9A42F7D075
:10015C00D01A70472DE9F04188B00025049505951B
:10016C0006950795424B9A6942F004029A619A6986
:10017C0002F004020092009A9A6942F008029A6115
:10018C009A6902F008020192019A9A6942F01002EF
:10019C009A619A6902F010020292029A9A6942F0EC
:1001AC0020029A619B6903F020030393039B314F58
:1001BC0001221321384602F0E5FE40F2F3130493BA
:1001CC000124059406940226079604A9384602F0E9
:1001DC00EDFD4FF00408CDF81080274B05930695E4
:1001EC0004A9384602F0E2FD04940595069407F53F
:1001FC00806704A9384602F0D9FD4FF4704304938C
:10020C000595069404A9384602F0D0FD40F601038A
:10021C00049305940694079604A9384602F0C6FD8B
:10022C0043F20433049305940694079607F580670C
:10023C0004A9384602F0BAFDC02304930595069430
:10024C0004A9384602F0B2FDCDF81080059406944E
:10025C00079604A9094802F0A9FD2A462946082058
:10026C0002F002FF082002F033FF08B0BDE8F08175
:10027C000010024000080140000021100014014051
:10028C0070B58AB0002408940994019402940394E4
:10029C000494059406940794114D4FF080432B6001
:1002AC0008266E60AC604FF47A63EB602C61AC6135
:1002BC00284601F04EFD0894099408A9284601F03F
:1002CC00A7FE60230193029403940594324601A97E
:1002DC00284601F089FD284601F032FB0AB070BDBA
:1002EC000407002030B587B00024029403940494D2
:1002FC000594009401940E4D0E4B2B6023236B60E0
:10030C00AC600923EB602C618023AB61284601F0C3
:10031C0007FD4FF48053029302A9284601F0DDFD3E
:10032C00009401946946284601F072FE07B030BD76
:10033C00500600200004004008B50848084B036034
:10034C004FF4E133436000238360C36003610C22EC
:10035C0042618361C36101F05AFF08BDC0060020F1
:10036C000038014070B584B00025019502950395C5
:10037C000D4C0E4B2360A560257325754FF460233F
:10038C00E361656001262661204603F0FBF80D232E
:10039C0001930296039501A9204602F079FF2046AD
:1003AC0001F08AFA04B070BD9006002000240140D0
:1003BC0010B50138012809D814464FF47A7392B25B
:1003CC00074801F053FF40B1002010BD0EF0E8F9D2
:1003DC00092303604FF0FF30F7E72046F5E700BF35
:1003EC00C006002008B50BF075FB3B2140F6B83079
:1003FC000BF080FB35214FF4FA600BF07BFB3821BE
:10040C004FF47A700BF076FB08BD000070B5044613
:10041C00232835D8DFE810F0240049005A006C007E
:10042C007E00A5008702B40036035D034604760304
:10043C008F03A903C303DE03F803120461042B0426
:10044C00DA00FB001B013B015B01A401C401E501C7
:10045C0005022502AE02CF02EF02460266027B04C1
:10046C00AB4B00221A7001255D70AA4B1B78AA4A6F
:10047C001370AA4A1370AA480EF044FAA94B1D70C7
:10048C00A34809F021FA01200CF04AFE3C200BF0A5
:10049C006BFB3C214FF47A700BF02CFBE4B2204642
:1004AC000CF04CFEA04B1C7070BD994A01231370CC
:1004BC00022151709D4A127897490A7097494A70E7
:1004CC00984A13709A480EF01DFAD9E7904B022205
:1004DC001A7003225A70974B1B788F4A13708F4AED
:1004EC009370904B01221A7093480EF00BFAC7E7E9
:1004FC00874B03221A7004225A70904B1B78864A41
:10050C001370864AD370874B01221A708C480EF0F8
:10051C00F9F9B5E77E4B10221A70012159700222AD
:10052C009A700322DA7004221A717A4B1E787A4B75
:10053C001E707E4A15785D707E4A107898707F4ADE
:10054C001278DA70754B1E705D709870DA70754B9E
:10055C0000221A705A709A70D9707A480EF0D2F93B
:10056C008EE76B4B20221A7001225A7002229A706D
:10057C000322DA7004221A7173480EF0C3F97FE774
:10058C00634B30221A7001225A7002219970032198
:10059C00D970042119715F4B1E785F4B1E70634933
:1005AC000D785D7063490878987064490978D97042
:1005BC005A4B1E705D709870D9705A4B1A7000228D
:1005CC005A709A7061480EF09DF959E7504B3022E1
:1005DC001A7004225A70012199700222DA700022DA
:1005EC001A71564B1E784C4B1E704A4805785D703C
:1005FC004E4800789870494B1E705D709870494B4E
:10060C0019705A709A7052480EF07CF938E7404BCA
:10061C0030221A7001225A70022199700321D9706C
:10062C003C4B1D783C4B1D70404908785870414933
:10063C0009789970394B1D7058709970394B1A7034
:10064C0000225A709A7041480EF05CF918E7304B52
:10065C0030221A7001225A70022199700421D9702B
:10066C002C4B1D782C4B1D70304908785870334931
:10067C0009789970294B1D7058709970294B00217D
:10068C00197059709A7033480EF03CF9F8E6204B0B
:10069C0030221A7001225A70032199700421D970EA
:1006AC001C4B1D781C4B1D7022490878587023492F
:1006BC0009789970194B1D7058709970194B00215D
:1006CC00197059709A7024480EF01CF9D8E6104B2A
:1006DC0030221A7002225A7001229A700321D970AA
:1006EC00124B1D780C4B1D700A4908785870114933
:1006FC0009789970094B1D7058709970094B1A70D4
:10070C0000225A709A7015480EF0FCF8B8E600BF3B
:10071C0048070020440700209C050020CC05002041
:10072C00EC070108A0050020850500200307002028
:10073C00000801084E060020140801084D06002090
:10074C00280801083C0801084C0801085C0801084D
:10075C007808010894080108B0080108CC080108C1
:10076C00B54B30221A7002225A7001229A70042161
:10077C00D970B24B1D78B24B1D70B24908785870C5
:10078C00B14909789970B14B1D7058709970B04B84
:10079C000021197059709A70AE480EF0B3F86FE6DC
:1007AC00A54B30221A7002225A7003229A7004222E
:1007BC00DA70A44B1878A24B1870A74A11785970AC
:1007CC00A14A12789A70A14B187059709A70A04B6C
:1007DC0000221A705A7001229A70A0480EF092F8FA
:1007EC004EE6954B30221A7003225A7001229A70F1
:1007FC000221D970984B1D78914B1D709149087846
:10080C0058708E4909789970904B1D70587099707A
:10081C008F4B1A7000225A709A7091480EF072F831
:10082C002EE6854B30221A7003225A7001229A70E0
:10083C000421D970884B1D78814B1D708149087833
:10084C005870814909789970804B1D705870997057
:10085C007F4B0021197059709A7082480EF052F833
:10086C000EE6754B30221A7003225A7002229A70CF
:10087C000422DA70784B1878714B18706F4A117823
:10088C005970714A12789A70704B187059709A702E
:10089C006F4B00221A705A7001229A7072480EF037
:1008AC0031F8EDE5644B30221A7004225A700122A3
:1008BC009A700321D970644B1D78614B1D7061498E
:1008CC0008785870644909789970604B1D7058709D
:1008DC0099705F4B1A7000225A709A7063480EF030
:1008EC0011F8CDE5544B30221A7004225A700222B2
:1008FC009A700322DA70544B1878514B18704F4A87
:10090C0011785970544A12789A70504B187059706B
:10091C009A704F4B01221A7000225A709A705448E8
:10092C000DF0F0FFACE5444B50221A7001225A70C6
:10093C00022199700321D97004211971424B1E7840
:10094C003F4B1E703F490D785D703C49087898709C
:10095C0041490978D9703D4B1E705D709870D97003
:10096C003B4B1A7000225A709A70DA7041480DF0A5
:10097C00C9FF85E5304B50221A7004225A700121B0
:10098C0099700222DA7000221A712F4B1E782C4BB0
:10099C001E702C4805785D702848007898702B4B99
:1009AC001E705D7098702A4B19705A709A7032488C
:1009BC000DF0A8FF64E5204B50221A7004225A70E7
:1009CC0001229A700321D9701F4B1D781C4B1D708E
:1009DC001C49087858702049097899701B4B1D7078
:1009EC00587099701A4B1A7000225A709A702348DA
:1009FC000DF088FF44E5104B50221A7004225A70F7
:100A0C0002229A700322DA700F4B18780C4B187074
:100A1C000A4A11785970104A12789A700B4B187058
:100A2C0059709A700A4B01221A7000225A709A70EF
:100A3C0013480DF067FF23E548070020030700204B
:100A4C009C050020440700204D060020CC0500200A
:100A5C00A0050020E80801084E0600200409010842
:100A6C00200901083C09010858090108740901080A
:100A7C0090090108AC090108C8090108E40901083A
:100A8C00000A0108B24B40221A700121597002224F
:100A9C009A700322DA7004221A71AE4B1E78AE4B98
:100AAC001E70AE4A15785D70AD4A10789870AD4ADC
:100ABC001278DA70AC4B1E705D709870DA70AB4BBC
:100ACC0000221A705A709A70D970A9480DF01AFF4A
:100ADC00D6E49F4B60221A7001225A700221997041
:100AEC009C4B18789C4B18709C49097859709E4BFC
:100AFC00187059709D4B1A7000225A709D480DF059
:100B0C0001FFBDE4924B60221A7001225A7004213D
:100B1C009970904B1878904B1870924909785970CD
:100B2C00914B18705970914B002119705A70924862
:100B3C000DF0E8FEA4E4864B60221A7004225A7071
:100B4C0002229A70874B1978834B1970834A12785A
:100B5C005A70854B19705A70844B01221A700022FE
:100B6C005A7086480DF0CEFE8AE4794B60221A70DA
:100B7C0004225A7003229A707A4B1978764B1970AA
:100B8C00774A12785A70784B19705A70774B012249
:100B9C001A7000225A707A480DF0B4FE70E46C4B57
:100BAC0060221A7002225A7001229A706B4B1978CB
:100BBC00694B19706748007858706B4B197069490C
:100BCC0009785970694B1A7000225A706D480DF0F3
:100BDC0099FE55E45E4B60221A7002225A70032271
:100BEC009A705E4B19785C4B19705D4A12785A708A
:100BFC005D4B19705A705D4B01221A7000225A70AD
:100C0C0061480DF07FFE3BE4514B60221A700222CA
:100C1C005A7004229A70514B19784F4B1970514AE3
:100C2C0012785A70504B19705A70504B00221A702F
:100C3C0001225A7055480DF065FE21E4444B6022A8
:100C4C001A7001225A7003219970424B1878424B4A
:100C5C001870434909785970434B18705970434BBD
:100C6C001A7000225A704A480DF04CFE08E4384BBA
:100C7C0060221A7003225A7002229A70384B19782B
:100C8C00354B1970354A12785A70374B19705A70A7
:100C9C00364B01221A7000225A703E480DF032FE7B
:100CAC00FFF7EEBB2A4B60221A7003225A70042203
:100CBC009A702B4B1978284B19702A4A12785A7053
:100CCC00294B19705A70294B00221A7001225A7044
:100CDC0031480DF017FEFFF7D3BB1D4B60221A7085
:100CEC0003225A7001229A701D4B18781A4B1870F7
:100CFC001849097859701C4B187059701B4B1A7095
:100D0C0000225A7025480DF0FDFDFFF7B9BB104BC2
:100D1C0070221A7001225A70022199700321D97025
:100D2C000C4B1D780C4B1D700C49087858700C49F5
:100D3C00097899700C4B1D70587099700B4B1A7088
:100D4C0000225A70DA7016480DF0DCFDFFF798BBE4
:100D5C0048070020440700209C05002003070020C2
:100D6C004E0600204D060020CC050020A0050020DA
:100D7C001C0A01082C0A0108440A01085C0A010833
:100D8C00740A01088C0A0108A40A0108BC0A0108AB
:100D9C00D40A0108EC0A0108040B01081C0B010819
:100DAC00340B010838B50BF0D3F90446014616484C
:100DBC000AF0EEFD0BF0CCF902280BD10BF0C8F9C0
:100DCC00022816D1022C1DD00BF010FB0F480AF094
:100DDC00DFFD17E00E4D022128460AF0D9FD022056
:100DEC000BF0DCF90BF0B4F9014628460AF0D0FD03
:100DFC00E4E708480AF0CCFD07480AF0C9FD074BA8
:100E0C00FF221A7038BD00BF64070108840701086F
:100E1C0074070108C0070108DC070108020700205D
:100E2C0010B5012826D029480AF0B2FD284C012221
:100E3C004FF40051204602F0A5F800224FF4006157
:100E4C00244802F09FF8192002F04AFC00220421E9
:100E5C00204602F097F8192002F042FC0022802173
:100E6C001D4802F08FF800200CF05AF91B4B0122A0
:100E7C001A7010BD1A480AF08BFD154C01224FF464
:100E8C000051204602F07EF800224FF40061114818
:100E9C0002F078F8322002F023FC642002F020FCEF
:100EAC0000220421204602F06DF8322002F018FCDA
:100EBC00A4F5006401224FF48071204602F062F820
:100ECC0000228021204602F05DF8CCE7E006010804
:100EDC0000100140000C0140000801409405002066
:100EEC00D006010810B514480AF052FD134C00222C
:100EFC004FF48071204602F045F8012280212046F3
:100F0C0002F040F804F5006400224FF40051204632
:100F1C0002F038F801224FF40061094802F032F86F
:100F2C0001220421204602F02DF801200CF0F8F8E3
:100F3C00044B00221A7010BDC006010800080140C5
:100F4C00000C01409405002008B501224FF480717B
:100F5C00014802F017F808BD0008014008B500224E
:100F6C004FF48071014802F00DF808BD00080140F3
:100F7C0010B5084C00224021204602F003F8002254
:100F8C002021204601F0FEFF01221021204601F015
:100F9C00F9FF10BD0008014010B588B06023019323
:100FAC000290002303930593054C082201A92046C7
:100FBC0000F01AFF0821204601F00CF808B010BD13
:100FCC000407002008B5C043C0B2632812D9A0F1B1
:100FDC006403DBB2272B24D900F17403DBB2272B7B
:100FEC0021D900F14C03DBB2272B1ED9DB281ED8EC
:100FFC00002200E04622164B1B78012B1FD1154B0B
:10100C001B78934215D9013B124A1370124B0022E4
:10101C001A70104B1878C0EB001080B2FFF7BCFFB1
:10102C0008BD5A22E7E76E22E5E78222E3E7912228
:10103C00E1E79342EAD20133064A1370E6E7054B27
:10104C00FF221A704FF47A60FFF7A6FFE8E700BFA3
:10105C0086050020020000208405002010B5AB207E
:10106C0002F06AFB2B4B1870B02002F065FB2A4B88
:10107C001870AC2002F060FB284B1870A32002F013
:10108C005BFB274B1870AA2002F056FB254B1870FF
:10109C00AD2002F051FB244B1870A02002F04CFB49
:1010AC00224B1870AF2002F047FB214B1870202008
:1010BC0002F042FB1F4B18700BF0AAF91E4C20706B
:1010CC00A52002F039FB1D4B1870A62002F034FB52
:1010DC001B4B1870A72002F02FFB1A4B1870A8207E
:1010EC0002F02AFB184B18700BF092F92070C920F3
:1010FC0002F022FB154C2070CC2002F01DFB60701E
:10110C00CF2002F019FBA070D22002F015FBE0708A
:10111C0010BD00BF0300002001070020F4050020D3
:10112C00F1050020520700204C0600208605002007
:10113C004409002000070020E70400204407002099
:10114C00030700204E0600204D0600202C0800202E
:10115C0010B52D200AF026FDFFF7C4FE04F05CF953
:10116C0011200AF001FD20480AF012FC22E0AB200D
:10117C0002F0E6FA2B200AF015FD04F001F91B4BE6
:10118C001B78012B28D00F200AF0EEFC0F214FF416
:10119C00FA600AF0AFFC11214FF4FA700AF0AAFCC5
:1011AC0013480AF0F5FB10BD0BF00AFE0AF0ACFF79
:1011BC0009F074FA0BF076FA0E4B19780129D6D097
:1011CC000BF022FC04460028EED02B200AF0EAFC9F
:1011DC0020460BF0F5FDE9E7074B1B78002BD2D12D
:1011EC0003F050F8CFE700BFF006010844090020D7
:1011FC0000070108030000200906002008B509E0DB
:10120C0001200CF0F3F80BF0FFFB0BF0D9FD0BF009
:10121C0049FA40B10AF078FF034B1B78002BEFD151
:10122C0009F03CFAECE708BDD205002070B590B08F
:10123C002022002107A80DF0E8FA00240194029462
:10124C000394049405940225069501260A9610230E
:10125C000B930D954FF4E0130F9306A801F00EFAC3
:10126C000F2301930295039404940594314601A82D
:10127C0001F044FC10B070BD70B501F0B1F9FFF78E
:10128C00D5FFFFF7AFF8FEF765FFFFF72BFE012048
:10129C000BF046FF2B200AF085FCFEF7F1FFFFF761
:1012AC0021F8FFF749F8FFF75DF80EF065FB0EF03B
:1012BC00DFFC0EF0CFFE0FF081F84FF47A60FFF7F1
:1012CC006BFEFFF755FE0020FFF7AAFD0BF0C2FFE7
:1012DC00322002F005FA01223B493C4801F036F875
:1012EC003B4C00221021204601F04CFE0022102124
:1012FC00204601F047FE00220121204601F042FE6B
:10130C00642002F0EDF901221021204601F03AFE92
:10131C0001221021204601F035FE01221146204603
:10132C0001F030FE2B4A2C492C480DF077FA0020A6
:10133C0002F0E0F901462A480DF070FA29491C2008
:10134C0004F02AFEFFF72EFDFFF788FE0124264B42
:10135C001C705A21204602F0D7F9244B04225A71F2
:10136C001C720325DD7110221A7002269E7100205A
:10137C0008F042FA204608F03FFA304608F03CFAF2
:10138C00284608F039FA0BF087FA194B1B78A34260
:10139C000DD00AF0B9F801200CF0FAFA154800F05B
:1013AC00B2FB02F037FD00200BF0BAFE04E0FFF7B1
:1013BC00CBFDEEE7FFF7CCFE0D4B1B78012BF9D1E3
:1013CC00FFF71CFFF6E700BFA8050020C0060020B1
:1013DC0000080140100701081C0701082807010834
:1013EC004C070108806101084507002048070020D0
:1013FC00030000205006002002689C4B9A4200D04B
:10140C00704730B49A4A13780133DBB21370994A9F
:10141C001168013111609848026801320260632B37
:10142C0009D99648036801330360914B002018706A
:10143C00934B01201860934B1868013018601868A2
:10144C00914B984206D98F4B002018608F4B1B781C
:10145C00012B20D08E4B9B68DB43C3F381338D482B
:10146C00C4789C4208D045780570857845708470A6
:10147C00C370894B01201860884B1B78DBB2012BA1
:10148C000FD0B1F57A7F00F08A80B2F57A7F00F048
:10149C00D28030BC7047824803780133DBB20370D2
:1014AC00D8E7804B1878C0B27F4B1B78DBB29842E0
:1014BC0023D07C4B1B78DBB2212B15D87B4B1B78B4
:1014CC00DBB2012B53D07A4B1B889BB240F2E2402B
:1014DC00834209D9764B1B889BB240F2A9508342B8
:1014EC0002D8724B01201870714B002018806E4B83
:1014FC001B78DBB26B480370C3E76D48038801337C
:10150C009BB2038003889BB243F698208342B8D9E0
:10151C00684B1B78DBB21F2B09D9674B1B689BB23E
:10152C006648038003889BB2B3F57F4F0FD000232E
:10153C00604803705E4803805A4803705A48037031
:10154C00564803705C4803605848037099E75A4842
:10155C000368C3F307435A4C237003686FEA1363A1
:10156C00DBB258480370584B01201870DFE7504B22
:10157C001B889BB25A2BA6D94F4803685B080360A3
:10158C004B4B1B889BB2A02B03D9036843F0004341
:10159C000360484803780133DBB2037093E7354BA3
:1015AC0000211960494B9968C94301F0C001A3F5AA
:1015BC0080639B68DB431B0A03F030030B4334D07E
:1015CC00434B1B78032B06D0642B19D040490B7866
:1015DC0001330B7059E73D4B9B68DB4303F0C003B1
:1015EC002B498968C943090A01F030010B43394979
:1015FC000B70394B00211960384B01211960E5E75C
:10160C00324B9B68DB4303F0C00321498968C94313
:10161C00090A01F030010B432E490B702F4B0121AD
:10162C0019602B4B0A211970D0E7002328490B7045
:10163C0028490B7029E7104B00221A60284B1B78A5
:10164C00002B53D0274A1278032A06D0962A07D0AB
:10165C00244A1378013313701BE7234A1370F7E7FE
:10166C00214A13701F4B04221A70F1E7000400404A
:10167C00E3050020E4050020E8050020DC0500203F
:10168C00D8050020AC050020A08601000100002038
:10169C00000C01400C0600205C0900208D05002088
:1016AC0098050020A40500208E050020930500203D
:1016BC00900500209205002088050020B20500202E
:1016CC00B5050020B40500208C0500200010014059
:1016DC00AB050020570900205009002040090020CC
:1016EC0011060020B0050020450900200023024A05
:1016FC001370024A1370CCE6B00500204509002097
:10170C0008B502680B4B9A4200D008BD0A490A780A
:10171C00531CDBB20B7009490878094988541D2BFE
:10172C0002D9054B00221A7001220449054800F029
:10173C000DFEEAE700380140D3050020A805002083
:10174C009C080020C0060020042800D07047044BE1
:10175C0001221A70034A13780133DBB21370F5E7D8
:10176C008D0500208E0500207047FEE7FEE7FEE7A2
:10177C00FEE770477047704708B500F043FF08BD9F
:10178C0008B5042001F004FC08BD000008B50248AF
:10179C0000F0CEF908BD00BF5006002008B5024885
:1017AC0000F060FE08BD00BFC006002082B00E4BEA
:1017BC009A6942F001029A619A6902F00102009260
:1017CC00009ADA6942F08052DA61DB6903F08053E7
:1017DC000193019B054A536823F0E06343F00073C7
:1017EC00536002B0704700BF00100240000001407F
:1017FC0002680E4B9A4200D0704700B583B003F5D7
:10180C000333DA6942F00202DA61DB6903F00203A6
:10181C000193019B002211461D2001F025FC1D2087
:10182C0001F056FC03B05DF804FB00BF000400405F
:10183C0030B587B000230293039304930593026899
:10184C001B4B9A4201D007B030BD03F558439A693F
:10185C0042F480429A619A6902F480420092009AA2
:10186C009A6942F004029A619B6903F004030193A4
:10187C00019B4FF4007302930223039303230593FC
:10188C000C4D02A9284601F091FA4FF480630293A3
:10189C0000240394049402A9284601F087FA2246F6
:1018AC002146252001F0E0FB252001F011FCCAE7C0
:1018BC00003801400008014000B587B000230293B6
:1018CC000393049305930268114B9A4202D007B01C
:1018DC005DF804FB03F56C439A6942F400729A615B
:1018EC009A6902F400720092009A9A6942F010020E
:1018FC009A619B6903F010030193019B08230293E7
:10190C000323039302A9034801F050FADFE700BF59
:10191C0000240140001001400368B3F1804F00D057
:10192C00704782B003F50433DA6942F00102DA61E0
:10193C00DB6903F001030193019B02B070470000C7
:10194C0000B587B0002302930393049305930368B7
:10195C00B3F1804F02D007B05DF804FB03F50433FC
:10196C009A6942F008029A619B6903F0080301939B
:10197C00019B4FF48063029302230393059302A906
:10198C00064801F013FA064A536823F4407343F0F7
:10199C00E06343F400735360DDE700BF000C0140CB
:1019AC000000014070B4036A23F001030362036A70
:1019BC004268846924F073040D6845EA040623F038
:1019CC0002048B6823430D4DA84209D00B4DA8424D
:1019DC000DD0426086614A684263036270BC7047F6
:1019EC0023F00803CC68234323F00403EEE722F42E
:1019FC0040724C6914438A692243EAE7002C014087
:101A0C0030B4036A23F480730362036A4268C469C6
:101A1C0024F073040D682C4323F400738D6843EA9F
:101A2C0005230F4DA84209D00D4DA8420ED042609F
:101A3C00C4614A68C263036230BC704723F400631C
:101A4C00CD6843EA052323F48063EDE722F440528A
:101A5C004D6942EA05128D6942EA0512E7E700BFBB
:101A6C00002C014030B4036A23F480530362036AF0
:101A7C004468C26922F4E6420D6842EA052223F466
:101A8C0000538D6843EA0533074DA84206D04460E5
:101A9C00C2614A680264036230BC704724F480441B
:101AAC004D6944EA8514F2E7002C014010B4036A36
:101ABC00046A24F001040462846924F0F00444EA0A
:101ACC00021223F00A030B438261036210BC7047BD
:101ADC0010B4036A23F0100303628469036A24F4CC
:101AEC00704444EA023223F0A00343EA01138261FA
:101AFC00036210BC7047836823F07003194341F0F4
:101B0C000701816070470268D36843F00103D3601A
:101B1C000268936803F00703062B03D0136843F0A5
:101B2C00010313600020704770477047704770477F
:101B3C0010B5044603681A6912F0020F11D0DA6866
:101B4C0012F0020F0DD06FF002021A61012303771D
:101B5C0003689B6913F0030F70D0FFF7E6FF0023B7
:101B6C00237723681A6912F0040F12D0DA6812F086
:101B7C00040F0ED06FF004021A610223237723683E
:101B8C009B6913F4407F5FD02046FFF7CEFF002304
:101B9C00237723681A6912F0080F12D0DA6812F052
:101BAC00080F0ED06FF008021A6104232377236804
:101BBC00DB6913F0030F4ED02046FFF7B6FF00236E
:101BCC00237723681A6912F0100F12D0DA6812F01A
:101BDC00100F0ED06FF010021A61082323772368C0
:101BEC00DB6913F4407F3DD02046FFF79EFF0023B6
:101BFC00237723681A6912F0010F03D0DA6812F008
:101C0C00010F36D123681A6912F0800F03D0DA68FD
:101C1C0012F0800F34D123681A6912F0400F03D0F0
:101C2C00DA6812F0400F32D123681A6912F0200FD3
:101C3C0003D0DA6812F0200F30D110BDFFF774FF1B
:101C4C002046FFF773FF8AE72046FFF76DFF20461B
:101C5C00FFF76CFF9BE72046FFF766FF2046FFF778
:101C6C0065FFACE72046FFF75FFF2046FFF75EFFFE
:101C7C00BDE76FF001021A612046FFF7BDFBC1E71B
:101C8C006FF080021A61204600F0E6F9C3E76FF0AE
:101C9C0040021A612046FFF74AFFC5E76FF02002A9
:101CAC001A61204600F0D7F9C7E7000003681B4A09
:101CBC0090420AD0B0F1804F07D0A2F594329042F6
:101CCC0003D002F58062904203D123F070034A687E
:101CDC001343124A90420AD0B0F1804F07D0A2F5BC
:101CEC009432904203D002F58062904203D123F4E7
:101CFC004073CA68134323F080034A69134303609B
:101D0C008B68C3620B688362044B984202D0012338
:101D1C00436170470B690363F9E700BF002C014076
:101D2C00A8B110B5044690F83D305BB1022384F89D
:101D3C003D30211D2068FFF7B9FF012384F83D30A9
:101D4C00002010BD80F83C30FFF752FDEEE701207B
:101D5C007047A8B110B5044690F83D305BB1022332
:101D6C0084F83D30211D2068FFF7A0FF012384F883
:101D7C003D30002010BD80F83C30FFF7CDFDEEE784
:101D8C000120704730B4036A23F010030362036A26
:101D9C004468826922F4E6420D6842EA052223F087
:101DAC0020038D6843EA05130E4DA84209D00D4D52
:101DBC00A8420ED0446082614A688263036230BCE0
:101DCC00704723F08003CD6843EA051323F04003EA
:101DDC00EDE724F440644D6944EA85048D6944EAD6
:101DEC008504E7E7002C014038B590F83C30012B16
:101DFC0066D00D460446012380F83C30022380F85F
:101E0C003D300C2A1AD8DFE802F0071919192019ED
:101E1C0019193419191947000068FFF7C3FD226816
:101E2C00936943F0080393612268936923F00403D8
:101E3C0093612268936929690B439361012384F8A8
:101E4C003D30002084F83C0038BD0068FFF79AFF55
:101E5C002268936943F4006393612268936923F4C5
:101E6C008063936122689369296943EA0123936132
:101E7C00E4E70068FFF7C4FD2268D36943F0080368
:101E8C00D3612268D36923F00403D3612268D36938
:101E9C0029690B43D361D1E70068FFF7E3FD2268A2
:101EAC00D36943F40063D3612268D36923F480635C
:101EBC00D3612268D369296943EA0123D361BDE761
:101ECC000220C1E710B4846824F47F4442EA03235F
:101EDC000B432343836010BC704790F83C30012BBC
:101EEC0066D010B50446012380F83C30022380F8FC
:101EFC003D300268936823F47F4323F077039360AB
:101F0C000B68402B4AD013D9602B3DD01ED9702BB7
:101F1C0028D0B3F5005F30D1CB684A688968006877
:101F2C00FFF7D0FF2268936843F48043936024E06A
:101F3C00102B06D004D9202B03D0302B01D01CE061
:101F4C00DBB919462068FFF7D6FD16E0502B14D1EB
:101F5C00CA6849680068FFF7A9FD50212068FFF79F
:101F6C00CAFD0AE0CB684A6889680068FFF7AAFFD7
:101F7C002268936843F077039360012384F83D3023
:101F8C00002084F83C0010BDCA6849680068FFF75F
:101F9C009FFD60212068FFF7AEFDEEE7CA68496837
:101FAC000068FFF783FD40212068FFF7A4FDE4E7FC
:101FBC000220704710B401F01F01012303FA01F451
:101FCC00036A23EA04030362036A8A40134303622D
:101FDC0010BC704710B5044601220068FFF7EAFFF9
:101FEC0023680A4A93420BD02268936803F00703D4
:101FFC00062B03D0136843F001031360002010BDBF
:10200C005A6C42F400425A64EEE700BF002C0140C7
:10201C0090F83C30012B1CD070B4012680F83C6049
:10202C00022380F83D3002685568936825F07005EE
:10203C000C682C4323F080054B682B4354600268DA
:10204C00936080F83D60002380F83C30184670BCEB
:10205C00704702207047704770470268D36823F4BA
:10206C009073D3600268536923F0010353612023FA
:10207C0080F83A30704790F83930DBB2212B2AD1F6
:10208C008368B3F5805F16D0036A5A1C02621A7813
:10209C0003685A60C38C013B9BB2C384EBB90268E2
:1020AC00D36823F08003D3600268D36843F0400305
:1020BC00D36000207047036A1B880268C3F30803CF
:1020CC00536003691BB9036A02330362E2E7036AD4
:1020DC0001330362DEE702207047002070470000E6
:1020EC0038B504460268136923F44053C1680B43A6
:1020FC00136183680269134342691A430168CB6810
:10210C0023F4B05323F00C031343CB6002685369E0
:10211C0023F4407381690B4353610268214B9A424B
:10212C001FD000F0A5FD00EB800000EB8000636881
:10213C009B00B0FBF3F01C4DA5FB0032510964224F
:10214C0002FB110213013233A5FB03235B0903F0DD
:10215C00F00202EB011203F00F03216813448B60B1
:10216C0038BD00F095FD00EB800000EB800063684B
:10217C009B00B0FBF3F00C4DA5FB0032510964221F
:10218C0002FB110213013233A5FB03235B0903F09D
:10219C00F00202EB011203F00F03216813448B6071
:1021AC00DEE700BF003801401F85EB512DE9F041FF
:1021BC0005460F4616469846069C2B681B6837EA60
:1021CC0003030CBF01230023B3421DD1B4F1FF3F25
:1021DC00F3D02CB100F022FAA0EB0800A042ECD90D
:1021EC002A68D36823F4D073D3602A68536923F028
:1021FC0001035361202385F8393085F83A300023E8
:10220C0085F83830032000E00020BDE8F08158B399
:10221C0010B5044690F839300BB3242384F83930C8
:10222C002268D36823F40053D3602046FFF758FF8D
:10223C002268136923F4904313612268536923F0D5
:10224C002A0353612268D36843F40053D3600020FF
:10225C00E063202384F8393084F83A3010BD80F8DC
:10226C003830FFF7E5FAD8E7012070472DE9F04147
:10227C0082B01E4690F83930DBB2202B55D1044683
:10228C000D469046002955D0002A55D090F838308C
:10229C00012B53D0012380F838300023C363212352
:1022AC0080F8393000F0BAF90746A4F82480A4F875
:1022BC00268010E000963B46002280212046FFF746
:1022CC0075FF00283CD12B882268C3F308035360A8
:1022DC002369C3B90235E38C9BB2B3B1E38C013BE8
:1022EC009BB2E384A368B3F5805FE3D000963B46D2
:1022FC00002280212046FFF759FF18BB2A7823685B
:10230C005A600135E7E70135E5E700963B460022C8
:10231C0040212046FFF74AFF0346A8B9202284F843
:10232C003920002284F8382000E00223184602B03D
:10233C00BDE8F0810123F9E70123F7E70223F5E774
:10234C000323F3E70323F1E70323EFE790F83A3095
:10235C00DBB2202B20D109B312B390F83830012B0B
:10236C0020D081628285C2850023C363222280F83B
:10237C003A2080F838300168CA6842F48072CA602A
:10238C0001684A6942F001024A610168CA6842F078
:10239C002002CA601846704702207047012070471F
:1023AC000120704702207047704708B50168CB6860
:1023BC0023F04003CB60202380F83930FFF7F4FF83
:1023CC00002008BD08B590F83A30DBB2222B45D17D
:1023DC008368B3F5805F0ED0036903BB03685A684A
:1023EC00836A591C81621A70C38D013B9BB2C385F1
:1023FC00F3B1002033E0826A036943B903685B6878
:10240C00C3F308031380836A02338362ECE7036827
:10241C005B68DBB21380836A01338362E4E7036891
:10242C005B68826A511C816203F07F031370DBE7E7
:10243C000268D36823F02003D3600268D36823F4C6
:10244C008073D3600268536923F001035361202326
:10245C0080F83A30FFF754F9002000E0022008BD64
:10246C007047000010B5044602681368D1685269C1
:10247C0013F00F0005D113F0200F02D011F0200F34
:10248C0053D1002867D012F0010202D111F4907FD1
:10249C0061D013F0010F06D011F4807F03D0E06BF4
:1024AC0040F00100E06313F0040F04D01AB1E06BAC
:1024BC0040F00200E06313F0020F04D01AB1E06B9D
:1024CC0040F00400E06313F0080F04D01AB1E26B83
:1024DC0042F00802E263E26B002A48D013F0200FAE
:1024EC0002D011F0200F24D123685B6903F0400364
:1024FC00E26B12F0080F00D13BB32046FFF7ADFDA5
:10250C0023685A6912F0400F1BD05A6922F040021E
:10251C005A61636B8BB11A4A5A63606B00F046FDCB
:10252C0028B3606B436B984721E02046FFF74AFFC6
:10253C001DE02046FFF746FFD6E72046FFF790FF49
:10254C0015E02046FFF78CFF11E02046FFF788FFCF
:10255C000023E3630BE013F0800F02D011F0800F27
:10256C0006D113F0400F02D011F0400F04D110BD72
:10257C002046FFF780FDFAE72046FFF716FFF6E747
:10258C009125000808B5406A0023C385C384FFF772
:10259C0067FF08BD10B504460E4B18784FF47A73DC
:1025AC00B3FBF0F30C4A1068B0FBF3F000F09EFDA7
:1025BC0068B90F2C01D901200AE0002221464FF006
:1025CC00FF3000F051FD054B1C60002000E00120A5
:1025DC0010BD00BF070000200C00002008000020E8
:1025EC0008B5074A136843F010031360032000F08A
:1025FC0029FD0020FFF7CEFFFFF7D8F8002008BD1B
:10260C0000200240034A1168034B1B780B441360F3
:10261C00704700BF5407002007000020014B1868CA
:10262C00704700BF5407002038B50446FFF7F6FF8B
:10263C000546B4F1FF3F02D0044B1B781C44FFF756
:10264C00EDFF401BA042FAD338BD00BF07000020AD
:10265C0082B0084B1B68084AA2FB03235B0A00FBF1
:10266C0003F0019000BF019B5A1E0192002BF9D17F
:10267C0002B070470C000020D34D6210002800F00F
:10268C00F58170B582B00446036813F0010F2CD0AD
:10269C00AB4B5B6803F00C03042B1DD0A84B5B68A1
:1026AC0003F00C03082B12D06368B3F5803F41D0C4
:1026BC00002B55D103F1804303F504331A6822F43F
:1026CC0080321A601A6822F480221A6037E09C4B20
:1026DC005B6813F4803FE7D0994B1B6813F4003F01
:1026EC0003D06368002B00F0C381236813F0020F42
:1026FC0076D0934B5B6813F00C0F5FD0904B5B68FC
:10270C0003F00C03082B54D02369002B00F08A80B3
:10271C008C4B01221A60FFF781FF0546884B1B6822
:10272C0013F0020F75D1FFF779FF401B0228F5D982
:10273C000320A0E1824A136843F48033136063687A
:10274C0043B3FFF76BFF05467D4B1B6813F4003F4B
:10275C00CBD1FFF763FF401B6428F5D903208AE136
:10276C00B3F5A02F09D0764B1A6822F480321A6088
:10277C001A6822F480221A60E1E703F18043A3F582
:10278C003C331A6842F480221A601A6842F4803290
:10279C001A60D4E7FFF742FF0546694B1B6813F438
:1027AC00003FA2D0FFF73AFF401B6428F5D9032065
:1027BC0061E1634B5B6813F4803FA5D1604B1B68F0
:1027CC0013F0020F04D02369012B01D0012052E138
:1027DC005B4A136823F0F803616943EAC103136091
:1027EC00236813F0080F32D0A369002B5BD0564B33
:1027FC0001221A60FFF712FF0546514B5B6A13F07A
:10280C00020F21D1FFF70AFF401B0228F5D9032044
:10281C0031E14B4A136823F0F803616943EAC103C1
:10282C001360DDE7474B00221A60FFF7F7FE054601
:10283C00434B1B6813F0020FD2D0FFF7EFFE401B87
:10284C000228F5D9032016E10120FFF701FF2368C8
:10285C0013F0040F00F09880394BDB6913F0805FA4
:10286C0033D1374BDA6942F08052DA61DB6903F01D
:10287C0080530193019B0125344B1B6813F4807F1B
:10288C0025D0E368012B36D0002B4CD103F18043CB
:10289C0003F504331A6A22F001021A621A6A22F052
:1028AC0004021A622CE0284B00221A60FFF7B6FED5
:1028BC000546234B5B6A13F0020FC8D0FFF7AEFE40
:1028CC00401B0228F5D90320D5E00025D4E71F4A88
:1028DC00136843F480731360FFF7A0FE06461B4B8E
:1028EC001B6813F4807FCCD1FFF798FE801B642803
:1028FC00F5D90320BFE0124A136A43F001031362B7
:10290C00E3687BB3FFF78AFE06460D4B1B6A13F098
:10291C00020F38D1FFF782FE801B41F288339842B8
:10292C00F3D90320A7E0052B12D0054B1A6A22F02D
:10293C0001021A621A6A22F004021A62E0E700BF6E
:10294C0000100240000042428004424200700040ED
:10295C004C4B1A6A42F004021A621A6A42F00102E3
:10296C001A62CDE7FFF75AFE0646464B1B6A13F078
:10297C00020F08D0FFF752FE801B41F288339842B9
:10298C00F3D9032077E0E5B9E369002B72D03D4A17
:10299C00526802F00C02082A56D0022B17D03A4B80
:1029AC0000221A60FFF73AFE0446364B1B6813F000
:1029BC00007F47D0FFF732FE001B0228F5D9032019
:1029CC0059E0304AD36923F08053D361DCE72E4BB6
:1029DC0000221A60FFF722FE05462A4B1B6813F0F3
:1029EC00007F06D0FFF71AFE401B0228F5D9032002
:1029FC0041E0236AB3F5803F1AD022494B6823F497
:102A0C007413226A606A024313434B601E4B01220B
:102A1C001A60FFF703FE04461A4B1B6813F0007F85
:102A2C000ED1FFF7FBFD001B0228F5D9032022E095
:102A3C00144A536823F40033A1680B435360DCE75A
:102A4C00002018E0002016E0012B16D00D4B5B681F
:102A5C0003F48031226A914201D001200BE003F48F
:102A6C007013626A93420AD0012004E0012070477F
:102A7C00012000E0002002B070BD0120FBE7002027
:102A8C00F9E700BF001002406000424210B487B06A
:102A9C00164C94E80F000DF1180C0CE90F00238A6A
:102AAC00ADF80430124B5B6803F00C02082A1AD103
:102ABC00C3F38342624412F8102C13F4803F05D107
:102ACC000C4800FB02F007B010BC7047084B5B6869
:102ADC00C3F34043634413F8143C074800FB02F073
:102AEC00B0FBF3F0EFE70448EDE700BF6006010828
:102AFC000010024000093D0000127A00002800F08E
:102B0C00A38070B50446524B1B6803F007038B423D
:102B1C000CD24F4A136823F007030B43136013685E
:102B2C0003F007038B4201D0012070BD236813F022
:102B3C00020F17D013F0040F04D0464A536843F425
:102B4C00E0635360236813F0080F04D0414A5368C4
:102B5C0043F4605353603F4A536823F0F003A0687A
:102B6C00034353600D46236813F0010F31D06368A3
:102B7C00012B20D0022B25D0364A126812F0020FFE
:102B8C0064D034494A6822F0030213434B60FFF7C8
:102B9C0045FD06462F4B5B6803F00C036268B3EBF4
:102BAC00820F16D0FFF73AFD801B41F28833984212
:102BBC00F0D90320B9E7274A126812F4003FE0D19C
:102BCC000120B2E7234A126812F0007FD9D101200C
:102BDC00ABE71F4B1B6803F00703AB420CD91C4A35
:102BEC00136823F007032B431360136803F00703E8
:102BFC00AB4201D0012098E7236813F0040F06D0F4
:102C0C00144A536823F4E063E1680B435360236870
:102C1C0013F0080F07D00F4A536823F4605321694F
:102C2C0043EAC1035360FFF731FF0A4B5B68C3F300
:102C3C000313094AD35CD840084B1860084B18683A
:102C4C00FFF7A8FC002070E70120704701206CE71B
:102C5C0000200240001002404C0B01080C00002028
:102C6C0008000020014B1868704700BF0C000020C2
:102C7C0008B5FFF7F7FF044B5B68C3F30223034A65
:102C8C00D35CD84008BD00BF001002405C0B0108AB
:102C9C0008B5FFF7E7FF044B5B68C3F3C223034A95
:102CAC00D35CD84008BD00BF001002405C0B01088B
:102CBC0030B587B00546384C94E80F000DF1180C70
:102CCC000CE90F00238AADF80430022D50D0102DE2
:102CDC0003D0012D2BD0002054E0304B5A681B68D8
:102CEC0013F0807F50D0C2F3834306A90B4413F832
:102CFC00100C12F4803F16D0284B5B68C3F3404392
:102D0C000B4413F8142C264BB3FBF2F300FB03F02B
:102D1C00224B5B6813F4800F34D14000214BA3FB92
:102D2C00003040082EE0204B03FB00F0F0E71B4B7B
:102D3C001B6A40F202321A40B2F5817F26D003F4AE
:102D4C004073B3F5007F04D0B3F5407F09D0002069
:102D5C0018E0124A526A12F0020FF5D049F64040C0
:102D6C0010E00E4B1B6813F4003F12D1002009E059
:102D7C00FFF78EFF094B5B68C3F3813301335B00B4
:102D8C00B0FBF3F007B030BD0020FBE74FF4004080
:102D9C00F8E74FF22440F5E77406010800100240F2
:102DAC0000127A00ABAAAAAA00093D00F0B482B0C6
:102DBC0000263246A2E0002D5AD0012D00D1CE685B
:102DCC00FF2B69D88446FF2B69D89500DCF80040AE
:102DDC000F27AF4024EA070406FA05F52C43CCF87C
:102DEC0000404C6814F0805F00F087805F4CA56950
:102DFC0045F00105A561A46904F001040194019C4E
:102E0C009508AF1C5A4C54F8274002F00307BF003A
:102E1C004FF00F0C0CFA07FC24EA0C0C554CA0429A
:102E2C0043D004F58064A04200F0818004F58064F6
:102E3C00A0427ED004F58064A04234D0042435E056
:102E4C004D4FBD4214D00BD94C4FBD4210D007F59D
:102E5C008037BD420CD0A7F58017BD42B0D107E03A
:102E6C00A7F58017BD4203D007F58037BD42A7D127
:102E7C008D687DB1012D08D044610826A0E7CE688D
:102E8C0008369DE7CE680C369AE70461082697E76A
:102E9C00002695E7042693E700F1040C93E7A2F1D2
:102EAC000805AD0092E7032400E00024BC4044EA8E
:102EBC000C0402352E4F47F825404C6814F4803F23
:102ECC0039D02F4D2C681C432C604C6814F4003FF7
:102EDC0037D02B4D6C681C436C604C6814F4801F0D
:102EEC0035D0274DAC681C43AC604C6814F4001F03
:102EFC0033D0234DEC682343EB6001320B6833FA7B
:102F0C0002F430D00124944023409C42F5D14D680A
:102F1C00122DB7D094D8022DB1D07FF64CAF032D23
:102F2C00B6D0112D7FF44CAFCE68043648E701249F
:102F3C00BCE70224BAE7124D2C6824EA03042C6087
:102F4C00C3E70F4D6C6824EA03046C60C5E70C4DB5
:102F5C00AC6824EA0304AC60C7E7094DEC6824EACA
:102F6C000303EB60C9E702B0F0BC704700100240ED
:102F7C000000014000080140000021100000311049
:102F8C000004014012B909040161704701617047E6
:102F9C0008B5054B5B69034200D108BD024B586173
:102FAC00FEF7D2FBF9E700BF0004014008B590F82A
:102FBC002130022B03D004238363012008BD026857
:102FCC00136823F00E0313600268136823F00103E7
:102FDC0013600368194A934214D0143293421FD0E1
:102FEC00143293421ED0143293421ED014329342A8
:102FFC001ED01432934202D04FF0807203E04FF493
:10300C00801200E001220E4B5A60012380F821301F
:10301C00002380F82030436B6BB198470020CDE73C
:10302C001022F0E74FF48072EDE74FF48052EAE79C
:10303C004FF48032E7E70020C0E700BF08000240F1
:10304C0000000240074AD36823F4E0631B041B0C06
:10305C00000200F4E060184340F0BF6040F4003020
:10306C00D060704700ED00E030B4174BDB68C3F361
:10307C000223C3F10704042C28BF04241D1D062DB4
:10308C0018D9033B4FF0FF3505FA04F421EA04018B
:10309C00994005FA03F322EA0303194300280BDBDA
:1030AC000901C9B200F1604000F5614080F80013DD
:1030BC0030BC70470023E5E700F00F000901C9B2EE
:1030CC00024B1954F4E700BF00ED00E014ED00E0F2
:1030DC00002807DB00F01F02400901239340024A3D
:1030EC0042F82030704700BF00E100E00138B0F139
:1030FC00807F0AD2064B5860064AF02182F82310D2
:10310C000020986007221A6070470120704700BFAA
:10311C0010E000E000ED00E0F0B583B005460C4691
:10312C0000230193FFF77AFA2B689A6812F4807FD8
:10313C0023D106465A6812F4807F03D1DB6A13F45C
:10314C00700F24D04B4B1F680220FFF7B1FDB7FB6B
:10315C00F0F02B681969484A11422FD1D96802F155
:10316C005C4211422AD11969444A114239D1DA68B8
:10317C00434B1A4237D029273AE0AB6A43F020037D
:10318C00AB62002385F82430012003B0F0BD2B681E
:10319C001B6813F0020F48D1B4F1FF3FF7D024B1F4
:1031AC00FFF73CFA801BA042F1D9AB6A43F0040351
:1031BC00AB62002385F824300320E6E719692F4A17
:1031CC00114204D1D96802F16E4211420DD0196935
:1031DC002C4A0A405AB9DA682A4B13405BB1FC27D7
:1031EC0006E0292704E0142702E0542700E0FC271E
:1031FC0007FB00F704E05427FAE7019B0133019326
:10320C00019BBB4211D2B4F1FF3FF6D024B1FFF7C2
:10321C0005FA801BA042F0D9AB6A43F00403AB6201
:10322C00002385F824300320AFE72B686FF01202DF
:10323C001A60AB6A43F40073AB622B689B6803F4AF
:10324C006023B3F5602F01D000209EE72B7B6BB978
:10325C00AB6A23F48073AB62AB6A13F4805F07D163
:10326C00AB6A43F00103AB6200208EE700208CE7D1
:10327C0000208AE70C000020244992249224491251
:10328C0092244900499224000368D86C70470000CE
:10329C0030B482B00023019390F82430012B00F05D
:1032AC008B800246012380F824304B68062B29D8EA
:1032BC000568686B03EB8303053B1F249C4020EAE5
:1032CC0004000C6804FA03F303436B630B68092BCB
:1032DC0038D91568E86803EB43031E3B07249C4070
:1032EC0020EA04008C6804FA03F30343EB600B68D8
:1032FC00103B012B34D90020002382F8243002B07B
:10330C0030BC70470C2B0ED80568286B03EB83037D
:10331C00233B1F249C4020EA04000C6804FA03F3AE
:10332C0003432B63D2E70568E86A03EB8303413B55
:10333C001F249C4020EA04000C6804FA03F30343A6
:10334C00EB62C3E71568286903EB430307249C4031
:10335C0020EA04008C6804FA03F303432B61C6E7EC
:10336C0013681648834205D0936A43F02003936296
:10337C000120C1E7986810F4000F1BD1986840F445
:10338C00000098600B68102B01D00020B4E70C4BA8
:10339C001B680C49A1FB03139B0C03EB8303590023
:1033AC00019102E0019B013B0193019B002BF9D1A0
:1033BC000020A1E700209FE70220A0E700240140A5
:1033CC000C00002083DE1B43806A704730B583B04D
:1033DC000023019303689A6812F0010F2ED19A68AA
:1033EC0042F001029A60174B1B68174AA2FB032399
:1033FC009B0C019302E0019B013B0193019B002B71
:10340C00F9D10446FFF70AF9054623689B6813F0C7
:10341C00010F11D1FFF702F9401B0228F5D9A36A5D
:10342C0043F01003A362E36A43F00103E362002359
:10343C0084F82430012002E0002000E0002003B0DA
:10344C0030BD00BF0C00002083DE1B4390F82430FD
:10345C00012B6AD010B50446012380F82430FFF705
:10346C00B5FF024600285BD1A36A23F4407323F016
:10347C00010343F48073A36223682D498B4227D048
:10348C00A16A21F48011A162596811F4806F05D0F2
:10349C00A16A21F4405141F48051A162A16A11F456
:1034AC00805F2BD0E16A21F00601E162002184F8F3
:1034BC0024106FF0020119602368996801F46021EF
:1034CC00B1F5602F1DD0996841F4801199602AE004
:1034DC00A1F58061496811F4702FD1D0A16A41F433
:1034EC008011A1621349496811F4806FD6D0A16A8A
:1034FC0021F4405141F48051A162CFE70021E162F7
:10350C00D4E70B498B4204D0996841F4A00199602F
:10351C0009E0A1F58061496811F4702FD3D1F3E76C
:10352C00002384F82430104610BD02221046704748
:10353C00002801400024014038B503689A6812F055
:10354C00010F01D1002038BD04469A6822F0010217
:10355C009A60FFF763F8054623689B6813F0010F28
:10356C000ED0FFF75BF8401B0228F5D9A36A43F095
:10357C001003A362E36A43F00103E3620120E2E774
:10358C000020E0E700287FD038B50446836A002B82
:10359C0033D02046FFF7D0FFA36A13F010036DD190
:1035AC0000286BD1A26A22F4885222F0020242F067
:1035BC000202A2626268E1690A43257B42EA450283
:1035CC00A168B1F5807F21D001291CD0217D012972
:1035DC001FD02568696821F469410B436B60216831
:1035EC008D682A4B2B4013438B60A368B3F5807F07
:1035FC0020D0012B1ED000211FE0C36280F82430A4
:10360C00FEF75AF9C5E74FF48073DFE74FF4807388
:10361C00DCE735B9A169013943EA413343F400636E
:10362C00D7E7A16A41F02001A162E16A41F00101F2
:10363C00E162CEE72369013B19052568EB6A23F4A7
:10364C0070030B43EB6223689968114B0B409A4251
:10365C000BD0A36A23F0120343F01003A362E36AB6
:10366C0043F00103E36201200DE00023E362A36A4F
:10367C0023F0030343F00103A36204E0A36A43F0C5
:10368C001003A362012038BD01207047FDF7E1FF54
:10369C00FE0E1FFF0F4B1A6842F001021A605968A8
:1036AC000D4A0A405A601A6822F0847222F4803261
:1036BC001A601A6822F480221A605A6822F4FE02F8
:1036CC005A604FF41F029A60044B4FF000629A60EC
:1036DC00704700BF001002400000FFF800ED00E052
:1036EC0008B5034B1B7803B108BDFEF79DFFFBE744
:1036FC005807002008B5034B1B78014618460CF000
:10370C0008FB08BD0500002008B5044B1B780A46D1
:10371C00014618460CF0B2FA08BD00BF05000020A7
:10372C0008B5044B1B780A46014618460CF0A6FA5D
:10373C0008BD00BF0600002008B50CF005FC08BD54
:10374C0008B50CF0DAFB08BD10B51C461346224632
:10375C000CF0B1FA10BD70B588B004460D46164693
:10376C00197868460BF051F833466A4629462046CC
:10377C000CF0A1FA08B070BD10B5C0B014468DF8AD
:10378C0000008DF8011019460DF102000BF032F813
:10379C00044B1878A31CDBB26A46FD210CF08BFAA3
:1037AC0040B010BD0500002038B50546002404E0EB
:1037BC000520FEF739FF0134A4B2AC42F8D338BD72
:1037CC0008B50146024B18780CF0FFF808BD00BF95
:1037DC000408002008B50A460146024B18780CF084
:1037EC00D1F808BD0408002008B5FEF71DFF08BD80
:1037FC0008B5014640200CF01FFD08BD08B50A466F
:10380C0001464A200CF03EFD08BD08B513460A4699
:10381C00014628200CF0C9FE08BD08B513460A461F
:10382C00014628200CF0D0FD08BD0000024A137898
:10383C0023EA000010707047B6050020024A137886
:10384C0018431070704700BFB6050020014B187864
:10385C00704700BFB605002008B5082809D8DFE876
:10386C0000F0050505050D0D0D0D09005220FFF7A3
:10387C004BFF08BD5720FFF747FFFAE75D20FFF726
:10388C0043FFF6E7F8B505460C4617465320FFF7FD
:10389C0031FF00F03F065E20FFF72CFF00F03F01E8
:1038AC0004F03F04082D0ED8DFE805F0050E1924AE
:1038BC002F37424D580031465320FFF725FF214644
:1038CC005320FFF721FFF8BD46F040015320FFF7CE
:1038DC001BFF44F040015320FFF716FFF3E746F0BF
:1038EC0080015320FFF710FF44F080015320FFF7B5
:1038FC000BFFE8E746F0C0015320FFF705FF44F04B
:10390C00C0015320FFF700FFDDE75E20FFF7FCFE50
:10391C0021465E20FFF7F8FED5E741F040015E201E
:10392C00FFF7F2FE44F040015E20FFF7EDFECAE720
:10393C0041F080015E20FFF7E7FE44F080015E203D
:10394C00FFF7E2FEBFE741F0C0015E20FFF7DCFEAF
:10395C0044F0C0015E20FFF7D7FEB4E721465820A3
:10396C00FFF7D2FE07F01F015920FFF7CDFEAAE7A3
:10397C0038B5CDB2090A090101F07001D4B2C2F315
:10398C000222082812D8DFE800F0050505051F1FE4
:10399C001F1F120011435420FFF7B6FE2946552075
:1039AC00FFF7B2FE21465620FFF7AEFE38BD11439D
:1039BC005A20FFF7A9FE29465B20FFF7A5FE2146FA
:1039CC005C20FFF7A1FEF1E711435F20FFF79CFE9F
:1039DC0029466020FFF798FE21466120FFF794FEF0
:1039EC00E4E7000070B506460C4614F8015B1021A4
:1039FC00FD20FFF789FE3146FE20FFF785FE044BC4
:103A0C00187823462A46FF21FFF79EFE70BD00BFA3
:103A1C000500002070B582B0064602AC04F8012DFA
:103A2C000D787021FD20FFF76FFE3146FE20FFF769
:103A3C006BFE044B187823462A46FF21FFF78BFEBA
:103A4C0002B070BD0500002038B504460D46532069
:103A5C00FFF750FE00F03F01A40164B22143C9B24C
:103A6C005320FFF751FE5E20FFF744FE00F03F00AD
:103A7C0044EA0001C9B25E20FFF746FE5120FFF771
:103A8C0039FE15F0080F01D100F0F70020F0070106
:103A9C0049B205F00F052943C9B25120FFF734FE96
:103AAC0038BD10B504466920FFF724FE00F00F0165
:103ABC0041EA0411C9B26920FFF726FE0021582003
:103ACC00FFF722FE10BD0000072825D8DFE800F024
:103ADC0004080C1014181C20114B124A1A60704761
:103AEC000F4B114A1A6070470D4B104A1A60704701
:103AFC000B4B0F4A1A607047094B0E4A1A607047FD
:103B0C00074B0D4A1A607047054B0C4A1A607047F8
:103B1C00034B0B4A1A607047014B094A1A607047F5
:103B2C00C00500206C4F0108844F0108784F010834
:103B3C00904F0108544F0108484F0108604F01088D
:103B4C00BC4F010870B48C6884420EDB9E681D6803
:103B5C00761B0B68E41A18D0C01A06FB00F696FB0D
:103B6C00F4F42C44146001200DE05D689E68AD1BDC
:103B7C004B681B1B0BD0041B05FB04F595FBF3F5E5
:103B8C0035441560012070BC70470020FBE7002015
:103B9C00F9E708B5413892284BD8DFE800F0744AB1
:103BAC004A4A4A4A4A4A4A4A4A4A4A4A4A4A4A4A69
:103BBC004A4A4A4A4A4A4A4A4A4A4A4A4A4A4A4A59
:103BCC004A4A4A4A4A4A4A4A4A4A4A4A4A4A4A4A49
:103BDC004A4A4A4A4A4A4A4A4A4A4A4A4A4A4A4A39
:103BEC004A4A4A4A4A4A4A4A4A4A4A4A4A4A4A4A29
:103BFC004A4A4C50544A585C4AB04A4A4A4A4A4A81
:103C0C004A4A4A4A4A4A4A4A4A4A4A4A4A4A4A4A08
:103C1C004A4A4A4A4A6460686C4A4A4A4A4A787C28
:103C2C0080844A94984A9C704A4A888C90A0A4A894
:103C3C00AC00002064E01220FFF77EFD60E0132052
:103C4C00FFF77AFD5CE01420FFF776FD58E01720B3
:103C5C00FFF772FD54E01620FFF76EFD50E0A32035
:103C6C00FFF76AFD4CE0A020FFF766FD48E0A420BA
:103C7C00FFF762FD44E0AC20FFF75EFD40E0AD20B5
:103C8C00FFF75AFD3CE02020FFF756FD38E0A52059
:103C9C00FFF752FD34E0A620FFF74EFD30E0A720E1
:103CAC00FFF74AFD2CE0A820FFF746FD28E0BC20DA
:103CBC00FFF742FD24E0BD20FFF73EFD20E0BE20D3
:103CCC00FFF73AFD1CE0A220FFF736FD18E0AE200E
:103CDC00FFF732FD14E0AA20FFF72EFD10E0C02004
:103CEC00FFF72AFD0CE0C120FFF726FD08E0C220FB
:103CFC00FFF722FD04E0C320FFF71EFD00E07B2050
:103D0C0008BD000010B584B00C469538052809D8BC
:103D1C00DFE800F0120318081E24134A6B4607CA8A
:103D2C0083E807006B4603AA10492046FFF70AFFF9
:103D3C009DF80C0004B010BD0D4A6B4607CA83E811
:103D4C000700EFE70B4A6B4607CA83E80700E9E771
:103D5C00094A6B4607CA83E80700E3E7074A6B4644
:103D6C0007CA83E80700DDE728000020E8040020EC
:103D7C00340000205C020020A0000020680200201B
:103D8C00F8B501290FD04FF0FF35204B1C682544A6
:103D9C001F4B1B68AB4203DC1D4B5B68AB4204DA68
:103DAC00E4B22046F8BD0125EFE70646ECB2214609
:103DBC00FFF7A8FF0746A6F19500052808D8DFE80D
:103DCC0000F00A030F07142039463120FFF79CFC42
:103DDC000E4B1D60E5E739463220FFF795FCF7E7FF
:103DEC0039463320FFF790FCF2E73420FFF782FCD2
:103DFC0041B221F03F013943C9B23420FFF784FCB2
:103E0C00E6E739464E20FFF77FFCE1E7B8050020D6
:103E1C00E804002010B59620FFF7BBFEC1B2962037
:103E2C00FFF770FF01463120FFF76EFC9720FFF77C
:103E3C00B0FEC1B29720FFF765FF01463320FFF7B4
:103E4C0063FC9520FFF7A5FEC1B29520FFF75AFF42
:103E5C0001463220FFF758FC9920FFF79AFEC1B2B9
:103E6C009920FFF74FFF04463420FFF743FC41B283
:103E7C0021F03F012143C9B23420FFF745FC9A20C1
:103E8C00FFF787FEC1B29A20FFF73CFF0446A02142
:103E9C004B20FFF739FC21464E20FFF735FC10BDB7
:103EAC0008B53F4807F074FD3E4B1B78102B19D01A
:103EBC0007D9502B54D0602B3BD0302B50D0002046
:103ECC0008BD032BFBD8FFF7C1FC10F0060F04D084
:103EDC0003210020FFF7B8FDF1E701210020FFF7D7
:103EEC00B3FDECE7FFF7B2FC10F0060F10D0032186
:103EFC000020FFF7A9FD03210120FFF7A5FD0321F9
:103F0C000220FFF7A1FD03210846FFF79DFDD6E730
:103F1C0001210020FFF798FD01210846FFF794FDD1
:103F2C0001210220FFF790FD01210320FFF78CFDFA
:103F3C00C5E7FFF78BFC10F0060F08D0032100201B
:103F4C00FFF782FD03210120FFF77EFDB7E701217A
:103F5C000020FFF779FD01210846FFF775FDAEE75C
:103F6C00FFF774FC10F0060F0CD101210020FFF7B5
:103F7C006BFD01210846FFF767FD01210220FFF7C9
:103F8C0063FD9CE703210020FFF75EFD0321012068
:103F9C00FFF75AFD03210220FFF756FD8FE700BF04
:103FAC00D84D01084C04002070B592B00446614D08
:103FBC000EAB95E8070003C31A8005F10C0393E8D8
:103FCC0003000C908DF834100023ADF82E300E2326
:103FDC008DF8203078238DF821308DF822308DF833
:103FEC0023308DF824308DF825308DF826308DF85F
:103FFC0027308DF828308DF829308DF82A308DF83F
:10400C002B308DF82C308DF82D308DF82E3004AEF1
:10401C0005F114030FCB07C6338001AB243595E8AB
:10402C00070003C31A70444B11AA44492046FFF7FA
:10403C0089FD11987D2820DC414B83FB0023C5179B
:10404C00C5EB6305EBB206E012AA1A44702102F824
:10405C00381C0133DBB20E2BF6D9394A82FB003205
:10406C00C317C3EB620303EBC303C31A12AA1344B3
:10407C0013F8443C154405F8383C01230AE05A1E59
:10408C0012A90A4412F8381C12AA1A4402F8281C65
:10409C000133DBB20E2BF2D9632C08D8092C33D8A0
:1040AC0012AB1C4414F8103C8DF8333022E0254B35
:1040BC00A3FB04235B0912AA1A4412F8102C8DF8E6
:1040CC003120642202FB1344E4B21F4BA3FB0423F4
:1040DC00DB0812AA1A4412F8102C8DF8322003EBCC
:1040EC0083035A00A31ADBB212AA134413F8103C30
:1040FC008DF8333008A95520FFF774FC0CA9642007
:10410C00FFF770FC12B070BD0F4BA3FB0423DB0850
:10411C0012AA1A4412F8102C8DF8322003EB8303E8
:10412C005A00A31ADBB212AA134413F8103C8DF8F0
:10413C003330DFE78806010810000020E804002077
:10414C00398EE3381F85EB51CDCCCCCC70B5BA2071
:10415C00FFF71FFD012800D070BDA220FFF7ECFA7D
:10416C000028F9D1082214211046FFF78BFB4021BF
:10417C000820FFF771FB402284210820FFF7F8FB91
:10418C00002510E005EB85039C004034E4B2344E6E
:10419C0031462046FFF726FC022231462046FFF727
:1041AC0039FC0135EDB2072DECD92E4C21464020BF
:1041BC00FFF718FC022221464020FFF72BFC2A4C6B
:1041CC0021465420FFF70EFC022221465420FFF713
:1041DC0021FC264C21466820FFF704FC06222146D0
:1041EC006820FFF717FC224C21467C20FFF7FAFBD6
:1041FC00062221467C20FFF70DFC1E4C2146902008
:10420C00FFF7F0FB062221469020FFF703FC1A4C27
:10421C002146A420FFF7E6FB04222146A420FFF749
:10422C00F9FB164C2146B820FFF7DCFB0422214693
:10423C00B820FFF7EFFB124C2146CC20FFF7D2FB46
:10424C0004222146CC20FFF7E5FB0620FFF7EEFA0F
:10425C001020FFF7F3FA0F210020FFF7F5FB7BE7A7
:10426C00C0510108DC500108F45001080C51010840
:10427C00245101083C510108545101086C510108AA
:10428C008451010810B51E4807F082FB012202215F
:10429C000820FFF7F7FA40210820FFF7DDFA1B2270
:1042AC0030210820FFF764FB164B1B78012B18D02C
:1042BC00154C21464020FFF795FB02222146402059
:1042CC00FFF7A8FB0620FFF7B1FAB920FFF761FC56
:1042DC0090B107210020FFF7B7FB0820FFF7AEFADB
:1042EC0010BD0A4C21464020FFF77CFB02222146E0
:1042FC004020FFF78FFBE5E70321FFF7A5FBECE779
:10430C0020500108080600201852010844520108E8
:10431C0010B5224B1B78ABB3214B1B78012B10D063
:10432C00022B19D0032B22D0042B35D11D4C214646
:10433C000320FFF757FB042221460320FFF76AFBFB
:10434C002AE0194C21460320FFF74CFB042221469E
:10435C000320FFF75FFB1FE0144C21460320FFF7FF
:10436C0041FB042221460320FFF754FB14E0104CC0
:10437C0021460320FFF736FB042221460320FFF7DA
:10438C0049FB09E00B4C21460320FFF72BFB0422D1
:10439C0021460320FFF73EFB10BD00BF090600209D
:1043AC000A06002050520108585201085C520108BC
:1043BC004C520108545201082DE9F04F83B00546C8
:1043CC0088461746B84A1478C4F3400604F0010432
:1043DC00032B15DCB54B1B78002B00F0B781012BA0
:1043EC0009D04FF0E00B4FF4BA7301934FF01B0A56
:1043FC004FF4DF79AEE14FF0250A4FF0F409A9E153
:10440C00102B12D0502B6BD0302B00F0B080402BE7
:10441C0000F0F480602B00F03181702B00F05E8195
:10442C004FF0400A4FF0E00994E1A0B99F4B1B7884
:10443C00002B00F0B681012B08D04FF0630BAD239D
:10444C0001934FF01B0A4FF0F80983E14FF0250A56
:10445C004FF0F4097EE1012812D0022826D0934BAC
:10446C001B78002B00F0AC81012B34D04FF4AA7BCD
:10447C0040F2412301934FF4867A4FF4237969E19A
:10448C008A4B1B78002B00F09181012B09D04FF047
:10449C00630B40F2412301934FF01B0A4FF4237935
:1044AC0058E14FF0250A40F2763953E17F4B1B78E7
:1044BC00002B00F08081012B08D04FF4AA7BAD2398
:1044CC0001934FF4867A4FF0F80943E140F2911AC8
:1044DC004FF0F4093EE140F2911A40F2763939E19D
:1044EC00A8B9724B1B78002B00F06F81012B09D0FF
:1044FC004FF0630B4FF4BA7301934FF01B0A4FF458
:10450C00DF7927E14FF0250A4FF0F40922E1012869
:10451C0013D0022840F01E81644B1B78002B00F056
:10452C005E81012B1ED04FF4AA7B40F241230193F4
:10453C004FF4867A4FF423790CE15C4B1B78002BFB
:10454C0000F04881012B08D04FF4AA7BAD230193D6
:10455C004FF4867A4FF0F809FCE04FF0250A40F250
:10456C007639F7E040F2911A40F27639F2E0A0B9D0
:10457C004E4B1B78002B00F03781012B08D04FF0ED
:10458C00DF0BAD2301934FF01B0A4FF0F809E1E06C
:10459C004FF0250A4FF0F409DCE0012813D0022873
:1045AC0040F0D880414B1B78002B00F02781012B69
:1045BC001FD04FF4AA7B40F2412301934FF4867A2B
:1045CC004FF42379C6E0394B1B78002B00F0118196
:1045DC00012B09D04FF0630B40F2412301934FF0B4
:1045EC001B0A4FF42379B5E04FF0250A40F27639D7
:1045FC00B0E040F2911A40F27639ABE098B92B4B0F
:10460C001B78002B00F0FF80012B07D04FF0180B0C
:10461C004FF4E2730193DA4699469BE04FF0250A7A
:10462C0040F2763996E0012810D0022840F09280B2
:10463C001E4B1B78002B00F0F080012B19D040F2A0
:10464C00091B30230193DA46994683E0174B1B78FC
:10465C00002B00F0DD80012B06D04FF0180B30231F
:10466C000193DA46994675E04FF0250A4FF0F409AC
:10467C0070E040F2911A4FF0F4096BE0C0B90B4BAB
:10468C001B78002B00F0CE80012B08D04FF0DF0BF5
:10469C00AD2301934FF01B0A4FF0F8095AE04FF08D
:1046AC00250A4FF0F40955E052040020840700203D
:1046BC00C94B1B78002B00F0BA80012B09D04FF0AE
:1046CC00DF0B40F2412301934FF01B0A4FF4237987
:1046DC0040E04FF0250A40F276393BE080B9BE4B02
:1046EC001B78002B00F0A880012B04D04FF0180A87
:1046FC004FF030092EE04FF0250A4FF0F40929E075
:10470C0001280DD0022825D1B34B1B78002B00F0CB
:10471C009D80012B15D04FF0180A4FF4137919E036
:10472C00AD4B1B78002B00F08C80012B04D04FF08C
:10473C00180A4FF49F790DE04FF0250A40F29E299C
:10474C0008E04FF0250A4FF4896903E04FF03D0A69
:10475C004FF0B409002D40F0C980002E7BD19F4B47
:10476C001B78012B00F090809D4B1B78012B00F0E7
:10477C009780FFF7CDFD002C40F09E800820FFF7BE
:10478C0090F9984B1B78032B00F0D481002E40F04D
:10479C00F181002C00F0F38101212846FFF754F938
:1047AC00D4E14FF03D0A4FF0B409D3E74FF03D0A86
:1047BC0040F27449CEE740F25B2A4FF0B409C9E7E6
:1047CC0040F25B2A40F27449C4E74FF03D0A4FF0C7
:1047DC00B409BFE74FF03D0A40F27449BAE740F222
:1047EC005B2A40F27449B5E74FF03D0A4FF0B4092B
:1047FC00B0E74FF03D0A40F27449ABE740F25B2A58
:10480C0040F27449A6E74FF03D0A40F27449A1E723
:10481C004FF03D0A4FF0B4099CE740F25B2A4FF091
:10482C00B40997E74FF03D0A4FF0B40992E74FF007
:10483C003D0A40F274498DE74FF03D0A4FF0B40940
:10484C0088E74FF03D0A4FF44D7983E74FF03D0A6E
:10485C0040F2B4597EE7012298F800100020FFF7CF
:10486C0011F800210846FEF7F7FF41460020FFF73C
:10487C00B9F8022241460020FFF7CCF852464946CF
:10488C000020FFF775F86AE7DFF85C8141460120EC
:10489C00FFF7A8F8062241460120FFF7BBF863E7B3
:1048AC00DFF8488141460520FFF79CF8022241467B
:1048BC000520FFF7AFF85CE7012239780420FEF7FA
:1048CC00E1FF18210420FEF7C7FF39461820FFF737
:1048DC0089F8072239461820FFF79CF80BF11402CF
:1048EC0092B201990420FFF743F847E7012D31D02C
:1048FC00022D00F09580032D7FF440AF002E40F088
:10490C00E880364BDB78012B00F0FC80344BDB78F5
:10491C00012B00F00381FFF7FBFC002C3FF42EAFC2
:10492C00012239780720FEF7ADFF36210720FEF76C
:10493C0093FF39463620FFF755F8072239463620C3
:10494C00FFF768F80BF1140292B201990720FFF7F8
:10495C000FF813E736BB214B5B78012B48D0204B6B
:10496C005B78012B50D0FFF7D3FC002C3FF406AF43
:10497C00012239780520FEF785FF22210520FEF75C
:10498C006BFF39462220FFF72DF8072239462220EB
:10499C00FFF740F80BF1140292B201990520FEF7D3
:1049AC00E7FFEBE6012298F800101046FEF76AFFCD
:1049BC0006210120FEF750FF41460620FFF712F8B2
:1049CC00022241460620FFF725F8524649460120AF
:1049DC00FEF7CEFFBFE700BF840700209C05002038
:1049EC00A005002052040020405201084852010842
:1049FC00DFF8B88141460720FEF7F4FF0622414656
:104A0C000720FFF707F8AAE7DFF8A48141460B203F
:104A1C00FEF7E8FF022241460B20FEF7FBFFA2E760
:104A2C0036BB5E4B9B78012B3BD05D4B9B78012BAF
:104A3C0043D0FFF76DFC002C3FF4A0AE0122397877
:104A4C000620FEF71FFF2C210620FEF705FF394636
:104A5C002C20FEF7C7FF072239462C20FEF7DAFF81
:104A6C000BF1140292B201990620FEF781FF85E644
:104A7C00012298F800100220FEF704FF0C210120FF
:104A8C00FEF7EAFE41460C20FEF7ACFF022241463F
:104A9C000C20FEF7BFFF524649460220FEF768FF86
:104AAC00BFE7DFF8088141460D20FEF79BFF062289
:104ABC0041460D20FEF7AEFFB7E7DFF8F480414624
:104ACC001120FEF78FFF022241461120FEF7A2FFB4
:104ADC00AFE7012298F800100320FEF7D3FE122155
:104AEC000320FEF7B9FE41461220FEF77BFF02229F
:104AFC0041461220FEF78EFF524649460320FEF730
:104B0C0037FFFEE6DFF8A48041461320FEF76AFF6C
:104B1C00062241461320FEF77DFFF7E6DFF8908072
:104B2C0041461720FEF75EFF022241461720FEF792
:104B3C0071FFF0E61B4B1B78042B03D11A4B1B782F
:104B4C00082B0AD005212846FEF77EFFB920FFF777
:104B5C0020F8C8B103B0BDE8F08FBA20FFF719F800
:104B6C000128EFD1A220FEF7E7FD0028EAD1FFF7DC
:104B7C00EDFAEBE704212846FEF766FFE6E7002195
:104B8C002846FEF761FFE1E70F2006F0EDFF0F214D
:104B9C004FF4FA6006F0AEFFDCE700BF9C05002086
:104BAC00A00500200A06002009060020405201083A
:104BBC004852010870B50D464138922800F2958094
:104BCC00DFE810F07A0193009300930093009300B8
:104BDC009300930093009300930093009300930031
:104BEC009300930093009300930093009300930021
:104BFC009300930093009300930093009300930011
:104C0C009300930093009300930093009300930000
:104C1C0093009300930093009300930093009300F0
:104C2C0093009300930093009300930093009300E0
:104C3C0093009300930093009300930093009300D0
:104C4C0093009300930093009300930093009300C0
:104C5C0093009300930093009300930093009300B0
:104C6C009300930093009300930093009500A4008D
:104C7C00B3009300C200D1009300BE0293009300D6
:104C8C009300930093009300930093009300930080
:104C9C009300930093009300930093009300930070
:104CAC009300930093009300930093009300930060
:104CBC009300F400E00007011801930093009300A7
:104CCC009300930060018E01A801C20193002E0293
:104CDC004202930056022C0193009300DC01F00178
:104CEC0004026E0282029602AA02002429E2122019
:104CFC00FEF722FDBF4B186029469520FFF740F8C0
:104D0C00014604461220FEF71BFD1AE21320FEF7A3
:104D1C0013FDB84B186029469620FFF731F8014671
:104D2C0004461320FEF70CFD0BE21420FEF704FDE5
:104D3C00B04B186029469720FFF722F8014604462D
:104D4C001420FEF7FDFCFCE11720FEF7F5FCA94B47
:104D5C00186029469920FFF713F8014604461720DE
:104D6C00FEF7EEFCEDE11620FEF7E6FCA14B186019
:104D7C0029469A20FFF704F8014604461620FEF750
:104D8C00DFFCDEE1A320FEF7D7FC012D0AD0B0FA40
:104D9C0080F46409E5B22946A320FEF7D1FC964BBA
:104DAC001D70CEE1B0FA80F46409F3E7A020FEF7A1
:104DBC00C3FC012D09D0B0FA80F46409E1B28F4B29
:104DCC001970A020FEF7BCFCBBE1B0FA80F46409BA
:104DDC00F4E7A420FEF7B0FC012D07D0B0FA80F464
:104DEC006409E1B2A420FEF7ABFCAAE1B0FA80F4AE
:104DFC006409F6E7AC20FEF79FFC012D0AD0B0FA4F
:104E0C0080F46409E5B22946AC20FEF799FC7C4B92
:104E1C001D7096E1B0FA80F46409F3E7AD20FEF75B
:104E2C008BFC012D1BD0B0FA80F46409E5B2754BF4
:104E3C001D70012D17D00D21AE20FEF781FC724B99
:104E4C001B78032B14D80121AC20FEF779FC6C4B9A
:104E5C0001221A702946AD20FEF772FC71E1B0FAFE
:104E6C0080F46409E2E70021AE20FEF769FCF1E76B
:104E7C00654E0023337007F00FFD3178B020FEF73C
:104E8C005FFCE0E7A520FEF757FC012D10D0B0FA2F
:104E9C0080F464095D4B1B78A34202D0002003F020
:104EAC00FFFEE1B2594B1970A520FEF749FC48E111
:104EBC00B0FA80F46409EDE72020FEF73DFC012DEB
:104ECC000AD0B0FA80F46409E5B229462020FEF736
:104EDC0037FC4F4B1D7034E1B0FA80F46409F3E7F2
:104EEC00A620FEF729FC012D10D0B0FA80F464093D
:104EFC00484B1B78A34202D0012003F0D1FEE1B253
:104F0C00444B1970A620FEF71BFC1AE1B0FA80F492
:104F1C006409EDE7A720FEF70FFC012D10D0B0FAC5
:104F2C0080F464093C4B1B78A34202D0022003F0AE
:104F3C00B7FEE1B2384B1970A720FEF701FC00E177
:104F4C00B0FA80F46409EDE7A820FEF7F5FB012D1B
:104F5C0010D0B0FA80F46409304B1B78A34202D015
:104F6C00032003F09DFEE1B22C4B1970A820FEF734
:104F7C00E7FBE6E0B0FA80F46409EDE7BC20FEF74D
:104F8C00DBFB012D06D058B1441EE1B2BC20FEF76C
:104F9C00D7FBD6E0052801D8441CF6E70024F4E73B
:104FAC000624F2E7BD20FEF7C7FB012D06D058B151
:104FBC00441EE1B2BD20FEF7C3FBC2E0052801D8B8
:104FCC00441CF6E70024F4E70624F2E7BE20FEF7C3
:104FDC00B3FB012D06D058B1441EE1B2BE20FEF742
:104FEC00AFFBAEE0052801D8441CF6E70024F4E73B
:104FFC000624F2E7B8050020F10500208605002004
:10500C00F40500204C060020010700204407002076
:10501C0000070020030700204E0600204D0600204C
:10502C00A220FEF789FB012D06D058B1441EE1B237
:10503C00A220FEF785FB84E0082801D8441CF6E783
:10504C000024F4E70924F2E7AE20FEF775FB012DEE
:10505C0006D058B1441EE1B2AE20FEF771FB70E0F1
:10506C000C2801D8441CF6E70024F4E70D24F2E7E1
:10507C00AA20FEF761FB012D0AD002280ED9441E8E
:10508C00E5B22946AA20FEF75BFB2F4B1D7058E0BA
:10509C00632801D8441CF3E70224F1E76424EFE70A
:1050AC00C020FEF749FB012D06D058B1441EE1B2D9
:1050BC00C020FEF745FB44E0022801D8441CF6E76B
:1050CC000024F4E70324F2E7C120FEF735FB012DA1
:1050DC0006D058B1441EE1B2C120FEF731FB30E0DE
:1050EC00022801D8441CF6E70024F4E70324F2E775
:1050FC00C220FEF721FB012D06D058B1441EE1B2AF
:10510C00C220FEF71DFB1CE0022801D8441CF6E768
:10511C000024F4E70324F2E7C320FEF70DFB012D76
:10512C0006D058B1441EE1B2C320FEF709FB08E0DB
:10513C00022801D8441CF6E70024F4E70324F2E724
:10514C007B24204670BD00BF5207002070B586B08E
:10515C0006461446474B03AD93E8070003C52A8067
:10516C001A6B02929B8EADF8043004EB4403DD0005
:10517C0035442B7B013B062B39D8DFE803F0723822
:10518C00723804385A003C4806F002FCA87BFEF743
:10519C0000FDC2B2632A2CD9384BA3FB02135B0966
:1051AC0006A9194411F80C1C8DF80910642101FB97
:1051BC001323DBB2324AA2FB0312D20806A9114414
:1051CC0011F80C1C8DF80A1002EB820251005B1ACC
:1051DC00DBB206AA134413F80C3C8DF80B3004EB2D
:1051EC008404A000513002A9C0B2FEF7FBFB06B04C
:1051FC0070BD092A15D9224BA3FB0213DB0806A9A3
:10520C00194411F80C1C8DF80A1003EB8303590098
:10521C00531ADBB206AA134413F80C3C8DF80B306E
:10522C00DDE7C0B206AB184410F80C3C8DF80B301F
:10523C00D5E7144806F0ACFBA87BFEF7AAFC29695D
:10524C004A7804EB8404A3009B1ADBB2C0B202FBC5
:10525C0000F2023203F155001144C0B2FEF7C2FB5A
:10526C00C5E704EB8404A000533001A9C0B2FEF7DB
:10527C00B9FBBCE788060108F44D01081F85EB510A
:10528C00CDCCCCCCFC4D0108F8B50822142110462D
:10529C00FEF7F8FA40210820FEF7DEFA722276219A
:1052AC000820FEF765FB002510E005EB85039C004C
:1052BC004034E4B21B4E31462046FEF793FB0222EB
:1052CC0031462046FEF7A6FB0135EDB2072DECD991
:1052DC0000241CE004EB840295004035EDB204EB95
:1052EC004402D600334459682846FEF77BFB0E4F28
:1052FC003B683344022259682846FEF78BFB002397
:10530C00224619463868FFF721FF0134E4B2064BF8
:10531C001B685A78A242DDD8422204494020FEF78D
:10532C0079FBF8BDC05101085C070020D851010879
:10533C0008B5012810D1114B1878302809D006D99E
:10534C00502806D0602817D103F0C6FA14E01028B4
:10535C0012D103F0C1FA0FE00121B820FEF7D4F905
:10536C000121B920FEF7D0F90221B820FEF7CCF9C3
:10537C000121B920FEF7C8F908BD00BF4C0400207C
:10538C0010B5234C2178234806F002FB2378102B10
:10539C001ED015D9502B03D0602B2DD0302B15D10E
:1053AC0005210020FEF750FB05210120FEF74CFBE8
:1053BC0005210220FEF748FB0120FFF7B9FF05E0AD
:1053CC00032B03D805210020FEF73EFB002010BD67
:1053DC0005210020FEF738FB05210120FEF734FBE8
:1053EC0005210220FEF730FB05210320FEF72CFBE4
:1053FC000120FFF79DFFE9E705210020FEF724FBC4
:10540C0005210120FEF720FB0120FFF791FFDDE7CE
:10541C004C0400200C50010808B5134806F0B8FAEB
:10542C0005210020FEF710FB1620FEF7FFF9FFF711
:10543C00A7FF0F2006F098FB0F214FF4FA6006F03F
:10544C0059FB07F029FA094B1B78012B05D00020DA
:10545C00074B1870074B187008BD074B1B78002BB7
:10546C00F5D1FEF70FFFF2E7E84D010844090020E3
:10547C00F3050020F20500200906002010B50446B3
:10548C000146064806F084FA9B2C01D0012010BD81
:10549C00FFF7C2FF06F09EFEF8E700BF084E0108BA
:1054AC0010B53C4B1B7813F0040F26D03A4C2078E7
:1054BC00FEF77AFD21783820FEF742F90420FEF73A
:1054CC00BDF90A210020FEF7BFFA0A210120FEF7E0
:1054DC00BBFA0A210220FEF7B7FA0A210320FEF7D5
:1054EC00B3FA0020FFF724FF0E2006F03DFB0E213F
:1054FC0040F6B83006F0FEFA10BD00210846FEF763
:10550C00A3FA00210120FEF79FFA00210220FEF7EA
:10551C009BFA00210320FEF797FA0322142108209E
:10552C00FEF7B0F940210820FEF796F94FF4B4725B
:10553C0080210820FEF71CFA184C21464020FEF76B
:10554C0051FA022221464020FEF764FA144C2146FF
:10555C005420FEF747FA022221465420FEF75AFA4D
:10556C00104B1B78012B0AD00F4C21466820FEF7FC
:10557C0039FA022221466820FEF74CFA96E70B4CCA
:10558C0021466820FEF72EFA022221466820FEF7FB
:10559C0041FA8BE7B6050020E70400204C530108C4
:1055AC002C530108F3050020C05101086453010875
:1055BC0010B5BB20FEF7EDFA012838D001221421DA
:1055CC000820FEF75FF940210820FEF745F94FF45B
:1055DC00B6724FF490710820FEF7CAF9214C21469F
:1055EC004020FEF7FFF9022221464020FEF712FA76
:1055FC000620FEF71BF90A210020FEF725FA0A21E6
:10560C000120FEF721FA0A210220FEF71DFA0A21D9
:10561C000320FEF719FA0020FFF78AFE0E2006F091
:10562C00A3FA0E214FF4FA6006F064FA10BD0122C1
:10563C0014210820FEF726F940210820FEF70CF96A
:10564C004FF4B6724FF49A710820FEF791F9064C9C
:10565C0021464020FEF7C6F9042221464020FEF7E1
:10566C00D9F9C5E76052010828520108F8B50021A4
:10567C000846FEF7E9F900210120FEF7E5F90021C3
:10568C000220FEF7E1F900210320FEF7DDF90020EE
:10569C00FFF74EFE2E4806F07BF92E4B2E4A1A6071
:1056AC00082214211046FEF7EDF840210820FEF7E1
:1056BC00D3F8722276210820FEF75AF9002510E063
:1056CC0005EB85039C004034E4B2244E3146204661
:1056DC00FEF788F9022231462046FEF79BF9013588
:1056EC00EDB2072DECD90A215120FEF70DF86420FC
:1056FC00FDF7F6FF002417E004EB84039D00403512
:10570C00EDB204EB4403DE00124F3B68334459689E
:10571C002846FEF767F93B6833440222596828464D
:10572C00FEF778F90134E4B2042CE5D942220C4995
:10573C004020FEF76FF90B4B01221A7000230A4A26
:10574C0013600A4A13700220FEF778F8F8BD00BF08
:10575C00C84F01085C07002074020020C0510108EA
:10576C00D851010859090020F805002055090020DE
:10577C0070B50446184B1B7803EB4303DA00174B48
:10578C001B6813441A7B052A02D0072A0DD070BD62
:10579C000146987BFFF70EFA00230F4A1278194640
:1057AC000E480068FFF7D2FCF1E70D4806F0F0F860
:1057BC000A4D094E337803EB4303DA002B6813448C
:1057CC002146987BFFF7F6F90023327819462868B2
:1057DC00FFF7BCFCDBE700BF550900205C0700208D
:1057EC00384F01080C4B1B7803EB4303DA000B4BCF
:1057FC001B689B5C023B072B0CD8DFE803F004040E
:10580C00040B08080804054B054A1A607047034B43
:10581C00044A1A60704700BF550900205C0700203D
:10582C00740200209403002038B5964B1B68D3B14A
:10583C0002380B2817D8DFE810F0C200CD00D800D2
:10584C002D001600E800FD00110116000C001700D9
:10585C00220054228C497620FEF7DCF802228B4978
:10586C006920FEF7D7F838BD542288496920FEF725
:10587C00D1F8022284497620FEF7CCF8F3E7022215
:10588C0082496920FEF7C6F802227F497620FEF78E
:10589C00C1F8E8E77E4B1B6873B300243EE004EBD1
:1058AC0084039800403002227A4900F0FC00FEF795
:1058BC00B1F80134E4B2784B1B685A78A2421ED975
:1058CC0004EB4401CA0013441B7D6E4A12689342D8
:1058DC00E5D813339A42E2D804EB840398004030A5
:1058EC0052226C4900F0FC00FEF794F86B4B1C70D4
:1058FC006B4B1C700025DCE701250024DBE7002D39
:10590C00B1D0664B00221A70ADE7654A137003E004
:10591C00624B1B78A34227D10134E4B25E4B1B6867
:10592C005A78A2422BD904EB4401CA0013441B7DC4
:10593C00544A12689342EBD813339A42E8D8574B27
:10594C001B78A342E4D004EB84039800403052222D
:10595C00504900F0FC00FEF75DF8504B1B78A34259
:10596C00D3D04F4B1C70D7E704EB84039800403026
:10597C000222484900F0FC00FEF74CF8CCE7494BFA
:10598C001B78012B7FF46FAFE9213E4B186807F0B1
:10599C00D9FC01280DD0F3213A4B186807F0D2FC42
:1059AC0001287FF460AF374B1968022007F0CCFA5E
:1059BC0059E7344B1968032007F0C6FA53E7022263
:1059CC003249D020FEF726F854222F49DA20FEF770
:1059DC0021F848E754222D49D020FEF71BF802226B
:1059EC002949DA20FEF716F83DE7294B1B68012BF5
:1059FC007FF439AF02222549D020FEF70BF80222A2
:105A0C002149DA20FEF706F82DE7204C2146D0205C
:105A1C00FDF7E8FF02222146D020FDF7FBFF1A4CD0
:105A2C002146DA20FDF7DEFF02222146DA20FDF7BF
:105A3C00F1FF18E71C4C2146D020FDF7D3FF0222C2
:105A4C002146D020FDF7E6FF2146DA20FDF7CAFFFC
:105A5C0002222146DA20FDF7DDFF04E7124C214635
:105A6C00D020FDF7BFFF02222146D020FDF7D2FF48
:105A7C002146DA20FDF7B6FF02222146DA20FDF797
:105A8C00C9FFF0E600060020485301084453010802
:105A9C00F8050020C05101085C07002055090020C2
:105AAC004C090020F30500205452010808B51E4B88
:105ABC001B68B3B11D4B1B787BB90920FFF7B4FEF3
:105ACC001B4B1B7803EB830398004030422219498F
