:020000040800F2
:1000000000500020FD3801086D2000086F20000816
:10001000712000087320000875200008000000000F
:100020000000000000000000000000007720000831
:1000300079200008000000007B2000087D200008D7
:100040004539010845390108453901084539010894
:10005000453901084539010885200008453901085E
:100060004539010845390108453901084539010874
:100070004539010845390108453901084539010864
:100080004539010845390108453901084539010854
:100090004539010845390108453901084539010844
:1000A0004539010845390108453901084539010834
:1000B00045390108912000084539010845390108F2
:1000C0004539010845390108453901084539010814
:1000D00045390108A1200008B12000084539010870
:1000E000453901084539010845390108000000007B
:1000F0000000000000000000000000000000000000
:0C01000000000000000000005FF808F1A3
:10010C0010B5054C237833B9044B13B10448AFF345
:10011C0000800123237010BDF809002000000000AE
:10012C007857010808B5034B1BB103490348AFF3DB
:10013C00008008BD00000000FC0900207857010871
:10014C002DE9F04188B00025049505950695079595
:10015C00414B9A6942F004029A619A6902F00402D6
:10016C000092009A9A6942F008029A619A6902F028
:10017C0008020192019A9A6942F010029A619A69F6
:10018C0002F010020292029A9A6942F020029A61DD
:10019C009B6903F020030393039B304F012213212F
:1001AC00384603F0D3FB40F2F31304930124059477
:1001BC0006940226079604A9384603F0B7FA04946D
:1001CC00274B0593069507F5006704A9384603F0FD
:1001DC00ADFA049405950694DFF88C8004A940468A
:1001EC0003F0A4FA4FF4704304930595069404A904
:1001FC00404603F09BFA40F60103049305940694E1
:10020C00079604A9404603F091FA43F2073304938E
:10021C0005940694079604A9384603F087FAC02380
:10022C0004930595069404A9384603F07FFA042339
:10023C00049305940694079604A90A4803F076FAE9
:10024C002A462946062003F0F3FB062003F024FC83
:10025C0008B0BDE8F08100BF00100240000801406A
:10026C000000211000140140000C014070B58AB050
:10027C000024089409940194029403940494059422
:10028C0006940794114D4FF080432B6008266E6046
:10029C00AC604FF47A63EB602C61AC61284602F0E1
:1002AC0015FA0894099408A9284602F071FB6023FA
:1002BC000193029403940594324601A9284602F056
:1002CC0051FA284601F0F8FF0AB070BDF80B002077
:1002DC0030B587B0002402940394049405940094E0
:1002EC0001940E4D0E4B2B6023236B60AC600923E5
:1002FC00EB602C618023AB61284602F0CDF94FF402
:10030C008053029302A9284602F0A5FA00940194A6
:10031C006946284602F03CFB07B030BD3C0B002080
:10032C000004004008B50848084B03604FF4E13363
:10033C00436000238360C36003610C2242618361CC
:10034C00C36102F025FC08BDB00B00200038014051
:10035C0008B50848084B03604FF4E13343600023B1
:10036C008360C36003610C2242618361C36102F04C
:10037C000FFC08BD380C00200044004070B584B060
:10038C0000250195029503950D4C0E4B2360A5603D
:10039C00257325754FF46023E361656001262661A2
:1003AC00204603F0CDFD0D2301930296039501A980
:1003BC00204603F04FFC204601F03AFF04B070BD1C
:1003CC00800B00200024014010B50138012809D809
:1003DC0014464FF47A7392B2074802F008FC40B905
:1003EC00204610BD13F0AAFA092303604FF0FF302A
:1003FC00F7E70020F5E700BFB00B002000B583B095
:10040C008DF807004FF6FF7301220DF10701034829
:10041C0002F0EDFB03B05DF804FB00BF380C0020CC
:10042C0008B50FF037F83E214FF47A700FF042F810
:10043C003A214FF47A700FF03DF808BDF8B5044638
:10044C00372849D8DFE810F03800660077008900BB
:10045C009B00AC00D300BB02E2006A0308063C0719
:10046C0022063C0656069A06B506D106EC06070788
:10047C005707210707012901490169018901D801A1
:10048C00F801190239025902E202030323037A022A
:10049C009A0271079103B103D103F10311043104E2
:1004AC00520474049504B604FE041F05400561054E
:1004BC008205A405C505E605B84B00221A70012576
:1004CC005D70B74B1B78B74A1370B74A1370B748B7
:1004DC0013F0FAFAB64B1D70B0480BF0F3FC04F0B5
:1004EC00F5FA3F200FF020F8E5B2284612F030F86C
:1004FC00042C00F03B87AF4B1B78052B00F0428798
:10050C00032C00F346873F2164200EF0D3FFAA4B47
:10051C001D70F8BDA14A0123137003215170A74A25
:10052C001278A0490A70A0494A70A14A1370A448D5
:10053C0013F0CAFAD0E7994B02221A7004225A70AF
:10054C00A04B1B78974A1370974A9370984B0122D3
:10055C001A709D4813F0B8FABEE7904B03221A703C
:10056C0002225A70994B1B788E4A13708E4AD370A4
:10057C008F4B01221A70964813F0A6FAACE7874B02
:10058C0004221A705A70934B1B78864A1370864A51
:10059C00D370874B01221A708F4813F095FA9BE7A2
:1005AC007E4B10221A700121597003229A7004227A
:1005BC00DA7002221A717A4B1E787A4B1E707F4ABF
:1005CC0015785D707F4A10789870804A1278DA70CE
:1005DC00754B1E705D709870DA70754B00221A7036
:1005EC005A709A70D9707D4813F06EFA74E76B4BA1
:1005FC0020221A7001225A7003229A700422DA7097
:10060C0002221A71764813F05FFA65E7634B3022C9
:10061C001A700121597003229A700422DA70002298
:10062C001A715F4B1F785F4B1F70644806785E70C1
:10063C00644805789D7065480078D8705A4B1F70D7
:10064C005E709D70D8705A4B19705A709A706548CC
:10065C0013F03AFA40E7514B30221A7002225A70CA
:10066C0001229A700321D97004211971574B1D78FE
:10067C004C4B1D704A49087858705049097899704C
:10068C00494B1D7058709970494B1A7000225A7062
:10069C009A70554813F018FA1EE7404B30221A7026
:1006AC0001225A70032199700421D9703C4B1D789A
:1006BC003C4B1D7041490878587042490978997033
:1006CC00394B1D7058709970394B1A7000225A7042
:1006DC009A70444813F0F8F9FEE6304B30221A7049
:1006EC0001225A70032199700221D9702C4B1D786C
:1006FC002C4B1D7031490878587034490978997021
:10070C00294B1D7058709970294B00211970597024
:10071C009A70364813F0D8F9DEE6204B30221A7066
:10072C0001225A70042199700221D9701C4B1D783A
:10073C001C4B1D702349087858702449097899700E
:10074C00194B1D7058709970194B00211970597004
:10075C009A70274813F0B8F9BEE6104B30221A7085
:10076C0003225A7001229A700421D970134B1D7800
:10077C000C4B1D700A490878587012490978997009
:10078C00094B1D7058709970094B1A7000225A70E1
:10079C009A70184813F098F99EE600BF7C0C002064
:1007AC00780C00203C0A0020740A0020C85701086D
:1007BC00400A0020E40A0020250A0020F40B002047
:1007CC00DC5701083A0B0020F0570108390B0020C8
:1007DC0004580108F30B0020185801082C58010884
:1007EC003C5801084C580108685801088458010805
:1007FC00A0580108BC580108B54B30221A700322CE
:10080C005A7001229A700221D970B24B1D78B24BEA
:10081C001D70B24908785870B14909789970B14B7C
:10082C001D7058709970B04B0021197059709A70E6
:10083C00AE4813F049F94FE6A54B30221A7003224B
:10084C005A7004229A700222DA70A44B1878A24BC8
:10085C001870A74A11785970A14A12789A70A14B56
:10086C00187059709A70A04B00221A705A7001229D
:10087C009A70A04813F028F92EE6954B30221A7086
:10088C0004225A7001229A700321D970984B1D785A
:10089C00914B1D709149087858708E490978997060
:1008AC00904B1D70587099708F4B1A7000225A70B3
:1008BC009A70914813F008F90EE6854B30221A70A5
:1008CC0004225A7001229A700221D970884B1D782B
:1008DC00814B1D708149087858708149097899704D
:1008EC00804B1D70587099707F4B00211970597096
:1008FC009A70824813F0E8F8EEE5754B30221A70C6
:10090C0004225A7003229A700222DA70784B1878FB
:10091C00714B18706F4A11785970714A12789A702D
:10092C00704B187059709A706F4B00221A705A7075
:10093C0001229A70724813F0C7F8CDE5644B30224F
:10094C001A7002225A7001229A700421D970644BD9
:10095C001D78614B1D70614908785870644909789D
:10096C009970604B1D70587099705F4B1A70002213
:10097C005A709A70634813F0A7F8ADE5544B3022C7
:10098C001A7002225A7003229A700422DA70544BA5
:10099C001878514B18704F4A11785970544A127884
:1009AC009A70504B187059709A704F4B01221A70F4
:1009BC0000225A709A70544813F086F88CE5444B18
:1009CC0050221A700121597003229A700422DA7095
:1009DC0002221A71414B1D783F4B1D70444A12780C
:1009EC005A709A703E480078D8703E4B1D70394D45
:1009FC002D785D709A70D8703B4B197000225A702C
:100A0C009A70DA70414813F05FF865E5304B50226C
:100A1C001A7002225A70012199700322DA70002296
:100A2C001A712F4B1E782C4B1E702C4805785D705C
:100A3C002848007898702B4B1E705D7098702A4B6C
:100A4C0019705A709A70324813F03EF844E5204BF6
:100A5C0050221A7002225A7001229A700421D97005
:100A6C001F4B1D781C4B1D701C4908785870204971
:100A7C00097899701B4B1D70587099701A4B1A702D
:100A8C0000225A709A70234813F01EF824E5104B7C
:100A9C0050221A7002225A7003229A700422DA70C1
:100AAC000F4B18780C4B18700A4A11785970104A71
:100ABC0012789A700B4B187059709A700A4B01226D
:100ACC001A7000225A709A70134812F0FDFF03E559
:100ADC007C0C0020F40B00203C0A0020780C002039
:100AEC00390B0020740A0020400A0020D858010855
:100AFC003A0B0020F4580108105901082C59010830
:100B0C004859010864590108805901089C59010889
:100B1C00B8590108D4590108F0590108B64B4022C4
:100B2C001A7001225A70032199700421D970022184
:100B3C001971B24B1E78B24B1E70B2490D785D70B4
:100B4C00B14908789870B1490978D970B04B1E70CA
:100B5C005D709870D970AF4B1A7000225A709A70F1
:100B6C00DA70AD4812F0B0FFB6E4A34B40221A7015
:100B7C0002225A7001229A700321D970A34B1D785E
:100B8C009F4B1D709D49087858709E490978997043
:100B9C009F4B1D70587099709E4B1A7000225A70A2
:100BAC009A709E4812F090FF96E4934B40221A7074
:100BBC0001225A70032199700421D9708F4B1D7832
:100BCC008F4B1D708F49087858708F490978997030
:100BDC008F4B1D70587099708E4B1A7000225A7082
:100BEC009A708F4812F070FF76E4834B40221A7093
:100BFC0001225A70032199700221D9707F4B1D7804
:100C0C007F4B1D707F49087858708049097899701E
:100C1C007F4B1D70587099707E4B1A7000225A7061
:100C2C009A70804812F050FF56E4734B40221A70B1
:100C3C0001225A70042199700221D9706F4B1D78D2
:100C4C006F4B1D707049087858707049097899700D
:100C5C006F4B1D70587099706E4B1A7000225A7041
:100C6C009A70714812F030FF36E4634B40221A70D0
:100C7C0003225A7001229A700421D970614B1D789D
:100C8C005F4B1D705D49087858705F490978997001
:100C9C005F4B1D70587099705E4B1A7000225A7021
:100CAC009A70624812F010FF16E4534B40221A70EF
:100CBC0003225A7001229A700221D970514B1D786F
:100CCC004F4B1D704D4908785870504909789970F0
:100CDC004F4B1D70587099704E4B1A7000225A7001
:100CEC009A70534812F0F0FEFFF7F6BB424B4022CD
:100CFC001A7003225A7004229A700222DA70414B45
:100D0C0018783F4B1870404A117859703F4A127846
:100D1C009A703F4B187059709A703E4B01221A70A2
:100D2C0000225A709A70434812F0CEFEFFF7D4BBE3
:100D3C00314B40221A7004225A7001229A700321FE
:100D4C00D970314B1D782E4B1D702C49087858707A
:100D5C002C49097899702E4B1D70587099702D4B39
:100D6C001A7000225A709A70334812F0ADFEFFF7D9
:100D7C00B3BB214B40221A7004225A7001229A7084
:100D8C000221D970204B1D781D4B1D701B49087812
:100D9C0058701E49097899701D4B1D7058709970C8
:100DAC001C4B1A7000225A709A70244812F08CFE58
:100DBC00FFF792BB104B40221A7004225A70032288
:100DCC009A700222DA70104B18780D4B18700D4A7D
:100DDC00117859700D4A12789A700D4B1870597021
:100DEC009A700C4B01221A7000225A709A70144897
:100DFC0012F06AFEFFF770BB7C0C0020780C002010
:100E0C003C0A0020F40B00203A0B0020390B002088
:100E1C00740A0020400A00200C5A01081C5A0108D0
:100E2C00385A0108545A0108705A01088C5A0108A2
:100E3C00A85A0108C45A0108E05A0108FC5A0108D2
:100E4C00185B0108B94B50221A7001225A70032109
:100E5C0099700221D970B64B1D78B64B1D70B649EE
:100E6C0008785870B54909789970B54B1D70587051
:100E7C009970B44B1A7000225A709A70B24812F0E2
:100E8C0023FEFFF729BBA94B50221A7001225A707E
:100E9C00042199700221D970A54B1D78A54B1D70AA
:100EAC00AA4908785870A54909789970A44B1D7007
:100EBC0058709970A34B1A7000225A709A70A448FB
:100ECC0012F002FEFFF708BB984B50221A70032257
:100EDC005A7001229A700421D970974B1D78954B4A
:100EEC001D70934908785870984909789970944BFB
:100EFC001D7058709970934B1A7000225A709A702A
:100F0C00944812F0E1FDFFF7E7BA884B50221A70B3
:100F1C0003225A7001229A700221D970864B1D78D7
:100F2C00844B1D70824908785870844909789970EF
:100F3C00834B1D7058709970824B1A7000225A7036
:100F4C009A70854812F0C0FDFFF7C6BA774B502255
:100F5C001A7003225A7004229A700222DA70764BAD
:100F6C001878744B1870794A11785970734A127842
:100F7C009A70734B187059709A70724B01221A70D8
:100F8C0000225A709A70754812F09EFDFFF7A4BAB1
:100F9C00664B50221A7004225A7001229A70032157
:100FAC00D9706A4B1D78634B1D7061490878587075
:100FBC00614909789970624B1D7058709970614B3A
:100FCC001A7000225A709A70654812F07DFDFFF776
:100FDC0083BA564B50221A7004225A7001229A700E
:100FEC000221D970594B1D78524B1D70504908780D
:100FFC005870524909789970514B1D7058709970FE
:10100C00504B1A7000225A709A70564812F05CFDC0
:10101C00FFF762BA454B50221A7004225A70032211
:10102C009A700222DA70494B1878424B1870424A77
:10103C0011785970414A12789A70414B1870597056
:10104C009A70404B01221A7000225A709A704648CE
:10105C0012F03AFDFFF740BA344B60221A700122AD
:10106C005A7003219970324B1878324B18703249F0
:10107C0009785970324B18705970324B1A70002223
:10108C005A703A4812F020FDFFF726BA274B60221F
:10109C001A7001225A7002219970254B1878254B31
:1010AC001870264909785970254B18705970254BC2
:1010BC00002119705A702E4812F006FDFFF70CBA79
:1010CC001A4B60221A7002225A7001229A701B4B22
:1010DC001878184B1870164909785970184B1870F5
:1010EC005970184B1A7000225A70224812F0ECFCFE
:1010FC00FFF7F2B90D4B60221A7002225A700322CC
:10110C009A700E4B19780B4B19700B4A12785A7057
:10111C000B4B19705A700B4B01221A7000225A702B
:10112C00154812F0D1FCFFF7D7B900BF7C0C00209A
:10113C00780C00203C0A0020F40B0020390B002016
:10114C00740A0020400A0020345B01083A0B00208E
:10115C00505B01086C5B0108885B0108A45B01080B
:10116C00C05B0108DC5B0108F85B0108145C01083A
:10117C002C5C0108445C01085C5C0108884B602213
:10118C001A7002225A7004229A70864B1978864B78
:10119C001970864A12785A70854B19705A70854BA3
:1011AC0001221A7000225A70834812F08DFCFFF74E
:1011BC0093B97B4B60221A7003225A7001229A70E9
:1011CC007E4B1978784B19707D4800785870784BA5
:1011DC001970744909785970764B1A7000225A703C
:1011EC00784812F071FCFFF777B96D4B60221A70DA
:1011FC0003225A7004229A70704B19786A4B19703A
:10120C006A4A12785A706A4B19705A70694B0122EB
:10121C001A7000225A706C4812F056FCFFF75CB939
:10122C005F4B60221A7003225A7002229A70634B31
:10123C0019785D4B19705B4A12785A705C4B1970B7
:10124C005A705C4B00221A7001225A705F4812F0DF
:10125C003BFCFFF741B9524B60221A7001225A70C5
:10126C0004219970564B18784F4B18704F490978D8
:10127C0059704F4B187059704E4B1A7000225A709F
:10128C00534812F021FCFFF727B9454B60221A7026
:10129C0004225A7003229A70444B1978424B1970ED
:1012AC00464A12785A70424B19705A70414B0122BF
:1012BC001A7000225A70474812F006FCFFF70CB95E
:1012CC00374B60221A7004225A7002229A70374BE4
:1012DC001978354B1970334A12785A70344B19708F
:1012EC005A70344B00221A7001225A703A4812F08C
:1012FC00EBFBFFF7F1B82A4B60221A7004225A70EC
:10130C0001229A70294B1878274B18702C490978B0
:10131C005970274B18705970264B1A7000225A704E
:10132C002E4812F0D1FBFFF7D7B81D4B70221A7064
:10133C0001225A70032199700421D970204B1D7819
:10134C00194B1D701D490878587018490978997007
:10135C00174B1D7058709970164B1A7000225A70EA
:10136C00DA701F4812F0B0FBFFF7B6B81D4B1B78B4
:10137C00002B7FF4C0A83F214FF4FA600EF09AF8CE
:10138C00FFF7C5B83F2140F6B8300EF093F8FFF7E1
:10139C00BEB83F214FF4FA700EF08CF8FFF7B7B8D7
:1013AC007C0C0020390B00203C0A00203A0B00205A
:1013BC00740A0020400A0020745C0108F40B002021
:1013CC00780C00208C5C0108A45C0108BC5C010852
:1013DC00D45C0108EC5C0108045D01081C5D01088B
:1013EC00345D0108E30A002038B50EF0CBFC04464E
:1013FC000346002201211B480DF0B0FF0EF0C2FC89
:10140C00132806D10EF0BEFC132820D1132C13D1B7
:10141C0038BD154D13230022012128460DF09EFFE7
:10142C0013200EF0D5FC0EF0ADFC0346002201217A
:10143C0028460DF093FFE5E70C4C012323700EF0CA
:10144C0039FE002323700A480DF088FFE0E70948B5
:10145C000DF084FF08480DF081FF084BFF221A7035
:10146C00D6E700BF4C5D0108685D0108460A002004
:10147C00845D0108C05D0108DC5D0108F20B0020F1
:10148C0010B5012823D0284C01224FF400512046DE
:10149C0002F05CFA00224FF40061244802F056FA84
:1014AC00192002F0F7FD01220421204602F04EFA29
:1014BC00192002F0EFFD002280211D4802F046FAAF
:1014CC001C4B1B7863B31C4B01221A7010BD164CBD
:1014DC0001224FF40051204602F038FA00224FF45A
:1014EC000061124802F032FA322002F0D3FD64207F
:1014FC0002F0D0FD01220421204602F027FA32200E
:10150C0002F0C8FDA4F5006401224FF4807120465E
:10151C0002F01CFA00228021204602F017FACFE7D5
:10152C00002011F007F8CEE700100140000C01403C
:10153C000008014000000020340A002010B51448B7
:10154C000DF00CFF134C00224FF48071204602F07A
:10155C00FDF901228021204602F0F8F904F500641F
:10156C0000224FF40051204602F0F0F901224FF412
:10157C000061094802F0EAF900220421204602F039
:10158C00E5F9012010F0D6FF044B00221A7010BDB3
:10159C00EC5D010800080140000C0140340A0020F9
:1015AC0008B50021322002F09FFD08BD08B50120CE
:1015BC0010F0C0FF00224FF48071034802F0C6F90E
:1015CC00FFF7EEFF08BD00BF0008014008B5802101
:1015DC00322002F089FD08BD08B501224FF480715C
:1015EC00044802F0B3F9044B1B7803B108BDFFF7B4
:1015FC00EDFFFBE7000801400000002010B5084C8F
:10160C0000224021204602F0A1F900222021204690
:10161C0002F09CF901221021204602F097F910BD2E
:10162C000008014010B588B060230193029000239C
:10163C0003930593054C082201A9204601F092F86A
:10164C000821204601F086F908B010BDF80B0020E7
:10165C0008B5632812D9A0F16403DBB2272B29D972
:10166C0000F17403DBB2272B26D900F14C03DBB25B
:10167C00272B23D9DB2823D8002200E00F221C4B78
:10168C001B78012B24D11B4B1B7893421AD9013B9D
:10169C00184A1370184B00221A70164B1B78F92B32
:1016AC0002D9144BFA221A70124B18780001FFF76A
:1016BC00B9FF08BD1422E2E72822E0E73C22DEE76E
:1016CC004B22DCE79342E5D201330A4A1370E1E77F
:1016DC000A4B18680346002806DB1B11054A1370D9
:1016EC0080B2FFF79FFFE4E700F10F03F5E700BFBF
:1016FC00260A002002000020140A002014000020FA
:10170C0010B5AB2002F0FCFC494B1870B02002F075
:10171C00F7FC484B1870AC2002F0F2FC464B1870EA
:10172C00A32002F0EDFC454B1870AA2002F0E8FC57
:10173C00434B1870AD2002F0E3FC424B1870A02014
:10174C0002F0DEFC404B1870AF2002F0D9FC3F4B8E
:10175C001870202002F0D4FC3D4B18700EF0BCFC2D
:10176C003C4B1870A52002F0CBFC3B4B1870A6200C
:10177C0002F0C6FC394B1870A72002F0C1FC384BA4
:10178C001870A82002F0BCFC364B1870192002F01F
:10179C00B7FC354B1870BF2002F0B2FC334B1870FD
:1017AC00202002F0ADFC324B1870212002F0A8FC76
:1017BC00304B1870222002F0A3FC2F4B1870232002
:1017CC0002F09EFC2D4B1870252002F099FC2C4C3D
:1017DC002070242002F094FC2A4B1870217862208F
:1017EC0003F052F8284B1860C92002F089FC274CF2
:1017FC002070CC2002F084FC6070CF2002F080FCC2
:10180C00A070D22002F07CFCE070D82002F078FCB2
:10181C001F4C2070D92002F073FC6070DA2002F0AB
:10182C006FFCA070DB2002F06BFCE07010BD00BF01
:10183C0003000020F10B0020CD0A0020CA0A002072
:10184C00860C0020380B0020260A0020780E002081
:10185C00F00B00206B090020780C0020F40B00200A
:10186C003A0B0020390B0020F30B00204E0A00200D
:10187C001000002007000020080000207C0B002036
:10188C000A0000200B0000200C0000206C0D002032
:10189C007C0A002010B5364B1B7843B135480DF04F
:1018AC005DFD0023344A1370344A137044E02F203A
:1018BC000DF094FEFFF742FE05F03CFA11200DF0FE
:1018CC0033FEEBE7AB2002F01FFC2D200DF086FE63
:1018DC0005F0E0F92A4B1B78012B3FD00F200DF0BF
:1018EC0023FE0F214FF4FA600DF0E4FD4A200DF0B9
:1018FC001BFE4A214FF4FA700DF0DCFD11214FF460
:10190C00FA700DF0D7FD00231E4A13701E4A137097
:10191C001E4B1B68002B28DB1B111D4A13701D4B23
:10192C0001221A701C480DF019FD10BD10F0A2F91F
:10193C000EF004FA0BF0BAF90FF0BAF9174B19784C
:10194C000129BFD00FF036FF04460028EED02D2021
:10195C000DF044FE204610F08DF9E9E7044B1B789E
:10196C00002BBBD103F098FEB8E70F33D4E700BFD0
:10197C00E30A0020FC5D0108470A0020520A0020FF
:10198C00780E0020510A00204F0A0020140000207D
:10199C0002000020440A00200C5E01080300002015
:1019AC0008B501E00DF070FB0DF02CF90028F9D111
:1019BC000EF0C4F90BF07AF90CF0D2FD0FF0FAFE30
:1019CC000D4B1B788BB10FF073F9A0B10B4B1B783F
:1019DC00012B0DD00A4B1B78012BE5D10021094BB3
:1019EC001970AB2002F090FB05E010F043F9EAE728
:1019FC00044B00221A7008BD00000020510A002080
:101A0C004F0A00200300002070B590B0002407940A
:101A1C00089409940C9401940294039404940594EE
:101A2C000225069501260A9610230B930D950E940C
:101A3C004FF4E0130F9306A801F0E2FA0F23019381
:101A4C000295039404940594314601A801F018FD05
:101A5C0010B070BD10B501F085FAFFF7D5FFFEF799
:101A6C00DFFCFEF76DFBFFF769FDFEF7FFFBFEF7F2
:101A7C002FFCFEF757FCFEF76BFCFEF77FFC13F018
:101A8C00CFF813F049FA13F04BFC13F069FEAB20BE
:101A9C0002F036FB002800F0A1802D200DF09EFDF9
:101AAC00012010F047FDB02002F02AFB534B1870B8
:101ABC0010F0ACFDFFF7A2FD0EF00EFB504B1870B2
:101ACC00002002F07FFB4F4B1860012011F028F82A
:101ADC000020FFF7D5FC322002F0DCFA01224A4943
:101AEC004A4801F0F4F84A4C00220221204601F049
:101AFC002DFF00221021204601F028FF0022012199
:101B0C00204601F023FF642002F0C4FA01220221D6
:101B1C00204601F01BFF01221021204601F016FF88
:101B2C0001221146204601F011FF3A4A3A493B483E
:101B3C0011F044FF002002F0B7FA0146384811F0CA
:101B4C003DFF3849252006F0E7FCFFF74DFCFFF779
:101B5C00D7FD0021322002F0C7FA0124324B1C7051
:101B6C005A21204602F0AAFA304B04225A711C72F8
:101B7C000322DA7110221A7002229A712C4B07225E
:101B8C001A705A709A70DA702A4B00221A705A70B6
:101B9C009A70DA7002F054FF0FF0FEFB0CF0CCFAE6
:101BAC00254800F06CFCFA200DF0FCFB02F092FED4
:101BBC0080B2FFF737FD214B1B68002B12DB1B118A
:101BCC001F4A1370FFF702FD1E4B1B78012B0DD122
:101BDC000FF0F0FD50B9FFF7FFFC07E02F200DF0E0
:101BEC00FDFC5DE70F33EAE7FFF754FE154B1B785E
:101BFC00012BF9D1FFF7D4FEF6E700BFF10B002063
:101C0C006B0900201C0A00204C0A0020B00B00209D
:101C1C00000801401C5E0108285E0108345E0108C2
:101C2C00585E010818C50108790C00207C0C0020B6
:101C3C00B80C0020B40C00203C0B00201400002039
:101C4C00020000200300002002689D4B9A4200D045
:101C5C00704730B49B4A13780133DBB213709A4A45
:101C6C001168013111609948026801320260632BDE
:101C7C0009D99748036801330360924B0020187010
:101C8C00944B01201860944B186801301860186848
:101C9C00924B984206D9904B00201860904B1B78C1
:101CAC00012B20D08F4B9B68DB43C3F381338E48D1
:101CBC00C4789C4208D0457805708578457084704E
:101CCC00C3708A4B01201860894B1B78DBB2012B47
:101CDC000FD0B1F57A7F00F08B80B2F57A7F00F0EF
:101CEC003B8130BC7047834803780133DBB203700F
:101CFC00D8E7814B1878C0B2804B1B78DBB2984286
:101D0C0023D07D4B1B78DBB2212B15D87C4B1B7859
:101D1C00DBB2012B54D07B4B1B889BB240F2E240D0
:101D2C00834209D9774B1B889BB240F2A95083425E
:101D3C0002D8734B01201870724B002018806F4B27
:101D4C001B78DBB26C480370C3E76E4803889BB208
:101D5C0001339BB2038003889BB243F698208342E5
:101D6C00B7D9694B1B78DBB21F2B09D9674B1B68A2
:101D7C009BB26748038003889BB2B3F57F4F0FD0AB
:101D8C000023614803705F4803805B4803705B4825
:101D9C000370574803705D4803605948037098E717
:101DAC005A480368C3F307435A4C237003686FEA1D
:101DBC001363DBB258480370584B01201870DFE7EF
:101DCC00504B1B889BB25A2BA5D9504803685B0813
:101DDC0003604C4B1B889BB2A02B03D9036843F0C8
:101DEC0000430360484803780133DBB2037092E789
:101DFC00354B002119604A4B9968C94301F0C00169
:101E0C00A3F580639B68DB431B0A03F030030B4391
:101E1C0038D044490B6801330B60434B1B78032BC0
:101E2C0006D0642B19D040490B7801330B7054E762
:101E3C003B4B9B68DB4303F0C0032A498968C943C9
:101E4C00090A01F030010B4338490B70384B002163
:101E5C001960384B01211960E5E7314B9B68DB4376
:101E6C0003F0C0031F498968C943090A01F0300116
:101E7C000B432E490B702F4B012119602A4B0A2161
:101E8C001970D0E72C4B1B78012B0BD0032B59D09E
:101E9C0000232A490B7024490B7024490B702149EB
:101EAC000B601AE71F4909680029EFD05629EDD8B5
:101EBC00234909780129E9D11F4B02211970E7E761
:101ECC0000040040B40A0020B80A0020BC0A00201C
:101EDC00A80A0020A40A0020580A0020A0860100AD
:101EEC0001000020000C0140E80A0020900E0020A8
:101EFC002D0A0020380A0020450A00202E0A002056
:101F0C00330A0020300A0020320A0020280A002060
:101F1C005E0A0020610A0020600A00202C0A0020C2
:101F2C0000100140B00A0020540A00208B0E002043
:101F3C00840E0020740E0020470A0020440A002062
:101F4C0003000020144B1B68002BA1D0562B9FD8EC
:101F5C00124B002119709BE7114B00221A60114B98
:101F6C001B789BB1104A1278032A06D0962A07D008
:101F7C000D4A137801331370B3E60C4A1370F7E76C
:101F8C000A4A1370084B04221A70F1E70023064A20
:101F9C001370064A1370A4E6B00A0020470A00200A
:101FAC00BC0A0020EC0A00205C0A0020790E0020FC
:101FBC0010B504460268184B9A4204D02268174B9D
:101FCC009A4214D010BD16490A78531CDBB20B7020
:101FDC0014490878144988541D2B02D9104B00223F
:101FEC001A7001220F49114800F071FEE6E7104902
:101FFC000A78531CDBB20B700E4908780E498854D2
:10200C001D2B02D90A4B00221A70012209490B48D8
:10201C0000F05DFED6E700BF0038014000440040F0
:10202C00990A00204C0A0020B00D0020B00B0020B3
:10203C00980A0020480A0020F00D0020380C0020DF
:10204C00012800D07047044B01221A70034A137800
:10205C000133DBB21370F5E72D0A00202E0A0020A5
:10206C007047FEE7FEE7FEE7FEE7704770477047F4
:10207C0008B500F089FF08BD08B5012001F06CFC23
:10208C0008BD000008B5024800F00EFA08BD00BFFC
:10209C003C0B002008B5024800F0A6FE08BD00BFAE
:1020AC00B00B002008B5024800F09EFE08BD00BF32
:1020BC00380C002082B00E4B9A6942F001029A61F2
:1020CC009A6902F001020092009ADA6942F0805299
:1020DC00DA61DB6903F080530193019B054A536875
:1020EC0023F0E06343F00073536002B0704700BF0D
:1020FC00001002400000014002680E4B9A4200D0D2
:10210C00704700B583B003F50333DA6942F002027D
:10211C00DA61DB6903F002030193019B0022114693
:10212C001D2001F085FC1D2001F0B6FC03B05DF80C
:10213C0004FB00BF0004004070B588B004460023C7
:10214C0004930593069307930268364B9A4205D085
:10215C002268354B9A4234D008B070BD03F5584311
:10216C009A6942F480429A619A6902F48042009220
:10217C00009A9A6942F004029A619B6903F0040385
:10218C000193019B4FF400730493022305930323E3
:10219C000793264E04A9304601F0C8FA4FF4806329
:1021AC00049300250595069504A9304601F0BEFA66
:1021BC002A462946252001F03BFC252001F06CFC29
:1021CC00C6E703F5E633DA6942F40032DA61DA691C
:1021DC0002F400320292029A9A6942F004029A6165
:1021EC009B6903F004030393039B042304930223CE
:1021FC000593032307930D4D04A9284601F096FA85
:10220C000823049300240594069404A9284601F09D
:10221C008DFA22462146262001F00AFC262001F0E8
:10222C003BFC99E7003801400044004000080140A5
:10223C0000B587B0002302930393049305930268BF
:10224C00114B9A4202D007B05DF804FB03F56C43C6
:10225C009A6942F400729A619A6902F400720092CF
:10226C00009A9A6942F010029A619B6903F010037C
:10227C000193019B082302930323039302A90348B0
:10228C0001F054FADFE700BF0024014000100140C8
:10229C000368B3F1804F00D0704782B003F504336C
:1022AC00DA6942F00102DA61DB6903F001030193A0
:1022BC00019B02B07047000000B587B00023029369
:1022CC000393049305930368B3F1804F02D007B0D6
:1022DC005DF804FB03F504339A6942F008029A6135
:1022EC009B6903F008030193019B4FF480630293F5
:1022FC0002230393059302A9064801F017FA064A34
:10230C00536823F4407343F0E06343F40073536069
:10231C00DDE700BF000C01400000014070B4036A0F
:10232C0023F001030362036A4668826922F0730298
:10233C000C6844EA020523F002028B6813430D4C2F
:10234C00A04209D00B4CA0420DD0466085614A6872
:10235C004263036270BC704723F00803CA681343DE
:10236C0023F00403EEE726F440764A6932438E6983
:10237C001643EAE7002C014030B4036A23F480735F
:10238C000362036A4568C26922F073020C68224337
:10239C0023F400738C6843EA04230F4CA04209D049
:1023AC000D4CA0420ED04560C2614A68C263036204
:1023BC0030BC704723F40063CC6843EA042323F455
:1023CC008063EDE725F440554C6945EA04158C69AA
:1023DC0045EA0415E7E700BF002C014030B4036A5E
:1023EC0023F480530362036A4468C26922F4E64210
:1023FC000D6842EA052223F400538D6843EA053345
:10240C00074DA84206D04460C2614A680264036268
:10241C0030BC704724F480444D6944EA8514F2E7DB
:10242C00002C014030B4036A056A25F001050562F1
:10243C00846924F0F00444EA021423F00A030B43E9
:10244C008461036230BC704730B4056A25F0100516
:10245C0005628469036A24F4704444EA023423F06C
:10246C00A00343EA01138461036230BC70478368A4
:10247C0023F070030B4343F007038360704702683B
:10248C00D36843F00103D3600268936803F0070339
:10249C00062B03D0136843F0010313600020704730
:1024AC00704770477047704710B5044603681A6947
:1024BC0012F0020F11D0DA6812F0020F0DD06FF08B
:1024CC0002021A610123037703689B6913F0030F5F
:1024DC0070D0FFF7E6FF0023237723681A6912F008
:1024EC00040F12D0DA6812F0040F0ED06FF0040251
:1024FC001A610223237723689B6913F4407F5FD012
:10250C002046FFF7CEFF0023237723681A6912F0C9
:10251C00080F12D0DA6812F0080F0ED06FF0080214
:10252C001A61042323772368DB6913F0030F4ED061
:10253C002046FFF7B6FF0023237723681A6912F0B1
:10254C00100F12D0DA6812F0100F0ED06FF01002CC
:10255C001A61082323772368DB6913F4407F3DD08D
:10256C002046FFF79EFF0023237723681A6912F099
:10257C00010F03D0DA6812F0010F36D123681A6903
:10258C0012F0800F03D0DA6812F0800F34D1236878
:10259C001A6912F0400F03D0DA6812F0400F32D1F2
:1025AC0023681A6912F0200F03D0DA6812F0200F9A
:1025BC0030D110BDFFF774FF2046FFF773FF8AE799
:1025CC002046FFF76DFF2046FFF76CFF9BE7204688
:1025DC00FFF766FF2046FFF765FFACE72046FFF7E5
:1025EC005FFF2046FFF75EFFBDE76FF001021A6147
:1025FC002046FFF729FBC1E76FF080021A612046E5
:10260C0000F0EAF9C3E76FF040021A612046FFF7C9
:10261C004AFFC5E76FF020021A61204600F0DBF993
:10262C00C7E7000003681B4A90420AD0B0F1804F04
:10263C0007D0A2F59432904203D002F5806290420A
:10264C0003D123F070034A681343124A90420AD014
:10265C00B0F1804F07D0A2F59432904203D002F52E
:10266C008062904203D123F44073CA68134323F071
:10267C0080034A69134303608B68C3620B688362EF
:10268C00044B984202D00123436170470B690363EA
:10269C00F9E700BF002C0140B0B110B5044690F82A
:1026AC003D3063B1022384F83D30214651F8040BD0
:1026BC00FFF7B8FF012384F83D30002010BD80F8EF
:1026CC003C30FFF719FDEDE701207047B0B110B5B4
:1026DC00044690F83D3063B1022384F83D30214626
:1026EC0051F8040BFFF79EFF012384F83D300020C6
:1026FC0010BD80F83C30FFF7CBFDEDE701207047B3
:10270C0030B4036A23F010030362036A44688269DD
:10271C0022F4E6420D6842EA052223F020038D687C
:10272C0043EA05130E4DA84209D00D4DA8420ED018
:10273C00446082614A688263036230BC704723F054
:10274C008003CD6843EA051323F04003EDE724F43E
:10275C0040644D6944EA85048D6944EA8504E7E7E1
:10276C00002C014038B590F83C30012B66D0044663
:10277C000D46012380F83C30022380F83D300C2AB2
:10278C001AD8DFE802F00719191920191919341988
:10279C00191947000068FFF7C1FD2268936943F0DF
:1027AC00080393612268936923F004039361226800
:1027BC00936929690B439361012384F83D30002010
:1027CC0084F83C0038BD0068FFF79AFF22689369D3
:1027DC0043F4006393612268936923F480639361EB
:1027EC0022689369296943EA01239361E4E700684D
:1027FC00FFF7C2FD2268D36943F00803D361226856
:10280C00D36923F00403D3612268D36929690B438C
:10281C00D361D1E70068FFF7E1FD2268D36943F487
:10282C000063D3612268D36923F48063D361226887
:10283C00D369296943EA0123D361BDE70220C1E7CB
:10284C0010B4846824F47F4442EA03220A432243EE
:10285C00826010BC704790F83C30012B66D010B5EC
:10286C000446012380F83C30022380F83D30026896
:10287C00936823F47F4323F0770393600B68602BFA
:10288C0040D022D8402B47D00BD9502B0ED1CA6840
:10289C0049680068FFF7C6FD50212068FFF7E7FD87
:1028AC0004E0202B0CD008D9302B09D0012384F85C
:1028BC003D30002084F83C0010BD0BB1102BF5D13D
:1028CC0019462068FFF7D3FDF0E7702B0ED0B3F557
:1028DC00005FEBD1CB684A6889680068FFF7B0FFEE
:1028EC002268936843F480439360DFE7CB684A68BF
:1028FC0089680068FFF7A4FF2268936843F07703A8
:10290C009360D3E7CA6849680068FFF79DFD6021B2
:10291C002068FFF7ACFDC9E7CA6849680068FFF793
:10292C0081FD40212068FFF7A2FDBFE70220704720
:10293C0010B401F01F01012303FA01F4036A23EA26
:10294C0004030362036A02FA01F10B43036210BC35
:10295C007047000010B5044601220068FFF7E8FF3D
:10296C0023680A4A93420BD02268936803F007034A
:10297C00062B03D0136843F001031360002010BD35
:10298C005A6C42F400425A64EEE700BF002C01403E
:10299C0090F83C30012B1CD070B4012680F83C60C0
:1029AC00022380F83D3002685568936825F0700565
:1029BC000C682C4323F080054B682B435460026851
:1029CC00936080F83D60002380F83C30184670BC62
:1029DC00704702207047704770470268D36823F431
:1029EC009073D3600268536923F001035361202371
:1029FC0080F83A30704790F83930DBB2212B01D097
:102A0C00022070478368B3F5805F17D0036A5A1CA5
:102A1C0002621A7803685A60C38C9BB2013B9BB26A
:102A2C00C3844BB90268D36823F08003D360026877
:102A3C00D36843F04003D36000207047036A1B88BF
:102A4C000268C3F30803536003691BB9036A0233BA
:102A5C000362E1E7036A01330362DDE738B504463C
:102A6C000268136923F44053C1680B4313618368F4
:102A7C000269134342691A430168CB6823F4B053CB
:102A8C0023F00C031343CB600268536923F44073A7
:102A9C0081690B4353610268214B9A421FD000F0AD
:102AAC00ABFD00EB800000EB800063689B00B0FB8B
:102ABC00F3F01C4DA5FB00325109642303FB1103F9
:102ACC001B013233A5FB03235B0903F0F00202EB7D
:102ADC00011203F00F03216813448B6038BD00F022
:102AEC009BFD00EB800000EB800063689B00B0FB5B
:102AFC00F3F00C4DA5FB00325109642303FB1103C9
:102B0C001B013233A5FB03235B0903F0F00202EB3C
:102B1C00011203F00F03216813448B60DEE700BF42
:102B2C00003801401F85EB512DE9F84305460F464F
:102B3C0016469946DDF820802C68246837EA040391
:102B4C000CBF01240024B4421FD1B8F1FF3FF3D0D5
:102B5C00B8F1000F05D000F023FAA0EB09004045B6
:102B6C00EAD92A68D36823F4D073D3602A685369EE
:102B7C0023F001035361202385F8393085F83A306E
:102B8C00002385F83830032000E00020BDE8F883EE
:102B9C0058B310B5044690F839300BB3242384F89D
:102BAC0039302268D36823F40053D3602046FFF7F2
:102BBC0055FF2268136923F490431361226853690B
:102BCC0023F02A0353612268D36843F40053D36083
:102BDC000020E063202384F8393084F83A3010BDAB
:102BEC0080F83830FFF7A8FAD8E7012070472DE9B4
:102BFC00F04182B01E4690F83930DBB2202B58D110
:102C0C0004460D469046002957D0002A57D090F81C
:102C1C003830012B55D0012380F838300023C363A2
:102C2C00212380F8393000F0BBF90746A4F8248042
:102C3C00A4F8268017E000963B460022802120460F
:102C4C00FFF772FF00283ED12B882268C3F30803DC
:102C5C00536023690BB9023505E0013503E015F823
:102C6C00012B23685A60E38C9BB29BB1E28C92B22D
:102C7C00013A92B2E284A368B3F5805FDBD0009690
:102C8C003B46002280212046FFF74EFF0028E6D06D
:102C9C0003200FE000963B46002240212046FFF720
:102CAC0043FF90B9202384F83930002384F838305E
:102CBC0000E0022002B0BDE8F0810120FAE701201B
:102CCC00F8E70220F6E70320F4E70320F2E790F898
:102CDC003A30DBB2202B20D109B312B390F8383044
:102CEC00012B20D081628285C2850023C3632222FE
:102CFC0080F83A2080F838300168CA6842F4807253
:102D0C00CA6001684A6942F001024A610168CA68F6
:102D1C0042F02002CA60184670470220704701201A
:102D2C0070470120704702207047704708B5016852
:102D3C00CA6822F04002CA60202280F83920FFF7CE
:102D4C00F4FF002008BD08B590F83A30DBB2222B16
:102D5C0046D18368B3F5805F0FD003690BBB036862
:102D6C005A68836A591C81621A70C38D9BB2013BED
:102D7C009BB2C385F3B1002008BD826A036943B9D5
:102D8C0003685B68C3F308031380836A02338362AE
:102D9C00EBE703685B68DBB21380836A0133836201
:102DAC00E3E703685B68826A511C816203F07F036E
:102DBC001370DAE70268D36823F02003D36002684B
:102DCC00D36823F48073D3600268536923F0010342
:102DDC005361202380F83A30FFF7EAF80020CBE764
:102DEC000220C9E77047000010B50446026813685A
:102DFC00D168526913F00F0005D113F0200F02D0E7
:102E0C0011F0200F13D128B112F0010213D111F4DB
:102E1C00907F10D113F0800F02D011F0800F69D188
:102E2C0013F0400F02D011F0400F67D110BD2046B7
:102E3C00FFF789FFFAE713F0010F06D011F4807F3A
:102E4C0003D0E06B40F00100E06313F0040F04D0FA
:102E5C001AB1E06B40F00200E06313F0020F04D0F3
:102E6C001AB1E06B40F00400E06313F0080F04D0DB
:102E7C001AB1E26B42F00802E263E26B002AD5D091
:102E8C0013F0200F02D011F0200F21D123685B69C1
:102E9C0003F04003E26B12F0080F00D123B320467D
:102EAC00FFF79BFD23685A6912F0400F18D05A693E
:102EBC0022F040025A61636B73B1124A5A63606B21
:102ECC0000F058FD0028B1D0606B436B9847ADE71C
:102EDC002046FFF738FFD9E72046FFF783FFA5E729
:102EEC002046FFF77FFFA1E72046FFF77BFF00237B
:102EFC00E3639BE72046FFF77EFD97E72046FFF74D
:102F0C0015FF93E7152F000808B5406A0023C38509
:102F1C00C384FFF767FF08BD10B504460E4B187845
:102F2C004FF47A73B3FBF0F30C4A1068B0FBF3F078
:102F3C0000F0C0FD68B90F2C01D901200AE0002275
:102F4C0021464FF0FF3000F073FD054B1C60002054
:102F5C0000E0012010BD00BF180000202000002060
:102F6C001C00002008B5074A136843F010031360D7
:102F7C00032000F04BFD0020FFF7CEFFFFF79AF87F
:102F8C00002008BD00200240034A1168034B1B7847
:102F9C000B441360704700BF880C00201800002001
:102FAC00014B1868704700BF880C002038B50446E8
:102FBC00FFF7F6FF0546B4F1FF3F02D0044B1B7838
:102FCC001C44FFF7EDFF401BA042FAD338BD00BFF5
:102FDC001800002082B0084B1B68084AA2FB032390
:102FEC005B0A00FB03F3019300BF019B5A1E019285
:102FFC00002BF9D102B0704720000020D34D621095
:10300C00002800F0F38170B582B00446036813F019
:10301C00010F2CD0AB4B5B6803F00C03042B1DD0C1
:10302C00A84B5B6803F00C03082B12D06368B3F554
:10303C00803F41D0002B56D103F1804303F504337C
:10304C001A6822F480321A601A6822F480221A60FC
:10305C0037E09C4B5B6813F4803FE7D0994B1B68BF
:10306C0013F4003F03D06368002B00F0C181236888
:10307C0013F0020F77D0934B5B6813F00C0F61D0F9
:10308C00904B5B6803F00C03082B56D02369002B84
:10309C0000F08B808C4B01221A60FFF781FF0546F4
:1030AC00884B1B6813F0020F76D1FFF779FF401B9A
:1030BC000228F5D90320A0E1824A136843F4803337
:1030CC00136063684BB3FFF76BFF05467D4B1B68C2
:1030DC0013F4003FCBD1FFF763FF401BB0F5803FEB
:1030EC00F4D3032089E1B3F5A02F09D0754B1A68EE
:1030FC0022F480321A601A6822F480221A60E0E707
:10310C0003F18043A3F53C331A6842F480221A6021
:10311C001A6842F480321A60D3E7FFF741FF054684
:10312C00684B1B6813F4003FA1D0FFF739FF401B1D
:10313C00B0F5803FF4D303205FE1624B5B6813F47E
:10314C00803FA3D15F4B1B6813F0020F03D02369A0
:10315C00012B40F04F815B4A136823F0F80361693F
:10316C0043EAC1031360236813F0080F32D0A3693C
:10317C00002B45D0554B01221A60FFF711FF054675
:10318C00504B5B6A13F0020F21D1FFF709FF401B74
:10319C000228F5D9032030E14A4A136823F0F803DA
:1031AC00616943EAC1031360DDE7474B00221A60F3
:1031BC00FFF7F6FE0546434B1B6813F0020FD2D007
:1031CC00FFF7EEFE401B0228F5D9032015E1012084
:1031DC00FFF700FF236813F0040F00F09780394BC2
:1031EC00DB6913F0805F1DD1364BDA6942F08052F7
:1031FC00DA61DB6903F080530193019B012512E036
:10320C00324B00221A60FFF7CBFE05462D4B5B6A52
:10321C0013F0020FDED0FFF7C3FE401B0228F5D9D6
:10322C000320EAE000252A4B1B6813F4807F11D0A1
:10323C00E368012B22D0002B38D103F1804303F536
:10324C0004331A6A22F001021A621A6A22F004028A
:10325C001A6218E01E4A136843F480731360FFF778
:10326C009FFE06461A4B1B6813F4807FE0D1FFF7D4
:10327C0097FE801B6428F5D90320BEE0114A136A1F
:10328C0043F001031362E36873B3FFF789FE06464C
:10329C000C4B1B6A13F0020F37D1FFF781FE801B1A
:1032AC0041F288339842F3D90320A6E0052B11D0C4
:1032BC00044B1A6A22F001021A621A6A22F0040202
:1032CC001A62E0E7001002400000424280044242D1
:1032DC00007000404D4B1A6A42F004021A621A6ADE
:1032EC0042F001021A62CEE7FFF75AFE0646474B40
:1032FC001B6A13F0020F08D0FFF752FE801B41F23D
:10330C0088339842F3D9032077E0E5B9E369002BC1
:10331C0072D03E4A526802F00C02082A56D0022B98
:10332C0017D03B4B00221A60FFF73AFE0446374B8E
:10333C001B6813F0007F47D0FFF732FE001B0228FA
:10334C00F5D9032059E0314AD36923F08053D36176
:10335C00DCE72F4B00221A60FFF722FE05462B4BB1
:10336C001B6813F0007F06D0FFF71AFE401B0228E3
:10337C00F5D9032041E0236AB3F5803F1AD02349E5
:10338C004B6823F47413226A606A024313434B6044
:10339C001F4B01221A60FFF703FE04461B4B1B68F0
:1033AC0013F0007F0ED1FFF7FBFD001B0228F5D9AF
:1033BC00032022E0154A536823F40033A1680B4321
:1033CC005360DCE7002018E0002016E0012B16D03B
:1033DC000E4B5B6803F48031226A914211D103F4E5
:1033EC007013626A93420ED1002006E001207047F0
:1033FC00012002E0012000E0002002B070BD01209D
:10340C00FBE70120F9E70120F7E700BF00100240BD
:10341C006000424286B0164B0FCB0DF1180C0CE934
:10342C000F0040F20123ADF80430124B5B6803F03F
:10343C000C02082A02D0104806B07047C3F383422E
:10344C00624412F8102C13F4803F0CD0094B5B68CB
:10345C00C3F34043634413F8143C074800FB02F0E9
:10346C00B0FBF3F0E8E7054800FB02F0E4E700BF2F
:10347C00705E01080010024000127A0000093D0045
:10348C00002800F0A08070B50D460446524B1B6816
:10349C0003F007038B420BD24F4A136823F0070348
:1034AC000B431360136803F007038B4240F08D80CD
:1034BC00236813F0020F17D013F0040F04D0474AFF
:1034CC00536843F4E0635360236813F0080F04D08F
:1034DC00424A536843F460535360404A536823F0A4
:1034EC00F003A1680B435360236813F0010F31D034
:1034FC006368012B20D0022B25D0384A126812F0B9
:10350C00020F64D035494A6822F0030213434B6022
:10351C00FFF746FD0646314B5B6803F00C0362680F
:10352C00B3EB820F16D0FFF73BFD801B41F28833C3
:10353C009842F0D9032045E0284A126812F4003F63
:10354C00E0D101203EE0254A126812F0007FD9D16B
:10355C00012037E0204B1B6803F00703AB420AD96C
:10356C001D4A136823F007032B431360136803F001
:10357C000703AB422DD1236813F0040F06D0174A72
:10358C00536823F4E063E1680B435360236813F042
:10359C00080F07D0114A536823F46053216943EA9A
:1035AC00C1035360FFF736FF0C4B5B68C3F3031387
:1035BC000B4AD35CD8400B4B18600B4B1868FFF7C9
:1035CC00ABFC002070BD012070470120FAE7012000
:1035DC00F8E70120F6E700BF00200240001002408F
:1035EC00845E0108200000201C000020014B18689C
:1035FC00704700BF2000002008B5FFF7F7FF044B11
:10360C005B68C3F30223034AD35CD84008BD00BFF8
:10361C0000100240945E010808B5FFF7E7FF044B69
:10362C005B68C3F3C223034AD35CD84008BD00BF18
:10363C0000100240945E010810B586B00446364B6B
:10364C000FCB0DF1180C0CE90F0040F20123ADF873
:10365C000430022C52D0102C04D0012C2CD0002081
:10366C0006B010BD2D4B5A68186810F08070F7D05A
:10367C00C2F3834306A90B4413F8100C12F4803FD9
:10368C0016D0264B5B68C3F340430B4413F8142C41
:10369C00234BB3FBF2F300FB03F0204B5B6813F4FA
:1036AC00800FDDD140001F4BA3FB00304008D7E753
:1036BC001D4B03FB00F0F0E7184B1B6A40F2023283
:1036CC001A40B2F5817F24D003F44073B3F5007F28
:1036DC0004D0B3F5407F09D00020C1E70F4A526AED
:1036EC0012F0020FF5D049F64040B9E70B4B1868C1
:1036FC0010F40030B4D04FF22440B1E7FFF78CFF48
:10370C00064B5B68C3F3813301335B00B0FBF3F012
:10371C00A6E74FF40040A3E7705E010800100240DA
:10372C0000127A00ABAAAAAA00093D00F0B482B03C
:10373C0000252C46A3E07F4FBB4210D007D97E4F0B
:10374C00BB420CD007F58037BB4208D013E0A7F57D
:10375C008017BB4203D007F57027BB4207D18B689B
:10376C00002B58D0012B51D04261082503E0A7F55E
:10377C008017BB42F3D0FF2E4FD88446FF2E4FD874
:10378C00A200DCF800300F27974023EA070305FA64
:10379C0002F21343CCF800304B6813F0805F6DD00D
:1037AC00664B9A6942F001029A619B6903F001032E
:1037BC000193019BA208971C614B53F8273004F02E
:1037CC000307BF004FF00F0C0CFA07FC23EA0C0C9C
:1037DC005C4B98422AD003F58063984200F08A80B3
:1037EC0003F58063984200F0878003F5806398426C
:1037FC001AD004231BE0CD68BDE7CD680435BAE7C9
:10380C00CD680835B7E7CD680C35B4E702610825FB
:10381C00B1E70025AFE70425ADE700F1040CADE7F7
:10382C00A4F108029200ACE7032300E00023BB40A4
:10383C0043EA0C030232424F47F822304B6813F430
:10384C00803F5BD0404A1368334313604B6813F4DA
:10385C00003F59D03C4A5368334353604B6813F4D0
:10386C00801F57D0384A9368334393604B6813F4E6
:10387C00001F55D0344AD3681E43D66001340B6800
:10388C0033FA04F252D00122A24003EA020632EAD1
:10389C000303F3D14B68122B3FF64DAF122B3FF6BF
:1038AC006AAF01A757F823F06B37000803380008FC
:1038BC000D3800081F3800088337000883370008CC
:1038CC0083370008833700088337000883370008E4
:1038DC0083370008833700088337000883370008D4
:1038EC00833700088337000883370008073800083F
:1038FC001338000801239AE7022398E7124A136849
:10390C0023EA06031360A1E70F4A536823EA060370
:10391C005360A3E70C4A936823EA06039360A5E778
:10392C00094AD36823EA0606D660A7E702B0F0BCC2
:10393C00704700BF00002210000031100010024040
:10394C000000014000080140000401400AB101617F
:10395C00704709040161704708B5054B5B69034268
:10396C0000D108BD024B5861FEF76AFBF9E700BFB6
:10397C000004014008B590F82130022B03D0042339
:10398C008363012008BD0268136823F00E031360E3
:10399C000268136823F0010313600368194A934209
:1039AC0014D0143293421FD0143293421ED01432CE
:1039BC0093421ED0143293421ED01432934202D042
:1039CC004FF0807203E04FF4801200E001220E4BA6
:1039DC005A60012380F82130002380F82030436B9B
:1039EC006BB198470020CDE71022F0E74FF48072BE
:1039FC00EDE74FF48052EAE74FF48032E7E700201E
:103A0C00C0E700BF0800024000000240074AD3682C
:103A1C0023F4E0631B041B0C000200F4E06003437E
:103A2C0043F0BF6343F40033D360704700ED00E014
:103A3C0030B4174BDB68C3F30223C3F10704042C27
:103A4C0028BF04241D1D062D18D9033B4FF0FF354C
:103A5C0005FA04F421EA0401994005FA03F322EA79
:103A6C000303194300280BDB0901C9B200F16040C4
:103A7C0000F5614080F8001330BC70470023E5E787
:103A8C0000F00F000901C9B2024B1954F4E700BF52
:103A9C0000ED00E014ED00E0002807DB00F01F0251
:103AAC00400901239340024A42F82030704700BF7E
:103ABC0000E100E00138B0F1807F0AD2064B58607B
:103ACC00064AF02182F823100020986007221A6021
:103ADC0070470120704700BF10E000E000ED00E0EF
:103AEC00F0B583B005460C4600230193FFF758FA56
:103AFC002B689A6812F4807F23D107465A6812F417
:103B0C00807F03D1DB6A13F4700F24D04A4B1E68FC
:103B1C000220FFF791FDB6FBF0F02B681969474ABC
:103B2C0011422FD1D96802F15C4211422AD1196994
:103B3C00434A114239D1DA68424B1A4237D029260E
:103B4C003AE0AB6A43F02003AB62002385F82430E3
:103B5C00012003B0F0BD2B681B6813F0020F48D195
:103B6C00B4F1FF3FF7D024B1FFF71AFAC01BA04203
:103B7C00F1D9AB6A43F00403AB62002385F824301F
:103B8C000320E6E719692E4A114204D1D96802F1E3
:103B9C006E4211420DD019692B4A0A405AB9DA68A3
:103BAC00294B13405BB1FC2606E0292604E01426C1
:103BBC0002E0542600E0FC2606FB00F604E0542646
:103BCC00FAE7019B01330193019BB34211D2B4F18B
:103BDC00FF3FF6D024B1FFF7E3F9C31BA342F0D9A2
:103BEC00AB6A43F00403AB62002385F82430032056
:103BFC00AFE72B686FF012021A60AB6A43F40073E4
:103C0C00AB622B689B6803F46023B3F5602F01D083
:103C1C0000209EE7287B60B9AB6A23F48073AB620B
:103C2C00AB6A13F4805F94D1AB6A43F00103AB62CF
:103C3C008FE700208DE700BF20000020244992244C
:103C4C009224491292244900499224000368D86CAA
:103C5C007047000030B482B00022019290F824200A
:103C6C00012A00F08B800346012280F824204A6848
:103C7C00062A29D80568686B02EB8202053A1F24D4
:103C8C00944020EA04000C6804FA02F202436A63CE
:103C9C000A68092A38D91D68E86802EB42021E3A04
:103CAC000724944020EA04008C6804FA02F20243D0
:103CBC00EA600A68103A012A34D90020002283F8FD
:103CCC00242002B030BC70470C2A0ED80568286B33
:103CDC0002EB8202233A1F24944020EA04000C6871
:103CEC0004FA02F202432A63D2E70568E86A02EB9F
:103CFC008202413A1F24944020EA04000C6804FA22
:103D0C0002F20243EA62C3E71D68286902EB420231
:103D1C000724944020EA04008C6804FA02F202435F
:103D2C002A61C6E71A681648824205D09A6A42F0A0
:103D3C0020029A620120C1E7906810F4000F1BD199
:103D4C00906840F4000090600A68102A01D00020AE
:103D5C00B4E70C4A12680C49A1FB0212920C02EB5C
:103D6C0082025200019202E0019A013A0192019AF8
:103D7C00002AF9D10020A1E700209FE70220A0E74C
:103D8C00002401402000002083DE1B43806A704722
:103D9C0030B583B00023019303689A6812F0010FC9
:103DAC002DD104469A6842F001029A60154B1B68AB
:103DBC00154AA2FB03239B0C0193019B1BB1019B96
:103DCC00013B0193F9E7FFF7EBF8054623689B6885
:103DDC0013F0010F11D1FFF7E3F8431B022BF5D9B8
:103DEC00A36A43F01003A362E36A43F00103E362A6
:103DFC00002384F82430012002E0002000E00020A1
:103E0C0003B030BD2000002083DE1B4390F824302B
:103E1C00012B68D010B50446012380F82430FFF73D
:103E2C00B7FF00285BD1A36A23F4407323F001038E
:103E3C0043F48073A36223682C4A934227D0A26A6E
:103E4C0022F48012A2625A6812F4806F05D0A26A22
:103E5C0022F4405242F48052A262A26A12F4805FB1
:103E6C002BD0E26A22F00602E262002284F82420BF
:103E7C006FF002021A6023689A6802F46022B2F5AD
:103E8C00602F1DD09A6842F480129A602AE0A2F545
:103E9C008062526812F4702FD1D0A26A42F4801260
:103EAC00A262134A526812F4806FD6D0A26A22F42E
:103EBC00405242F48052A262CFE70022E262D4E781
:103ECC000A4A934204D09A6842F4A0029A6009E02C
:103EDC00A2F58062526812F4702FD3D1F3E700235D
:103EEC0084F8243010BD0220704700BF0028014028
:103EFC000024014038B503689A6812F0010F01D113
:103F0C00002038BD04469A6822F001029A60FFF73F
:103F1C0047F8054623689B6813F0010F0ED0FFF796
:103F2C003FF8431B022BF5D9A36A43F01003A3629D
:103F3C00E36A43F00103E3620120E2E70020E0E7DB
:103F4C0000287BD070B50446836A002B4DD02046E8
:103F5C00FFF7D0FFA36A13F0100369D1002867D1D3
:103F6C00A26A22F4885222F0020242F00202A262F9
:103F7C006268E1690A43217B42EA4102A568B5F512
:103F8C00807F02D0012D36D01D46267D012E35D0E6
:103F9C002668716821F46941294371602568AE680F
:103FAC00274931401143A960A168B1F5807F01D048
:103FBC00012902D12369013B1B052568E96A21F41B
:103FCC0070010B43EB62236899681E4B0B409A42BD
:103FDC0025D0A36A23F0120343F01003A362E36A13
:103FEC0043F00103E362012027E0C36280F8243030
:103FFC00FEF71EF9ABE74FF48075C6E731B9A1693E
:10400C00013945EA413141F40065C1E7A16A41F04B
:10401C002001A162E16A41F00101E162B8E70023ED
:10402C00E362A36A23F0030343F00103A36204E0F9
:10403C00A36A43F01003A362012070BD01207047F6
:10404C00FDF7E1FFFE0E1FFF0F4B1A6842F0010255
:10405C001A6059680D4A0A405A601A6822F0847234
:10406C0022F480321A601A6822F480221A605A688C
:10407C0022F4FE025A604FF41F029A60044B4FF078
:10408C0000629A60704700BF001002400000FFF809
:10409C0000ED00E008B5034B1B7803B108BDFEF73B
:1040AC0085FFFBE78C0C002008B50146024B187805
:1040BC0010F083FF08BD00BF0500002008B50A46BC
:1040CC00034B1B780146184610F02CFF08BD00BFAF
:1040DC000500002008B50146024B187810F06DFF62
:1040EC0008BD00BF0600002008B50A46034B1B782C
:1040FC000146184610F016FF08BD00BF0600002050
:10410C0008B511F075F808BD08B511F04AF808BDEE
:10411C0010B514461A46234610F021FF10BD70B599
:10412C0088B004460D461646197868460FF03EFCDA
:10413C0033466A462946204610F011FF08B070BD80
:10414C0010B5C0B014468DF800008DF8011019465A
:10415C000DF102000FF01CFC044B1878A31CDBB211
:10416C006A46FD2110F0FBFE40B010BD050000209A
:10417C0038B505460024AC4205D20520FEF716FFE3
:10418C000134A4B2F7E738BD08B50146024B1878E4
:10419C0010F06FFD08BD00BF3C0D002008B50A46AD
:1041AC000146024B187810F041FD08BD3C0D002073
:1041BC0008B5FEF7FBFE08BD08B50146402011F01E
:1041CC00F8F908BD08B50146282011F03EFA0F4B4E
:1041DC0018600F4AA2FB0013DB0803EB8303A2FB5E
:1041EC000312A0EB430000EB80000A4BA3FB001072
:1041FC00400900EBD20000EB8000C0EB0010A3FBE9
:10420C0000304009044B186008BD00BF180A00209C
:10421C00CDCCCCCC1F85EB51200A002008B50A462A
:10422C0001464A2011F03DFA08BD0000024A1378FD
:10423C0023EA000313707047620A0020024B1A78BD
:10424C0010431870704700BF620A0020014B1878A9
:10425C00704700BF620A002008B5072807D8042859
:10426C000BD2032802D85220FFF728FF08BD0828DC
:10427C00FCD15720FFF722FFF8E75D20FFF71EFF68
:10428C00F4E7F8B505460C4617465320FFF70CFF2C
:10429C0000F03F065E20FFF707FF00F03F0104F03F
:1042AC003F04082D0ED8DFE805F0050E19242F3732
:1042BC00424D580031465320FFF700FF2146532052
:1042CC00FFF7FCFEF8BD46F040015320FFF7F6FE69
:1042DC0044F040015320FFF7F1FEF3E746F0800174
:1042EC005320FFF7EBFE44F080015320FFF7E6FE6E
:1042FC00E8E746F0C0015320FFF7E0FE44F0C001B0
:10430C005320FFF7DBFEDDE75E20FFF7D7FE2146EB
:10431C005E20FFF7D3FED5E741F040015E20FFF7AA
:10432C00CDFE44F040015E20FFF7C8FECAE741F025
:10433C0080015E20FFF7C2FE44F080015E20FFF793
:10434C00BDFEBFE741F0C0015E20FFF7B7FE44F0B1
:10435C00C0015E20FFF7B2FEB4E721465820FFF7FC
:10436C00ADFE07F01F015920FFF7A8FEAAE738B5EC
:10437C00CCB2090A090101F07001D5B2C2F30222D4
:10438C00072810D804281DD203280BD81143542019
:10439C00FFF794FE21465520FFF790FE2946562044
:1043AC00FFF78CFE38BD0828FCD111435A20FFF7CB
:1043BC0085FE21465B20FFF781FE29465C20FFF736
:1043CC007DFEEFE711435F20FFF778FE214660206A
:1043DC00FFF774FE29466120FFF770FEE2E700004C
:1043EC0070B505460C4614F8016B1021FD20FFF743
:1043FC0065FE2946FE20FFF761FE044B1878234624
:10440C003246FF21FFF784FE70BD00BF050000207F
:10441C0030B583B004468DF807200D787021FD204F
:10442C00FFF74CFE2146FE20FFF748FE044B1878A0
:10443C000DF107032A46FF21FFF771FE03B030BDD3
:10444C000500002030B583B005461C468DF80720CA
:10445C007021FD20FFF732FE2946FE20FFF72EFECD
:10446C00044B18780DF107032246FF21FFF757FE86
:10447C0003B030BD0500002038B504460D4653206E
:10448C00FFF712FE00F03F01A40164B22143C9B250
:10449C005320FFF713FE5E20FFF706FE00F03F00EF
:1044AC000443E1B25E20FFF709FE5120FFF7FCFD4B
:1044BC0015F0080F01D100F0F70020F0070040B212
:1044CC0005F00F010143C9B25120FFF7F7FD38BDCC
:1044DC0010B504465120FFF7E7FD00F0FD010CB1CB
:1044EC0041F0020141F008015120FFF7E7FD10BD3A
:1044FC0010B504466920FFF7D7FD00F00F0141EA23
:10450C000411C9B26920FFF7D9FD00215820FFF72B
:10451C00D5FD10BD072825D8DFE800F004080C10E5
:10452C0014181C20114B124A1A6070470F4B114A79
:10453C001A6070470D4B104A1A6070470B4B0F4AAC
:10454C001A607047094B0E4A1A607047074B0D4AA8
:10455C001A607047054B0C4A1A607047034B0B4AA4
:10456C001A607047014B094A1A6070476C0A0020A8
:10457C00D0A40108E8A40108DCA40108F4A40108F3
:10458C00B8A40108ACA40108C4A4010828A501081A
:10459C0070B48C6884420FDB9D681E68AD1B0B6881
:1045AC00E41A18D0C01A05FB00F595FBF4F434445A
:1045BC001460012070BC70475D689E68AD1B4B6831
:1045CC001B1B0AD0001B05FB00F595FBF3F53544CE
:1045DC0015600120EEE70020ECE70020EAE7000080
:1045EC0008B54138932800F2E080DFE800F086DE61
:1045FC00DEDEDEDEDEDEDEDEDEDEDEDEDEDEDEDECF
:10460C00DE9ADEDEDEDEDEDEDEDEDEDEDECACEDA2A
:10461C00DEDEDEDEDEDEDEDEDEDEDEDEDEDEDEDEAE
:10462C00DEDEDEDEDEDEDEDEDEDEDEDEDEDEDEDE9E
:10463C00DEDEDEDEDEDEDEDEDEDEDEDEDEDEDEDE8E
:10464C00DEDE4A4E52DE565ADE5EDEDEDEDEDEDEBA
:10465C00DEDEDEDEDEDEDEDEDEDEDEDEDEDEDEDE6E
:10466C00DEDEDEDEDE66626A6E767A7E82DE8A8E62
:10467C009296DEAAAEDEB272DEDE9EA2A6B6BABEFE
:10468C00C2C61220FFF73CFD90E01320FFF738FD67
:10469C008CE01420FFF734FD88E01720FFF730FD85
:1046AC0084E01620FFF72CFD80E01820FFF728FD92
:1046BC007CE0A320FFF724FD78E0A020FFF720FD8D
:1046CC0074E0A420FFF71CFD70E0AC20FFF718FD90
:1046DC006CE0AD20FFF714FD68E0BF20FFF710FD84
:1046EC0064E02020FFF70CFD60E02120FFF708FDBF
:1046FC005CE02220FFF704FD58E02020FFF700FDCE
:10470C0054E0A520FFF7FCFC50E0A620FFF7F8FCD6
:10471C004CE0A720FFF7F4FC48E0A820FFF7F0FCE2
:10472C0044E01920FFF7ECFC40E0BC20FFF7E8FC6C
:10473C003CE0BD20FFF7E4FC38E0BE20FFF7E0FCD6
:10474C0034E0A220FFF7DCFC30E0AE20FFF7D8FC11
:10475C002CE0AA20FFF7D4FC28E0C020FFF7D0FC07
:10476C0024E0C120FFF7CCFC20E0C220FFF7C8FCFE
:10477C001CE0C320FFF7C4FC18E0C420FFF7C0FC0A
:10478C0014E02320FFF7BCFC10E0094B1B78612BD5
:10479C0003D02520FFF7B4FC08E02420FFF7B0FC81
:1047AC0004E02520FFF7ACFC00E0002008BD00BFB2
:1047BC006B0A002010B584B00C4662283AD011D395
:1047CC009C280FD895280DD3953807280AD8DFE8F0
:1047DC0000F0130419091F25092B214A6B4607CA3F
:1047EC0083E807006B4603AA1E492046FFF7D0FE5C
:1047FC009DF80C0004B010BD1B4A6B4607CA83E839
:10480C000700EFE7194A6B4607CA83E80700E9E798
:10481C00174A6B4607CA83E80700E3E7154A6B465D
:10482C0007CA83E80700DDE7134A6B4607CA83E82B
:10483C000700D7E7114B1B78022B0BD0352B09D077
:10484C00362B07D0372B05D00D4A6B4607CA83E8A9
:10485C000700C7E70B4A6B4607CA83E80700C1E7A6
:10486C00480000206C090020540000203003002078
:10487C00080100203C0300203C000020090000201F
:10488C00FC000020F000002010B584B00C4662281B
:10489C0008D06B4603AA0B492046FFF779FE039814
:1048AC0004B010BD084B1B78022B05D0074A6B4691
:1048BC0007CA83E80700ECE7054A6B4607CA83E89A
:1048CC000700E6E76C09002009000020FC0000202E
:1048DC00F000002000B583B09C20FFF781FE054B53
:1048EC0001AA0549FFF754FE0198044B186003B068
:1048FC005DF804FB3C000020780900201400002027
:10490C00F8B50446622813D0012918D04FF0FF36B1
:10491C00622C16D0434B1D682E44434B1B68B3428C
:10492C0003DC414B5B68B34247DAEDB22846F8BD75
:10493C00012902D06FF00306EAE70426E8E7012616
:10494C00E6E73A4B1978032916D800216220FFF7C5
:10495C009BFF0146364B1B78022B14D0354B187835
:10496C004000053001EB0011B1F5C87F21D9324868
:10497C000AF0F4FC0026CDE73144C9B26220FFF7FF
:10498C0083FF0146E6E72B4B1B785B0005331A01CE
:10499C0001EB0313B3F5487F02D864328A4204D981
:1049AC0025480AF0DBFC0026B4E724480AF0D6FCC4
:1049BC00B0E722480AF0D2FCACE7F5B22946204613
:1049CC00FFF7F8FE0746953C072C09D8DFE804F002
:1049DC000B0410081521082601463120FFF76EFB49
:1049EC00104B1E60A2E701463220FFF767FBF7E78A
:1049FC0001463320FFF762FBF2E73420FFF754FB4C
:104A0C0040B220F03F003843C1B23420FFF756FBD0
:104A1C00E6E701464E20FFF751FBE1E7FFF75AFFAF
:104A2C00DEE700BF640A00206C0900200A000020A9
:104A3C00090000200B00002010A101081CA1010896
:104A4C0010B59620FFF7CCFDC1B29620FFF7B2FE51
:104A5C0001463120FFF732FB9720FFF7C1FDC1B2B1
:104A6C009720FFF7A7FE01463320FFF727FB952081
:104A7C00FFF7B6FDC1B29520FFF79CFE0146322030
:104A8C00FFF71CFB9920FFF7ABFDC1B29920FFF794
:104A9C0091FE04463420FFF707FB41B221F03F01A1
:104AAC002143C9B23420FFF709FB9A20FFF798FD88
:104ABC00C1B29A20FFF77EFE0446A0214B20FFF7DF
:104ACC00FDFA21464E20FFF7F9FA10BD10B53A4B0E
:104ADC001B78012B0CD0384B5B78012B21D0364B3B
:104AEC009B78012B36D0344BDB78012B4BD010BD8F
:104AFC00324B1B7853B9324C21460420FFF770FC23
:104B0C00022221460420FFF783FCF0E72D4C2146BE
:104B1C000420FFF765FC022221460420FFF778FCF5
:104B2C00E5E7264B1B7853B9254C21460A20FFF7A5
:104B3C0057FC022221460A20FFF76AFCD7E7214CDA
:104B4C0021460A20FFF74CFC022221460A20FFF7DF
:104B5C005FFCCCE7194B1B7853B9194C214610203C
:104B6C00FFF73EFC022221461020FFF751FCBEE766
:104B7C00144C21461020FFF733FC02222146102052
:104B8C00FFF746FCB3E70D4B1B7853B90C4C214691
:104B9C001620FFF725FC022221461620FFF738FCD1
:104BAC00A5E7084C21461620FFF71AFC02222146E5
:104BBC001620FFF72DFC9AE7400A00206B09002015
:104BCC0020B001081CB0010808B567480AF0C6FB04
:104BDC00664B1B78302B23D019D8042B33D9102BD0
:104BEC0018D1FFF733FB10F0A60F45D0032100209E
:104BFC00FFF742FC03210120FFF73EFC03210220BA
:104C0C00FFF73AFC03210846FFF736FC02E0602B65
:104C1C0059D001D9002008BD402B01D0502BF9D11F
:104C2C00FFF714FB10F0060F00F09080032100201A
:104C3C00FFF722FC03210120FFF71EFC03210220B9
:104C4C00FFF71AFCE6E7FFF701FB10F0A60F04D004
:104C5C000B210020FFF710FCDCE7FFF7F7FA10F050
:104C6C00800F04D101210020FFF706FCD2E70B21B5
:104C7C000020FFF701FCCDE7FFF7E8FA10F0800FFA
:104C8C0010D101210020FFF7F7FB01210846FFF7A7
:104C9C00F3FB01210220FFF7EFFB01210320FFF7BB
:104CAC00EBFBB7E703210020FFF7E6FB0321012014
:104CBC00FFF7E2FB03210220FFF7DEFB032108468E
:104CCC00FFF7DAFBA6E7FFF7C1FA10F0A60F13D037
:104CDC0003210020FFF7D0FB03210120FFF7CCFBC1
:104CEC0003210220FFF7C8FB03210846FFF7C4FB92
:104CFC001F480AF033FB8DE71E480AF02FFBFFF725
:104D0C00A5FA10F0800F10D101210020FFF7B4FBA1
:104D1C0001210846FFF7B0FB01210220FFF7ACFB95
:104D2C0001210320FFF7A8FB74E703210020FFF704
:104D3C00A3FB03210120FFF79FFB03210220FFF7B8
:104D4C009BFB03210846FFF797FB63E7012100203B
:104D5C00FFF792FB01210846FFF78EFB0121022091
:104D6C00FFF78AFB56E700BF28A10108E8070020DF
:104D7C0038A1010840A1010830B593B00446504A4F
:104D8C000EAB07CA03C31A804E4B93E803000C907A
:104D9C008DF834104C4B08AD0FCB85E80F004B4B06
:104DAC0004AD0FCB07C52B80494A01AB07CA03C31F
:104DBC001A70484B11AA48492046FFF7E9FB119895
:104DCC007D2820DC454B83FB0023C517C5EB630511
:104DDC00EBB206E012AA1A44702102F8381C013317
:104DEC00DBB20E2BF6D93D4A82FB0032C317C3EB64
:104DFC00620303EBC303C31A12AA134413F8443C13
:104E0C00154405F8383C01230E2B0BD85A1E12A959
:104E1C000A4412F8381C12AA1A4402F8281C01334E
:104E2C00DBB2F1E7632C2CD92D4AA2FB04325309D7
:104E3C0012A901EB521212F8102C8DF831206422B9
:104E4C0002FB1344E4B2274AA2FB0432D30801EB61
:104E5C00D20212F8102C8DF8322003EB8303A4EB52
:104E6C004303DBB20B4413F8103C8DF8333008A924
:104E7C005520FFF7B5FA0CA96420FFF7B1FA13B06F
:104E8C0030BD092C15D9174AA2FB0432D30812A93C
:104E9C0001EBD20212F8102C8DF8322003EB8303B5
:104EAC00A4EB4303DBB20B4413F8103C8DF8333006
:104EBC00DDE712AB1C4414F8103C8DF83330D6E708
:104ECC0048A1010854A101085CA101086CA10108CA
:104EDC007CA10108240000206C090020398EE338E5
:104EEC001F85EB51CDCCCCCCF0B589B0AA4A05AB23
:104EFC0007CA03C31A80A94B0493A94A01AB07CA7A
:104F0C0003C323F8022B120C1A70A220FFF7F8F837
:104F1C0018B9A44BDE78002E3FD009B0F0BD05EBDC
:104F2C00C50464004034E4B29F4F39462046FFF775
:104F3C0057FA022239462046FFF76AFA0135EDB2DC
:104F4C00072DECD9994B1B7808AA134413F81C1C99
:104F5C00C1F112010822C9B21046FFF792F94021A3
:104F6C000820FFF779F9924B1B78052B17D08F4A45
:104F7C00127808A90A4412F81C1C03EB830303EBF8
:104F8C008303402203EB01110820FFF7F0F9874B54
:104F9C001B78012B65D0344698E03546D0E7834B1F
:104FAC001B7808AA134413F81C1C090140228331F6
:104FBC000820FFF7DCF9EAE77C4B1B7808AA1344BE
:104FCC0013F81C0CC0F11200A50000FB04F04030DB
:104FDC00784B53F82410C0B2FFF702FAA31EDBB2D1
:104FEC00022B19D9631FDBB2022B28D96F4B1B780C
:104FFC0008AA134413F81C0CC0F1120000FB04F0B7
:10500C00403002226B4B5959C0B2FFF701FA013400
:10501C00E4B2072CD0D95BE0644B1B7808AA13448C
:10502C0013F81C0CC0F1120000FB04F040300622F7
:10503C00604B53F82410C0B2FFF7EAF9E7E75B4B7B
:10504C001B7808AA134413F81C0CC0F1120000FBC7
:10505C0004F040300422574B5959C0B2FFF7D8F92D
:10506C00D5E73446D5E7514B1B7808AA1A4412F8F9
:10507C001C0CC0F11200013B4F4A52F82330A50022
:10508C0000FB04F0403053F82410C0B2FFF7A8F92D
:10509C00A31EDBB2022B53D9631FDBB2022B65D9E3
:1050AC00424B1B7808AA1A4412F81C0CC0F11200CF
:1050BC00013B414A52F8233000FB04F040300222FD
:1050CC005959C0B2FFF7A4F90134E4B2072CCAD97C
:1050DC000620FFF7ABF81020FFF7B0F8374B1B7822
:1050EC002BB3BE2B6ED0BF2B00F09580092E40F257
:1050FC009580334AA2FB0632D30808A901EBD202F1
:10510C0012F80C2C8DF8122003EB8303A6EB43034F
:10511C00DBB20B4413F80C3C8DF81330042204A9B9
:10512C004020FFF775F904A94020FFF759F9234BEC
:10513C001B78002B79D00A210020FFF79DF9ECE6B3
:10514C001A4B1B7808AA1A4412F81C0CC0F1120056
:10515C00013B194A52F8233000FB04F04030062280
:10516C0053F82410C0B2FFF753F9ADE70F4B1B787F
:10517C0008AA1A4412F81C0CC0F11200013B0E4A8A
:10518C0052F8233000FB04F0403004225959C0B2CD
:10519C00FFF73EF998E700BF48A10108036D6D6D5C
:1051AC00905701087C0A002054AF01080800002029
:1051BC00070000206804002024A701086A0A0020C8
:1051CC00CDCCCCCC1B4B1E78632E8FD91A4AA2FBAC
:1051DC000632530908A901EB521212F80C2C8DF867
:1051EC001120642202FB1363DBB2144AA2FB0312EC
:1051FC00D10808A800EBD20212F80C2C8DF8122062
:10520C0001EB8101A3EB4103DBB2034413F80C3C2B
:10521C008DF8133082E70A4B1E78D5E708AB1E4495
:10522C0016F80C3C8DF8133078E70E210020FFF7B0
:10523C0023F972E6070000201F85EB51CDCCCCCCB6
:10524C000800002070B582B09A4B93E803000090E0
:10525C00ADF80410090C8DF80610974B1B78022B37
:10526C000ED0964B19786220FFF70EFB944B1B78EF
:10527C005B000533A0EBC303924A1360002431E0BA
:10528C008E4B19786220FFF7FFFA8D4B1B785B0071
:10529C000533A0EB03138B4A1360EFE7884E33788A
:1052AC00013B02AA134413F8080CC0F11400864DFC
:1052BC0000FB04F040302946C0B2FFF791F8337878
:1052CC00013B02AA134413F8080C04EB8403C0EB53
:1052DC008300C0B2403007222946C0B2FFF798F8CD
:1052EC000134E4B2072CD9D9754B1B78013B02AAC7
:1052FC00134413F8081CC1F114010822C9B210465A
:10530C00FEF7BFFF40210820FEF7A6FF6A4B1B7873
:10531C00023B352B22D8DFE803F01B212154214915
:10532C002121212C21212135213521352C2C2149DC
:10533C00213F49213F2C2C2C2149494949212154F9
:10534C00212335213F23232321544921545E5E5EC2
:10535C0040225C4B19880820FFF709F8002471E003
:10536C00584B19681831402289B20820FEF7FFFF0C
:10537C00F4E7544B19681831B82289B20820FEF7AB
:10538C00F6FFEBE74F4B196801F5D671B82289B2DD
:10539C000820FEF7ECFFE1E74A4B196801F5D471E0
:1053AC00402289B20820FEF7E2FFD7E7454B196887
:1053BC0001F5D6714FF4987289B20820FEF7D7FF29
:1053CC00CCE7404B196818314FF4987289B2082019
:1053DC00FEF7CDFFC2E73B4B1968E031402289B2A2
:1053EC000820FEF7C4FFB9E7354B1B78013B02AA36
:1053FC001A4412F8080CC0F11400344A52F8233045
:10540C0000FB04F04030042253F82410C0B2FEF725
:10541C00FFFF47E02A4B1A78531E02A9194411F8D2
:10542C00080CC0F1140000FB0420C0B2274A52F84B
:10543C0023104230012302224959C0B2FFF702F86F
:10544C000134E4B2072C45D81D4B1B78013B02AA52
:10545C001A4412F8080CC0F114001C4A52F82330FC
:10546C00A50000FB04F0403053F82410C0B2FEF746
:10547C00B7FF174B1B78002BB6D0114B1B78013B99
:10548C0002AA1A4412F8080CC0F114000F4A52F880
:10549C00233000FB04F04030062253F82410C0B235
:1054AC00FEF7B6FF0A4B1B78612BB3D0002BC7D18C
:1054BC00B0E700BF88A10108090000200A00002005
:1054CC000B0000200C00002054AF0108ACAB01080D
:1054DC006B0A00203620FEF7A9FE194B1B78022B15
:1054EC000BD007210020FEF7C7FF164B1B784BB9DA
:1054FC008020FEF7A3FE02B070BD0E210020FEF747
:10550C00BBFFF2E7012216210420FEF7BAFE182198
:10551C000420FEF7A1FE0C4C21461820FEF760FF7C
:10552C00042221461820FEF773FF4FF4C87258214D
:10553C000420FEF71CFF0F210020FEF79DFFD7E78C
:10554C00090000206B0A0020A8A3010808B5372821
:10555C0024D8DFE800F01C1C2C1C1C2C1C2C1C1C44
:10556C001C2C1C231C2C1C2C1C2C2C2C1C2C1C2CE8
:10557C002C1C2C2C2C2C1C2C2C2C2C1C1C2C1C2CAF
:10558C002C1C2C2C2C2C1C2C2C1C2C2C2C2C0B4B81
:10559C0038221A7005210020FEF76EFF074B1B788E
:1055AC00382B03D0064B1B78012B03D008BD034BC3
:1055BC001870F3E7FFF746FEF8E700BF090000207C
:1055CC007C0B002008B5044809F0C8FE03491820DC
:1055DC00FEF706FF08BD00BF90A10108C0A301089B
:1055EC0070B5284809F0BAFE022221210820FEF7E6
:1055FC0048FE40210820FEF72FFE4FF4E6724421AE
:10560C000820FEF7B4FE00240FE004EB44154035EF
:10561C00EDB21D4E31462846FEF7E2FE022231461F
:10562C002846FEF7F5FE0134E4B2012CEDD9174CF7
:10563C0021464020FEF7D4FE042221464020FEF7EE
:10564C00E7FE134C21466120FEF7CAFE04222146D8
:10565C006120FEF7DDFED620FEF7E8FDB920FEF74F
:10566C00BFFF48B90321FEF707FF2020FEF7E6FD38
:10567C00084B01221A7070BD07210020FEF7FCFEBA
:10568C00F3E700BFA8A10108C8AF0108A0AF01084B
:10569C00A4AF0108690A002010B5404B1B78012B00
:1056AC0002D0012B41D010BD3D4A12781AB13D4AAF
:1056BC001278382AF5D1012202210820FEF7E1FDEB
:1056CC0040210820FEF7C8FD1B2230210820FEF7E0
:1056DC004EFE354B1B78012B17D0344C2146402005
:1056EC00FEF77EFE022221464020FEF791FE0620A8
:1056FC00FEF79CFDB920FEF773FF88B90321FEF776
:10570C00BBFE0820FEF79AFDCDE7294C2146402030
:10571C00FEF766FE022221464020FEF779FEE6E700
:10572C0007210020FEF7A8FEEBE70122022106204C
:10573C00FEF7A7FD2C210620FEF78EFD1B4C214603
:10574C002C20FEF74DFE022221462C20FEF760FE97
:10575C001B2230210620FEF70AFE164B1B78002B6D
:10576C00A1D1154B1B78002B9DD101220A210420BD
:10577C00FEF787FD18210420FEF76EFD0F4C214625
:10578C001820FEF72DFE072221461820FEF740FEBA
:10579C007722AD210420FEF7EAFD84E7780E002085
:1057AC007C0B002009000020E00A0020ECAF01086F
:1057BC0018B00108E30A0020B40C002028A5010849
:1057CC0010B5294B1B78002B42D0284B1B78012B92
:1057DC0012D0022B1BD0032B24D0042B2DD0052B45
:1057EC0040D1234C21460320FEF7FAFD042221462A
:1057FC000320FEF70DFE35E01E4C21460320FEF77C
:10580C00EFFD042221460320FEF702FE2AE01A4C8B
:10581C0021460320FEF7E4FD042221460320FEF777
:10582C00F7FD1FE0154C21460320FEF7D9FD04229D
:10583C0021460320FEF7ECFD14E0114C2146032019
:10584C00FEF7CEFD042221460320FEF7E1FD09E020
:10585C000C4C21460320FEF7C3FD042221460320F5
:10586C00FEF7D6FD10BD00BFE30A0020E40A0020BD
:10587C0028B0010834B0010838B0010824B0010880
:10588C002CB0010830B001082DE9F04F83B004466C
:10589C008846174600260196B346B44A1578C5F3D8
:1058AC00400905F00105042B14DCB14B1B78002BCF
:1058BC0000F0AC81012B09D04FF0E00B4FF4BA7320
:1058CC0001934FF01B0A4FF4DF76A2E14FF0250A4B
:1058DC00F4269EE1B246102B11D0502B66D0302B03
:1058EC0000F0A980402B00F0EB80602B00F02A81A7
:1058FC00702B00F055814FF0400AE02689E190B9F9
:10590C009B4B1B78002B00F0C981012B07D04FF06B
:10591C00630BAD2301934FF01B0AF82679E14FF08E
:10592C00250AF42675E1012812D0022826D0904BC6
:10593C001B78002B00F0BF81012B32D04FF4AA7BD7
:10594C0040F2412301934FF4867A4FF4237660E1C1
:10595C00874B1B78002B00F0A581012B09D04FF051
:10596C00630B40F2412301934FF01B0A4FF4237653
:10597C004FE14FF0250A40F276364AE17C4B1B781A
:10598C00002B00F09481012B07D04FF4AA7BAD23A0
:10599C0001934FF4867AF8263BE140F2911AF426F3
:1059AC0037E140F2911A40F2763632E1A0B9704BF1
:1059BC001B78002B00F08481012B09D04FF0630B76
:1059CC004FF4BA7301934FF01B0A4FF4DF7620E1CA
:1059DC004FF0250AF4261CE1012813D0022840F0D0
:1059EC001881634B1B78002B00F07381012B1DD0A9
:1059FC004FF4AA7B40F2412301934FF4867A4FF483
:105A0C00237606E15A4B1B78002B00F05D81012BAD
:105A1C0007D04FF4AA7BAD2301934FF4867AF82676
:105A2C00F7E04FF0250A40F27636F2E040F2911A98
:105A3C0040F27636EDE090B94D4B1B78002B00F020
:105A4C004D81012B07D04FF0DF0BAD2301934FF0AD
:105A5C001B0AF826DDE04FF0250AF426D9E00128D0
:105A6C0013D0022840F0D580414B1B78002B00F05E
:105A7C003E81012B1FD04FF4AA7B40F241230193AE
:105A8C004FF4867A4FF42376C3E0394B1B78002B06
:105A9C0000F02881012B09D04FF0630B40F2412319
:105AAC0001934FF01B0A4FF42376B2E04FF0250A16
:105ABC0040F27636ADE040F2911A40F27636A8E02C
:105ACC00A8B92B4B1B78002B00F01681012B09D0A9
